:020000040800F2
:10000000A0070020214D00081D3200081F32000803
:1000100023320008273200082B32000800000000BD
:100020000000000000000000000000002F32000867
:100030003132000800000000333200083532000879
:100040003B4D00083B4D00083B4D00083B4D000870
:100050003B4D00083B4D00083B4D0008DB4B0008C2
:100060003B4D00083B4D00083B4D00083B4D000850
:100070003B4D00083B4D00083B4D00083B4D000840
:100080003B4D00083B4D00083B4D00083B4D000830
:100090003B4D00083B4D00083B4D00083B4D000820
:1000A0003B4D00083D4B00083B4D00083B4D000810
:1000B0003B4D0008C9280008D92800083B4D00081E
:1000C0003B4D00083B4D00083B4D00083B4D0008F0
:1000D0003B4D00083B4D00083B4D00083B4D0008E0
:1000E0003B4D00083B4D00083B4D0008DFF80CD0AD
:1000F00008F082F90048004781260008A007002088
:1001000031490143314A1160704770B50021002325
:100110000F22C47804B32D4C246804F4E064C4F5C1
:10012000E064210AC1F10403CA40447804FA03F1EF
:100130008478144021430901254C0678A1550478A0
:1001400004F01F050124AC4005786D11AD0005F1E8
:10015000E025C5F8004109E0047804F01F050124FA
:10016000AC401C4D0678761145F8264070BD1A4A01
:100170000A400243154B1B1F1A60704739B1134ADE
:10018000121D12680243114B1B1D1A6006E00F4A34
:10019000121D126882430D4B1B1D1A607047042804
:1001A00008D14FF0E021096941F004014FF0E0224D
:1001B000116107E04FF0E021096921F004014FF0DF
:1001C000E0221161704700000000FA050CED00E02C
:1001D00000E400E080E100E080FFFF1F00204449D0
:1001E0000860091D0860091D0860091D0860414874
:1001F0003F4914310860704700213D498279002A47
:100200003AD00A46126803689A430B461A600A1DE0
:10021000126803689A430B1D1A60027911440A6838
:1002200003681A430A60324A0832126803689A4324
:100230002F4B08331A601A1D126803689A432C4B1F
:100240000C331A604279102A0ED11A1F1268036803
:100250001A43274B08331A601A1D126803681A43A1
:10026000234B0C331A600DE02149427911440A688E
:1002700003681A430A6005E0027911440A680368BA
:100280009A430A6070470021016001710C2141719D
:100290000021817170471649103109680143144AE1
:1002A00010321160704701460020114A1432126862
:1002B0000A400AB1012000E0002070470C491431C7
:1002C00008607047014600200022094B1B6803EAC2
:1002D0000102074B14331B680B4013B10AB1012014
:1002E00000E00020704702491431086070470000A8
:1002F00000040140FFFF0F0010B50446CC488442C3
:1003000008D10121042000F02DFB0021042000F081
:1003100029FB46E0C748844208D10121082000F0AB
:1003200021FB0021082000F01DFB3AE0C248844276
:1003300008D10121102000F015FB0021102000F051
:1003400011FB2EE0BD48844208D10121202000F09D
:1003500009FB0021202000F005FB22E0B848844280
:1003600008D10121402000F0FDFA0021402000F0DA
:10037000F9FA16E0B348844208D10121802000F048
:10038000F1FA0021802000F0EDFA0AE0AE48844244
:1003900007D10121801500F0E5FA0021A01500F039
:1003A000E1FA10BD10B50121084600F0DBFA00218A
:1003B000012000F0D7FA10BD2DE9F04102460025DA
:1003C0000026002000230024002791F803C00CF031
:1003D0000F0591F803C00CF0100CBCF1000F03D016
:1003E00091F802C04CEA050591F800C0BCF1000F7D
:1003F00031D0146800202BE04FF0010C0CFA00F310
:10040000B1F800C00CEA03069E4220D183004FF0F1
:100410000F0C0CFA03F7BC4305FA03FC4CEA040486
:1004200091F803C0BCF1280F06D14FF0010C0CFA73
:1004300000FCC2F814C00AE091F803C0BCF1480FF8
:1004400005D14FF0010C0CFA00FCC2F810C0401CA2
:100450000828D1D31460B1F800C0BCF1FF0F34DD1F
:10046000546800202EE000F1080C4FF0010808FA53
:100470000CF3B1F800C00CEA03069E4221D18300C0
:100480004FF00F0C0CFA03F7BC4305FA03FC4CEADF
:10049000040491F803C0BCF1280F05D100F1080C49
:1004A00008FA0CF8C2F8148091F803C0BCF1480FA8
:1004B00007D100F1080C4FF0010808FA0CF8C2F857
:1004C0001080401C0828CED35460BDE8F0814FF660
:1004D000FF710180022181700421C17070470246C2
:1004E000002093680B400BB1012000E00020704712
:1004F0000146886880B2704702460020D3680B40EE
:100500000BB1012000E0002070470146C86880B2AE
:10051000704701617047416170470AB1016100E0B5
:1005200041617047C16070474FF480320A43826175
:100530008161826182698269704702460020434B73
:1005400018684FF68073184040EA021008433F4B8A
:10055000186070473E49C8617047F0B50A460023ED
:1005600000240021002500F00046B6F1004F02D122
:10057000364EF16901E0354E7168C0F3034583B230
:1005800000F44016B6F5401F08D121F070612F4EDF
:10059000766826F070662D4F7E6012E000F48016BB
:1005A000B6F5801F06D1032606FA05F4A14341F0F3
:1005B000706106E0460D360103FA06F6B14341F0DC
:1005C000706122B1460D360103FA06F6314300F0A0
:1005D0000046B6F1004F02D11C4EF16101E01B4E06
:1005E0007160F0BD30B500228B071C0F0F2303FA9A
:1005F00004F2164B08338C1053F824309343134CF9
:1006000008348D1044F8253023468C1053F82430DC
:100610008C07240F00FA04F423430C4C08348D108B
:1006200044F8253030BD0A49DC31086070470000CD
:1006300000080140000C014000100140001401407E
:1006400000180140001C0140002001400000014052
:1006500000002042DF48006840F00100DD490860EA
:1006600008464068DC490840DA49486008460068A6
:10067000DA490840D74908600846006820F480201D
:1006800008600846406820F4FE0048604FF41F00F0
:1006900088607047CF49096821F48031CD4A1160E4
:1006A0001146096821F480211160B0F5803F03D024
:1006B000B0F5802F0ED106E0C649096841F48031BB
:1006C000C44A116007E0C349096841F4A021C14A46
:1006D000116000E000BF00BF704710B50146002266
:1006E000002300204A11012A02D1BA4C236806E0F7
:1006F000022A02D1B74C236A01E0B64C636A01F0CA
:100700001F02012494401C400CB1012000E0002095
:1007100010BD38B5002000900024002500BF312016
:10072000FFF7DBFF05460098401C00900098B0F5ED
:10073000A06F01D0002DF2D03120FFF7CEFF08B11D
:10074000012400E00024204638BD01460020A14AD3
:10075000106820F0F80040EAC10010607047A0491E
:1007600008607047024600209A4B586820F47C10BD
:1007700042EA01031843974B58607047984908664E
:10078000704701460020934A506820F00300084358
:10079000506070478F48406800F00C007047014679
:1007A00000208C4A506820F0F000084350607047E9
:1007B00001460020874A506820F4E06008435060FA
:1007C000704701460020834A506820F4605040EA98
:1007D000C1005060704729B17E4A527A02437D4B76
:1007E0005A7204E07B4A527A82437A4B5A727047BB
:1007F0007B49D8310860704701460020754A50682F
:1008000020F440400843506070470021714A203274
:100810001170704A82F82010012802D004280AD1F1
:1008200004E001216B4A2032117005E00521694A7C
:100830002032117000E000BF00BF704769490860B6
:1008400070476449096A0143624A11627047654909
:1008500044390860704730B500210022002400238D
:100860005C4D6D6805F00C0121B1042905D0082903
:1008700023D105E05C4D056022E05B4D05601FE083
:10088000544D6D6805F47012524D6D6805F4803456
:10089000022505EB92421CB9544D554305600BE00F
:1008A0004C4D6D6805F400351DB1504D5543056044
:1008B00002E04D4D5543056002E04B4D056000BF21
:1008C00000BF444D6D6805F0F0010909484D6B5CAF
:1008D0000568DD4045603F4D6D6805F4E061090A3B
:1008E000434D6B5C4568DD4085603A4D6D6805F4AD
:1008F0006051C90A3E4D6B5C4568DD40C560354DB1
:100900006D6805F44041890B3A4D6B5CC568B5FBD9
:10091000F3F5056130BD29B12E4A526902432D4BD2
:100920005A6104E02B4A526982432A4B5A6170474C
:1009300029B1284A92690243264B9A6104E0254A6C
:1009400092698243234B9A61704729B1214AD26947
:100950000243204BDA6104E01E4AD26982431D4BF8
:10096000DA61704729B11B4AD2680243194BDA6039
:1009700004E0184AD2688243164BDA60704729B106
:10098000144A12690243134B1A6104E0114A1269B6
:100990008243104B1A617047124940390860704712
:1009A0000F49C86470470B49C87170470948406ACD
:1009B00040F0807007494862704701460020054AB0
:1009C00092680A400AB1012000E000207047014906
:1009D00088727047001002400000FFF8FFFFF6FE2B
:1009E000000042428004424200127A0000093D00A9
:1009F000000000201000002010B50446FE4884428C
:100A000008D10121C014FFF7ADFF0021E014FFF76A
:100A1000A9FFC4E0B4F1804F08D101210846FFF7D7
:100A2000AEFF00210120FFF7AAFFB8E0F34884429F
:100A300008D101210220FFF7A2FF00210220FFF7C9
:100A40009EFFACE0EE48844208D101210420FFF76C
:100A500096FF00210420FFF792FFA0E0E9488442BE
:100A600008D101210820FFF78AFF00210820FFF7A5
:100A700086FF94E0E448844208D101211020FFF76A
:100A80007EFF00211020FFF77AFF88E0DF488442D4
:100A900008D101212020FFF772FF00212020FFF75D
:100AA0006EFF7CE0DA48844208D101214014FFF750
:100AB00059FF00216014FFF755FF70E0D5488442CC
:100AC00009D10121C804FFF74DFF00214FF4002098
:100AD000FFF748FF63E0D048844209D101210805AF
:100AE000FFF740FF00214FF48010FFF73BFF56E077
:100AF000CA48844209D101214805FFF733FF00218C
:100B00004FF40010FFF72EFF49E0C548844208D19A
:100B100001214020FFF733FF00214020FFF72FFF86
:100B20003DE0C048844208D101218020FFF727FF23
:100B300000218020FFF723FF31E0BB48844208D129
:100B400001218015FFF71BFF0021A015FFF717FFFC
:100B500025E0B648844209D101210804FFF702FFCD
:100B600000214FF48030FFF7FDFE18E0B0488442CA
:100B700009D101214804FFF7F5FE00214FF40030B0
:100B8000FFF7F0FE0BE0AB48844208D10121880456
:100B9000FFF7E8FE00214FF48020FFF7E3FE10BDD1
:100BA00000220288944B98420ED0994B98420BD069
:100BB000B0F1804F08D0914B984205D0904B9842AD
:100BC00002D0904B984204D14FF68F731A404B8855
:100BD0001A438D4B984207D08C4B984204D04FF665
:100BE000FF431A40CB881A4302808B8883850B8889
:100BF0000385814B98420BD0854B984208D08B4B94
:100C0000984205D08A4B984202D08A4B984201D133
:100C10000B7A038601238382704770B5002400227B
:100C20000023058C4FF6FE7635400584028C8388C0
:100C3000048B4FF68F752C40B51E2C400D882C432D
:100C4000751E2A400D892A434D882A436A4DA842C1
:100C50000BD06F4DA84208D0744DA84205D0744DFA
:100C6000A84202D0734DA84213D14FF6F7752A401F
:100C70004D892A434FF6FB752A408D882A434FF64B
:100C8000FF652B404FF6FF552B408D892B43CD89B7
:100C90002B4383800483CD888586028470BD70B524
:100CA000002400220023058C4FF6EF7635400584A2
:100CB000028C8388048B48F6FF752C404FF6FF4565
:100CC0002C400D884FF6FF7606EA05252C434FF69B
:100CD000DF752A400D8906EA05152A434D8806EA84
:100CE00005152A43444DA84202D0494DA8421DD1C2
:100CF0004FF67F752A404D894FF6FF7606EA0515B7
:100D00002A434FF6BF752A408D8806EA05152A4307
:100D10004FF6FF352B404FF2FF752B408D8906EAC9
:100D200085052B43CD8906EA85052B438380048303
:100D3000CD880587028470BD70B500240022002391
:100D4000058C4FF6FF6635400584028C8388848BC2
:100D50004FF68F752C404FF6FC752C400D882C43B8
:100D60004FF6FF552A400D894FF6FF7606EA052516
:100D70002A434D8806EA05252A431F4DA84202D082
:100D8000234DA8421DD14FF2FF752A404D894FF6E1
:100D9000FF7606EA05252A434FF6FF352A408D885F
:100DA00006EA05252A434EF6FF752B404DF6FF75E2
:100DB0002B408D8906EA05152B43CD8906EA0515DA
:100DC0002B4383808483CD888587028470BD70B572
:100DD000002200230024058C4EF6FF763540058462
:100DE000038C8488828B48F6FF752A404FF6FF45B6
:100DF0002A400D8820E00000002C01400004004043
:100E000000080040000C00400010004000140040AA
:100E100000340140004C01400050014000540140AA
:100E200000180040001C004000200040004001402D
:100E300000440140004801404FF6FF7606EA0525D0
:100E40002A434DF6FF752B400D8906EA05352B43E5
:100E50004D8806EA05352B43FA4DA84202D0FA4DDB
:100E6000A84208D14BF6FF752C408D894FF6FF76CE
:100E700006EA85152C4384808283CD88A0F84050F3
:100E8000038470BD828B4FF2FF331A408283828BC2
:100E90004FF6FF7303EA01231A4382837047F0B5CC
:100EA0000C461546002200210026078C4EF6FF7CDA
:100EB00007EA0C070784828B018C4FF6FF7707EA5D
:100EC000043640F6FF473A404FF6FF7707EA05271A
:100ED0003A434FF6FF7707EA03373A43D94FB84210
:100EE0000ED0D94FB8420BD0B0F1804F08D0D74FB9
:100EF000B84205D0D64FB84202D0D64FB84206D13C
:100F00004DF6FF77394046F48057394305E047F600
:100F1000FF57394044F48057394382830184F0BD40
:100F2000828B4FF6F3731A408283828B0A4382834B
:100F30007047F0B50C461546002200210026078CAC
:100F40004FF6FF6C07EA0C070784828B018C4FF683
:100F5000FF7707EA04264FF60C773A404FF6FF7703
:100F600007EA03172F433A43B64FB8420ED0B64FA5
:100F7000B8420BD0B0F1804F08D0B44FB84205D082
:100F8000B34FB84202D0B34FB84206D14FF6FF5725
:100F9000394046F48077394305E04FF2FF57394036
:100FA00044F48077394382830184F0BD028B4FF291
:100FB000FF331A400283028B4FF6FF7303EA0123CB
:100FC0001A4302837047F0B50C46154600220021F3
:100FD0000026078C4FF6EF7C07EA0C070784028B8C
:100FE000018C4FF6FF7707EA041640F6FF473A40B8
:100FF0004FF6FF7707EA03373A434FF6FF7707EAE2
:1010000005273A438F4FB8420ED08F4FB8420BD0CE
:10101000B0F1804F08D08D4FB84205D08C4FB84208
:1010200002D08C4FB84206D14FF6DF77394046F0F8
:101030001007394305E04FF65F77394044F0100759
:10104000394302830184F0BD028B4FF6F3731A40DB
:101050000283028B0A4302837047F0B50C461546A3
:1010600000220021068C4FF6FE773E400684028B5C
:10107000018C4FF60C7632407E1C06EA03162E4396
:101080003243704EB0420ED06F4EB0420BD0B0F132
:10109000804F08D06D4EB04205D06D4EB04202D0A8
:1010A0006C4EB04206D14FF6FD76314044F0010659
:1010B000314305E04FF6F576314044F00106314307
:1010C00002830184F0BD70B505460C465D4885423B
:1010D0000ED05D4885420BD0B5F1804F08D05B48FB
:1010E000854205D05A48854202D05A48854200D1EF
:1010F00000E000BF208850B92389A2886188284673
:10110000FFF7ABFFE1882846FFF79EFF25E0208828
:1011100004280AD12389A28861882846FFF753FF53
:10112000E1882846FFF742FF17E0208808280AD107
:101130002389A28861882846FFF7FBFEE1882846BC
:10114000FFF7EEFE09E02389A28861882846FFF7B1
:10115000A6FEE1882846FFF795FE70BD2DE9F04117
:1011600005460C4600260127608808B9022600E0E3
:101170000026A088012801D1022700E0012720884D
:10118000A0B92389A28861882846FFF766FFE18815
:101190002846FFF759FF23893A4631462846FFF78C
:1011A00012FFE1882846FFF701FF13E02389A28898
:1011B00061882846FFF707FFE1882846FFF7F6FE1B
:1011C00023893A4631462846FFF747FFE1882846FB
:1011D000FFF73AFFBDE8F0810A884B881A438B88F5
:1011E0001A43CB881A430B891A434B891A438B89BC
:1011F0001A43A0F8442070474FF6FF718180002108
:101200000180C180418001727047002101804180CE
:101210008180C180018141818181C181704700212C
:1012200001804180012181800021C18001817047BE
:101230000021018041808180C180018141818181C3
:1012400070470000002C01400034014000040040C1
:1012500000080040000C004021B1028842F0010269
:10126000028004E002884FF6FE731A400280704745
:1012700031B1B0F8442042F40042A0F8442005E027
:10128000B0F84420C2F30E02A0F8442070471AB10F
:1012900083890B43838102E083898B438381704779
:1012A0008182704741EA0203A0F8483070471AB1C2
:1012B00083890B43838102E083898B438381704759
:1012C00001894FF6F8721140018170470A460021EA
:1012D00001894FF68F73194011430181704730B572
:1012E00004460D4629462046FFF7F0FF208940F0CE
:1012F0000700208130BD2DE9F04104460D46164619
:101300001F46602D06D13B46012231462046FFF79D
:101310005AFE05E03B46012231462046FFF79DFE7E
:1013200029462046FFF7D2FF208940F007002081A0
:10133000BDE8F08130B50C4600210189C9B24FF6F5
:10134000FF7505EA0325154325432943018130BD77
:101350002DE9F04105460E461746984600244346BF
:101360003A4631462846FFF7E5FF2C894FF6F870DC
:10137000044044F007044FF68F70044044F07004BA
:101380002C81BDE8F081F0B504460D4616461F4697
:101390003B46324629462046FFF7CCFF208940F4E1
:1013A00080402081F0BD0185828270470A4600217D
:1013B00001884FF68F731940114301807047F0B5D3
:1013C0000C4615461E460021002200230189028B8F
:1013D000038C4FF6F877394021434FF6FC473A40EB
:1013E00040F201173A434FF6DD773B404FF6FF7767
:1013F00007EA06172F433B43018102830384F0BDB4
:101400000A460021018B4FF68F7319401143018367
:1014100070470A460021018B48F6FF7319404FF6CA
:10142000FF7303EA02231943018370470A46002130
:10143000818B4FF68F7319401143818370470A46A1
:101440000021818B48F6FF7319404FF6FF7303EAC2
:10145000022319438183704721B1028842F0800240
:10146000028004E002884FF67F731A4002807047C2
:1014700021B1828842F00402828004E082884FF623
:10148000FB731A408280704721B1828842F00802C3
:10149000828004E082884FF6F7731A40828070479A
:1014A00021B1828842F00102828004E082884FF6F6
:1014B000FE731A40828070470A460021018B4FF666
:1014C000F77319401143018370470A460021018BCD
:1014D0004FF2FF7319404FF6FF7303EA02231943DB
:1014E000018370470A460021818B4FF6F77319403C
:1014F0001143818370470A460021818B4FF2FF73AD
:1015000019404FF6FF7303EA0223194381837047A2
:101510000A460021018B4FF6FB73194011430183EA
:1015200070470A460021018B4FF6FF3319404FF6F2
:10153000FF7303EA02231943018370470A4600211F
:10154000818B4FF6FB7319401143818370470A4624
:101550000021818B4FF6FF3319404FF6FF7303EAEA
:1015600002231943818370470A460021018B4FF6FD
:101570007F7319401143018370470A460021018B94
:10158000C1F30E014FF6FF7303EA022319430183EF
:1015900070470A460021818B4FF67F731940114333
:1015A000818370470A460021818BC1F30E014FF6FB
:1015B000FF7303EA02231943818370470A4600211F
:1015C000018C4FF6FD7319401143018470470A46A0
:1015D0000021018C4FF6F7731940114301847047C5
:1015E0000A460021018C4FF6DF7319404FF6FF7356
:1015F00003EA02131943018470470A460021018C53
:101600004FF67F7319404FF6FF7303EA0213194335
:10161000018470470A460021018C4FF6FF531940A0
:101620004FF6FF7303EA02231943018470470A4609
:101630000021018C4FF2FF7319404FF6FF7303EA4C
:1016400002231943018470470A460021018C4DF69C
:10165000FF7319404FF6FF7303EA02331943018405
:10166000704730B5002301248C40A3B2048C9C4306
:101670000484048C02FA01F5ADB22C43048430BD1D
:1016800030B5002304248C40A3B2048C9C43048412
:10169000048C02FA01F5ADB22C43048430BD70B560
:1016A0000346002000241846183001258D40ACB2B6
:1016B0001D8CA5431D8409B1082909D100EB6100E7
:1016C000056825F0700505600568154305600EE0A6
:1016D0000D1FC5F34E052844056825F4E045056057
:1016E00005684FF6FF7606EA02263543056070BDB1
:1016F00021B1028842F00202028004E002884FF623
:10170000FD731A400280704721B1028842F0040242
:10171000028004E002884FF6FB731A400280704793
:1017200021B1828842F08002828004E082884FF6F4
:101730007F731A408280704702884FF6F7731A4011
:10174000028002880A430280704782884FF68F73B6
:101750001A40828082880A438280704702894FF64D
:10176000F8731A40028102890A4302817047028994
:101770004FF67F731A40028102890A430281704743
:1017800081847047818570478186704701877047E3
:1017900081877047A0F84010704702884FF6FF43DA
:1017A0001A40028002880A43028070470146888EF0
:1017B00070470146088F70470146888F7047014681
:1017C000B1F8400070470146888C70470146088D8B
:1017D000704702460020138A0B400BB1012000E045
:1017E00000207047CA430282704730B5024600208D
:1017F00000230024158A05EA0103958905EA0104FE
:1018000013B10CB1012000E0002030BDCA430282B8
:101810007047000010B50446FB48844209D10121FD
:101820008803FFF79FF800214FF48040FFF79AF8F4
:1018300032E0F648844209D101214804FFF79FF8BD
:1018400000214FF40030FFF79AF825E0F048844279
:1018500009D101218804FFF792F800214FF480207C
:10186000FFF78DF818E0EB48844209D10121C80444
:10187000FFF785F800214FF40020FFF780F80BE018
:10188000E548844208D101210805FFF778F80021D6
:101890004FF48010FFF773F810BD2DE9F04786B0C4
:1018A00005460E460024A24600BFA1460027B08987
:1018B00000B100BF2F462C8A4CF6FF700440F08820
:1018C00004432C82AC894EF6F3100440B088318971
:1018D0000843718908430443AC81AC8A4FF6FF404A
:1018E0000440B0890443AC8201A8FEF7B4FFC648A7
:1018F000874202D1DDF810A001E0DDF80CA0A88934
:1019000000F4004040B10AEBCA0000EB0A10316855
:101910004900B0FBF1F807E00AEBCA0000EB0A103F
:1019200031688900B0FBF1F86420B8FBF0F00401E5
:101930002009642101FB1089A88900F4004040B10E
:10194000322000EBC900B0FBF1F000F007000443C7
:1019500008E0322000EB09106421B0FBF1F000F048
:101960000F0004432C8106B0BDE8F0874FF41651F8
:10197000016000218180C18001810C214181002111
:101980008181704710B502460020108A4FF2FF0394
:1019900018400B884C8823438C882343CC882343EE
:1019A0001843108210BD0021018041808180C180D8
:1019B000704721B1828942F40052828104E0828919
:1019C0004DF6FF731A4082817047F0B5034600243C
:1019D00000260025002040F66A17B94200D100BF5A
:1019E0001846C1F3421401F01F06012707FA06F555
:1019F000012C01D10C3004E0022C01D1103000E0A8
:101A000014301AB107682F43076002E00768AF433C
:101A10000760F0BD1AB1838A0B43838202E0838A98
:101A20008B4383827047028A4FF6F0731A4002821A
:101A3000028A0A430282704782894FF2FF731A407A
:101A4000828182890A438281704721B1828942F072
:101A50000202828104E082894FF6FD731A4082817E
:101A60007047028A4FF6DF731A400282028A0A43E5
:101A70000282704721B1028A42F48042028204E06D
:101A8000028A4BF6FF731A4002827047C1F30802C4
:101A90008280704701468888C0F3080070478189BA
:101AA00041F0010181817047028BD2B20283028B27
:101AB00042EA012202837047028B02F47F420283D2
:101AC000028B0A430283704721B1828A42F02002CE
:101AD000828204E0828A4FF6DF731A408282704766
:101AE00021B1828A42F01002828204E0828A4FF69B
:101AF000EF731A408282704721B1828A42F0080255
:101B0000828204E0828A4FF6F7731A40828270471D
:101B100021B1828942F40042828103E08289C2F3CA
:101B20000E028281704721B1828A42F40062828271
:101B300004E0828A4FF2FF731A4082827047828AE1
:101B40004FF6FB731A408282828A0A438282704770
:101B500021B1828A42F00202828204E0828A4FF638
:101B6000FD731A408282704702460020B1F5007F63
:101B700000D100BF13880B400BB1012000E0002012
:101B8000704701F40072B2F5007F00D100BFCA4374
:101B90000280704770B50246002400230025002013
:101BA00040F66A16B14200D100BFC1F3421501F000
:101BB0001F03012606FA03F3012D02D19689334053
:101BC00006E0022D02D1168A334001E0968A3340A6
:101BD0000C12012606FA04F41688344013B10CB135
:101BE000012000E0002070BD10B50022002340F667
:101BF0006A14A14200D100BF0A1201249440A3B28A
:101C0000DC43048010BD0000003801400044004067
:101C100000480040004C00400050004010B5044611
:101C2000FA48844208D101214015FEF79BFE0021AD
:101C30006015FEF797FE17E0F548844208D10121B0
:101C40000015FEF78FFE00212015FEF78BFE0BE03E
:101C5000F048844208D10121C803FEF783FE002129
:101C60004FF40040FEF77EFE10BD30B50246002066
:101C700000235068E84C20400D790C6844EA0524A4
:101C8000204350609068E54C2040D1E902542C4339
:101C90004D7944EA450420439060D06A20F47000F6
:101CA0000C7C641EE4B2234340EA0350D06230BD92
:101CB00000210160017141718160C16001210174E5
:101CC000704721B1826842F00102826003E08268BD
:101CD00022F001028260704721B1826842F4807272
:101CE000826003E0826822F480728260704710B5DF
:101CF0000023CBB21AB144681C43446002E044683C
:101D00009C43446010BD816841F0080181607047C8
:101D1000014600208A6802F008020AB1012000E0B2
:101D200000207047816841F00401816070470146DE
:101D300000208A6802F004020AB1012000E00020BD
:101D4000704721B1826842F4A002826003E0826899
:101D500022F4A00282607047014600208A6802F4E3
:101D600080020AB1012000E00020704710B50A4649
:101D700000210023416821F46041531E41EA4331B0
:101D8000416010BD21B1426842F40062426003E04C
:101D9000426822F4006242607047F0B504460D4686
:101DA00000200021092D11DDE068A5F10A0606EBEF
:101DB0004607072606FA07F18843A5F10A0606EB4F
:101DC000460603FA06F10843E0600CE0206905EBE3
:101DD0004507072606FA07F1884305EB450603FA8F
:101DE00006F108432061072A0FDA606B561E06EBE6
:101DF00086071F2606FA07F18843561E06EB86065D
:101E000005FA06F10843606322E00D2A0FDA206B21
:101E1000D61F06EB86071F2606FA07F18843D61F52
:101E200006EB860605FA06F10843206310E0E06A37
:101E3000A2F10D0606EB86071F2606FA07F1884376
:101E4000A2F10D0606EB860605FA06F10843E062EC
:101E5000F0BD21B1826842F48012826003E08268A2
:101E600022F48012826070470146C86C80B27047CD
:101E700066484C300068704721B1426842F4806285
:101E8000426003E0426822F480624260704721B100
:101E9000426842F48052426003E0426822F4805279
:101EA000426070470A460021816821F4E0411143F5
:101EB0008160704721B1826842F40042826003E091
:101EC000826822F400428260704721B1826842F445
:101ED0000212826003E0826822F40212826070477C
:101EE000014600208A6802F400120AB1012000E0D5
:101EF00000207047F0B50446154600200022002659
:101F0000092911DDE068A1F10A0707EB470C072753
:101F100007FA0CF29043A1F10A0707EB470703FA0F
:101F200007F21043E0600CE0206901EB410C072749
:101F300007FA0CF2904301EB410703FA07F2104352
:101F40002061A06BC0F30156EF1C06F1010CA7EB5A
:101F50000C0707EB870C1F2707FA0CF29043EF1CC6
:101F600006F1010CA7EB0C0707EB870701FA07F254
:101F70001043A063F0BD10B50A4600210023816B19
:101F800021F44011531E41EA0351816310BD08B58D
:101F9000002300930090009B0B440093009B1A6069
:101FA00008BD08B5024600200090009201F128000B
:101FB000009B184400900098006880B208BD0A4653
:101FC00000214168164B194011434160704741623E
:101FD000826270470A460021416821F01F011143C7
:101FE0004160704740B109490831096841F4000176
:101FF000064A0832116007E004490831096821F4F3
:102000000001024A083211607047000000240140BC
:1020100000280140003C0140FFFEF0FFFDF7F1FF0A
:10202000FFFD3FFF0246002013680B400BB101206B
:1020300000E000207047CA430260704770B5024656
:102040000020002300240B125568CEB205EA0604D6
:1020500015681D4015B10CB1012000E0002070BDD5
:1020600000220A12D3430360704700000CB5002021
:10207000019000906C48006840F480306A49086024
:1020800000BF6948006800F4003000900198401CCF
:102090000190009818B90198B0F5A06FF1D162488D
:1020A000006800F4003010B10120009001E0002031
:1020B00000900098012843D15C48006840F010006F
:1020C0005A4908600846006820F003000860084686
:1020D000006840F002000860534840685249486078
:1020E0000846406848600846406840F480604860A0
:1020F0000846406820F47C1048600846406840F478
:10210000E81048600846006840F08070086000BF32
:102110004548006800F000700028F9D04248406847
:1021200020F00300404948600846406840F0020043
:10213000486000BF3C48406800F00C000828F9D116
:102140000CBD10B5FFF792FF10BD10B53648006802
:1021500040F00100344908600846406834490840AE
:102160003149486008460068324908402E490860F5
:102170000846006820F4802008600846406820F483
:10218000FE0048604FF41F008860FFF7DAFF4FF051
:1021900000602949086010BD10B500210020002210
:1021A000214B5B6803F00C0121B1042906D00829FA
:1021B00028D107E0214B224C236027E01F4B204C05
:1021C000236023E0184B5B6803F47010164B5B68C8
:1021D00003F48032022303EB904022B9194B4343AE
:1021E000174C23600DE0104B5B6803F4003323B100
:1021F000144B4343124C236003E0104B4343104CF9
:10220000236003E00D4B0E4C236000BF00BF064B64
:102210005B68C3F303130C4CE15C094B1B68CB40B8
:10222000074C236010BD0000001002400020024057
:102230000000FFF8FFFFF6FE08ED00E000127A0054
:102240001400002000093D0018000020014605E0B0
:10225000002001E0421CD0B20A28FBDB0A1EA1F1DB
:102260000101F5D1704710B5044603E04FF47A70D0
:10227000FFF7ECFF201EA4F10104F7D110BD704759
:1022800008B50720009002E00098401E00900098DA
:102290000028F9D108BD10B54FF40070E649086078
:1022A00040100860FFF7ECFFE3480838006808B901
:1022B000012000E0002000F4007008B1002010BDF3
:1022C0004FF40070DC49091D0860FFF7D9FFDA48B8
:1022D0000838006800F4007008B10020EFE74FF400
:1022E0000070D549091D0860FFF7CAFF0120E6E725
:1022F00010B54FF48070D049091D0860FFF7C0FF8A
:102300004FF40070CC49091D0860FFF7B9FF4FF486
:102310008070C9490860FFF7B3FF4FF40070C649E9
:102320000860FFF7ADFF10BD10B54FF48070C249D3
:10233000091D0860FFF7A4FF4FF40070BE49091D96
:102340000860FFF79DFF4FF48070BB490860FFF7FE
:1023500097FF4FF48070B849091D0860FFF790FFA0
:1023600010BD10B54FF48070B349091D0860FFF728
:1023700087FF4FF40070B0490860FFF781FF4FF40A
:102380008070AD490860FFF77BFF4FF48070AA4969
:10239000091D0860FFF774FF10BD10B54FF4807081
:1023A000A549091D0860FFF76BFF4FF40070A249B3
:1023B0000860FFF765FF4FF480709F490860FFF7E2
:1023C0005FFF9D480838006800F4007030B14FF49A
:1023D00080709949091D0860002010BD4FF480707D
:1023E0009549091D08600120F7E770B504460825E6
:1023F0001DE04FF480709049091D0860FFF740FF11
:1024000004F0800020B14FF400708B49086004E0B4
:102410004FF400708849091D08606006040EFFF73C
:102420002FFF4FF4807084490860FFF729FF281EB2
:10243000A5F10101CDB2DCD14FF480707E49091DB8
:10244000086070BD70B508250024A8017A490860AD
:1024500016E06006040E4FF480707749091D08608D
:10246000FFF70EFF4FF4807073490860FFF708FF15
:1024700071480838006800F4007008B144F00104A5
:10248000281EA5F10101CDB2E3D14FF480706A4955
:10249000091D0860204670BD08B501210820FEF71F
:1024A00047FA4FF44070ADF8000002208DF80200AA
:1024B00014208DF8030069465F481038FDF77CFF53
:1024C00008BD2DE9F04105460E4617469846FFF730
:1024D000E2FE10B90020BDE8F081002141EA45018B
:1024E000C8B2FFF782FFFFF758FF18B9FFF700FFE8
:1024F0000020F0E73046FFF778FFFFF74EFF00249B
:102500000BE018F80400FFF770FFFFF746FF18B95B
:10251000FFF7EEFE0020DEE7641CBC42F1DBFFF7B4
:10252000E7FE0120D7E72DE9F04104460D461646A7
:102530001F463B46324629462046FFF7C2FF10B1F0
:102540000020BDE8F0814FF0FF30FAE72DE9F041BF
:1025500005460F4614461E46FFF79DFE10B90020A3
:10256000BDE8F081002141EA4501C8B2FFF73DFF17
:10257000FFF713FF18B9FFF7BBFE0020F0E738465E
:10258000FFF733FFFFF709FFFFF785FE012101EB9E
:102590004501C8B2FFF729FFFFF7FFFE0CE0FFF788
:1025A00051FF3070012C02D1FFF7DBFE01E0FFF795
:1025B000BBFE761C601EC4B2002CF0D1FFF798FE63
:1025C0000120CDE72DE9F04104460D4616461F4691
:1025D0003B46324629462046FFF7B8FF10B100209F
:1025E000BDE8F0814FF0FF30FAE770B504460D46C4
:1025F0001646FFF750FE08B9002070BD002141EAE1
:102600004401C8B2FFF7F1FEFFF7C7FE18B9FFF7A4
:102610006FFE0020F1E72846FFF7E7FEFFF7BDFE5B
:102620003046FFF7E2FEFFF7B8FEFFF761FE01203C
:10263000E3E7002070470000100C014008B50121BD
:102640001120FEF775F901210B48FDF786FF4FF4C5
:10265000C040ADF8000003208DF8020010208DF876
:10266000030069460548FDF7A7FE4FF4C041034843
:10267000FDF74FFF08BD00000002300000100140D0
:102680000024002700250026FFF75FFD41F61F41CB
:1026900041F2883002F024FA02F05EFA02F08EF87D
:1026A00000F00CF900F06EF8FFF7C8FF02F0DAFA5C
:1026B00000F01AF900F081F9FFF7EEFE0A2000F0B1
:1026C00059FE00F08DFA00F0FDFD00F089FE0021BA
:1026D000084601F0CAFE274807784FF0E02000695D
:1026E00040F001004FF0E021086142E000F0E8FA1C
:1026F00020490878C11BC9B20C440746062E31D2C6
:10270000DFE806F0030912181F31322C02D300242F
:102710000025012628E04FF496721749174801F06A
:102720000FFD002402261FE0B4F5967F01D300249C
:10273000032619E0B421124801F0ADFD002404265F
:1027400012E0B42C0DD30024681CC5B2042D07D3AD
:1027500000F020FE0021084601F087FE052600E07B
:10276000012601E000BF00BF00BF01F0E7FF01F05C
:102770000FFCBBE7D0000020CDCCCC3D0000C84210
:102780000000FAC308B501210820FEF7D1F84FF484
:102790007040ADF8000010208DF8030003208DF884
:1027A00002006946FE48FDF707FE4FF47041FC4801
:1027B000FDF7AFFE08BD08B501210846FEF7C5F8D4
:1027C00001210420FEF7B4F80C20ADF80000182019
:1027D0008DF8030003208DF802006946F148FDF7EB
:1027E000EBFD08BD30B587B00025002440F2E7308E
:1027F000ADF814000020ADF81000ADF81600ADF8EB
:10280000120004A94FF08040FEF7CAF96020ADF82D
:1028100000000120ADF80200ADF806500020ADF830
:10282000080069464FF08040FEF786FA0821C80686
:10283000FEF758FE0120ADF80200ADF8064000207A
:10284000ADF8080069464FF08040FEF7C0FA082155
:10285000C806FEF750FE01218807FEF7FDFD0121A5
:102860008807FEF7F9FC07B030BD2DE9FF410446AB
:102870000D4627462E466020ADF800000120ADF839
:102880000200ADF806700020ADF8080069464FF070
:102890008040FEF751FA0821C806FEF723FE01200A
:1028A000ADF80200ADF8066069468007FEF78FFAC2
:1028B0000821C806FEF71FFEBDE8FF8110B5FFF72F
:1028C0007AFFFFF78FFF10BDB7490888098821F00C
:1028D0000101B54A11807047B4490888098821F080
:1028E0000101B24A1180704700B589B00121022070
:1028F000FEF72BF801210420FEF71AF801A8FDF7D6
:10290000E6FDC020ADF8040004208DF80700032088
:102910008DF8060001A9A348FDF74EFD4FF4A06015
:10292000FDF7EEFB1D208DF8080001208DF8090051
:1029300003208DF80A0001208DF80B0002A8FDF796
:10294000E4FB99481038FEF757F806A8FEF754FC48
:102950000020ADF818004FF6FF70ADF81C00002005
:10296000ADF81E00ADF81A0006A98F481038FEF722
:1029700017F90A231A4603218B481038FEF71FFD6A
:1029800003A8FEF74CFC0620ADF8140003A9864806
:102990001038FEF798FB012183481038FEF722FF1C
:1029A0000122114680481038FEF771FC01217E4853
:1029B0001038FEF751FC09B000BD00B589B0012107
:1029C0000420FDF7C2FF01210820FDF7B1FF01A897
:1029D000FDF77DFDC020ADF8040004208DF8070050
:1029E00003208DF8060001A96D48FDF7E5FC4FF4C2
:1029F000A060FDF785FB1E208DF8080001208DF8F2
:102A0000090003208DF80A0001208DF80B0002A8B0
:102A1000FDF77BFB65481038FDF7EEFF06A8FEF7D3
:102A2000EBFB0020ADF818004FF6FF70ADF81C006E
:102A30000020ADF81E00ADF81A0006A95B4810385A
:102A4000FEF7AEF80A231A46032158481038FEF75D
:102A5000B6FC03A8FEF7E3FB0620ADF8140003A9BB
:102A600052481038FEF72FFB012150481038FEF76E
:102A7000B9FE012211464D481038FEF708FC01212D
:102A80004A481038FEF7E8FB09B000BD00B585B034
:102A900001210420FDF74CFF01210220FDF755FF25
:102AA0008020ADF8100004208DF8130003208DF86D
:102AB000120004A93B48FDF77FFC4FF4A060FDF72E
:102AC0001FFB1D208DF8000001208DF80100032060
:102AD0008DF8020001208DF803006846FDF715FB14
:102AE00031481038FDF788FF4FF6FF70ADF8080049
:102AF0000020ADF80400ADF80A00ADF8060001A909
:102B000029481038FEF74CF800231A466021264861
:102B10001038FEF7F0FB002123481038FEF730FE96
:102B2000012121481038FEF797FB05B000BD00B524
:102B300085B001210820FDF7FBFE01210420FDF7EF
:102B400004FF8020ADF8100004208DF8130003204E
:102B50008DF8120004A91248FDF72EFC4FF4A06076
:102B6000FDF7CEFA1E208DF8000001208DF801003F
:102B700003208DF8020001208DF803006846FDF760
:102B8000C4FA0A481038FDF737FF4FF6FF70ADF86A
:102B900008000020ADF80400ADF80A0008E00000CD
:102BA000000C0140000801401004004010080040E3
:102BB000ADF8060001A90948FDF7F2FF00231A4607
:102BC00060210648FEF797FB00210448FEF7D8FD78
:102BD00001210248FEF740FB05B000BD000800409F
:102BE00070B5002402F009FD0446002C60D17CA0E1
:102BF00001F061FF782002F062F918B981A001F0BC
:102C00005AFF02E087A001F056FF782002F044FB53
:102C100018B98FA001F04FFF02E096A001F04BFF22
:102C2000642002F01AFC18B99EA001F044FF02E0F3
:102C3000A6A001F040FF03F0D1FF18B9ACA001F04D
:102C40003AFF02E0B7A001F036FFC54804F0A2FE4B
:102C5000054603F0CDFF18B9C2A001F02CFF02E039
:102C6000CAA001F028FF40F2731004F002FC18B96A
:102C7000D2A001F020FF02E0D9A001F01CFF6420E7
:102C800004F070F918B9E2A001F015FF02E0E9A024
:102C900001F011FF04F092FE012003F0E5FC18B9E9
:102CA000EFA001F008FF0AE0F6A001F004FF06E043
:102CB0004FF40051FE48FDF72EFC00BFFEE770BD4B
:102CC0002DE9F04F89B0FB48FB49FC4BFC4ACDE9AC
:102CD0000010FC49FC4804F02BFDF748008800F484
:102CE000807000287AD0F649086805F099F9044602
:102CF0004FF09D4104F0CEFFF4490860F049486868
:102D000005F08EF904464FF09D4104F0C3FFF049F1
:102D10000860EB49886805F083F904464FF09D414F
:102D200004F0B8FFEB490860E549C86805F078F998
:102D300004464FF09D4104F0ADFFE7490860E348C9
:102D400001684FF0804004F073FF0690E14801688D
:102D5000069804F06DFF8246DD4801684FF0404060
:102D600004F066FF0690DC480168069804F060FFF6
:102D70008346514604F004FF079005F09DF906468E
:102D800006F0D2FB80464FF06632D44B05F067F870
:102D9000044605F0BDF9D2490860CE4801684FF0FD
:102DA000804004F045FF0390CA480168039804F08E
:102DB0003FFF8246C64801684FF0404004F038FFAC
:102DC0000390C3480168039804F032FF83465146DC
:102DD00004F028FF81464FF07E5183E10CE20000B1
:102DE0006D707520696E697469616C697A61746966
:102DF0006F6E20636F6D706C6574652E2E2E2E2E97
:102E00002E0A20006D70755F7365745F73656E7355
:102E10006F7220636F6D706C657465202E2E2E2E80
:102E20002E2E0A006D70755F7365745F73656E7327
:102E30006F7220636F6D65206163726F73732065BD
:102E400072726F72202E2E2E2E2E2E0A000000007F
:102E50006D70755F636F6E6669677572655F6669D1
:102E6000666F20636F6D706C657465202E2E2E2E3C
:102E70002E2E0A006D70755F636F6E6669677572DE
:102E8000655F6669666F20636F6D65206163726F51
:102E90007373206572726F72202E2E2E2E2E2E0AC4
:102EA000000000006D70755F7365745F73616D7015
:102EB0006C655F7261746520636F6D706C657465BD
:102EC000202E2E2E2E2E2E0A000000006D70755F13
:102ED0007365745F73616D706C655F72617465209A
:102EE0006572726F72202E2E2E2E2E2E0A0000007A
:102EF000646D705F6C6F61645F6D6F74696F6E5F3E
:102F00006472697665725F6669726D776172652059
:102F1000636F6D706C657465202E2E2E2E2E2E0A1A
:102F200000000000646D705F6C6F61645F6D6F74B2
:102F3000696F6E5F6472697665725F6669726D77DC
:102F400061726520636F6D65206163726F737320BA
:102F50006572726F72202E2E2E2E2E2E0A00000009
:102F600028000020646D705F7365745F6F7269651F
:102F70006E746174696F6E20636F6D706C657465DB
:102F8000202E2E2E2E2E2E0A00000000646D705F63
:102F90007365745F6F7269656E746174696F6E20BA
:102FA000636F6D65206163726F7373206572726FFA
:102FB00072202E2E2E2E2E2E0A000000646D705FC1
:102FC000656E61626C655F666561747572652063CC
:102FD0006F6D706C657465202E2E2E2E2E2E0A00BD
:102FE000646D705F656E61626C655F666561747566
:102FF000726520636F6D65206163726F7373206506
:1030000072726F72202E2E2E2E2E2E0A00000000BD
:10301000646D705F7365745F6669666F5F7261741B
:103020006520636F6D706C657465202E2E2E2E2EBC
:103030002E0A0000646D705F7365745F6669666F69
:103040005F7261746520636F6D65206163726F7379
:1030500073206572726F72202E2E2E2E2E2E0A0075
:103060006D70755F7365745F646D705F73746174A8
:103070006520636F6D706C657465202E2E2E2E2E6C
:103080002E0A00006D70755F7365745F646D705F0C
:10309000737461746520636F6D65206163726F7313
:1030A00073206572726F72202E2E2E2E2E2E0A0025
:1030B000001001406200002060000020500000204D
:1030C000180200205A000020540000203400002084
:1030D000380000203C0000204000002066A64C4044
:1030E0004400002004F04CFD044604F0E5FFCDE967
:1030F0000401434801684FF0804004F099FD834685
:1031000040480168584604F093FD81463E480168F6
:103110004FF0804004F08CFD83463C4801685846DF
:1031200004F086FD8246494604F02AFD044604F078
:10313000C3FF0746DDE9042306F03EFC4FF066328C
:10314000334BCDE9060104F08AFE054604F0E0FFAA
:10315000304908602D480168006804F069FD03905B
:1031600029480168006804F063FD02902548016861
:10317000006804F05DFD834621480168006804F0A2
:1031800057FD5946019004F0FBFC8246029904F079
:1031900049FD8146039904F045FD044604F08CFF87
:1031A000CDE90401194801681548006804F040FDA4
:1031B0008246154801681348006804F039FD8346CB
:1031C000514604F0DDFC81464FF0804104F030FDB3
:1031D000044604F071FF0746DDE9042306F0ECFB2A
:1031E0004FF066320A4BCDE9060104F038FE054681
:1031F00004F08EFF0849086009B0BDE8F08F0000B8
:1032000034000020380000203C0000204000002056
:1032100066A64C40480000204C000020704700BFCC
:10322000FEE700BFFEE700BFFEE700BFFEE7704716
:103230007047704710B51D480078401C1B49087046
:103240001B480078401C1A4908701A480078401C36
:103250001849087000F07DFB17480078401C16499B
:10326000087016480078401C14490870144800780B
:10327000401C134908700E480078022806DB01F054
:10328000DCFC00F062FC0020094908700948007865
:10329000082806DB00F08AFB002006490870064972
:1032A000087000F049F900F0E3FA10BDD0000020EA
:1032B000D5000020D1000020D2000020D300002043
:1032C000D400002030B527480068C822B0FBF2F1D6
:1032D000B1F1807F01D301201DE021F07F40401E2D
:1032E0004FF0E022506150170F22002807DA130731
:1032F0001D0E1D4B00F00F04241F1D5503E0130786
:103300001C0E1A4B1C5400BF00204FF0E0229061AD
:1033100007201061002008B100BFFEE74FF0E02059
:10332000006920F001004FF0E021086130BD01B5D7
:103330000F49009808604FF0E020006940F001005C
:103340004FF0E021086100BF094800680028FBD168
:1033500008BD0748006820B105480068401E0449C0
:10336000086070471400002018ED00E000E400E061
:1033700064000020002107E042F6E06100BF0A1E61
:10338000A1F1010399B2FAD1021EA0F1010398B292
:10339000F2D170470020F7490876087048608860CD
:1033A000F5480068C8600020C882704700B5024632
:1033B0000020F2490870F2480260FFF7EBFF00209E
:1033C000F0490870F0490870F0480078F04908703A
:1033D0000020F0490860ED480078EF49087000BD12
:1033E00000B50020ED490880ED490880ED490860EE
:1033F000ED490860ED490860ED490860ED49086055
:10340000ED490860ED490860ED490860ED49086044
:10341000ED490860ED490860D7490860EC4908604B
:10342000EC490860EC490860EC490860D74908702D
:10343000EB490870EB490870D4480078D44908700B
:103440000020D4490860D1480078D34908704FF46F
:103450006170E5490880E548E54908600120E549D3
:1034600008700020E4490870E4490870E4490860E5
:10347000E448FFF79BFF0020E349086000BD2DE909
:10348000F041E248006804F017FE0446E048D0E945
:1034900000633246204604F023FE07D0DC49D1E920
:1034A0000021104604F034FED8490860D94800686D
:1034B00004F002FE0446D648D0E9026332462046B4
:1034C00004F00EFE07D0D248D0E90221104604F0E5
:1034D0001FFED0490860D048006804F0EDFD0446A6
:1034E0000D46CB49D1E904633246294604F0F8FD84
:1034F00007D0C748D0E90421104604F009FEC649A8
:103500000860C648006804F0D7FD04460D46C0496F
:10351000D1E906633246294604F0E2FD07D0BC48F3
:10352000D0E90621104604F0F3FDBC4908600020F4
:10353000B3490860BDE8F0812DE9F041B848006862
:10354000012810D10020B1490860B648006804F095
:1035500075FD06460022B44B04F081FC044604F0DD
:10356000D7FDAA490860AE480068022812D10020A1
:10357000A8490860AD490968A1F1400004F05EFD6A
:1035800006460022AA4B04F06AFC044604F0C0FD83
:10359000A0490860A749B1F9040004F041FDA6491B
:1035A0000860A649B1F9040004F03AFDA449086096
:1035B0000021A448006804F0C7FD0BD0A249A1482F
:1035C000006804F0C1FD05D3A0499E48006804F0DE
:1035D000C5FD05D24FF400519D48FCF79CFF04E067
:1035E0004FF400519A48FCF794FF00219948006875
:1035F00004F018FB6F4908609049B1F9000004F02D
:103600000FFD064683480168304604F011FB04466E
:10361000694801686748006804F004FB06467B4877
:103620000168304604F004FB0546214604F0A8FA80
:1036300064490860BDE8F0812DE9F04104460D467B
:10364000002C0CDA4FF480418348FCF762FF4FF402
:1036500000418148FCF75FFF604204B20AE04FF48A
:1036600000417D48FCF755FF4FF480417A48FCF754
:1036700052FF00BF002D0CDA4FF400517648FCF7E2
:1036800048FF4FF480517448FCF745FF684205B28B
:103690000AE04FF480517048FCF73BFF4FF40051B3
:1036A0006D48FCF738FF00BFAFB2A6B231464FF00D
:1036B0008040FEF76DF839464FF08040FEF76AF81B
:1036C00066496048006804F049FD23D364495D48B9
:1036D000006804F039FD02D24FF0010801E04FF01C
:1036E000000800213C48006804F02EFD01D10120B3
:1036F00000E0002008EA000800213848006804F0D3
:1037000023FD01D1012000E0002008EA0008B8F103
:10371000000F0DD000214FF08040FEF739F8002156
:103720004FF08040FEF736F801204E49086002E075
:1037300000204C4908604C491E48006804F00EFD0A
:1037400005D34A491B48006804F0FEFC0DD2002155
:103750004FF08040FEF71CF800214FF08040FEF74C
:1037600019F801203F49086002E000203D49086047
:10377000BDE8F081A00000204C0100207500002071
:103780008C000020C7000020C8000020D0000020CE
:103790007400002070000020C90000201E010020DD
:1037A0001C0100202C0100202801002034010020F1
:1037B00030010020F8000020E80000205001002027
:1037C000DC000020EC000020F4000020F0000020CD
:1037D000900100208C01002058010020540100209D
:1037E000D1000020D2000020BC0000203333B33EC3
:1037F000C0000020C4000020C5000020C60000203A
:10380000CC0000200000C842440100200801002034
:10381000289C00080C010020100100201401002049
:1038200074010020640100200080FB3F680100203B
:103830000000C43F5A0000208401002054000020F2
:1038400088010020440000200000A0C10000A04129
:103850000010014048000020000C01400000204101
:10386000000020C14001002000004842000048C282
:103870002DE9F041FE48046800250026FD48006857
:10388000A0B9FD48006820F00047FC49384604F024
:1038900065FC0BD8F648006820F00047F849384628
:1038A00004F052FC02D800BF4FF082462146F54892
:1038B000006804F065F90746294604F061F9F24909
:1038C00008602146EF48006804F0ACF9074631462D
:1038D00004F056F9ED490860EB48006804F0BFFBBE
:1038E00000B2B0F57A7F02DDE948E7490860E648B2
:1038F000006804F0B4FB00B210F57A7F02DAE54804
:10390000E1490860E148006804F0A9FB00B2B0F5A5
:103910007A7F02DDDE48DD490860DC48006804F09B
:103920009EFB00B210F57A7F02DADA48D7490860C8
:10393000D648006804F093FB07B2D348006804F04F
:103940008EFB0FFA80F839464046FFF775FEBDE85A
:10395000F08170B5D048FDF736FF0446CF48FDF73B
:1039600032FF0546CE480460CE4805600021CA48B3
:10397000FDF706FF0021C948FDF702FF20B2CA4942
:103980000880684200B2C9490880C9480068C64931
:10399000B1F900100844C6490860C6480068C34928
:1039A000B1F900100844C349086070BD2DE9FC5FFF
:1039B000BF490968BF4A1268881804F031FBBE4944
:1039C00008600020BB490860B9490860BB4800682E
:1039D00004F072FB06464FF06632B94B04F03FFA32
:1039E000044604F095FBB5490860B348006804F04C
:1039F00063FB82464FF03332B24B04F030FA064696
:103A00000F46AE48006804F057FB804632463B46FE
:103A100004F07EF9044604F07BFBA8490860AA493B
:103A20009548006804F004F90190A44801680198E1
:103A300004F0F8F80090A5480099006804F0A0F898
:103A4000A2490860A249A148006804F087FB02D29D
:103A50009F489E4908609F499C48006804F074FB99
:103A600002D29C48994908609B480068032812D1FB
:103A700000209A4908609A490968A1F1800004F081
:103A8000DDFA06460022974B04F0E9F9044604F0FB
:103A90003FFB9249086090480068042812D100203A
:103AA0009149086091490968A1F1C00004F0C6FA83
:103AB000064600228E4B04F0D2F9044604F028FB9F
:103AC00089490860884801688048006804F0B0F8B7
:103AD000044682480168009804F0AAF80546214689
:103AE00004F04EF880F00040824908608249834823
:103AF000006804F033FB05D381498048006804F076
:103B000023FB0BD27B48006880F000447B480168AF
:103B1000204604F0BFF87B49086002E000207949A4
:103B2000086079497748006804F018FB02D27648AB
:103B30007449086075497348006804F005FB02D2B7
:103B4000724870490860BDE8FC9F2DE9F04170485B
:103B50000068002850D16F48FDF735FE00EB80006B
:103B600000EB00104400204604F068FA05460022ED
:103B7000694B04F0E6F9074604F0CAFA67490860A1
:103B80000846006804F098FA044622460B4664A0F2
:103B900004F0FCFC6548007820B900206449086006
:103BA000BDE8F0815D48006804F086FA0446002212
:103BB000604B04F095FA03D85F485D4908601BE04C
:103BC0005E495648006804F0C9FA01D8012400E0B3
:103BD00000244FF082415148006804F0B5FA01D842
:103BE000012000E0002004401CB155485049086005
:103BF00002E000204E49086000BFD1E72DE9FC5FDC
:103C000050480068012831D11F48D0F800B01F4843
:103C1000006801904C48B0F902904C48B0F900A0FF
:103C20003E480468484604F0FBF906464FF08D41D3
:103C300004F030F80546464903F0FAFF45490860AC
:103C4000504604F0EDF90646434903F0EBFF054604
:103C5000424904F01FF842490860584604F02CFA23
:103C60000746404A404B04F06CF97FE08EE10000CB
:103C700050010020400100204C0100200000F041D4
:103C80000000C841EC000020F0000020F4000020FB
:103C900000007A4400007AC400040040000800409C
:103CA000380100203C0100201C0100201E010020E2
:103CB000280100202C0100203001002034010020C8
:103CC0006666E63F3333D33F000080BFCC00002060
:103CD0000000FA450000FAC5740100201001002020
:103CE0006C0100200000DE3F140100207001002064
:103CF0000000C43FE40000206F12833A0801002056
:103D00006F1283BAE80000200000C0400000C0C06D
:103D10005C010020002C01400000694048010020A7
:103D20006A756C693D25660A000000007500002078
:103D30004401002000001040000096C30000A04095
:103D40000000FA43780100205A00002054000020AF
:103D5000CDCC1C41840100209A190043000003438C
:103D60008801002048E17A14AE470F40054604F070
:103D7000CFF98346019804F09FF90546F84AF94BBC
:103D800004F0DFF8074604F0C3F901905021F6482B
:103D900003F0D2FEF448F5A1096801600A21F44855
:103DA00003F0CAFEF34800210160416001810A214D
:103DB000F14803F0C1FEF14800210160416001813A
:103DC0000A21EF4803F0B8FEEE480021016041608F
:103DD0000181ED49584604F0B7F90FD8EB49584630
:103DE00004F0BCF90AD8584604F066F905462A469C
:103DF0000B46E7A1DE4804F0D9FB01E0BDE8FC9FDB
:103E0000E149019804F0A0F90FD8E049019804F0C5
:103E1000A5F90AD8019804F04FF905462A460B4641
:103E2000DBA1D44804F0C2FB00E0E7E7DA49DB4855
:103E3000006804F093F911D2D949D848006804F019
:103E400083F90BD2D548006804F036F905462A46B6
:103E50000B46CFA1C84804F0A9FB00E0CEE7D1494A
:103E6000D148006804F07AF911D2D049CE480068F0
:103E700004F06AF90BD2CC48006804F01DF905463D
:103E80002A460B46C2A1BD4804F090FB00E0B5E70E
:103E90000021204604F062F90FD8C549204604F0FD
:103EA00053F90AD2204604F007F905462A460B4684
:103EB000B7A1B34804F07AFB00E09FE7002000F0D0
:103EC00013FF0090009804F0B4F80746B94903F0D6
:103ED000AFFE06464FF08B4103F0DCFE0546B649C7
:103EE00003F0A0FEB54908600021B448006804F062
:103EF00035F911D8AA49B148006804F025F90BD268
:103F0000AE48006804F0D8F805462A460B46A0A142
:103F10009C4804F04BFB00E070E79549924803F0A1
:103F200016FEA7A1904803F012FE92498E4803F0B6
:103F30000EFEA4A18C4803F00AFE8F498A4803F0C4
:103F400006FEA1A1884803F002FE8C49864803F0D2
:103F5000FEFD9EA1844803F0FAFD8949824803F0E2
:103F6000F6FD9CA1804803F0F2FD86497E4803F0EF
:103F7000EEFD99A17C4803F0EAFD5021974803F03B
:103F8000DBFD50227849954803F0BDFD00BF35E7C1
:103F900010B593480068401E914908609148006838
:103FA000012807D10846006820B9FFF727FE8B4893
:103FB00000F075FD8A48006818B941F288308849D8
:103FC000086010BD70B506460D46144621463046C1
:103FD00004F0C4F801D2204670BD2946304604F0F2
:103FE000B3F801D22846F7E73046F5E72DE9F04768
:103FF00004460E4617461D46DDE908897A4A7B4984
:104000003046FFF7DFFF0646774A78493846FFF724
:10401000D9FF07460021284604F096F801D285F022
:104020000045734A73492846FFF7CCFF0546B8F1AF
:10403000000F01D14FF0010841F28830804500D9CE
:104040008046012C00D10027042C00D100266A48AC
:10405000047046608760694800686749C860084620
:104060000561A0F814800020C88201200876B9F10B
:10407000000F06D003206249087062480078624948
:104080000870BDE8F0872DE9F04780460C461546DC
:104090005948007E20B9002020602860BDE8F087E4
:1040A00000263DE0544AD168506803F0BBFD074646
:1040B00027F0004950480169484604F045F804D803
:1040C0004D4840684C49C86013E00021384604F070
:1040D00045F807D2484A1169D06803F051FD4649B6
:1040E000C86006E0444A1169D06803F09BFD42496C
:1040F000C8604148C08A4049898A884204DA3E48FB
:10410000C08A401C3C49C8823B48C08A3A49898AD7
:10411000884203DB00203849087603E0701CC6B2F1
:104120004645BFDB00BF3448C06820603248806825
:1041300028603148007E08B90220AFE70120ADE7D2
:104140007CB504460D461646002030490870012013
:104150002B4600222146CDE90060FFF747FF7CBDDA
:1041600048E17A14AE470F4028020020244C560044
:10417000400300204A030020540300205E03002077
:10418000680300207203002000007A4400007AC413
:1041900025332E32660000000000A0C184010020FB
:1041A0000000A04100803BC58801002000803B4505
:1041B00000401C46CDCC5441CDCC4C3ED800002014
:1041C0002C5256002C4143002C4759002C4353429B
:1041D000000000002C56540023000000780200204C
:1041E0007C0100207801002000008243000082C38F
:1041F000000040400AD7233CA00000204C010020D2
:1042000075000020D000002074000020C6000020AF
:104210002DE9FC4104460D4616461F460FB101200C
:1042200000E00020FE4908700020FE490870FE49A9
:10423000087001202B4600222146CDE90060FFF7DF
:10424000D5FEBDE8FC8108B1012100E00021F44A5F
:1042500011700021F34A1170F34A117070477CB558
:1042600004460D4616460120F04B2A462146CDE96C
:1042700000600220FFF7BAFE7CBD7CB504460D4607
:1042800016460120E94B2A462146CDE9006003206D
:10429000FFF7ACFE7CBD7CB504460D460120E34B28
:1042A00022460021CDE900500420FFF79FFE7CBD8F
:1042B00070B505460C460021284603F045FF01D2A3
:1042C00085F000450021204603F03EFF01D284F036
:1042D0000044D7480560D748046070BD2DE9F04719
:1042E00005460C4616461F46DDF8208025F00045A1
:1042F00024F00044D04A00212846FFF763FECF494E
:104300000860CD4A00212046FFF75CFECB4948609B
:10431000CB480680008810B90120C9490880C848E8
:10432000008841F28831884202D90846C449088091
:1043300027F00049C34AC4494846FFF743FEC34932
:104340000860B8F1000F01D0012000E00020C04952
:1043500008700020BF490870B948008803F069FE62
:104360008246BD4903F064FC81464946BB4803F0E0
:1043700091FCB2498860B648007808B1B84800E0BE
:10438000B848AE49C86000200861FFF703F8012073
:10439000B5490870B5480078B54908700020B5499E
:1043A0000860BDE8F0872DE9FF4F85B083461446CD
:1043B0001D46B149204603F0C7FE00D2AE4C002195
:1043C000129803F0C1FE01D200201290AB4912985E
:1043D00003F0C4FE01D2A948129021469F4803F081
:1043E00059FC07469C4903F055FC06464FF07E51A8
:1043F000304603F0A9FE01D24FF07E56A049304668
:1044000003F0ACFE00D29E4E4FF07C51304603F0DC
:10441000B7FB074603F03CFE1FFA80F99949129852
:1044200003F006FC0746814903F0AAFB82462846B2
:1044300003F042FE074605F07FFBCDE9000103F0E3
:1044400067FE0021029003F089FE01D8012000E000
:1044500000200390039853464A4600905846069918
:10446000FFF73CFF09B0BDE8F08F00B503460A46F0
:1044700002207D490870FEF78DFF83480360834862
:1044800002607A4800787A4908700020794908600B
:1044900000BD2DE9F05F04460D46D4F80090D5F834
:1044A00000A07B4F7B49384603F04EFE00D87A4F80
:1044B0007A48D0F800807A49404603F04FFE18D879
:1044C0007849404603F040FE13D800205549087053
:1044D00055480078FF2804D253480078401C5249C0
:1044E000087051480078042836D34FF00009CA46B6
:1044F00032E06C49404603F031FE28D2394640464E
:1045000003F022FE23D80020474908704548007870
:10451000FF2804D243480078401C424908704148B3
:1045200000780C2818D34248D0F800904148D0F8C1
:1045300000A029F0004B5C49584603F079FB064681
:104540003146504603F00AFE06D2B24604E000208F
:104550003449087034490870C4F80090C5F800A0C8
:10456000BDE8F09F1CB55148006801900020009004
:10457000694601A8FFF78DFF4D49019808604D4934
:104580000098086000204C4908604C4908601CBD38
:104590002DE9FF413548057835480078281AC6B21C
:1045A000334805704648007E40BB2A48007800F03A
:1045B000010058B92648007810B12048406803E04F
:1045C0001E48406880F0004007460AE02048007816
:1045D00020B11A48406880F0004001E01748406868
:1045E0000746002016490988CDE9001013480168E4
:1045F00016483A4603680220FFF7F8FC02AA03A90E
:104600003046FFF740FD0446022C05D111480078E2
:1046100080F001000F49087025490398086051E0B7
:10462000C6000020C7000020C80000203333B33E7E
:10463000980000209C0000200000824378000020A9
:10464000BC000020000040400AD7233CC0000020EE
:10465000C4000020C50000200AD7A33BDB0FC940DF
:10466000DA0FC93FDA0FC9BF75000020D000002063
:104670007400002070000020CDCCCC3D6666E63E84
:1046800000409C459A99993F90000020940000209A
:104690000000C84100003041000090414801002066
:1046A0000000204000002041CDCC4C3F8C00002079
:1046B0004C010020500100205C010020440100203A
:1046C000A000002030490298086001202F490860AE
:1046D00000202F490860BDE8FF817CB52D48047893
:1046E0002D480078201AC5B22B4804706A4601A9EB
:1046F0002846FFF7C8FC064616B900200190009036
:1047000026480078012807D12548007820B169465D
:1047100001A8FFF7BEFE04E00020224908702249EC
:104720000870224901980860174900980860012024
:10473000164908600020164908607CBD10B51C4869
:104740000078E0B1012804D0022808D0032815D150
:1047500002E0FFF71DFF15E0FFF7BFFF12E015486D
:104760000068124908601448006807490860012081
:104770000649086000200649086003E000BFFFF713
:10478000F1FE00BF00BF10BD500100205C01002001
:1047900044010020D000002074000020A000002070
:1047A000C6000020C7000020C80000204C010020E7
:1047B00075000020900000209400002000B585B016
:1047C000012144F20400FCF7B3F84FF40070ADF897
:1047D000100018208DF8130003208DF8120004A992
:1047E000BB48FBF7E9FD4FF48060ADF810000420F2
:1047F0008DF8130004A9B648FBF7DEFD4FF4E13055
:1048000000900020ADF80400ADF80600ADF80800F7
:10481000ADF80C000C20ADF80A006946AD48FDF774
:104820003CF80121AB48FDF7C4F805B000BD08B560
:104830004FF48060FBF764FC27208DF80000042013
:104840008DF8010001208DF802008DF80300684604
:10485000FBF75BFC08BD00B585B001218804FCF7BF
:1048600074F801210820FCF763F84FF48060ADF87C
:10487000100018208DF8130003208DF8120004A9F1
:104880009548FBF799FD4FF40060ADF81000042047
:104890008DF8130004A99048FBF78EFDFFF7C7FFC2
:1048A0004FF4165000900020ADF80400ADF806005B
:1048B000ADF80800ADF80C000C20ADF80A00694610
:1048C0008648FCF7EAFF012240F225518348FDF7B4
:1048D0007CF801218148FDF76CF805B000BD70B58A
:1048E00004460D46E1B27B48FDF7D0F800BF4021F9
:1048F0007848FDF739F90128F9D1204670BDF0B5A7
:1049000003460D461646002729460A2E03D00020EE
:1049100008702846F0BD33B9302001F8010B0020A3
:1049200008702846F6E7002B03DA2D2001F8010B6A
:104930005B4242F210720DE093FBF2F404B937B11E
:1049400004F1300001F8010B04FB123301270A20A7
:1049500092FBF0F2002AEFDC002008702846D9E72D
:104960000FB470B586B006460CA8019073E00B98A2
:1049700000785C281CD10B98401C0B9000786E28A6
:1049800009D072280FD10D213046FDF77FF80B9822
:10499000401C0B900BE00A213046FDF777F80B988E
:1049A000401C0B9003E00B98401C0B9000BF4BE0A9
:1049B0000B980078252840D10B98401C0B9000786C
:1049C000642818D0732833D1019810C801900BE0E7
:1049D00021783046FDF75AF800BF40213046FDF7F8
:1049E000C3F80028F9D0641C20780028F0D10B9877
:1049F000401C0B9020E0019820C801900A2202A9D7
:104A00002846FFF77CFF02AC0BE021783046FDF72B
:104A10003DF800BF40213046FDF7A6F80028F9D048
:104A2000641C20780028F0D10B98401C0B9003E008
:104A30000B98401C0B9000BF06E00B9810F8011B70
:104A40000B903046FDF722F800BF40213046FDF7BD
:104A50008BF80028F9D00B980078002887D106B091
:104A600070BC5DF814FB10B5044621461948FDF7EB
:104A70000DF800BF40211748FDF776F80128F9D15D
:104A800010BD10B5044621461448FCF7FFFF00BFD7
:104A900040211248FDF768F80128F9D110BD70B522
:104AA00005462C4603E02078FFF7EBFF641C2078D6
:104AB0000028F8D170BD70B505462C4603E020787B
:104AC000FFF7D1FF641C20780028F8D170BD0000EA
:104AD0000008014000380140000C0140004800403F
:104AE0007FB504460D460121C802FBF721FF41F2C4
:104AF0008830ADF8080041F61F40ADF804000120F1
:104B0000ADF80A000020ADF8060001A91148FCF735
:104B100047F8012241210F48FCF7B9FB19208DF815
:104B2000000003208DF8010000208DF80200012014
:104B30008DF803006846FBF7E8FA7FBD10B5012148
:104B40000448FCF752FE18B101210248FCF75EFE52
:104B500010BD0000002C01401FB501213D48FBF7AE
:104B6000FCFC01210920FBF7E3FE0120ADF80C005D
:104B700010208DF80F0003208DF80E0003A9364891
:104B8000FBF71AFC0220ADF80C0028208DF80F006E
:104B900003A93148FBF710FC01210846FBF722FD71
:104BA0000220019000208DF8080008208DF80900EF
:104BB00001208DF80A0001A8FBF71EFB07208DF8E5
:104BC000000003208DF8010001208DF802008DF80F
:104BD00003006846FBF799FA1FBD10B50220FBF7EA
:104BE00071FB48B300211D48FCF7CAFD01211B4899
:104BF000FCF732FB01201A49086012E01748FCF765
:104C0000E2FD3C2807DB00211448FCF725FB0020CF
:104C10001349086005E002210F48FBF760FC1049CA
:104C200008600F4800680028E8D100210B48FCF715
:104C300013FB0220FBF757FB10BD10B501210648FE
:104C4000FBF767FC0C20FDF701FB01210248FBF795
:104C500062FC10BD00023000000C0140002C01403D
:104C6000E001002000B587B001214FF40170FBF78F
:104C70005FFE4FF40040FBF7BFFD0120ADF80400DC
:104C800000208DF8070001A92348FBF795FB234876
:104C9000FCF7C4FF002002908DF80C008DF80D0089
:104CA0004FF4602004900020059001208DF818003A
:104CB00002A91A48FCF7D9FF01211848FDF701F8AD
:104CC0001648FDF720F800BF1448FDF721F800282A
:104CD000FAD11248FDF726F800BF1048FDF727F873
:104CE0000028FAD107B000BD10B504460723012201
:104CF00021460A48FDF751F801210848FDF721F83F
:104D000000BF02210548FDF78DF90028F9D00348BE
:104D1000FDF7AAF810BD0000000801400024014082
:104D20000648804706480047FEE7FEE7FEE7FEE745
:104D3000FEE7FEE7FEE7FEE7FEE7FEE74B210008A1
:104D4000ED00000838B50446FB4890F82400C0B1D7
:104D500014B10220009001E000200090F64A126891
:104D6000D17BF54A526810786B460122FDF7DBFBD8
:104D700010B14FF0FF3038BD9DF80010EE4841747F
:104D800023E0ED48807A10B94FF0FF30F3E724B10B
:104D9000E948407C08B10020EDE714B10120009003
:104DA00001E000200090E44A1268D17BE24A526898
:104DB00010786B460122FDF7B6FB10B14FF0FF30C3
:104DC000D9E79DF80010DC4841740020D3E738B5DE
:104DD000002419E0D8480068C07AA04204D0D64820
:104DE0000068407DA04200D10CE0D34949680878B2
:104DF0006B4601222146FDF7E5FB10B14FF0FF3075
:104E000038BD00BF601CC4B2CB4840680079A042E6
:104E1000E0DC0020F4E770B504460D46C6480068A3
:104E2000C07AA04204D0C4480068407DA04202D1AC
:104E30004FF0FF3070BDC04840680079A04202DCEE
:104E40004FF0FF30F6E7BC49496808782B4601224D
:104E50002146FDF7B7FBEDE738B50446B64890F8B4
:104E60002300A04201D1002038BD14B130200090B1
:104E700001E000200090B048807C20B19DF8000047
:104E800040F002000090AC4890F8220020B19DF85C
:104E9000000040F080000090A74A1268117DA64AE9
:104EA000526810786B460122FDF73DFB10B14FF0C0
:104EB000FF30D9E7A04880F823400020D4E738B578
:104EC000044604F0700010B10120009005E014B118
:104ED0000020009001E040200090974A1268917CE9
:104EE000954A526810786B460122FDF71CFB20B1F1
:104EF000002191488172481E38BD9DF8000020F0C5
:104F000040018D4801730020009004F0400020B95A
:104F10009DF8000040F00400009004F0200020B94B
:104F20009DF8000040F00200009004F0100020B94D
:104F30009DF8000040F00100009004F0080020B946
:104F40009DF8000040F0380000907B4A1268D17C48
:104F5000794A526810786B460122FDF7E4FA20B1D5
:104F6000002175488172481EC6E724B1082C02D082
:104F70000020FFF771FF7048847200210175322014
:104F8000FDF771F90020B7E738B504466A48807C20
:104F9000A04201D1002038BD002C46D0664A1268DC
:104FA0001179654A526810786B460122FDF70AFBB9
:104FB00010B14FF0FF30EEE79DF8000020F0200028
:104FC00000905D4A126811795B4A526810786B460E
:104FD0000122FDF7A8FA10B14FF0FF30DBE7032004
:104FE000FDF741F902200090534890F8220020B1CB
:104FF0009DF8000040F0800000904F4890F823009A
:1050000020B19DF8000040F0300000904A4A12683C
:10501000117D494A526810786B460122FDF783FAE8
:10502000002851D04FF0FF30B5E7434A126811799C
:10503000414A526810786B460122FDF7C3FA10B15D
:105040004FF0FF30A7E73C48807A00F0010028B11C
:105050009DF8000040F02000009004E09DF8000062
:1050600020F020000090344A12681179324A5268C8
:1050700010786B460122FDF756FA10B14FF0FF3061
:1050800089E70320FDF7EFF82B4890F8220010B1D4
:105090008020009001E000200090274890F8230035
:1050A00020B19DF8000040F030000090224A1268C4
:1050B000117D214A526810786B460122FDF733FAC0
:1050C00010B14FF0FF3066E71B488474002062E7A0
:1050D00008B51948807A10B94FF0FF3008BD00209C
:1050E0000090154A1268D17B134A526810786B46BB
:1050F0000122FDF718FA10B14FF0FF30EEE70E4A2B
:10510000126851790C4A526810786B460122FDF7FB
:105110000AFA10B14FF0FF30E0E7074A1268117940
:10512000054A526810786B460122FDF7FCF928B158
:105130004FF0FF30D2E70000E4010020F74890F87C
:105140002400002853D00C200090F44A12681179F2
:10515000F24A526810786B460122FDF7E4F910B16B
:105160004FF0FF30BAE73220FDF77DF8C020009005
:10517000EA48807A00F0010020B19DF8000040F07C
:1051800020000090E54A12681179E44A52681078CC
:105190006B460122FDF7C7F910B14FF0FF309DE7D4
:1051A000DE48407C10B10220009001E00020009019
:1051B000DA4A1268D17BD94A526810786B460122CC
:1051C000FDF7B1F910B14FF0FF3087E700200090F4
:1051D000D24A12685179D14A526810786B4601223E
:1051E000FDF7A1F9002855D04FF0FF3076E70420F5
:1051F0000090CA4A12681179C84A526810786B4602
:105200000122FDF790F910B14FF0FF3066E7C34877
:10521000807C20B9C148807A00F0010010B940209C
:10522000009001E060200090BC4A12681179BB4AEE
:10523000526810786B460122FDF775F910B14FF0F6
:10524000FF304BE73220FDF70EF8B448407C10B138
:105250000120009001E000200090B04A1268D17B4C
:10526000AE4A526810786B460122FDF75CF910B126
:105270004FF0FF3032E7A94A12685179A74A5268C5
:105280001078A64B10330122FDF74DF910B14FF005
:10529000FF3023E7002021E770B50446002624F004
:1052A00001049E4890F8240008B1002070BD9B487E
:1052B000807A10B94FF0FF30F8E79848057C807A83
:1052C0002040964908740846007CA04202D04FF066
:1052D000FF3600E0002614B99048007D18B1012087
:1052E000FFF730FD02E00020FFF72CFD3CB1FFF797
:1052F000EFFE20B1894805744FF0FF30D6E7304605
:10530000D4E738B504468548807A10B94FF0FF30AD
:1053100038BDBC2C02DB0120009015E0622C02DBC2
:105320000220009010E02A2C02DB032000900BE00A
:10533000142C02DB0420009006E00A2C02DB05207E
:10534000009001E0062000907448C07A9DF800109B
:10535000884201D10020DBE7704A126891786F4AD9
:10536000526810786B460122FDF7DDF810B14FF05E
:10537000FF30CDE79DF800106848C1720020C7E7F4
:1053800038B50446282C02DD4FF0FF3038BDDCB9BB
:105390000020FFF761FD00208DF8000007208DF848
:1053A00001005E4A1268917C5C4A526810786B4634
:1053B0000222FDF7B8F810B14FF0FF30E6E7002108
:1053C000564801750020E1E70120FFF745FD202048
:1053D0008DF80000012C06D100208DF80100052079
:1053E000FFF78FFF17E0052C06DC01208DF8010088
:1053F0000520FFF786FF0EE0142C06DC02208DF856
:1054000001000A20FFF77DFF05E003208DF8010071
:105410001420FFF776FF9DF80100072101EB8010B3
:10542000C0B28DF801003D4A1268917C3B4A526837
:1054300010786B460222FDF776F810B14FF0FF307E
:10544000A4E708213548817200210173012101750B
:105450000020FFF721FF002098E738B504462F48C9
:10546000807A10B94FF0FF3038BD2C4890F82400F6
:1054700010B14FF0FF30F7E72848007D50B134B14C
:10548000282C04DCE0B2FFF77BFF0020ECE70020D3
:10549000FFF776FF042C01DA042404E0B4F57A7FE8
:1054A00001DD4FF47A744FF47A7090FBF4F0401EF3
:1054B000C0B20090194A12685178184A52681078A0
:1054C0006B460122FDF72FF810B14FF0FF30CBE70C
:1054D0009DF80000401C4FF47A7191FBF0F081B20E
:1054E0000E48C1810146C9894810FFF70AFF002014
:1054F000BAE738B504460948807A10B94FF0FF3052
:1055000038BD022C06D0042C0AD0082C0BD0102C4D
:105510000FD10BE0002000900EE00000E40100201D
:105520000820009008E01020009005E0182000906E
:1055300002E04FF0FF30E3E700BFF848407A9DF803
:105540000010B0EBE10F01D10020D9E7F34A126857
:10555000D179F24A526810786B460122FCF7E3FFDA
:1055600010B14FF0FF30CBE79DF80000C110EB48C1
:1055700041720020C4E738B50446E848807A10B983
:105580004FF0FF3038BDFA2C09D0B4F5FA7F09D0BE
:10559000B4F57A7F09D0B4F5FA6F0CD108E0002099
:1055A00000900BE00820009008E01020009005E03B
:1055B0001820009002E04FF0FF30E3E700BFD7482B
:1055C000007A9DF80010B0EBE10F01D10020D9E77F
:1055D000D24A12689179D14A526810786B460122FA
:1055E000FCF7A1FF10B14FF0FF30CBE79DF80000B2
:1055F000C010CA4908720020C4E71CB580208DF88D
:105600000000C64A1268917CC44A526810786B4602
:105610000122FCF788FF10B14FF0FF301CBD642061
:10562000FCF721FE00208DF80000BC4A1268917C36
:10563000BA4A526810786B460122FCF774FF10B129
:105640004FF0FF30EAE7B54A1268917DB34A5268DD
:1056500010786B460622FCF7B5FF10B14FF0FF3013
:10566000DCE79DF80500C007400F9DF8031001F02E
:10567000010140EA41009DF8011001F0010140EAFA
:1056800001048CB1012C03D10121A448C17430E084
:10569000022C03D10021A148C1742AE0A0A0FFF789
:1056A0000AFA4FF0FF30B9E79C4A1268D1789B4A5A
:1056B000526810786B460122FCF784FF10B14FF05E
:1056C000FF30ABE79DF8000000F00F042CB99E48B6
:1056D000FFF7F1F94FF0FF30A0E7042C06D19BA0B3
:1056E000FFF7E9F901218D48C17402E000218B48E0
:1056F000C174FF2189488172FF2088490872FF2107
:1057000086484172C1724FF6FF71C181FF21017459
:1057100081740121017380F82210002180F8231088
:10572000417501751630016041608160163880F85E
:10573000241080F82510C1844FF4FA60FFF71BFF96
:1057400010B14FF0FF3069E70220FFF7D2FE10B131
:105750004FF0FF3062E72A20FFF7D3FD10B14FF082
:10576000FF305BE73220FFF778FE10B14FF0FF30DB
:1057700054E70020FFF790FD10B14FF0FF304DE7E8
:105780000020FFF701FC10B14FF0FF3046E700208A
:10579000FFF795FB002041E77CB504460D465F48C6
:1057A000807A00F0700010B94FF0FF307CBD5B4A8A
:1057B0001268117B594A526810786B460622FCF732
:1057C00001FF10B14FF0FF30F0E79DF801009DF8A8
:1057D000001040EA012000B220809DF803009DF8EF
:1057E000021040EA012000B260809DF805009DF89B
:1057F000041040EA012000B2A08015B12846FCF751
:105800003EFD0020D2E77CB504460D464348807A31
:1058100000F0080010B94FF0FF307CBD3F4A12681D
:10582000517B3E4A526810786B460622FCF7CAFE4E
:1058300010B14FF0FF30F0E79DF801009DF8001027
:1058400040EA012000B220809DF803009DF802107C
:1058500040EA012000B260809DF805009DF8041028
:1058600040EA012000B2A08015B12846FCF707FDF0
:105870000020D2E72DE9FE4F05460C462748807AE6
:1058800018B94FF0FF30BDE8FE8F244A1268917BB3
:10589000224A5268107802AB0222FCF793FE10B144
:1058A0004FF0FF30EFE79DF809009DF8081040EA3F
:1058B000012006B214B12046FCF7E1FC1749496803
:1058C000C88802F0B6FB154901904968B1F9080093
:1058D00002F0A6FB8346304602F0A2FB5946009038
:1058E00002F0A0F98246019902F0D4F981461F49DD
:1058F00002F046F980464FF08F4102F099F90746D1
:1059000002F0ADFB28600020BDE710B588B004466A
:105910001CB94FF0FF3008B010BD29E0E4010020B1
:10592000556E737570706F7274656420736F6674F2
:10593000776172652070726F64756374207265762A
:105940002025642E0A000000A0AA000848616C66A9
:105950002073656E736974697669747920706172F9
:105960007420666F756E642E0A00000000000C4201
:10597000206830B9606820B9A06810B9002008B06C
:1059800010BDFA494968087806AB03221146FCF7B6
:1059900019FE10B14FF0FF30F1E79DF81800082113
:1059A00001EB201000F00F00ADF800009DF8190089
:1059B00001EB201000F00F00ADF802009DF81A0076
:1059C00001EB201000F00F00ADF80400206841004A
:1059D000BDF90000403091FBF0F000B2ADF81000CE
:1059E00060684100BDF90200403091FBF0F000B268
:1059F000ADF81200A0684100BDF90400403091FBF1
:105A0000F0F000B2ADF81400D8494968087806AB48
:105A100006221146FCF7D6FD10B14FF0FF30AEE77D
:105A20009DF819009DF8181040EA012000B2ADF869
:105A300008009DF81B009DF81A1040EA012000B2F2
:105A4000ADF80A009DF81D009DF81C1040EA0120E9
:105A500000B2ADF80C00BDF81000BDF80810084405
:105A600000B2ADF81000BDF81200BDF80A100844ED
:105A700000B2ADF81200BDF81400BDF80C100844D7
:105A800000B2ADF81400BDF81000000A8DF818003F
:105A9000BDF81000C0B28DF81900BDF81200000A60
:105AA0008DF81A00BDF81200C0B28DF81B00BDF8C9
:105AB0001400000A8DF81C00BDF81400C0B28DF867
:105AC0001D00AA494968087806AB06221146FCF772
:105AD0002AFD10B14FF0FF3051E700204FE701469B
