:020000040800F2
:10000000A8070020E94D0008C5310008C7310008E5
:10001000CB310008CF310008D331000800000000C8
:10002000000000000000000000000000D7310008C0
:10003000D931000800000000DB310008DD31000884
:10004000034E0008034E0008034E0008034E00084C
:10005000034E0008034E0008034E0008A34C00089E
:10006000034E0008034E0008034E0008034E00082C
:10007000034E0008034E0008034E0008034E00081C
:10008000034E0008034E0008034E0008034E00080C
:10009000034E0008034E0008034E0008034E0008FC
:1000A000034E0008054C0008034E0008034E0008EC
:1000B000034E00087128000881280008034E00083C
:1000C000034E0008034E0008034E0008034E0008CC
:1000D000034E0008034E0008034E0008034E0008BC
:1000E000034E0008034E0008034E0008DFF80CD052
:1000F00008F0E6F90048004781260008A80700201C
:1001000031490143314A1160704770B50021002325
:100110000F22C47804B32D4C246804F4E064C4F5C1
:10012000E064210AC1F10403CA40447804FA03F1EF
:100130008478144021430901254C0678A1550478A0
:1001400004F01F050124AC4005786D11AD0005F1E8
:10015000E025C5F8004109E0047804F01F050124FA
:10016000AC401C4D0678761145F8264070BD1A4A01
:100170000A400243154B1B1F1A60704739B1134ADE
:10018000121D12680243114B1B1D1A6006E00F4A34
:10019000121D126882430D4B1B1D1A607047042804
:1001A00008D14FF0E021096941F004014FF0E0224D
:1001B000116107E04FF0E021096921F004014FF0DF
:1001C000E0221161704700000000FA050CED00E02C
:1001D00000E400E080E100E080FFFF1F00204449D0
:1001E0000860091D0860091D0860091D0860414874
:1001F0003F4914310860704700213D498279002A47
:100200003AD00A46126803689A430B461A600A1DE0
:10021000126803689A430B1D1A60027911440A6838
:1002200003681A430A60324A0832126803689A4324
:100230002F4B08331A601A1D126803689A432C4B1F
:100240000C331A604279102A0ED11A1F1268036803
:100250001A43274B08331A601A1D126803681A43A1
:10026000234B0C331A600DE02149427911440A688E
:1002700003681A430A6005E0027911440A680368BA
:100280009A430A6070470021016001710C2141719D
:100290000021817170471649103109680143144AE1
:1002A00010321160704701460020114A1432126862
:1002B0000A400AB1012000E0002070470C491431C7
:1002C00008607047014600200022094B1B6803EAC2
:1002D0000102074B14331B680B4013B10AB1012014
:1002E00000E00020704702491431086070470000A8
:1002F00000040140FFFF0F0010B50446CC488442C3
:1003000008D10121042000F02DFB0021042000F081
:1003100029FB46E0C748844208D10121082000F0AB
:1003200021FB0021082000F01DFB3AE0C248844276
:1003300008D10121102000F015FB0021102000F051
:1003400011FB2EE0BD48844208D10121202000F09D
:1003500009FB0021202000F005FB22E0B848844280
:1003600008D10121402000F0FDFA0021402000F0DA
:10037000F9FA16E0B348844208D10121802000F048
:10038000F1FA0021802000F0EDFA0AE0AE48844244
:1003900007D10121801500F0E5FA0021A01500F039
:1003A000E1FA10BD10B50121084600F0DBFA00218A
:1003B000012000F0D7FA10BD2DE9F04102460025DA
:1003C0000026002000230024002791F803C00CF031
:1003D0000F0591F803C00CF0100CBCF1000F03D016
:1003E00091F802C04CEA050591F800C0BCF1000F7D
:1003F00031D0146800202BE04FF0010C0CFA00F310
:10040000B1F800C00CEA03069E4220D183004FF0F1
:100410000F0C0CFA03F7BC4305FA03FC4CEA040486
:1004200091F803C0BCF1280F06D14FF0010C0CFA73
:1004300000FCC2F814C00AE091F803C0BCF1480FF8
:1004400005D14FF0010C0CFA00FCC2F810C0401CA2
:100450000828D1D31460B1F800C0BCF1FF0F34DD1F
:10046000546800202EE000F1080C4FF0010808FA53
:100470000CF3B1F800C00CEA03069E4221D18300C0
:100480004FF00F0C0CFA03F7BC4305FA03FC4CEADF
:10049000040491F803C0BCF1280F05D100F1080C49
:1004A00008FA0CF8C2F8148091F803C0BCF1480FA8
:1004B00007D100F1080C4FF0010808FA0CF8C2F857
:1004C0001080401C0828CED35460BDE8F0814FF660
:1004D000FF710180022181700421C17070470246C2
:1004E000002093680B400BB1012000E00020704712
:1004F0000146886880B2704702460020D3680B40EE
:100500000BB1012000E0002070470146C86880B2AE
:10051000704701617047416170470AB1016100E0B5
:1005200041617047C16070474FF480320A43826175
:100530008161826182698269704702460020434B73
:1005400018684FF68073184040EA021008433F4B8A
:10055000186070473E49C8617047F0B50A460023ED
:1005600000240021002500F00046B6F1004F02D122
:10057000364EF16901E0354E7168C0F3034583B230
:1005800000F44016B6F5401F08D121F070612F4EDF
:10059000766826F070662D4F7E6012E000F48016BB
:1005A000B6F5801F06D1032606FA05F4A14341F0F3
:1005B000706106E0460D360103FA06F6B14341F0DC
:1005C000706122B1460D360103FA06F6314300F0A0
:1005D0000046B6F1004F02D11C4EF16101E01B4E06
:1005E0007160F0BD30B500228B071C0F0F2303FA9A
:1005F00004F2164B08338C1053F824309343134CF9
:1006000008348D1044F8253023468C1053F82430DC
:100610008C07240F00FA04F423430C4C08348D108B
:1006200044F8253030BD0A49DC31086070470000CD
:1006300000080140000C014000100140001401407E
:1006400000180140001C0140002001400000014052
:1006500000002042DF48006840F00100DD490860EA
:1006600008464068DC490840DA49486008460068A6
:10067000DA490840D74908600846006820F480201D
:1006800008600846406820F4FE0048604FF41F00F0
:1006900088607047CF49096821F48031CD4A1160E4
:1006A0001146096821F480211160B0F5803F03D024
:1006B000B0F5802F0ED106E0C649096841F48031BB
:1006C000C44A116007E0C349096841F4A021C14A46
:1006D000116000E000BF00BF704710B50146002266
:1006E000002300204A11012A02D1BA4C236806E0F7
:1006F000022A02D1B74C236A01E0B64C636A01F0CA
:100700001F02012494401C400CB1012000E0002095
:1007100010BD38B5002000900024002500BF312016
:10072000FFF7DBFF05460098401C00900098B0F5ED
:10073000A06F01D0002DF2D03120FFF7CEFF08B11D
:10074000012400E00024204638BD01460020A14AD3
:10075000106820F0F80040EAC10010607047A0491E
:1007600008607047024600209A4B586820F47C10BD
:1007700042EA01031843974B58607047984908664E
:10078000704701460020934A506820F00300084358
:10079000506070478F48406800F00C007047014679
:1007A00000208C4A506820F0F000084350607047E9
:1007B00001460020874A506820F4E06008435060FA
:1007C000704701460020834A506820F4605040EA98
:1007D000C1005060704729B17E4A527A02437D4B76
:1007E0005A7204E07B4A527A82437A4B5A727047BB
:1007F0007B49D8310860704701460020754A50682F
:1008000020F440400843506070470021714A203274
:100810001170704A82F82010012802D004280AD1F1
:1008200004E001216B4A2032117005E00521694A7C
:100830002032117000E000BF00BF704769490860B6
:1008400070476449096A0143624A11627047654909
:1008500044390860704730B500210022002400238D
:100860005C4D6D6805F00C0121B1042905D0082903
:1008700023D105E05C4D056022E05B4D05601FE083
:10088000544D6D6805F47012524D6D6805F4803456
:10089000022505EB92421CB9544D554305600BE00F
:1008A0004C4D6D6805F400351DB1504D5543056044
:1008B00002E04D4D5543056002E04B4D056000BF21
:1008C00000BF444D6D6805F0F0010909484D6B5CAF
:1008D0000568DD4045603F4D6D6805F4E061090A3B
:1008E000434D6B5C4568DD4085603A4D6D6805F4AD
:1008F0006051C90A3E4D6B5C4568DD40C560354DB1
:100900006D6805F44041890B3A4D6B5CC568B5FBD9
:10091000F3F5056130BD29B12E4A526902432D4BD2
:100920005A6104E02B4A526982432A4B5A6170474C
:1009300029B1284A92690243264B9A6104E0254A6C
:1009400092698243234B9A61704729B1214AD26947
:100950000243204BDA6104E01E4AD26982431D4BF8
:10096000DA61704729B11B4AD2680243194BDA6039
:1009700004E0184AD2688243164BDA60704729B106
:10098000144A12690243134B1A6104E0114A1269B6
:100990008243104B1A617047124940390860704712
:1009A0000F49C86470470B49C87170470948406ACD
:1009B00040F0807007494862704701460020054AB0
:1009C00092680A400AB1012000E000207047014906
:1009D00088727047001002400000FFF8FFFFF6FE2B
:1009E000000042428004424200127A0000093D00A9
:1009F000000000201000002010B50446FE4884428C
:100A000008D10121C014FFF7ADFF0021E014FFF76A
:100A1000A9FFC4E0B4F1804F08D101210846FFF7D7
:100A2000AEFF00210120FFF7AAFFB8E0F34884429F
:100A300008D101210220FFF7A2FF00210220FFF7C9
:100A40009EFFACE0EE48844208D101210420FFF76C
:100A500096FF00210420FFF792FFA0E0E9488442BE
:100A600008D101210820FFF78AFF00210820FFF7A5
:100A700086FF94E0E448844208D101211020FFF76A
:100A80007EFF00211020FFF77AFF88E0DF488442D4
:100A900008D101212020FFF772FF00212020FFF75D
:100AA0006EFF7CE0DA48844208D101214014FFF750
:100AB00059FF00216014FFF755FF70E0D5488442CC
:100AC00009D10121C804FFF74DFF00214FF4002098
:100AD000FFF748FF63E0D048844209D101210805AF
:100AE000FFF740FF00214FF48010FFF73BFF56E077
:100AF000CA48844209D101214805FFF733FF00218C
:100B00004FF40010FFF72EFF49E0C548844208D19A
:100B100001214020FFF733FF00214020FFF72FFF86
:100B20003DE0C048844208D101218020FFF727FF23
:100B300000218020FFF723FF31E0BB48844208D129
:100B400001218015FFF71BFF0021A015FFF717FFFC
:100B500025E0B648844209D101210804FFF702FFCD
:100B600000214FF48030FFF7FDFE18E0B0488442CA
:100B700009D101214804FFF7F5FE00214FF40030B0
:100B8000FFF7F0FE0BE0AB48844208D10121880456
:100B9000FFF7E8FE00214FF48020FFF7E3FE10BDD1
:100BA00000220288944B98420ED0994B98420BD069
:100BB000B0F1804F08D0914B984205D0904B9842AD
:100BC00002D0904B984204D14FF68F731A404B8855
:100BD0001A438D4B984207D08C4B984204D04FF665
:100BE000FF431A40CB881A4302808B8883850B8889
:100BF0000385814B98420BD0854B984208D08B4B94
:100C0000984205D08A4B984202D08A4B984201D133
:100C10000B7A038601238382704770B5002400227B
:100C20000023058C4FF6FE7635400584028C8388C0
:100C3000048B4FF68F752C40B51E2C400D882C432D
:100C4000751E2A400D892A434D882A436A4DA842C1
:100C50000BD06F4DA84208D0744DA84205D0744DFA
:100C6000A84202D0734DA84213D14FF6F7752A401F
:100C70004D892A434FF6FB752A408D882A434FF64B
:100C8000FF652B404FF6FF552B408D892B43CD89B7
:100C90002B4383800483CD888586028470BD70B524
:100CA000002400220023058C4FF6EF7635400584A2
:100CB000028C8388048B48F6FF752C404FF6FF4565
:100CC0002C400D884FF6FF7606EA05252C434FF69B
:100CD000DF752A400D8906EA05152A434D8806EA84
:100CE00005152A43444DA84202D0494DA8421DD1C2
:100CF0004FF67F752A404D894FF6FF7606EA0515B7
:100D00002A434FF6BF752A408D8806EA05152A4307
:100D10004FF6FF352B404FF2FF752B408D8906EAC9
:100D200085052B43CD8906EA85052B438380048303
:100D3000CD880587028470BD70B500240022002391
:100D4000058C4FF6FF6635400584028C8388848BC2
:100D50004FF68F752C404FF6FC752C400D882C43B8
:100D60004FF6FF552A400D894FF6FF7606EA052516
:100D70002A434D8806EA05252A431F4DA84202D082
:100D8000234DA8421DD14FF2FF752A404D894FF6E1
:100D9000FF7606EA05252A434FF6FF352A408D885F
:100DA00006EA05252A434EF6FF752B404DF6FF75E2
:100DB0002B408D8906EA05152B43CD8906EA0515DA
:100DC0002B4383808483CD888587028470BD70B572
:100DD000002200230024058C4EF6FF763540058462
:100DE000038C8488828B48F6FF752A404FF6FF45B6
:100DF0002A400D8820E00000002C01400004004043
:100E000000080040000C00400010004000140040AA
:100E100000340140004C01400050014000540140AA
:100E200000180040001C004000200040004001402D
:100E300000440140004801404FF6FF7606EA0525D0
:100E40002A434DF6FF752B400D8906EA05352B43E5
:100E50004D8806EA05352B43FA4DA84202D0FA4DDB
:100E6000A84208D14BF6FF752C408D894FF6FF76CE
:100E700006EA85152C4384808283CD88A0F84050F3
:100E8000038470BD828B4FF2FF331A408283828BC2
:100E90004FF6FF7303EA01231A4382837047F0B5CC
:100EA0000C461546002200210026078C4EF6FF7CDA
:100EB00007EA0C070784828B018C4FF6FF7707EA5D
:100EC000043640F6FF473A404FF6FF7707EA05271A
:100ED0003A434FF6FF7707EA03373A43D94FB84210
:100EE0000ED0D94FB8420BD0B0F1804F08D0D74FB9
:100EF000B84205D0D64FB84202D0D64FB84206D13C
:100F00004DF6FF77394046F48057394305E047F600
:100F1000FF57394044F48057394382830184F0BD40
:100F2000828B4FF6F3731A408283828B0A4382834B
:100F30007047F0B50C461546002200210026078CAC
:100F40004FF6FF6C07EA0C070784828B018C4FF683
:100F5000FF7707EA04264FF60C773A404FF6FF7703
:100F600007EA03172F433A43B64FB8420ED0B64FA5
:100F7000B8420BD0B0F1804F08D0B44FB84205D082
:100F8000B34FB84202D0B34FB84206D14FF6FF5725
:100F9000394046F48077394305E04FF2FF57394036
:100FA00044F48077394382830184F0BD028B4FF291
:100FB000FF331A400283028B4FF6FF7303EA0123CB
:100FC0001A4302837047F0B50C46154600220021F3
:100FD0000026078C4FF6EF7C07EA0C070784028B8C
:100FE000018C4FF6FF7707EA041640F6FF473A40B8
:100FF0004FF6FF7707EA03373A434FF6FF7707EAE2
:1010000005273A438F4FB8420ED08F4FB8420BD0CE
:10101000B0F1804F08D08D4FB84205D08C4FB84208
:1010200002D08C4FB84206D14FF6DF77394046F0F8
:101030001007394305E04FF65F77394044F0100759
:10104000394302830184F0BD028B4FF6F3731A40DB
:101050000283028B0A4302837047F0B50C461546A3
:1010600000220021068C4FF6FE773E400684028B5C
:10107000018C4FF60C7632407E1C06EA03162E4396
:101080003243704EB0420ED06F4EB0420BD0B0F132
:10109000804F08D06D4EB04205D06D4EB04202D0A8
:1010A0006C4EB04206D14FF6FD76314044F0010659
:1010B000314305E04FF6F576314044F00106314307
:1010C00002830184F0BD70B505460C465D4885423B
:1010D0000ED05D4885420BD0B5F1804F08D05B48FB
:1010E000854205D05A48854202D05A48854200D1EF
:1010F00000E000BF208850B92389A2886188284673
:10110000FFF7ABFFE1882846FFF79EFF25E0208828
:1011100004280AD12389A28861882846FFF753FF53
:10112000E1882846FFF742FF17E0208808280AD107
:101130002389A28861882846FFF7FBFEE1882846BC
:10114000FFF7EEFE09E02389A28861882846FFF7B1
:10115000A6FEE1882846FFF795FE70BD2DE9F04117
:1011600005460C4600260127608808B9022600E0E3
:101170000026A088012801D1022700E0012720884D
:10118000A0B92389A28861882846FFF766FFE18815
:101190002846FFF759FF23893A4631462846FFF78C
:1011A00012FFE1882846FFF701FF13E02389A28898
:1011B00061882846FFF707FFE1882846FFF7F6FE1B
:1011C00023893A4631462846FFF747FFE1882846FB
:1011D000FFF73AFFBDE8F0810A884B881A438B88F5
:1011E0001A43CB881A430B891A434B891A438B89BC
:1011F0001A43A0F8442070474FF6FF718180002108
:101200000180C180418001727047002101804180CE
:101210008180C180018141818181C181704700212C
:1012200001804180012181800021C18001817047BE
:101230000021018041808180C180018141818181C3
:1012400070470000002C01400034014000040040C1
:1012500000080040000C004021B1028842F0010269
:10126000028004E002884FF6FE731A400280704745
:1012700031B1B0F8442042F40042A0F8442005E027
:10128000B0F84420C2F30E02A0F8442070471AB10F
:1012900083890B43838102E083898B438381704779
:1012A0008182704741EA0203A0F8483070471AB1C2
:1012B00083890B43838102E083898B438381704759
:1012C00001894FF6F8721140018170470A460021EA
:1012D00001894FF68F73194011430181704730B572
:1012E00004460D4629462046FFF7F0FF208940F0CE
:1012F0000700208130BD2DE9F04104460D46164619
:101300001F46602D06D13B46012231462046FFF79D
:101310005AFE05E03B46012231462046FFF79DFE7E
:1013200029462046FFF7D2FF208940F007002081A0
:10133000BDE8F08130B50C4600210189C9B24FF6F5
:10134000FF7505EA0325154325432943018130BD77
:101350002DE9F04105460E461746984600244346BF
:101360003A4631462846FFF7E5FF2C894FF6F870DC
:10137000044044F007044FF68F70044044F07004BA
:101380002C81BDE8F081F0B504460D4616461F4697
:101390003B46324629462046FFF7CCFF208940F4E1
:1013A00080402081F0BD0185828270470A4600217D
:1013B00001884FF68F731940114301807047F0B5D3
:1013C0000C4615461E460021002200230189028B8F
:1013D000038C4FF6F877394021434FF6FC473A40EB
:1013E00040F201173A434FF6DD773B404FF6FF7767
:1013F00007EA06172F433B43018102830384F0BDB4
:101400000A460021018B4FF68F7319401143018367
:1014100070470A460021018B48F6FF7319404FF6CA
:10142000FF7303EA02231943018370470A46002130
:10143000818B4FF68F7319401143818370470A46A1
:101440000021818B48F6FF7319404FF6FF7303EAC2
:10145000022319438183704721B1028842F0800240
:10146000028004E002884FF67F731A4002807047C2
:1014700021B1828842F00402828004E082884FF623
:10148000FB731A408280704721B1828842F00802C3
:10149000828004E082884FF6F7731A40828070479A
:1014A00021B1828842F00102828004E082884FF6F6
:1014B000FE731A40828070470A460021018B4FF666
:1014C000F77319401143018370470A460021018BCD
:1014D0004FF2FF7319404FF6FF7303EA02231943DB
:1014E000018370470A460021818B4FF6F77319403C
:1014F0001143818370470A460021818B4FF2FF73AD
:1015000019404FF6FF7303EA0223194381837047A2
:101510000A460021018B4FF6FB73194011430183EA
:1015200070470A460021018B4FF6FF3319404FF6F2
:10153000FF7303EA02231943018370470A4600211F
:10154000818B4FF6FB7319401143818370470A4624
:101550000021818B4FF6FF3319404FF6FF7303EAEA
:1015600002231943818370470A460021018B4FF6FD
:101570007F7319401143018370470A460021018B94
:10158000C1F30E014FF6FF7303EA022319430183EF
:1015900070470A460021818B4FF67F731940114333
:1015A000818370470A460021818BC1F30E014FF6FB
:1015B000FF7303EA02231943818370470A4600211F
:1015C000018C4FF6FD7319401143018470470A46A0
:1015D0000021018C4FF6F7731940114301847047C5
:1015E0000A460021018C4FF6DF7319404FF6FF7356
:1015F00003EA02131943018470470A460021018C53
:101600004FF67F7319404FF6FF7303EA0213194335
:10161000018470470A460021018C4FF6FF531940A0
:101620004FF6FF7303EA02231943018470470A4609
:101630000021018C4FF2FF7319404FF6FF7303EA4C
:1016400002231943018470470A460021018C4DF69C
:10165000FF7319404FF6FF7303EA02331943018405
:10166000704730B5002301248C40A3B2048C9C4306
:101670000484048C02FA01F5ADB22C43048430BD1D
:1016800030B5002304248C40A3B2048C9C43048412
:10169000048C02FA01F5ADB22C43048430BD70B560
:1016A0000346002000241846183001258D40ACB2B6
:1016B0001D8CA5431D8409B1082909D100EB6100E7
:1016C000056825F0700505600568154305600EE0A6
:1016D0000D1FC5F34E052844056825F4E045056057
:1016E00005684FF6FF7606EA02263543056070BDB1
:1016F00021B1028842F00202028004E002884FF623
:10170000FD731A400280704721B1028842F0040242
:10171000028004E002884FF6FB731A400280704793
:1017200021B1828842F08002828004E082884FF6F4
:101730007F731A408280704702884FF6F7731A4011
:10174000028002880A430280704782884FF68F73B6
:101750001A40828082880A438280704702894FF64D
:10176000F8731A40028102890A4302817047028994
:101770004FF67F731A40028102890A430281704743
:1017800081847047818570478186704701877047E3
:1017900081877047A0F84010704702884FF6FF43DA
:1017A0001A40028002880A43028070470146888EF0
:1017B00070470146088F70470146888F7047014681
:1017C000B1F8400070470146888C70470146088D8B
:1017D000704702460020138A0B400BB1012000E045
:1017E00000207047CA430282704730B5024600208D
:1017F00000230024158A05EA0103958905EA0104FE
:1018000013B10CB1012000E0002030BDCA430282B8
:101810007047000010B50446FB48844209D10121FD
:101820008803FFF79FF800214FF48040FFF79AF8F4
:1018300032E0F648844209D101214804FFF79FF8BD
:1018400000214FF40030FFF79AF825E0F048844279
:1018500009D101218804FFF792F800214FF480207C
:10186000FFF78DF818E0EB48844209D10121C80444
:10187000FFF785F800214FF40020FFF780F80BE018
:10188000E548844208D101210805FFF778F80021D6
:101890004FF48010FFF773F810BD2DE9F04786B0C4
:1018A00005460E460024A24600BFA1460027B08987
:1018B00000B100BF2F462C8A4CF6FF700440F08820
:1018C00004432C82AC894EF6F3100440B088318971
:1018D0000843718908430443AC81AC8A4FF6FF404A
:1018E0000440B0890443AC8201A8FEF7B4FFC648A7
:1018F000874202D1DDF810A001E0DDF80CA0A88934
:1019000000F4004040B10AEBCA0000EB0A10316855
:101910004900B0FBF1F807E00AEBCA0000EB0A103F
:1019200031688900B0FBF1F86420B8FBF0F00401E5
:101930002009642101FB1089A88900F4004040B10E
:10194000322000EBC900B0FBF1F000F007000443C7
:1019500008E0322000EB09106421B0FBF1F000F048
:101960000F0004432C8106B0BDE8F0874FF41651F8
:10197000016000218180C18001810C214181002111
:101980008181704710B502460020108A4FF2FF0394
:1019900018400B884C8823438C882343CC882343EE
:1019A0001843108210BD0021018041808180C180D8
:1019B000704721B1828942F40052828104E0828919
:1019C0004DF6FF731A4082817047F0B5034600243C
:1019D00000260025002040F66A17B94200D100BF5A
:1019E0001846C1F3421401F01F06012707FA06F555
:1019F000012C01D10C3004E0022C01D1103000E0A8
:101A000014301AB107682F43076002E00768AF433C
:101A10000760F0BD1AB1838A0B43838202E0838A98
:101A20008B4383827047028A4FF6F0731A4002821A
:101A3000028A0A430282704782894FF2FF731A407A
:101A4000828182890A438281704721B1828942F072
:101A50000202828104E082894FF6FD731A4082817E
:101A60007047028A4FF6DF731A400282028A0A43E5
:101A70000282704721B1028A42F48042028204E06D
:101A8000028A4BF6FF731A4002827047C1F30802C4
:101A90008280704701468888C0F3080070478189BA
:101AA00041F0010181817047028BD2B20283028B27
:101AB00042EA012202837047028B02F47F420283D2
:101AC000028B0A430283704721B1828A42F02002CE
:101AD000828204E0828A4FF6DF731A408282704766
:101AE00021B1828A42F01002828204E0828A4FF69B
:101AF000EF731A408282704721B1828A42F0080255
:101B0000828204E0828A4FF6F7731A40828270471D
:101B100021B1828942F40042828103E08289C2F3CA
:101B20000E028281704721B1828A42F40062828271
:101B300004E0828A4FF2FF731A4082827047828AE1
:101B40004FF6FB731A408282828A0A438282704770
:101B500021B1828A42F00202828204E0828A4FF638
:101B6000FD731A408282704702460020B1F5007F63
:101B700000D100BF13880B400BB1012000E0002012
:101B8000704701F40072B2F5007F00D100BFCA4374
:101B90000280704770B50246002400230025002013
:101BA00040F66A16B14200D100BFC1F3421501F000
:101BB0001F03012606FA03F3012D02D19689334053
:101BC00006E0022D02D1168A334001E0968A3340A6
:101BD0000C12012606FA04F41688344013B10CB135
:101BE000012000E0002070BD10B50022002340F667
:101BF0006A14A14200D100BF0A1201249440A3B28A
:101C0000DC43048010BD0000003801400044004067
:101C100000480040004C00400050004010B5044611
:101C2000FA48844208D101214015FEF79BFE0021AD
:101C30006015FEF797FE17E0F548844208D10121B0
:101C40000015FEF78FFE00212015FEF78BFE0BE03E
:101C5000F048844208D10121C803FEF783FE002129
:101C60004FF40040FEF77EFE10BD30B50246002066
:101C700000235068E84C20400D790C6844EA0524A4
:101C8000204350609068E54C2040D1E902542C4339
:101C90004D7944EA450420439060D06A20F47000F6
:101CA0000C7C641EE4B2234340EA0350D06230BD92
:101CB00000210160017141718160C16001210174E5
:101CC000704721B1826842F00102826003E08268BD
:101CD00022F001028260704721B1826842F4807272
:101CE000826003E0826822F480728260704710B5DF
:101CF0000023CBB21AB144681C43446002E044683C
:101D00009C43446010BD816841F0080181607047C8
:101D1000014600208A6802F008020AB1012000E0B2
:101D200000207047816841F00401816070470146DE
:101D300000208A6802F004020AB1012000E00020BD
:101D4000704721B1826842F4A002826003E0826899
:101D500022F4A00282607047014600208A6802F4E3
:101D600080020AB1012000E00020704710B50A4649
:101D700000210023416821F46041531E41EA4331B0
:101D8000416010BD21B1426842F40062426003E04C
:101D9000426822F4006242607047F0B504460D4686
:101DA00000200021092D11DDE068A5F10A0606EBEF
:101DB0004607072606FA07F18843A5F10A0606EB4F
:101DC000460603FA06F10843E0600CE0206905EBE3
:101DD0004507072606FA07F1884305EB450603FA8F
:101DE00006F108432061072A0FDA606B561E06EBE6
:101DF00086071F2606FA07F18843561E06EB86065D
:101E000005FA06F10843606322E00D2A0FDA206B21
:101E1000D61F06EB86071F2606FA07F18843D61F52
:101E200006EB860605FA06F10843206310E0E06A37
:101E3000A2F10D0606EB86071F2606FA07F1884376
:101E4000A2F10D0606EB860605FA06F10843E062EC
:101E5000F0BD21B1826842F48012826003E08268A2
:101E600022F48012826070470146C86C80B27047CD
:101E700066484C300068704721B1426842F4806285
:101E8000426003E0426822F480624260704721B100
:101E9000426842F48052426003E0426822F4805279
:101EA000426070470A460021816821F4E0411143F5
:101EB0008160704721B1826842F40042826003E091
:101EC000826822F400428260704721B1826842F445
:101ED0000212826003E0826822F40212826070477C
:101EE000014600208A6802F400120AB1012000E0D5
:101EF00000207047F0B50446154600200022002659
:101F0000092911DDE068A1F10A0707EB470C072753
:101F100007FA0CF29043A1F10A0707EB470703FA0F
:101F200007F21043E0600CE0206901EB410C072749
:101F300007FA0CF2904301EB410703FA07F2104352
:101F40002061A06BC0F30156EF1C06F1010CA7EB5A
:101F50000C0707EB870C1F2707FA0CF29043EF1CC6
:101F600006F1010CA7EB0C0707EB870701FA07F254
:101F70001043A063F0BD10B50A4600210023816B19
:101F800021F44011531E41EA0351816310BD08B58D
:101F9000002300930090009B0B440093009B1A6069
:101FA00008BD08B5024600200090009201F128000B
:101FB000009B184400900098006880B208BD0A4653
:101FC00000214168164B194011434160704741623E
:101FD000826270470A460021416821F01F011143C7
:101FE0004160704740B109490831096841F4000176
:101FF000064A0832116007E004490831096821F4F3
:102000000001024A083211607047000000240140BC
:1020100000280140003C0140FFFEF0FFFDF7F1FF0A
:10202000FFFD3FFF0246002013680B400BB101206B
:1020300000E000207047CA430260704770B5024656
:102040000020002300240B125568CEB205EA0604D6
:1020500015681D4015B10CB1012000E0002070BDD5
:1020600000220A12D3430360704700000CB5002021
:10207000019000906C48006840F480306A49086024
:1020800000BF6948006800F4003000900198401CCF
:102090000190009818B90198B0F5A06FF1D162488D
:1020A000006800F4003010B10120009001E0002031
:1020B00000900098012843D15C48006840F010006F
:1020C0005A4908600846006820F003000860084686
:1020D000006840F002000860534840685249486078
:1020E0000846406848600846406840F480604860A0
:1020F0000846406820F47C1048600846406840F478
:10210000E81048600846006840F08070086000BF32
:102110004548006800F000700028F9D04248406847
:1021200020F00300404948600846406840F0020043
:10213000486000BF3C48406800F00C000828F9D116
:102140000CBD10B5FFF792FF10BD10B53648006802
:1021500040F00100344908600846406834490840AE
:102160003149486008460068324908402E490860F5
:102170000846006820F4802008600846406820F483
:10218000FE0048604FF41F008860FFF7DAFF4FF051
:1021900000602949086010BD10B500210020002210
:1021A000214B5B6803F00C0121B1042906D00829FA
:1021B00028D107E0214B224C236027E01F4B204C05
:1021C000236023E0184B5B6803F47010164B5B68C8
:1021D00003F48032022303EB904022B9194B4343AE
:1021E000174C23600DE0104B5B6803F4003323B100
:1021F000144B4343124C236003E0104B4343104CF9
:10220000236003E00D4B0E4C236000BF00BF064B64
:102210005B68C3F303130C4CE15C094B1B68CB40B8
:10222000074C236010BD0000001002400020024057
:102230000000FFF8FFFFF6FE08ED00E000127A0054
:102240001400002000093D0018000020014605E0B0
:10225000002001E0421CD0B20A28FBDB0A1EA1F1DB
:102260000101F5D1704710B5044603E04FF47A70D0
:10227000FFF7ECFF201EA4F10104F7D110BD704759
:1022800008B50720009002E00098401E00900098DA
:102290000028F9D108BD10B54FF40070E649086078
:1022A00040100860FFF7ECFFE3480838006808B901
:1022B000012000E0002000F4007008B1002010BDF3
:1022C0004FF40070DC49091D0860FFF7D9FFDA48B8
:1022D0000838006800F4007008B10020EFE74FF400
:1022E0000070D549091D0860FFF7CAFF0120E6E725
:1022F00010B54FF48070D049091D0860FFF7C0FF8A
:102300004FF40070CC49091D0860FFF7B9FF4FF486
:102310008070C9490860FFF7B3FF4FF40070C649E9
:102320000860FFF7ADFF10BD10B54FF48070C249D3
:10233000091D0860FFF7A4FF4FF40070BE49091D96
:102340000860FFF79DFF4FF48070BB490860FFF7FE
:1023500097FF4FF48070B849091D0860FFF790FFA0
:1023600010BD10B54FF48070B349091D0860FFF728
:1023700087FF4FF40070B0490860FFF781FF4FF40A
:102380008070AD490860FFF77BFF4FF48070AA4969
:10239000091D0860FFF774FF10BD10B54FF4807081
:1023A000A549091D0860FFF76BFF4FF40070A249B3
:1023B0000860FFF765FF4FF480709F490860FFF7E2
:1023C0005FFF9D480838006800F4007030B14FF49A
:1023D00080709949091D0860002010BD4FF480707D
:1023E0009549091D08600120F7E770B504460825E6
:1023F0001DE04FF480709049091D0860FFF740FF11
:1024000004F0800020B14FF400708B49086004E0B4
:102410004FF400708849091D08606006040EFFF73C
:102420002FFF4FF4807084490860FFF729FF281EB2
:10243000A5F10101CDB2DCD14FF480707E49091DB8
:10244000086070BD70B508250024A8017A490860AD
:1024500016E06006040E4FF480707749091D08608D
:10246000FFF70EFF4FF4807073490860FFF708FF15
:1024700071480838006800F4007008B144F00104A5
:10248000281EA5F10101CDB2E3D14FF480706A4955
:10249000091D0860204670BD08B501210820FEF71F
:1024A00047FA4FF44070ADF8000002208DF80200AA
:1024B00014208DF8030069465F481038FDF77CFF53
:1024C00008BD2DE9F04105460E4617469846FFF730
:1024D000E2FE10B90020BDE8F081002141EA45018B
:1024E000C8B2FFF782FFFFF758FF18B9FFF700FFE8
:1024F0000020F0E73046FFF778FFFFF74EFF00249B
:102500000BE018F80400FFF770FFFFF746FF18B95B
:10251000FFF7EEFE0020DEE7641CBC42F1DBFFF7B4
:10252000E7FE0120D7E72DE9F04104460D461646A7
:102530001F463B46324629462046FFF7C2FF10B1F0
:102540000020BDE8F0814FF0FF30FAE72DE9F041BF
:1025500005460F4614461E46FFF79DFE10B90020A3
:10256000BDE8F081002141EA4501C8B2FFF73DFF17
:10257000FFF713FF18B9FFF7BBFE0020F0E738465E
:10258000FFF733FFFFF709FFFFF785FE012101EB9E
:102590004501C8B2FFF729FFFFF7FFFE0CE0FFF788
:1025A00051FF3070012C02D1FFF7DBFE01E0FFF795
:1025B000BBFE761C601EC4B2002CF0D1FFF798FE63
:1025C0000120CDE72DE9F04104460D4616461F4691
:1025D0003B46324629462046FFF7B8FF10B100209F
:1025E000BDE8F0814FF0FF30FAE770B504460D46C4
:1025F0001646FFF750FE08B9002070BD002141EAE1
:102600004401C8B2FFF7F1FEFFF7C7FE18B9FFF7A4
:102610006FFE0020F1E72846FFF7E7FEFFF7BDFE5B
:102620003046FFF7E2FEFFF7B8FEFFF761FE01203C
:10263000E3E7002070470000100C014008B50121BD
:102640001120FEF775F901210B48FDF786FF4FF4C5
:10265000C040ADF8000003208DF8020010208DF876
:10266000030069460548FDF7A7FE4FF4C041034843
:10267000FDF74FFF08BD00000002300000100140D0
:10268000002400270026FFF760FD41F61F4141F2BC
:10269000883002F089FA02F0C3FA02F0F3F800F091
:1026A000E1F800F043F8FFF7C9FF02F03FFB00F04C
:1026B000EFF800F056F9FFF7EFFE0A2000F02EFECB
:1026C00000F062FA00F0D2FD00F05EFE0021084644
:1026D00001F028FF124807784FF0E020006940F031
:1026E00001004FF0E021086118E000F0BDFA8EB95A
:1026F0000B480578E81BC0B204442F46B4F5FA7FB6
:1027000007D300234FF47A720649074801F0DDFD34
:10271000012600BF02F064F801F07AFCE5E7000052
:10272000D80000209A99993E0000C84208B50121BE
:102730000820FEF7FDF84FF47040ADF800001020BF
:102740008DF8030003208DF802006946FE48FDF76E
:1027500033FE4FF47041FC48FDF7DBFE08BD08B5C1
:1027600001210846FEF7F1F801210420FEF7E0F808
:102770000C20ADF8000018208DF8030003208DF820
:1027800002006946F148FDF717FE08BD30B587B075
:102790000025002440F2E730ADF814000020ADF829
:1027A0001000ADF81600ADF8120004A94FF08040FB
:1027B000FEF7F6F96020ADF800000120ADF8020048
:1027C000ADF806500020ADF8080069464FF0804093
:1027D000FEF7B2FA0821C806FEF784FE0120ADF824
:1027E0000200ADF806400020ADF8080069464FF041
:1027F0008040FEF7ECFA0821C806FEF77CFE0121B6
:102800008807FEF729FE01218807FEF725FD07B09E
:1028100030BD2DE9FF4104460D4627462E46602077
:10282000ADF800000120ADF80200ADF80670002000
:10283000ADF8080069464FF08040FEF77DFA0821A8
:10284000C806FEF74FFE0120ADF80200ADF80660A5
:1028500069468007FEF7BBFA0821C806FEF74BFE63
:10286000BDE8FF8110B5FFF77AFFFFF78FFF10BDBE
:10287000B7490888098821F00101B54A11807047DD
:10288000B4490888098821F00101B24A11807047D3
:1028900000B589B001210220FEF757F8012104207C
:1028A000FEF746F801A8FDF712FEC020ADF80400BF
:1028B00004208DF8070003208DF8060001A9A34825
:1028C000FDF77AFD4FF4A060FDF71AFC1D208DF88E
:1028D000080001208DF8090003208DF80A0001206E
:1028E0008DF80B0002A8FDF710FC99481038FEF790
:1028F00083F806A8FEF780FC0020ADF818004FF61C
:10290000FF70ADF81C000020ADF81E00ADF81A00F5
:1029100006A98F481038FEF743F90A231A46032107
:102920008B481038FEF74BFD03A8FEF778FC062015
:10293000ADF8140003A986481038FEF7C4FB012146
:1029400083481038FEF74EFF0122114680481038A8
:10295000FEF79DFC01217E481038FEF77DFC09B092
:1029600000BD00B589B001210420FDF7EEFF012173
:102970000820FDF7DDFF01A8FDF7A9FDC020ADF897
:10298000040004208DF8070003208DF8060001A93B
:102990006D48FDF711FD4FF4A060FDF7B1FB1E205F
:1029A0008DF8080001208DF8090003208DF80A0039
:1029B00001208DF80B0002A8FDF7A7FB6548103831
:1029C000FEF71AF806A8FEF717FC0020ADF818006D
:1029D0004FF6FF70ADF81C000020ADF81E00ADF8FA
:1029E0001A0006A95B481038FEF7DAF80A231A46DF
:1029F000032158481038FEF7E2FC03A8FEF70FFC4D
:102A00000620ADF8140003A952481038FEF75BFB0E
:102A1000012150481038FEF7E5FE012211464D48CD
:102A20001038FEF734FC01214A481038FEF714FC38
:102A300009B000BD00B585B001210420FDF778FF85
:102A400001210220FDF781FF8020ADF81000042055
:102A50008DF8130003208DF8120004A93B48FDF700
:102A6000ABFC4FF4A060FDF74BFB1D208DF8000080
:102A700001208DF8010003208DF8020001208DF85F
:102A800003006846FDF741FB31481038FDF7B4FFFD
:102A90004FF6FF70ADF808000020ADF80400ADF867
:102AA0000A00ADF8060001A929481038FEF778F8A9
:102AB00000231A46602126481038FEF71CFC00212E
:102AC00023481038FEF75CFE012121481038FEF73C
:102AD000C3FB05B000BD00B585B001210820FDF79E
:102AE00027FF01210420FDF730FF8020ADF8100002
:102AF00004208DF8130003208DF8120004A9124859
:102B0000FDF75AFC4FF4A060FDF7FAFA1E208DF88D
:102B1000000001208DF8010003208DF80200012043
:102B20008DF803006846FDF7F0FA0A481038FDF703
:102B300063FF4FF6FF70ADF808000020ADF8040009
:102B4000ADF80A0008E00000000C01400008014058
:102B50001004004010080040ADF8060001A9094823
:102B6000FEF71EF800231A4660210648FEF7C3FB55
:102B700000210448FEF704FE01210248FEF76CFB29
:102B800005B000BD0008004070B5002402F099FDBA
:102B90000446002C60D17CA001F0F1FF782002F007
:102BA000F2F918B981A001F0EAFF02E087A001F074
:102BB000E6FF782002F0D4FB18B98FA001F0DFFF08
:102BC00002E096A001F0DBFF642002F0AAFC18B935
:102BD0009EA001F0D4FF02E0A6A001F0D0FF04F017
:102BE00061F818B9ACA001F0CAFF02E0B7A001F08B
:102BF000C6FFC54804F032FF054604F05DF818B979
:102C0000C2A001F0BCFF02E0CAA001F0B8FF40F290
:102C1000731004F092FC18B9D2A001F0B0FF02E0EA
:102C2000D9A001F0ACFF642004F000FA18B9E2A0CA
:102C300001F0A5FF02E0E9A001F0A1FF04F022FFEE
:102C4000012003F075FD18B9EFA001F098FF0AE02C
:102C5000F6A001F094FF06E04FF40051FE48FDF7A6
:102C60005AFC00BFFEE770BD2DE9F04F89B0FB486C
:102C7000FB49FC4BFC4ACDE90010FC49FC4804F040
:102C8000BBFDF748008800F4807000287AD0F64930
:102C9000086805F029FA04464FF09D4105F05EF8FA
:102CA000F4490860F049486805F01EFA04464FF000
:102CB0009D4105F053F8F0490860EB49886805F03C
:102CC00013FA04464FF09D4105F048F8EB490860BF
:102CD000E549C86805F008FA04464FF09D4105F043
:102CE0003DF8E7490860E34801684FF0804005F08F
:102CF00003F80690E1480168069804F0FDFF82465B
:102D0000DD4801684FF0404004F0F6FF0690DC48D3
:102D10000168069804F0F0FF8346514604F094FFE2
:102D2000079005F02DFA064606F062FC80464FF04B
:102D30006632D44B05F0F7F8044605F04DFAD24957
:102D40000860CE4801684FF0804004F0D5FF039042
:102D5000CA480168039804F0CFFF8246C64801685C
:102D60004FF0404004F0C8FF0390C3480168039847
:102D700004F0C2FF8346514604F0B8FF81464FF08D
:102D80007E5183E10CE200006D707520696E6974FC
:102D900069616C697A6174696F6E20636F6D706CC4
:102DA0006574652E2E2E2E2E2E0A20006D70755FF6
:102DB0007365745F73656E736F7220636F6D706C93
:102DC000657465202E2E2E2E2E2E0A006D70755FD6
:102DD0007365745F73656E736F7220636F6D6520CA
:102DE0006163726F7373206572726F72202E2E2E64
:102DF0002E2E2E0A000000006D70755F636F6E66E8
:102E000069677572655F6669666F20636F6D706C68
:102E1000657465202E2E2E2E2E2E0A006D70755F85
:102E2000636F6E6669677572655F6669666F20635A
:102E30006F6D65206163726F7373206572726F725C
:102E4000202E2E2E2E2E2E0A000000006D70755F93
:102E50007365745F73616D706C655F72617465201A
:102E6000636F6D706C657465202E2E2E2E2E2E0ACB
:102E7000000000006D70755F7365745F73616D7045
:102E80006C655F72617465206572726F72202E2EA0
:102E90002E2E2E2E0A000000646D705F6C6F616430
:102EA0005F6D6F74696F6E5F6472697665725F667D
:102EB00069726D7761726520636F6D706C657465A2
:102EC000202E2E2E2E2E2E0A00000000646D705F24
:102ED0006C6F61645F6D6F74696F6E5F6472697649
:102EE00065725F6669726D7761726520636F6D658B
:102EF000206163726F7373206572726F72202E2E61
:102F00002E2E2E2E0A00000028000020646D705F17
:102F10007365745F6F7269656E746174696F6E203A
:102F2000636F6D706C657465202E2E2E2E2E2E0A0A
:102F300000000000646D705F7365745F6F72696597
:102F40006E746174696F6E20636F6D65206163726A
:102F50006F7373206572726F72202E2E2E2E2E2E9E
:102F60000A000000646D705F656E61626C655F668B
:102F700065617475726520636F6D706C6574652032
:102F80002E2E2E2E2E2E0A00646D705F656E6162ED
:102F90006C655F6665617475726520636F6D652031
:102FA0006163726F7373206572726F72202E2E2EA2
:102FB0002E2E2E0A00000000646D705F7365745F32
:102FC0006669666F5F7261746520636F6D706C65B2
:102FD0007465202E2E2E2E2E2E0A0000646D705F3A
:102FE0007365745F6669666F5F7261746520636F95
:102FF0006D65206163726F7373206572726F7220EA
:103000002E2E2E2E2E2E0A006D70755F7365745F46
:10301000646D705F737461746520636F6D706C654F
:103020007465202E2E2E2E2E2E0A00006D70755FD8
:103030007365745F646D705F737461746520636F32
:103040006D65206163726F7373206572726F722099
:103050002E2E2E2E2E2E0A0000100140620000207F
:103060006000002050000020200200205A000020B4
:103070005400002034000020380000203C000020D4
:103080004000002066A64C404400002004F0DCFD17
:10309000044605F075F8CDE90401434801684FF096
:1030A000804004F029FE834640480168584604F0F9
:1030B00023FE81463E4801684FF0804004F01CFE2C
:1030C00083463C480168584604F016FE824649464D
:1030D00004F0BAFD044605F053F80746DDE9042381
:1030E00006F0CEFC4FF06632334BCDE9060104F01A
:1030F0001AFF054605F070F8304908602D48016850
:10310000006804F0F9FD039029480168006804F0A4
:10311000F3FD029025480168006804F0EDFD834648
:1031200021480168006804F0E7FD5946019004F069
:103130008BFD8246029904F0D9FD8146039904F083
:10314000D5FD044605F01CF8CDE9040119480168D5
:103150001548006804F0D0FD824615480168134800
:10316000006804F0C9FD8346514604F06DFD8146B8
:103170004FF0804104F0C0FD044605F001F8074619
:10318000DDE9042306F07CFC4FF066320A4BCDE902
:10319000060104F0C8FE054605F01EF8084908605F
:1031A00009B0BDE8F08F0000340000203800002096
:1031B0003C0000204000002066A64C404800002053
:1031C0004C000020704700BFFEE700BFFEE700BFD5
:1031D000FEE700BFFEE770477047704710B51D4817
:1031E0000078401C1B4908701B480078401C1A4995
:1031F00008701A480078401C1849087000F08DFBD0
:1032000017480078401C1649087016480078401C82
:103210001449087014480078401C134908700E487F
:103220000078022806DB01F06CFD00F0E8FC0020CD
:103230000949087009480078082806DB00F09AFB65
:103240000020064908700649087000F04FF900F0A8
:10325000EEFA10BDD8000020DD000020D9000020CB
:10326000DA000020DB000020DC00002030B5274819
:103270000068C822B0FBF2F1B1F1807F01D30120D8
:103280001DE021F07F40401E4FF0E02250615017BA
:103290000F22002807DA13071D0E1D4B00F00F0444
:1032A000241F1D5503E013071C0E1A4B1C5400BFAE
:1032B00000204FF0E022906107201061002008B14B
:1032C00000BFFEE74FF0E020006920F001004FF062
:1032D000E021086130BD01B50F49009808604FF04A
:1032E000E020006940F001004FF0E021086100BFDC
:1032F000094800680028FBD108BD0748006820B1D4
:1033000005480068401E044908607047140000200A
:1033100018ED00E000E400E064000020002107E078
:1033200042F6E06100BF0A1EA1F1010399B2FAD191
:10333000021EA0F1010398B2F2D170470020F849B3
:103340000876087048608860F6480068C860002009
:10335000C882704700B502460020F3490870F34860
:103360000260FFF7EBFF0020F1490870F149087097
:10337000F1480078F14908700020F1490860EE48F2
:103380000078F049087000BD00B50020EE490880C3
:10339000EE490880EE490860EE490860EE49086091
:1033A000EE490860EE490860EE490860EE490860A1
:1033B000EE490860EE490860EE490860EE49086091
:1033C000D8490860ED490860ED490860ED4908609A
:1033D000ED490860D8490870EC490870EC4908705C
:1033E000D5480078D54908700020D5490860D248F2
:1033F0000078D44908704FF46170E6490880E648C7
:10340000E64908600120E64908700020E549087097
:10341000E5490870E5490860E5490860E549086044
:10342000E548FFF797FF0020E449086000BD2DE95B
:10343000F041E348006804F0A3FE0446E148D0E907
:1034400000633246204604F0AFFE07D0DD48D0E9E5
:103450000021104604F0C0FED9490860DA4800682F
:1034600004F08EFE0446D748D0E902633246204677
:1034700004F09AFE07D0D348D0E90221104604F0A8
:10348000ABFED1490860D148006804F079FE0446DB
:10349000CC48D0E904633246204604F085FE07D0CC
:1034A000C848D0E90421104604F096FEC7490860D8
:1034B000C748006804F064FE0446C248D0E90663C9
:1034C0003246204604F070FE07D0BE48D0E90621FF
:1034D000104604F081FEBE4908600020B349086030
:1034E000B3490860B3490860BDE8F0812DE9F041B7
:1034F000B8480068012810D10020B1490860B648DA
:10350000006804F0FFFD06460022B44B04F00BFDFA
:10351000044604F061FEAA490860AE48006802282B
:1035200012D10020A8490860AD490968A1F1400006
:1035300004F0E8FD06460022AA4B04F0F4FC044621
:1035400004F04AFEA0490860A749B1F9040004F05C
:10355000CBFDA6490860A649B1F9040004F0C4FDFA
:10356000A44908600021A448006804F051FE0BD073
:10357000A249A148006804F04BFE05D3A0499E482B
:10358000006804F04FFE05D24FF400519D48FCF74F
:10359000C2FF04E04FF400519A48FCF7BAFF002143
:1035A0009948006804F0A2FB6D4908609049B1F9A0
:1035B000000004F099FD064683480168304604F097
:1035C0009BFB0446674801686548006804F08EFB71
:1035D00006467B480168304604F08EFB05462146CE
:1035E00004F032FB62490860BDE8F0812DE9F0414A
:1035F00004460D46002C0CDA4FF480418348FCF75A
:1036000088FF4FF400418148FCF785FF604204B217
:103610000AE04FF400417D48FCF77BFF4FF4804106
:103620007A48FCF778FF00BF002D0CDA4FF4005108
:103630007648FCF76EFF4FF480517448FCF76BFF3F
:10364000684205B20AE04FF480517048FCF761FF10
:103650004FF400516D48FCF75EFF00BFAFB2A6B259
:1036600031464FF08040FEF793F839464FF08040E6
:10367000FEF790F866496048006804F0D3FD23D354
:1036800064495D48006804F0C3FD02D24FF00108B0
:1036900001E04FF0000800213A48006804F0B8FD4E
:1036A00001D1012000E0002008EA0008002136488E
:1036B000006804F0ADFD01D1012000E0002008EA1F
:1036C0000008B8F1000F0DD000214FF08040FEF748
:1036D0005FF800214FF08040FEF75CF801204E4972
:1036E000086002E000204C4908604C491C48006812
:1036F00004F098FD05D34A491948006804F088FD94
:103700000DD200214FF08040FEF742F800214FF02B
:103710008040FEF73FF801203F49086085E081E0E6
:10372000A000002054010020750000208C00002023
:10373000C7000020C8000020D8000020740000202E
:1037400070000020C9000020260100202401002074
:1037500034010020300100203C010020380100200D
:1037600000010020F000002058010020E4000020AB
:10377000F4000020FC000020F80000209801002048
:1037800094010020600100205C010020D90000208D
:10379000DA000020BC0000203333B33EC00000201C
:1037A000C4000020C5000020C6000020CC0000207E
:1037B000D0000020D40000200000C8424C010020AE
:1037C00010010020F09C00081401002018010020C6
:1037D0001C0100207C0100206C0100200080FB3FC8
:1037E000700100200000C43F5A0000208C0100201E
:1037F0005400002090010020440000200000A0C1DF
:103800000000A0410010014048000020000C0140D1
:1038100000002041000020C1480100200000484273
:10382000000048C20020FE490860BDE8F0812DE993
:10383000F041FC480468FC480168204604F004FAA2
:10384000044600250026F648006898B9F748006845
:1038500020F00047F649384604F0E4FC0AD8F14865
:10386000006820F00047F349384604F0D1FC01D845
:1038700000BFF14E2146F148006804F0E5F9074623
:10388000294604F0E1F9EE4908602146EB4800685A
:1038900004F02CFA0746314604F0D6F9E9490860ED
:1038A000E748006804F03FFC00B2B0F57A7F02DD23
:1038B000E548E3490860E248006804F034FC00B2DF
:1038C00010F57A7F02DAE148DD490860DD480068DA
:1038D00004F029FC00B2B0F57A7F02DDDA48D9495C
:1038E0000860D848006804F01EFC00B210F57A7F2A
:1038F00002DAD648D3490860D248006804F013FCC5
:1039000007B2CF48006804F00EFC0FFA80F8394681
:103910004046FFF76BFEBDE8F08170B5CC48FDF77F
:1039200052FF0446CB48FDF74EFF0546CA480460E7
:10393000CA4805600021C648FDF722FF0021C5489E
:10394000FDF71EFF20B2C6490880684200B2C54993
:103950000880C5480068C249B1F900100844C2494E
:103960000860C2480068BF49B1F900100844BF4967
:10397000086070BD2DE9FC5FBB490968BB4A12684D
:10398000881804F0B1FBBA490860B8490968B64A1A
:103990001268881A04F0A8FB01904FF0404101988A
:1039A00004F040FC07D24FF08041019804F030FC55
:1039B00001D2002001900020AC490860AA490860AB
:1039C000AC48006804F0DCFB06464FF06632AA4BB8
:1039D00004F0A9FA044604F0FFFBA6490860A448D5
:1039E000006804F0CDFB82464FF03332A34B04F065
:1039F0009AFA06460F469F48006804F0C1FB8046CD
:103A000032463B4604F0E8F9044604F0E5FB9949E8
:103A10000860084601688548006804F067F900906E
:103A200097480099006804F00FF995490860954996
:103A30009348006804F0F6FB02D29248904908606F
:103A400091498F48006804F0E3FB02D28E488C490C
:103A500008608E480068032812D100208C49086055
:103A60008C490968A1F1800004F04CFB0646002255
:103A7000894B04F058FA044604F0AEFB8449086010
:103A800082480068042812D10020844908608449D3
:103A90000968A1F1C00004F035FB06460022814B05
:103AA00004F041FA044604F097FB7C4908607B4827
:103AB00001687348006804F01FF9044674480168FF
:103AC000009804F019F90546214604F0BDF880F08D
:103AD00000407549086075497548006804F0A2FB0C
:103AE00005D374497248006804F092FB0BD26E480B
:103AF000006880F000446E480168204604F02EF90A
:103B00006D49086002E000206B4908604A496A4834
:103B1000006804F087FB02D247486749086067499C
:103B20006548006804F074FB02D26448624908608A
:103B30003B480068002852D13C48006820F000440F
:103B40005F49204604F06EFB49D80021019804F03B
:103B50005FFB07D15B495C48006804F0CDF85A4927
:103B600008600BE05149019804F0C6F80446564835
:103B70000168204604F068F85349086053495248E8
:103B8000006804F04FFB02D250484F49086050498A
:103B90004D48006804F03CFB02D24D484A49086099
:103BA0004C49019804F0A8F80446474801682046AB
:103BB00004F04AF81C49086041491B48006804F0B9
:103BC00031FB02D23E481849086043491648006854
:103BD00004F01EFB11D24048134908600DE03F4934
:103BE0003948006804F088F8374908603B490E48B6
:103BF000006804F081F80C490860BDE8FC9F2DE9DD
:103C0000F04137480068002809D13648FDF7DBFD50
:103C100000EB800000EB00104400204664E0ABE0C5
:103C20004801002058010020D0000020540100204D
:103C30000000F0410000C8410000C040F400002036
:103C4000F8000020FC00002000007A4400007AC444
:103C50000004004000080040400100204401002012
:103C60002401002026010020300100203401002022
:103C7000380100203C0100206666E63F3333D33F25
:103C8000D40000200000FA450000FAC57C010020A5
:103C900018010020740100200000DE3F1C010020FC
:103CA000780100200000C43FEC0000206F12833A2E
:103CB000100100206F1283BAF00000200000C0C085
:103CC0000000A04248E17A3FCC00002000002042E2
:103CD000000020C20AD7233C0000A0C2CDCC4C3F3C
:103CE00064010020002C014004F00CFA054600227B
:103CF000FE4B04F08AF9074604F06EFAFC490860AE
:103D00000846006804F03CFA044622460B46F9A037
:103D100004F0A0FCFA48007820B90020F9490860B6
:103D2000BDE8F081F248006804F02AFA0446002257
:103D3000F54B04F039FA03D8F448F24908601BE067
:103D4000F349EB48006804F06DFA01D8012400E063
:103D500000244FF08241E648006804F059FA01D887
:103D6000012000E0002004401CB1EA48E549086059
:103D700002E00020E349086000BFD1E72DE9FC5FC5
:103D8000E5480068012878D1E448D0F800B0E4485C
:103D900000680190E348B0F90290E348B0F900A050
:103DA000D3480468484604F09FF906464FF08D4119
:103DB00003F0D4FF0546DD4903F09EFFDC490860AF
:103DC000504604F091F90646DA4903F08FFF0546A4
:103DD000D94903F0C3FFD9490860584604F0D0F927
:103DE0000746D74AD74B04F010F9054604F0F4F91A
:103DF0008346019804F0C4F90546D14AD14B04F03A
:103E000004F9074604F0E8F901905021CE4803F088
:103E1000F7FECD48CDA1096801600A21CC4803F026
:103E2000EFFECC4800210160416001810A21CA48AF
:103E300003F0E6FEC94800210160416001810A21CA
:103E4000C74803F0DDFEC7480021016041600181E1
:103E5000C549584604F0DCF910D8C449584604F066
:103E6000E1F90BD8584604F08BF905462A460B4673
:103E7000BFA1B74804F0FEFB02E0C7E0BDE8FC9F2D
:103E8000B949019804F0C4F90FD8B849019804F071
:103E9000C9F90AD8019804F073F905462A460B4679
:103EA000B3A1AC4804F0E6FB00E0E7E7B249A04864
:103EB000006804F0B7F911D2B0499D48006804F0D9
:103EC000A7F90BD29A48006804F05AF905462A4629
:103ED0000B46A7A1A04804F0CDFB00E0CEE7A8491F
:103EE0009648006804F09EF911D2A64993480068EC
:103EF00004F08EF90BD29148006804F041F90546B0
:103F00002A460B469AA1954804F0B4FB00E0B5E7B9
:103F10000021204604F086F90FD89B49204604F082
:103F200077F90AD2204604F02BF905462A460B46BB
:103F30008FA18B4804F09EFB00E09FE7002000F07B
:103F400037FF0090009804F0D8F807468F4903F037
:103F5000D3FE06464FF08B4103F000FF05468C4927
:103F600003F0C4FE8B49086000218A48006804F011
:103F700059F911D881498748006804F049F90BD2F2
:103F80008448006804F0FCF805462A460B4678A1F0
:103F9000744804F06FFB00E070E76D496A4803F075
:103FA0003AFE7DA1684803F036FE6A49664803F090
:103FB00032FE7AA1644803F02EFE6749624803F09E
:103FC0002AFE77A1604803F026FE64495E4803F0AC
:103FD00022FE74A15C4803F01EFE61495A4803F0BA
:103FE0001AFE72A1584803F016FE5E49564803F0C7
:103FF00012FE6FA1544803F00EFE50216D4803F0ED
:10400000FFFD502250496B4803F0E1FD00BF35E74A
:1040100010B569480068401E674908603E4800685E
:10402000012807D10846006820B9FFF7A7FE6148BC
:1040300000F099FD6048006818B941F288305E4987
:10404000086010BD70B506460D4614462146304640
:1040500004F0E8F801D2204670BD2946304604F04D
:10406000D7F801D22846F7E73046F5E72DE9F047C3
:1040700004460E4617461D46DDE908894F4A504959
:104080003046FFF7DFFF06464C4A4D493846FFF7FA
:10409000D9FF07460021284604F0BAF801D285F07E
:1040A0000045484A48492846FFF7CCFF0546B8F185
:1040B000000F01D14FF0010841F28830804500D94E
:1040C0008046012C00D10027042C00D100263F4857
:1040D0000470466087603E4800683C49C8600846F6
:1040E0000561A0F814800020C88273E000006940D8
:1040F000500100206A756C693D25660A00000000C9
:10410000750000204C01002000001040000096C304
:104110000000A0400000FA4380010020F8000020C9
:10412000FC0000205A00002054000020CDCC1C418F
:104130008C0100209A1900430000034390010020E5
:1041400048E17A14AE470F4030020020244C56005C
:1041500048030020520300205C0300206603002077
:10416000700300207A03002000007A4400007AC423
:1041700025332E32660000000000A0C10000A041DF
:1041800000803BC500803B4500401C46CDCC5441DF
:10419000CDCC4C3EE00000202C5256002C41430078
:1041A0002C4759002C435342000000002C56540069
:1041B00023000000800200208401002000008243D0
:1041C000000082C3000040400AD7233CA00000202A
:1041D0005401002001200876B9F1000F06D0032019
:1041E000FE490870FE480078FE490870BDE8F08777
:1041F0002DE9F04780460C461546FB48007E20B965
:10420000002020602860BDE8F08700263DE0F64AE7
:10421000D168506803F06AFD074627F00049F2486C
:104220000169484603F0F4FF04D8EF484068EE49BE
:10423000C86013E00021384603F0F4FF07D2EA4AD1
:104240001169D06803F000FDE749C86006E0E64A5E
:104250001169D06803F04AFDE349C860E248C08AAA
:10426000E149898A884204DADF48C08A401CDE4975
:10427000C882DD48C08ADC49898A884203DB002085
:10428000D949087603E0701CC6B24645BFDB00BFC3
:10429000D548C0682060D44880682860D248007E35
:1042A00008B90220AFE70120ADE77CB504460D4612
:1042B00016460020CD49087001202B4600222146D9
:1042C000CDE90060FFF7D2FE7CBD2DE9FC4104463C
:1042D0000D4616461F460FB1012000E00020C349DD
:1042E00008700020C2490870C249087001202B469E
:1042F00000222146CDE90060FFF7B8FEBDE8FC8151
:1043000008B1012100E00021B84A11700021B84A2B
:104310001170B84A117070477CB504460D461646B8
:104320000120B54B2A462146CDE900600220FFF767
:104330009DFE7CBD7CB504460D4616460120AE4B65
:104340002A462146CDE900600320FFF78FFE7CBDA1
:104350007CB504460D460120A74B22460021CDE93D
:1043600000500420FFF782FE7CBD70B505460C4668
:104370000021284603F04CFF01D285F000450021C2
:10438000204603F045FF01D284F000449B480560BD
:104390009B48046070BD2DE9F04705460C46164663
:1043A0001F46DDF8208025F0004524F00044954AA2
:1043B00000212846FFF746FE93490860914A0021F4
:1043C0002046FFF73FFE90494860904806800088ED
:1043D00010B901208D4908808C48008841F288314D
:1043E000884202D908468949088027F00049884A4E
:1043F00088494846FFF726FE87490860B8F1000F54
:1044000001D0012000E00020844908700020844988
:1044100008707E48008803F070FE8246814903F0F0
:104420006BFC81464946804803F098FC76498860D9
:104430007A48007808B17D4800E07D487249C8603C
:1044400000200861FEF77AFF012064490870644883
:10445000007864490870002076490860BDE8F0875C
:104460002DE9FF4F85B0834614461D46724920460C
:1044700003F0CEFE00D2704C0021129803F0C8FE6B
:1044800001D2002012906D49129803F0CBFE01D2A8
:104490006A4812902146644803F060FC074661496F
:1044A00003F05CFC06464FF07E51304603F0B0FE50
:1044B00001D24FF07E566249304603F0B3FE00D27F
:1044C0005F4E4FF07C51304603F0BEFB074603F0D1
:1044D00043FE1FFA80F95B49129803F00DFC074672
:1044E000454903F0B1FB8246284603F049FE0746E2
:1044F00005F086FBCDE9000103F06EFE002102907D
:1045000003F090FE01D8012000E000200390039802
:1045100053464A46009058460699FFF73CFF09B0BB
:10452000BDE8F08F00B503460A4602202B4908700B
:10453000FEF704FF444803604448026028480078BE
:104540002849087000203B49086000BD2DE9F05F54
:1045500004460D46D4F80090D5F800A03C4F3D49E4
:10456000384603F055FE00D83B4F3C48D0F8008059
:104570003B49404603F056FE18D83A49404603F0FE
:1045800047FE13D800201A4908701A480078FF28FF
:1045900004D218480078401C164908701548007865
:1045A00004287ED34FF00009CA467AE02D494046E0
:1045B00003F038FE70D23946404603F029FE6BD82E
:1045C00000200C4908700A480078FF2804D20848E7
:1045D0000078401C06490870054845E07500002039
:1045E000D800002074000020A0000020C600002099
:1045F000C7000020C80000203333B33E98000020DD
:104600009C0000200000824378000020BC000020B5
:10461000000040400AD7233CC0000020C400002016
:10462000C50000200AD7A33BDB0FC940DA0FC93F02
:10463000DA0FC9BF70000020CDCCCC3D6666E63EE7
:1046400000409C459A99993F9000002094000020DA
:104650000000C8410000304100009041500100209E
:10466000000020400000204100780C2819D36F483A
:10467000D0F800906E48D0F800A029F0004B6D49AA
:10468000584603F039FB06463146504603F0CAFD52
:1046900007D2B24605E0FFE7002067490870674986
:1046A0000870C4F80090C5F800A0BDE8F09F1CB5E4
:1046B00063480068019000200090694601A8FFF758
:1046C00045FF6049019808605F4900980860002034
:1046D0005E4908605E4908601CBD2DE9FF415D48E8
:1046E00005785D480078281AC6B25B4805705B48BB
:1046F000007E40BB5A48007800F0010058B9594884
:10470000007810B15848406803E05748406880F08E
:10471000004007460AE05348007820B152484068FC
:1047200080F0004001E050484068074600204F49B3
:104730000988CDE900104C4801684D483A460368A5
:104740000220FFF793FC02AA03A93046FFF750FDB1
:104750000446022C05D14248007880F0010040490F
:1047600008703849039808603749029808600120AA
:1047700036490860002036490860BDE8FF817CB5F5
:104780003448047834480078201AC5B2324804709E
:104790006A4601A92846FFF72BFD064616B90020F8
:1047A000019000902D480078012807D13148007809
:1047B00020B1694601A8FFF7C9FE04E000201E49A8
:1047C00008701E4908701F49019808601E4900982A
:1047D000086001201D49086000201D4908607CBD5B
:1047E00010B525480078E0B1012804D0022808D08F
:1047F000032815D102E0FFF770FF15E0FFF7BFFFB8
:1048000012E01E4800680F4908601D4800680E4904
:10481000086001200D49086000200D49086003E090
:1048200000BFFFF744FF00BF00BF10BD980000208D
:104830009C000020CDCC4C3FC7000020C8000020C9
:104840008C00002054010020580100206401002049
:104850004C010020D800002074000020A00000209F
:10486000C5000020C400002078000020BC0000200B
:10487000C0000020C600002075000020900000202D
:104880009400002000B585B0012144F20400FCF73B
:104890004FF84FF40070ADF8100018208DF8130099
:1048A00003208DF8120004A9BB48FBF785FD4FF4E7
:1048B0008060ADF8100004208DF8130004A9B648FC
:1048C000FBF77AFD4FF4E13000900020ADF80400D2
:1048D000ADF80600ADF80800ADF80C000C20ADF8FE
:1048E0000A006946AD48FCF7D8FF0121AB48FDF747
:1048F00060F805B000BD08B54FF48060FBF700FC20
:1049000027208DF8000004208DF8010001208DF88B
:1049100002008DF803006846FBF7F7FB08BD00B501
:1049200085B001218804FCF710F801210820FBF76D
:10493000FFFF4FF48060ADF8100018208DF81300D1
:1049400003208DF8120004A99548FBF735FD4FF4BC
:104950000060ADF8100004208DF8130004A9904801
:10496000FBF72AFDFFF7C7FF4FF416500090002019
:10497000ADF80400ADF80600ADF80800ADF80C0085
:104980000C20ADF80A0069468648FCF786FF012234
:1049900040F225518348FDF718F801218148FDF7C1
:1049A00008F805B000BD70B504460D46E1B27B487D
:1049B000FDF76CF800BF40217848FDF7D5F80128D5
:1049C000F9D1204670BDF0B503460D4616460027C6
:1049D00029460A2E03D0002008702846F0BD33B9BE
:1049E000302001F8010B002008702846F6E7002B64
:1049F00003DA2D2001F8010B5B4242F210720DE048
:104A000093FBF2F404B937B104F1300001F8010B63
:104A100004FB123301270A2092FBF0F2002AEFDC9C
:104A2000002008702846D9E70FB470B586B0064656
:104A30000CA8019073E00B9800785C281CD10B98AF
:104A4000401C0B9000786E2809D072280FD10D21E0
:104A50003046FDF71BF80B98401C0B900BE00A2129
:104A60003046FDF713F80B98401C0B9003E00B98B1
:104A7000401C0B9000BF4BE00B980078252840D1DC
:104A80000B98401C0B900078642818D0732833D101
:104A9000019810C801900BE021783046FCF7F6FF32
:104AA00000BF40213046FDF75FF80028F9D0641CB4
:104AB00020780028F0D10B98401C0B9020E0019842
:104AC00020C801900A2202A92846FFF77CFF02AC09
:104AD0000BE021783046FCF7D9FF00BF402130467B
:104AE000FDF742F80028F9D0641C20780028F0D1A6
:104AF0000B98401C0B9003E00B98401C0B9000BFE0
:104B000006E00B9810F8011B0B903046FCF7BEFF37
:104B100000BF40213046FDF727F80028F9D00B9858
:104B20000078002887D106B070BC5DF814FB10B582
:104B3000044621461948FCF7A9FF00BF4021174849
:104B4000FDF712F80128F9D110BD10B50446214631
:104B50001448FCF79BFF00BF40211248FDF704F802
:104B60000128F9D110BD70B505462C4603E0207828
:104B7000FFF7EBFF641C20780028F8D170BD70B5FA
:104B800005462C4603E02078FFF7D1FF641C20780F
:104B90000028F8D170BD0000000801400038014035
:104BA000000C0140004800407FB504460D4601213D
:104BB000C802FBF7BDFE41F28830ADF8080041F6AF
:104BC0001F40ADF804000120ADF80A000020ADF848
:104BD000060001A91148FBF7E3FF012241210F481C
:104BE000FCF755FB19208DF8000003208DF801001B
:104BF00000208DF8020001208DF803006846FBF7C5
:104C000084FA7FBD10B501210448FCF7EEFD18B110
:104C100001210248FCF7FAFD10BD0000002C014004
:104C20001FB501213D48FBF798FC01210920FBF746
:104C30007FFE0120ADF80C0010208DF80F0003203E
:104C40008DF80E0003A93648FBF7B6FB0220ADF83D
:104C50000C0028208DF80F0003A93148FBF7ACFBAE
:104C600001210846FBF7BEFC0220019000208DF8D0
:104C7000080008208DF8090001208DF80A0001A81D
:104C8000FBF7BAFA07208DF8000003208DF8010029
:104C900001208DF802008DF803006846FBF735FA15
:104CA0001FBD10B50220FBF70DFB48B300211D48C6
:104CB000FCF766FD01211B48FCF7CEFA01201A49DA
:104CC000086012E01748FCF77EFD3C2807DB002156
:104CD0001448FCF7C1FA00201349086005E00221DE
:104CE0000F48FBF7FCFB104908600F4800680028DC
:104CF000E8D100210B48FCF7AFFA0220FBF7F3FAEA
:104D000010BD10B501210648FBF703FC0C20FDF790
:104D10009DFA01210248FBF7FEFB10BD00023000A6
:104D2000000C0140002C0140E801002000B587B0D4
:104D300001214FF40170FBF7FBFD4FF40040FBF73E
:104D40005BFD0120ADF8040000208DF8070001A9EB
:104D50002348FBF731FB2348FCF760FF002002905B
:104D60008DF80C008DF80D004FF4602004900020A9
:104D7000059001208DF8180002A91A48FCF775FF6C
:104D800001211848FCF79DFF1648FCF7BCFF00BF47
:104D90001448FCF7BDFF0028FAD11248FCF7C2FF07
:104DA00000BF1048FCF7C3FF0028FAD107B000BDD0
:104DB00010B504460723012221460A48FCF7EDFFFF
:104DC00001210848FCF7BDFF00BF02210548FDF79F
:104DD00029F90028F9D00348FDF746F810BD000076
:104DE000000801400024014006488047064800476B
:104DF000FEE7FEE7FEE7FEE7FEE7FEE7FEE7FEE78B
:104E0000FEE7FEE74B210008ED00000838B5044638
:104E1000FB4890F82400C0B114B10220009001E0DA
:104E200000200090F64A1268D17BF54A526810784B
:104E30006B460122FDF777FB10B14FF0FF3038BD14
:104E40009DF80010EE48417423E0ED48807A10B9D7
:104E50004FF0FF30F3E724B1E948407C08B100206F
:104E6000EDE714B10120009001E000200090E44A39
:104E70001268D17BE24A526810786B460122FDF736
:104E800052FB10B14FF0FF30D9E79DF80010DC481D
:104E900041740020D3E738B5002419E0D8480068F1
:104EA000C07AA04204D0D6480068407DA04200D11C
:104EB0000CE0D349496808786B4601222146FDF78A
:104EC00081FB10B14FF0FF3038BD00BF601CC4B291
:104ED000CB4840680079A042E0DC0020F4E770B5E0
:104EE00004460D46C6480068C07AA04204D0C448B3
:104EF0000068407DA04202D14FF0FF3070BDC04835
:104F000040680079A04202DC4FF0FF30F6E7BC4970
:104F1000496808782B4601222146FDF753FBEDE74F
:104F200038B50446B64890F82300A04201D10020CD
:104F300038BD14B13020009001E000200090B0484E
:104F4000807C20B19DF8000040F002000090AC4849
:104F500090F8220020B19DF8000040F08000009001
:104F6000A74A1268117DA64A526810786B46012242
:104F7000FDF7D9FA10B14FF0FF30D9E7A04880F81B
:104F800023400020D4E738B5044604F0700010B187
:104F90000120009005E014B10020009001E04020C5
:104FA0000090974A1268917C954A526810786B4637
:104FB0000122FDF7B8FA20B1002191488172481E04
:104FC00038BD9DF8000020F040018D48017300209D
:104FD000009004F0400020B99DF8000040F004006B
:104FE000009004F0200020B99DF8000040F002007D
:104FF000009004F0100020B99DF8000040F001007E
:10500000009004F0080020B99DF8000040F038003E
:1050100000907B4A1268D17C794A526810786B46BE
:105020000122FDF780FA20B1002175488172481EE7
:10503000C6E724B1082C02D00020FFF771FF7048AA
:105040008472002101753220FDF70DF90020B7E7C9
:1050500038B504466A48807CA04201D1002038BDA2
:10506000002C46D0664A12681179654A5268107859
:105070006B460122FDF7A6FA10B14FF0FF30EEE7C4
:105080009DF8000020F0200000905D4A1268117920
:105090005B4A526810786B460122FDF744FA10B162
:1050A0004FF0FF30DBE70320FDF7DDF80220009032
:1050B000534890F8220020B19DF8000040F0800095
:1050C00000904F4890F8230020B19DF8000040F078
:1050D000300000904A4A1268117D494A526810789F
:1050E0006B460122FDF71FFA002851D04FF0FF3028
:1050F000B5E7434A12681179414A526810786B4605
:105100000122FDF75FFA10B14FF0FF30A7E73C48EE
:10511000807A00F0010028B19DF8000040F02000E6
:10512000009004E09DF8000020F020000090344A38
:1051300012681179324A526810786B460122FDF7E5
:10514000F2F910B14FF0FF3089E70320FDF78BF83B
:105150002B4890F8220010B18020009001E0002040
:105160000090274890F8230020B19DF8000040F0FF
:1051700030000090224A1268117D214A526810784E
:105180006B460122FDF7CFF910B14FF0FF3066E713
:105190001B488474002062E708B51948807A10B96A
:1051A0004FF0FF3008BD00200090154A1268D17BF7
:1051B000134A526810786B460122FDF7B4F910B11A
:1051C0004FF0FF30EEE70E4A126851790C4A5268F0
:1051D00010786B460122FDF7A6F910B14FF0FF30B1
:1051E000E0E7074A12681179054A526810786B4661
:1051F0000122FDF798F928B14FF0FF30D2E7000007
:10520000EC010020F74890F82400002853D00C202F
:105210000090F44A12681179F24A526810786B468D
:105220000122FDF780F910B14FF0FF30BAE73220CC
:10523000FDF719F8C0200090EA48807A00F00100DC
:1052400020B19DF8000040F020000090E54A12686F
:105250001179E44A526810786B460122FDF763F930
:1052600010B14FF0FF309DE7DE48407C10B10220C6
:10527000009001E000200090DA4A1268D17BD94A00
:10528000526810786B460122FDF74DF910B14FF0CE
:10529000FF3087E700200090D24A12685179D14A46
:1052A000526810786B460122FDF73DF9002855D071
:1052B0004FF0FF3076E704200090CA4A1268117957
:1052C000C84A526810786B460122FDF72CF910B1DC
:1052D0004FF0FF3066E7C348807C20B9C148807A30
:1052E00000F0010010B94020009001E06020009023
:1052F000BC4A12681179BB4A526810786B46012289
:10530000FDF711F910B14FF0FF304BE73220FCF7F9
:10531000AAFFB448407C10B10120009001E00020B9
:105320000090B04A1268D17BAE4A526810786B4642
:105330000122FDF7F8F810B14FF0FF3032E7A94A2B
:1053400012685179A74A52681078A64B103301228F
:10535000FDF7E9F810B14FF0FF3023E7002021E717
:1053600070B50446002624F001049E4890F82400FD
:1053700008B1002070BD9B48807A10B94FF0FF3013
:10538000F8E79848057C807A2040964908740846DA
:10539000007CA04202D04FF0FF3600E0002614B996
:1053A0009048007D18B10120FFF730FD02E0002099
:1053B000FFF72CFD3CB1FFF7EFFE20B189480574E3
:1053C0004FF0FF30D6E73046D4E738B5044685487D
:1053D000807A10B94FF0FF3038BDBC2C02DB0120C1
:1053E000009015E0622C02DB0220009010E02A2CD5
:1053F00002DB032000900BE0142C02DB0420009061
:1054000006E00A2C02DB0520009001E00620009057
:105410007448C07A9DF80010884201D10020DBE773
:10542000704A126891786F4A526810786B46012270
:10543000FDF779F810B14FF0FF30CDE79DF800107F
:105440006848C1720020C7E738B50446282C02DD41
:105450004FF0FF3038BDDCB90020FFF761FD0020C0
:105460008DF8000007208DF801005E4A1268917CDB
:105470005C4A526810786B460222FDF754F810B16E
:105480004FF0FF30E6E70021564801750020E1E7C4
:105490000120FFF745FD20208DF80000012C06D1EA
:1054A00000208DF801000520FFF78FFF17E0052C85
:1054B00006DC01208DF801000520FFF786FF0EE0D5
:1054C000142C06DC02208DF801000A20FFF77DFF76
:1054D00005E003208DF801001420FFF776FF9DF80A
:1054E0000100072101EB8010C0B28DF801003D4A98
:1054F0001268917C3B4A526810786B460222FDF795
:1055000012F810B14FF0FF30A4E70821354881723E
:1055100000210173012101750020FFF721FF002008
:1055200098E738B504462F48807A10B94FF0FF301D
:1055300038BD2C4890F8240010B14FF0FF30F7E749
:105540002848007D50B134B1282C04DCE0B2FFF7CC
:105550007BFF0020ECE70020FFF776FF042C01DA48
:10556000042404E0B4F57A7F01DD4FF47A744FF43B
:105570007A7090FBF4F0401EC0B20090194A126895
:105580005178184A526810786B460122FCF7CBFF1D
:1055900010B14FF0FF30CBE79DF80000401C4FF4F6
:1055A0007A7191FBF0F081B20E48C1810146C98940
:1055B0004810FFF70AFF0020BAE738B5044609484B
:1055C000807A10B94FF0FF3038BD022C06D0042C81
:1055D0000AD0082C0BD0102C0FD10BE0002000902B
:1055E0000EE00000EC0100200820009008E01020F0
:1055F000009005E01820009002E04FF0FF30E3E754
:1056000000BFF848407A9DF80010B0EBE10F01D1DF
:105610000020D9E7F34A1268D179F24A526810782B
:105620006B460122FCF77FFF10B14FF0FF30CBE754
:105630009DF80000C110EB4841720020C4E738B566
:105640000446E848807A10B94FF0FF3038BDFA2C94
:1056500009D0B4F5FA7F09D0B4F57A7F09D0B4F552
:10566000FA6F0CD108E0002000900BE008200090B9
:1056700008E01020009005E01820009002E04FF0B4
:10568000FF30E3E700BFD748007A9DF80010B0EB89
:10569000E10F01D10020D9E7D24A12689179D14AAD
:1056A000526810786B460122FCF73DFF10B14FF0B5
:1056B000FF30CBE79DF80000C010CA4908720020F7
:1056C000C4E71CB580208DF80000C64A1268917CA2
:1056D000C44A526810786B460122FCF724FF10B1CF
:1056E0004FF0FF301CBD6420FCF7BDFD00208DF89D
:1056F0000000BC4A1268917CBA4A526810786B4626
:105700000122FCF710FF10B14FF0FF30EAE7B54A75
:105710001268917DB34A526810786B460622FCF7F6
:1057200051FF10B14FF0FF30DCE79DF80500C007D6
:10573000400F9DF8031001F0010140EA41009DF87F
:10574000011001F0010140EA01048CB1012C03D1E8
:105750000121A448C17430E0022C03D10021A148EA
:10576000C1742AE0A0A0FFF70AFA4FF0FF30B9E7B2
:105770009C4A1268D1789B4A526810786B46012285
:10578000FCF720FF10B14FF0FF30ABE79DF80000B1
:1057900000F00F042CB99E48FFF7F1F94FF0FF30ED
:1057A000A0E7042C06D19BA0FFF7E9F901218D4861
:1057B000C17402E000218B48C174FF2189488172C5
:1057C000FF2088490872FF2186484172C1724FF656
:1057D000FF71C181FF21017481740121017380F87F
:1057E0002210002180F823104175017516300160E8
:1057F00041608160163880F8241080F82510C1843B
:105800004FF4FA60FFF71BFF10B14FF0FF3069E76C
:105810000220FFF7D2FE10B14FF0FF3062E72A20DE
:10582000FFF7D3FD10B14FF0FF305BE73220FFF7F9
:1058300078FE10B14FF0FF3054E70020FFF790FDE5
:1058400010B14FF0FF304DE70020FFF701FC10B121
:105850004FF0FF3046E70020FFF795FB002041E7BF
:105860007CB504460D465F48807A00F0700010B9A0
:105870004FF0FF307CBD5B4A1268117B594A526879
:1058800010786B460622FCF79DFE10B14FF0FF30FA
:10589000F0E79DF801009DF8001040EA012000B2F9
:1058A00020809DF803009DF8021040EA012000B21C
:1058B00060809DF805009DF8041040EA012000B2C8
:1058C000A08015B12846FCF7DAFC0020D2E77CB5B1
:1058D00004460D464348807A00F0080010B94FF0A6
:1058E000FF307CBD3F4A1268517B3E4A52681078B7
:1058F0006B460622FCF766FE10B14FF0FF30F0E772
:105900009DF801009DF8001040EA012000B22080BF
:105910009DF803009DF8021040EA012000B260806B
:105920009DF805009DF8041040EA012000B2A08017
:1059300015B12846FCF7A3FC0020D2E72DE9FE4F65
:1059400005460C462748807A18B94FF0FF30BDE86D
:10595000FE8F244A1268917B224A5268107802AB6B
:105960000222FCF72FFE10B14FF0FF30EFE79DF859
:1059700009009DF8081040EA012006B214B1204643
:10598000FCF77DFC17494968C88802F0B6FB154949
:1059900001904968B1F9080002F0A6FB8346304641
:1059A00002F0A2FB5946009002F0A0F9824601994C
:1059B00002F0D4F981461F4902F046F980464FF0C3
:1059C0008F4102F099F9074602F0ADFB28600020F4
:1059D000BDE710B588B004461CB94FF0FF3008B0E1
:1059E00010BD29E0EC010020556E737570706F7268
:1059F00074656420736F6674776172652070726F6E
:105A000064756374207265762025642E0A00000098
:105A100068AB000848616C662073656E73697469D1
:105A200076697479207061727420666F756E642E69
:105A30000A00000000000C42206830B9606820B9FC
:105A4000A06810B9002008B010BDFA49496808786C
:105A500006AB03221146FCF7B5FD10B14FF0FF3045
:105A6000F1E79DF81800082101EB201000F00F006D
:105A7000ADF800009DF8190001EB201000F00F00B8
:105A8000ADF802009DF81A0001EB201000F00F00A5
:105A9000ADF8040020684100BDF90000403091FBE2
:105AA000F0F000B2ADF8100060684100BDF90200EE
:105AB000403091FBF0F000B2ADF81200A068410058
:105AC000BDF90400403091FBF0F000B2ADF81400D5
:105AD000D8494968087806AB06221146FCF772FDE2
