:020000040800F2
:1000000078070020A5480008B9310008BB31000876
:10001000BF310008C3310008C731000800000000EC
:10002000000000000000000000000000CB310008CC
:10003000CD31000800000000CF310008D1310008A8
:10004000BF480008BF480008BF480008BF48000874
:10005000BF480008BF480008BF4800085F470008C5
:10006000BF480008BF480008BF480008BF48000854
:10007000BF480008BF480008BF480008BF48000844
:10008000BF480008BF480008BF480008BF48000834
:10009000BF480008BF480008BF480008BF48000824
:1000A000BF480008C1460008BF480008BF48000814
:1000B000BF4800086528000875280008BF480008E8
:1000C000BF480008BF480008BF480008BF480008F4
:1000D000BF480008BF480008BF480008BF480008E4
:1000E000BF480008BF480008BF480008DFF80CD030
:1000F00007F044FF004800478126000878070020E9
:1001000031490143314A1160704770B50021002325
:100110000F22C47804B32D4C246804F4E064C4F5C1
:10012000E064210AC1F10403CA40447804FA03F1EF
:100130008478144021430901254C0678A1550478A0
:1001400004F01F050124AC4005786D11AD0005F1E8
:10015000E025C5F8004109E0047804F01F050124FA
:10016000AC401C4D0678761145F8264070BD1A4A01
:100170000A400243154B1B1F1A60704739B1134ADE
:10018000121D12680243114B1B1D1A6006E00F4A34
:10019000121D126882430D4B1B1D1A607047042804
:1001A00008D14FF0E021096941F004014FF0E0224D
:1001B000116107E04FF0E021096921F004014FF0DF
:1001C000E0221161704700000000FA050CED00E02C
:1001D00000E400E080E100E080FFFF1F00204449D0
:1001E0000860091D0860091D0860091D0860414874
:1001F0003F4914310860704700213D498279002A47
:100200003AD00A46126803689A430B461A600A1DE0
:10021000126803689A430B1D1A60027911440A6838
:1002200003681A430A60324A0832126803689A4324
:100230002F4B08331A601A1D126803689A432C4B1F
:100240000C331A604279102A0ED11A1F1268036803
:100250001A43274B08331A601A1D126803681A43A1
:10026000234B0C331A600DE02149427911440A688E
:1002700003681A430A6005E0027911440A680368BA
:100280009A430A6070470021016001710C2141719D
:100290000021817170471649103109680143144AE1
:1002A00010321160704701460020114A1432126862
:1002B0000A400AB1012000E0002070470C491431C7
:1002C00008607047014600200022094B1B6803EAC2
:1002D0000102074B14331B680B4013B10AB1012014
:1002E00000E00020704702491431086070470000A8
:1002F00000040140FFFF0F0010B50446CC488442C3
:1003000008D10121042000F02DFB0021042000F081
:1003100029FB46E0C748844208D10121082000F0AB
:1003200021FB0021082000F01DFB3AE0C248844276
:1003300008D10121102000F015FB0021102000F051
:1003400011FB2EE0BD48844208D10121202000F09D
:1003500009FB0021202000F005FB22E0B848844280
:1003600008D10121402000F0FDFA0021402000F0DA
:10037000F9FA16E0B348844208D10121802000F048
:10038000F1FA0021802000F0EDFA0AE0AE48844244
:1003900007D10121801500F0E5FA0021A01500F039
:1003A000E1FA10BD10B50121084600F0DBFA00218A
:1003B000012000F0D7FA10BD2DE9F04102460025DA
:1003C0000026002000230024002791F803C00CF031
:1003D0000F0591F803C00CF0100CBCF1000F03D016
:1003E00091F802C04CEA050591F800C0BCF1000F7D
:1003F00031D0146800202BE04FF0010C0CFA00F310
:10040000B1F800C00CEA03069E4220D183004FF0F1
:100410000F0C0CFA03F7BC4305FA03FC4CEA040486
:1004200091F803C0BCF1280F06D14FF0010C0CFA73
:1004300000FCC2F814C00AE091F803C0BCF1480FF8
:1004400005D14FF0010C0CFA00FCC2F810C0401CA2
:100450000828D1D31460B1F800C0BCF1FF0F34DD1F
:10046000546800202EE000F1080C4FF0010808FA53
:100470000CF3B1F800C00CEA03069E4221D18300C0
:100480004FF00F0C0CFA03F7BC4305FA03FC4CEADF
:10049000040491F803C0BCF1280F05D100F1080C49
:1004A00008FA0CF8C2F8148091F803C0BCF1480FA8
:1004B00007D100F1080C4FF0010808FA0CF8C2F857
:1004C0001080401C0828CED35460BDE8F0814FF660
:1004D000FF710180022181700421C17070470246C2
:1004E000002093680B400BB1012000E00020704712
:1004F0000146886880B2704702460020D3680B40EE
:100500000BB1012000E0002070470146C86880B2AE
:10051000704701617047416170470AB1016100E0B5
:1005200041617047C16070474FF480320A43826175
:100530008161826182698269704702460020434B73
:1005400018684FF68073184040EA021008433F4B8A
:10055000186070473E49C8617047F0B50A460023ED
:1005600000240021002500F00046B6F1004F02D122
:10057000364EF16901E0354E7168C0F3034583B230
:1005800000F44016B6F5401F08D121F070612F4EDF
:10059000766826F070662D4F7E6012E000F48016BB
:1005A000B6F5801F06D1032606FA05F4A14341F0F3
:1005B000706106E0460D360103FA06F6B14341F0DC
:1005C000706122B1460D360103FA06F6314300F0A0
:1005D0000046B6F1004F02D11C4EF16101E01B4E06
:1005E0007160F0BD30B500228B071C0F0F2303FA9A
:1005F00004F2164B08338C1053F824309343134CF9
:1006000008348D1044F8253023468C1053F82430DC
:100610008C07240F00FA04F423430C4C08348D108B
:1006200044F8253030BD0A49DC31086070470000CD
:1006300000080140000C014000100140001401407E
:1006400000180140001C0140002001400000014052
:1006500000002042DF48006840F00100DD490860EA
:1006600008464068DC490840DA49486008460068A6
:10067000DA490840D74908600846006820F480201D
:1006800008600846406820F4FE0048604FF41F00F0
:1006900088607047CF49096821F48031CD4A1160E4
:1006A0001146096821F480211160B0F5803F03D024
:1006B000B0F5802F0ED106E0C649096841F48031BB
:1006C000C44A116007E0C349096841F4A021C14A46
:1006D000116000E000BF00BF704710B50146002266
:1006E000002300204A11012A02D1BA4C236806E0F7
:1006F000022A02D1B74C236A01E0B64C636A01F0CA
:100700001F02012494401C400CB1012000E0002095
:1007100010BD38B5002000900024002500BF312016
:10072000FFF7DBFF05460098401C00900098B0F5ED
:10073000A06F01D0002DF2D03120FFF7CEFF08B11D
:10074000012400E00024204638BD01460020A14AD3
:10075000106820F0F80040EAC10010607047A0491E
:1007600008607047024600209A4B586820F47C10BD
:1007700042EA01031843974B58607047984908664E
:10078000704701460020934A506820F00300084358
:10079000506070478F48406800F00C007047014679
:1007A00000208C4A506820F0F000084350607047E9
:1007B00001460020874A506820F4E06008435060FA
:1007C000704701460020834A506820F4605040EA98
:1007D000C1005060704729B17E4A527A02437D4B76
:1007E0005A7204E07B4A527A82437A4B5A727047BB
:1007F0007B49D8310860704701460020754A50682F
:1008000020F440400843506070470021714A203274
:100810001170704A82F82010012802D004280AD1F1
:1008200004E001216B4A2032117005E00521694A7C
:100830002032117000E000BF00BF704769490860B6
:1008400070476449096A0143624A11627047654909
:1008500044390860704730B500210022002400238D
:100860005C4D6D6805F00C0121B1042905D0082903
:1008700023D105E05C4D056022E05B4D05601FE083
:10088000544D6D6805F47012524D6D6805F4803456
:10089000022505EB92421CB9544D554305600BE00F
:1008A0004C4D6D6805F400351DB1504D5543056044
:1008B00002E04D4D5543056002E04B4D056000BF21
:1008C00000BF444D6D6805F0F0010909484D6B5CAF
:1008D0000568DD4045603F4D6D6805F4E061090A3B
:1008E000434D6B5C4568DD4085603A4D6D6805F4AD
:1008F0006051C90A3E4D6B5C4568DD40C560354DB1
:100900006D6805F44041890B3A4D6B5CC568B5FBD9
:10091000F3F5056130BD29B12E4A526902432D4BD2
:100920005A6104E02B4A526982432A4B5A6170474C
:1009300029B1284A92690243264B9A6104E0254A6C
:1009400092698243234B9A61704729B1214AD26947
:100950000243204BDA6104E01E4AD26982431D4BF8
:10096000DA61704729B11B4AD2680243194BDA6039
:1009700004E0184AD2688243164BDA60704729B106
:10098000144A12690243134B1A6104E0114A1269B6
:100990008243104B1A617047124940390860704712
:1009A0000F49C86470470B49C87170470948406ACD
:1009B00040F0807007494862704701460020054AB0
:1009C00092680A400AB1012000E000207047014906
:1009D00088727047001002400000FFF8FFFFF6FE2B
:1009E000000042428004424200127A0000093D00A9
:1009F000000000201000002010B50446FE4884428C
:100A000008D10121C014FFF7ADFF0021E014FFF76A
:100A1000A9FFC4E0B4F1804F08D101210846FFF7D7
:100A2000AEFF00210120FFF7AAFFB8E0F34884429F
:100A300008D101210220FFF7A2FF00210220FFF7C9
:100A40009EFFACE0EE48844208D101210420FFF76C
:100A500096FF00210420FFF792FFA0E0E9488442BE
:100A600008D101210820FFF78AFF00210820FFF7A5
:100A700086FF94E0E448844208D101211020FFF76A
:100A80007EFF00211020FFF77AFF88E0DF488442D4
:100A900008D101212020FFF772FF00212020FFF75D
:100AA0006EFF7CE0DA48844208D101214014FFF750
:100AB00059FF00216014FFF755FF70E0D5488442CC
:100AC00009D10121C804FFF74DFF00214FF4002098
:100AD000FFF748FF63E0D048844209D101210805AF
:100AE000FFF740FF00214FF48010FFF73BFF56E077
:100AF000CA48844209D101214805FFF733FF00218C
:100B00004FF40010FFF72EFF49E0C548844208D19A
:100B100001214020FFF733FF00214020FFF72FFF86
:100B20003DE0C048844208D101218020FFF727FF23
:100B300000218020FFF723FF31E0BB48844208D129
:100B400001218015FFF71BFF0021A015FFF717FFFC
:100B500025E0B648844209D101210804FFF702FFCD
:100B600000214FF48030FFF7FDFE18E0B0488442CA
:100B700009D101214804FFF7F5FE00214FF40030B0
:100B8000FFF7F0FE0BE0AB48844208D10121880456
:100B9000FFF7E8FE00214FF48020FFF7E3FE10BDD1
:100BA00000220288944B98420ED0994B98420BD069
:100BB000B0F1804F08D0914B984205D0904B9842AD
:100BC00002D0904B984204D14FF68F731A404B8855
:100BD0001A438D4B984207D08C4B984204D04FF665
:100BE000FF431A40CB881A4302808B8883850B8889
:100BF0000385814B98420BD0854B984208D08B4B94
:100C0000984205D08A4B984202D08A4B984201D133
:100C10000B7A038601238382704770B5002400227B
:100C20000023058C4FF6FE7635400584028C8388C0
:100C3000048B4FF68F752C40B51E2C400D882C432D
:100C4000751E2A400D892A434D882A436A4DA842C1
:100C50000BD06F4DA84208D0744DA84205D0744DFA
:100C6000A84202D0734DA84213D14FF6F7752A401F
:100C70004D892A434FF6FB752A408D882A434FF64B
:100C8000FF652B404FF6FF552B408D892B43CD89B7
:100C90002B4383800483CD888586028470BD70B524
:100CA000002400220023058C4FF6EF7635400584A2
:100CB000028C8388048B48F6FF752C404FF6FF4565
:100CC0002C400D884FF6FF7606EA05252C434FF69B
:100CD000DF752A400D8906EA05152A434D8806EA84
:100CE00005152A43444DA84202D0494DA8421DD1C2
:100CF0004FF67F752A404D894FF6FF7606EA0515B7
:100D00002A434FF6BF752A408D8806EA05152A4307
:100D10004FF6FF352B404FF2FF752B408D8906EAC9
:100D200085052B43CD8906EA85052B438380048303
:100D3000CD880587028470BD70B500240022002391
:100D4000058C4FF6FF6635400584028C8388848BC2
:100D50004FF68F752C404FF6FC752C400D882C43B8
:100D60004FF6FF552A400D894FF6FF7606EA052516
:100D70002A434D8806EA05252A431F4DA84202D082
:100D8000234DA8421DD14FF2FF752A404D894FF6E1
:100D9000FF7606EA05252A434FF6FF352A408D885F
:100DA00006EA05252A434EF6FF752B404DF6FF75E2
:100DB0002B408D8906EA05152B43CD8906EA0515DA
:100DC0002B4383808483CD888587028470BD70B572
:100DD000002200230024058C4EF6FF763540058462
:100DE000038C8488828B48F6FF752A404FF6FF45B6
:100DF0002A400D8820E00000002C01400004004043
:100E000000080040000C00400010004000140040AA
:100E100000340140004C01400050014000540140AA
:100E200000180040001C004000200040004001402D
:100E300000440140004801404FF6FF7606EA0525D0
:100E40002A434DF6FF752B400D8906EA05352B43E5
:100E50004D8806EA05352B43FA4DA84202D0FA4DDB
:100E6000A84208D14BF6FF752C408D894FF6FF76CE
:100E700006EA85152C4384808283CD88A0F84050F3
:100E8000038470BD828B4FF2FF331A408283828BC2
:100E90004FF6FF7303EA01231A4382837047F0B5CC
:100EA0000C461546002200210026078C4EF6FF7CDA
:100EB00007EA0C070784828B018C4FF6FF7707EA5D
:100EC000043640F6FF473A404FF6FF7707EA05271A
:100ED0003A434FF6FF7707EA03373A43D94FB84210
:100EE0000ED0D94FB8420BD0B0F1804F08D0D74FB9
:100EF000B84205D0D64FB84202D0D64FB84206D13C
:100F00004DF6FF77394046F48057394305E047F600
:100F1000FF57394044F48057394382830184F0BD40
:100F2000828B4FF6F3731A408283828B0A4382834B
:100F30007047F0B50C461546002200210026078CAC
:100F40004FF6FF6C07EA0C070784828B018C4FF683
:100F5000FF7707EA04264FF60C773A404FF6FF7703
:100F600007EA03172F433A43B64FB8420ED0B64FA5
:100F7000B8420BD0B0F1804F08D0B44FB84205D082
:100F8000B34FB84202D0B34FB84206D14FF6FF5725
:100F9000394046F48077394305E04FF2FF57394036
:100FA00044F48077394382830184F0BD028B4FF291
:100FB000FF331A400283028B4FF6FF7303EA0123CB
:100FC0001A4302837047F0B50C46154600220021F3
:100FD0000026078C4FF6EF7C07EA0C070784028B8C
:100FE000018C4FF6FF7707EA041640F6FF473A40B8
:100FF0004FF6FF7707EA03373A434FF6FF7707EAE2
:1010000005273A438F4FB8420ED08F4FB8420BD0CE
:10101000B0F1804F08D08D4FB84205D08C4FB84208
:1010200002D08C4FB84206D14FF6DF77394046F0F8
:101030001007394305E04FF65F77394044F0100759
:10104000394302830184F0BD028B4FF6F3731A40DB
:101050000283028B0A4302837047F0B50C461546A3
:1010600000220021068C4FF6FE773E400684028B5C
:10107000018C4FF60C7632407E1C06EA03162E4396
:101080003243704EB0420ED06F4EB0420BD0B0F132
:10109000804F08D06D4EB04205D06D4EB04202D0A8
:1010A0006C4EB04206D14FF6FD76314044F0010659
:1010B000314305E04FF6F576314044F00106314307
:1010C00002830184F0BD70B505460C465D4885423B
:1010D0000ED05D4885420BD0B5F1804F08D05B48FB
:1010E000854205D05A48854202D05A48854200D1EF
:1010F00000E000BF208850B92389A2886188284673
:10110000FFF7ABFFE1882846FFF79EFF25E0208828
:1011100004280AD12389A28861882846FFF753FF53
:10112000E1882846FFF742FF17E0208808280AD107
:101130002389A28861882846FFF7FBFEE1882846BC
:10114000FFF7EEFE09E02389A28861882846FFF7B1
:10115000A6FEE1882846FFF795FE70BD2DE9F04117
:1011600005460C4600260127608808B9022600E0E3
:101170000026A088012801D1022700E0012720884D
:10118000A0B92389A28861882846FFF766FFE18815
:101190002846FFF759FF23893A4631462846FFF78C
:1011A00012FFE1882846FFF701FF13E02389A28898
:1011B00061882846FFF707FFE1882846FFF7F6FE1B
:1011C00023893A4631462846FFF747FFE1882846FB
:1011D000FFF73AFFBDE8F0810A884B881A438B88F5
:1011E0001A43CB881A430B891A434B891A438B89BC
:1011F0001A43A0F8442070474FF6FF718180002108
:101200000180C180418001727047002101804180CE
:101210008180C180018141818181C181704700212C
:1012200001804180012181800021C18001817047BE
:101230000021018041808180C180018141818181C3
:1012400070470000002C01400034014000040040C1
:1012500000080040000C004021B1028842F0010269
:10126000028004E002884FF6FE731A400280704745
:1012700031B1B0F8442042F40042A0F8442005E027
:10128000B0F84420C2F30E02A0F8442070471AB10F
:1012900083890B43838102E083898B438381704779
:1012A0008182704741EA0203A0F8483070471AB1C2
:1012B00083890B43838102E083898B438381704759
:1012C00001894FF6F8721140018170470A460021EA
:1012D00001894FF68F73194011430181704730B572
:1012E00004460D4629462046FFF7F0FF208940F0CE
:1012F0000700208130BD2DE9F04104460D46164619
:101300001F46602D06D13B46012231462046FFF79D
:101310005AFE05E03B46012231462046FFF79DFE7E
:1013200029462046FFF7D2FF208940F007002081A0
:10133000BDE8F08130B50C4600210189C9B24FF6F5
:10134000FF7505EA0325154325432943018130BD77
:101350002DE9F04105460E461746984600244346BF
:101360003A4631462846FFF7E5FF2C894FF6F870DC
:10137000044044F007044FF68F70044044F07004BA
:101380002C81BDE8F081F0B504460D4616461F4697
:101390003B46324629462046FFF7CCFF208940F4E1
:1013A00080402081F0BD0185828270470A4600217D
:1013B00001884FF68F731940114301807047F0B5D3
:1013C0000C4615461E460021002200230189028B8F
:1013D000038C4FF6F877394021434FF6FC473A40EB
:1013E00040F201173A434FF6DD773B404FF6FF7767
:1013F00007EA06172F433B43018102830384F0BDB4
:101400000A460021018B4FF68F7319401143018367
:1014100070470A460021018B48F6FF7319404FF6CA
:10142000FF7303EA02231943018370470A46002130
:10143000818B4FF68F7319401143818370470A46A1
:101440000021818B48F6FF7319404FF6FF7303EAC2
:10145000022319438183704721B1028842F0800240
:10146000028004E002884FF67F731A4002807047C2
:1014700021B1828842F00402828004E082884FF623
:10148000FB731A408280704721B1828842F00802C3
:10149000828004E082884FF6F7731A40828070479A
:1014A00021B1828842F00102828004E082884FF6F6
:1014B000FE731A40828070470A460021018B4FF666
:1014C000F77319401143018370470A460021018BCD
:1014D0004FF2FF7319404FF6FF7303EA02231943DB
:1014E000018370470A460021818B4FF6F77319403C
:1014F0001143818370470A460021818B4FF2FF73AD
:1015000019404FF6FF7303EA0223194381837047A2
:101510000A460021018B4FF6FB73194011430183EA
:1015200070470A460021018B4FF6FF3319404FF6F2
:10153000FF7303EA02231943018370470A4600211F
:10154000818B4FF6FB7319401143818370470A4624
:101550000021818B4FF6FF3319404FF6FF7303EAEA
:1015600002231943818370470A460021018B4FF6FD
:101570007F7319401143018370470A460021018B94
:10158000C1F30E014FF6FF7303EA022319430183EF
:1015900070470A460021818B4FF67F731940114333
:1015A000818370470A460021818BC1F30E014FF6FB
:1015B000FF7303EA02231943818370470A4600211F
:1015C000018C4FF6FD7319401143018470470A46A0
:1015D0000021018C4FF6F7731940114301847047C5
:1015E0000A460021018C4FF6DF7319404FF6FF7356
:1015F00003EA02131943018470470A460021018C53
:101600004FF67F7319404FF6FF7303EA0213194335
:10161000018470470A460021018C4FF6FF531940A0
:101620004FF6FF7303EA02231943018470470A4609
:101630000021018C4FF2FF7319404FF6FF7303EA4C
:1016400002231943018470470A460021018C4DF69C
:10165000FF7319404FF6FF7303EA02331943018405
:10166000704730B5002301248C40A3B2048C9C4306
:101670000484048C02FA01F5ADB22C43048430BD1D
:1016800030B5002304248C40A3B2048C9C43048412
:10169000048C02FA01F5ADB22C43048430BD70B560
:1016A0000346002000241846183001258D40ACB2B6
:1016B0001D8CA5431D8409B1082909D100EB6100E7
:1016C000056825F0700505600568154305600EE0A6
:1016D0000D1FC5F34E052844056825F4E045056057
:1016E00005684FF6FF7606EA02263543056070BDB1
:1016F00021B1028842F00202028004E002884FF623
:10170000FD731A400280704721B1028842F0040242
:10171000028004E002884FF6FB731A400280704793
:1017200021B1828842F08002828004E082884FF6F4
:101730007F731A408280704702884FF6F7731A4011
:10174000028002880A430280704782884FF68F73B6
:101750001A40828082880A438280704702894FF64D
:10176000F8731A40028102890A4302817047028994
:101770004FF67F731A40028102890A430281704743
:1017800081847047818570478186704701877047E3
:1017900081877047A0F84010704702884FF6FF43DA
:1017A0001A40028002880A43028070470146888EF0
:1017B00070470146088F70470146888F7047014681
:1017C000B1F8400070470146888C70470146088D8B
:1017D000704702460020138A0B400BB1012000E045
:1017E00000207047CA430282704730B5024600208D
:1017F00000230024158A05EA0103958905EA0104FE
:1018000013B10CB1012000E0002030BDCA430282B8
:101810007047000010B50446FB48844209D10121FD
:101820008803FFF79FF800214FF48040FFF79AF8F4
:1018300032E0F648844209D101214804FFF79FF8BD
:1018400000214FF40030FFF79AF825E0F048844279
:1018500009D101218804FFF792F800214FF480207C
:10186000FFF78DF818E0EB48844209D10121C80444
:10187000FFF785F800214FF40020FFF780F80BE018
:10188000E548844208D101210805FFF778F80021D6
:101890004FF48010FFF773F810BD2DE9F04786B0C4
:1018A00005460E460024A24600BFA1460027B08987
:1018B00000B100BF2F462C8A4CF6FF700440F08820
:1018C00004432C82AC894EF6F3100440B088318971
:1018D0000843718908430443AC81AC8A4FF6FF404A
:1018E0000440B0890443AC8201A8FEF7B4FFC648A7
:1018F000874202D1DDF810A001E0DDF80CA0A88934
:1019000000F4004040B10AEBCA0000EB0A10316855
:101910004900B0FBF1F807E00AEBCA0000EB0A103F
:1019200031688900B0FBF1F86420B8FBF0F00401E5
:101930002009642101FB1089A88900F4004040B10E
:10194000322000EBC900B0FBF1F000F007000443C7
:1019500008E0322000EB09106421B0FBF1F000F048
:101960000F0004432C8106B0BDE8F0874FF41651F8
:10197000016000218180C18001810C214181002111
:101980008181704710B502460020108A4FF2FF0394
:1019900018400B884C8823438C882343CC882343EE
:1019A0001843108210BD0021018041808180C180D8
:1019B000704721B1828942F40052828104E0828919
:1019C0004DF6FF731A4082817047F0B5034600243C
:1019D00000260025002040F66A17B94200D100BF5A
:1019E0001846C1F3421401F01F06012707FA06F555
:1019F000012C01D10C3004E0022C01D1103000E0A8
:101A000014301AB107682F43076002E00768AF433C
:101A10000760F0BD1AB1838A0B43838202E0838A98
:101A20008B4383827047028A4FF6F0731A4002821A
:101A3000028A0A430282704782894FF2FF731A407A
:101A4000828182890A438281704721B1828942F072
:101A50000202828104E082894FF6FD731A4082817E
:101A60007047028A4FF6DF731A400282028A0A43E5
:101A70000282704721B1028A42F48042028204E06D
:101A8000028A4BF6FF731A4002827047C1F30802C4
:101A90008280704701468888C0F3080070478189BA
:101AA00041F0010181817047028BD2B20283028B27
:101AB00042EA012202837047028B02F47F420283D2
:101AC000028B0A430283704721B1828A42F02002CE
:101AD000828204E0828A4FF6DF731A408282704766
:101AE00021B1828A42F01002828204E0828A4FF69B
:101AF000EF731A408282704721B1828A42F0080255
:101B0000828204E0828A4FF6F7731A40828270471D
:101B100021B1828942F40042828103E08289C2F3CA
:101B20000E028281704721B1828A42F40062828271
:101B300004E0828A4FF2FF731A4082827047828AE1
:101B40004FF6FB731A408282828A0A438282704770
:101B500021B1828A42F00202828204E0828A4FF638
:101B6000FD731A408282704702460020B1F5007F63
:101B700000D100BF13880B400BB1012000E0002012
:101B8000704701F40072B2F5007F00D100BFCA4374
:101B90000280704770B50246002400230025002013
:101BA00040F66A16B14200D100BFC1F3421501F000
:101BB0001F03012606FA03F3012D02D19689334053
:101BC00006E0022D02D1168A334001E0968A3340A6
:101BD0000C12012606FA04F41688344013B10CB135
:101BE000012000E0002070BD10B50022002340F667
:101BF0006A14A14200D100BF0A1201249440A3B28A
:101C0000DC43048010BD0000003801400044004067
:101C100000480040004C00400050004010B5044611
:101C2000FA48844208D101214015FEF79BFE0021AD
:101C30006015FEF797FE17E0F548844208D10121B0
:101C40000015FEF78FFE00212015FEF78BFE0BE03E
:101C5000F048844208D10121C803FEF783FE002129
:101C60004FF40040FEF77EFE10BD30B50246002066
:101C700000235068E84C20400D790C6844EA0524A4
:101C8000204350609068E54C2040D1E902542C4339
:101C90004D7944EA450420439060D06A20F47000F6
:101CA0000C7C641EE4B2234340EA0350D06230BD92
:101CB00000210160017141718160C16001210174E5
:101CC000704721B1826842F00102826003E08268BD
:101CD00022F001028260704721B1826842F4807272
:101CE000826003E0826822F480728260704710B5DF
:101CF0000023CBB21AB144681C43446002E044683C
:101D00009C43446010BD816841F0080181607047C8
:101D1000014600208A6802F008020AB1012000E0B2
:101D200000207047816841F00401816070470146DE
:101D300000208A6802F004020AB1012000E00020BD
:101D4000704721B1826842F4A002826003E0826899
:101D500022F4A00282607047014600208A6802F4E3
:101D600080020AB1012000E00020704710B50A4649
:101D700000210023416821F46041531E41EA4331B0
:101D8000416010BD21B1426842F40062426003E04C
:101D9000426822F4006242607047F0B504460D4686
:101DA00000200021092D11DDE068A5F10A0606EBEF
:101DB0004607072606FA07F18843A5F10A0606EB4F
:101DC000460603FA06F10843E0600CE0206905EBE3
:101DD0004507072606FA07F1884305EB450603FA8F
:101DE00006F108432061072A0FDA606B561E06EBE6
:101DF00086071F2606FA07F18843561E06EB86065D
:101E000005FA06F10843606322E00D2A0FDA206B21
:101E1000D61F06EB86071F2606FA07F18843D61F52
:101E200006EB860605FA06F10843206310E0E06A37
:101E3000A2F10D0606EB86071F2606FA07F1884376
:101E4000A2F10D0606EB860605FA06F10843E062EC
:101E5000F0BD21B1826842F48012826003E08268A2
:101E600022F48012826070470146C86C80B27047CD
:101E700066484C300068704721B1426842F4806285
:101E8000426003E0426822F480624260704721B100
:101E9000426842F48052426003E0426822F4805279
:101EA000426070470A460021816821F4E0411143F5
:101EB0008160704721B1826842F40042826003E091
:101EC000826822F400428260704721B1826842F445
:101ED0000212826003E0826822F40212826070477C
:101EE000014600208A6802F400120AB1012000E0D5
:101EF00000207047F0B50446154600200022002659
:101F0000092911DDE068A1F10A0707EB470C072753
:101F100007FA0CF29043A1F10A0707EB470703FA0F
:101F200007F21043E0600CE0206901EB410C072749
:101F300007FA0CF2904301EB410703FA07F2104352
:101F40002061A06BC0F30156EF1C06F1010CA7EB5A
:101F50000C0707EB870C1F2707FA0CF29043EF1CC6
:101F600006F1010CA7EB0C0707EB870701FA07F254
:101F70001043A063F0BD10B50A4600210023816B19
:101F800021F44011531E41EA0351816310BD08B58D
:101F9000002300930090009B0B440093009B1A6069
:101FA00008BD08B5024600200090009201F128000B
:101FB000009B184400900098006880B208BD0A4653
:101FC00000214168164B194011434160704741623E
:101FD000826270470A460021416821F01F011143C7
:101FE0004160704740B109490831096841F4000176
:101FF000064A0832116007E004490831096821F4F3
:102000000001024A083211607047000000240140BC
:1020100000280140003C0140FFFEF0FFFDF7F1FF0A
:10202000FFFD3FFF0246002013680B400BB101206B
:1020300000E000207047CA430260704770B5024656
:102040000020002300240B125568CEB205EA0604D6
:1020500015681D4015B10CB1012000E0002070BDD5
:1020600000220A12D3430360704700000CB5002021
:10207000019000906C48006840F480306A49086024
:1020800000BF6948006800F4003000900198401CCF
:102090000190009818B90198B0F5A06FF1D162488D
:1020A000006800F4003010B10120009001E0002031
:1020B00000900098012843D15C48006840F010006F
:1020C0005A4908600846006820F003000860084686
:1020D000006840F002000860534840685249486078
:1020E0000846406848600846406840F480604860A0
:1020F0000846406820F47C1048600846406840F478
:10210000E81048600846006840F08070086000BF32
:102110004548006800F000700028F9D04248406847
:1021200020F00300404948600846406840F0020043
:10213000486000BF3C48406800F00C000828F9D116
:102140000CBD10B5FFF792FF10BD10B53648006802
:1021500040F00100344908600846406834490840AE
:102160003149486008460068324908402E490860F5
:102170000846006820F4802008600846406820F483
:10218000FE0048604FF41F008860FFF7DAFF4FF051
:1021900000602949086010BD10B500210020002210
:1021A000214B5B6803F00C0121B1042906D00829FA
:1021B00028D107E0214B224C236027E01F4B204C05
:1021C000236023E0184B5B6803F47010164B5B68C8
:1021D00003F48032022303EB904022B9194B4343AE
:1021E000174C23600DE0104B5B6803F4003323B100
:1021F000144B4343124C236003E0104B4343104CF9
:10220000236003E00D4B0E4C236000BF00BF064B64
:102210005B68C3F303130C4CE15C094B1B68CB40B8
:10222000074C236010BD0000001002400020024057
:102230000000FFF8FFFFF6FE08ED00E000127A0054
:102240001400002000093D0018000020014605E0B0
:10225000002001E0421CD0B20A28FBDB0A1EA1F1DB
:102260000101F5D1704710B5044603E04FF47A70D0
:10227000FFF7ECFF201EA4F10104F7D110BD704759
:1022800008B50720009002E00098401E00900098DA
:102290000028F9D108BD10B54FF40070E649086078
:1022A00040100860FFF7ECFFE3480838006808B901
:1022B000012000E0002000F4007008B1002010BDF3
:1022C0004FF40070DC49091D0860FFF7D9FFDA48B8
:1022D0000838006800F4007008B10020EFE74FF400
:1022E0000070D549091D0860FFF7CAFF0120E6E725
:1022F00010B54FF48070D049091D0860FFF7C0FF8A
:102300004FF40070CC49091D0860FFF7B9FF4FF486
:102310008070C9490860FFF7B3FF4FF40070C649E9
:102320000860FFF7ADFF10BD10B54FF48070C249D3
:10233000091D0860FFF7A4FF4FF40070BE49091D96
:102340000860FFF79DFF4FF48070BB490860FFF7FE
:1023500097FF4FF48070B849091D0860FFF790FFA0
:1023600010BD10B54FF48070B349091D0860FFF728
:1023700087FF4FF40070B0490860FFF781FF4FF40A
:102380008070AD490860FFF77BFF4FF48070AA4969
:10239000091D0860FFF774FF10BD10B54FF4807081
:1023A000A549091D0860FFF76BFF4FF40070A249B3
:1023B0000860FFF765FF4FF480709F490860FFF7E2
:1023C0005FFF9D480838006800F4007030B14FF49A
:1023D00080709949091D0860002010BD4FF480707D
:1023E0009549091D08600120F7E770B504460825E6
:1023F0001DE04FF480709049091D0860FFF740FF11
:1024000004F0800020B14FF400708B49086004E0B4
:102410004FF400708849091D08606006040EFFF73C
:102420002FFF4FF4807084490860FFF729FF281EB2
:10243000A5F10101CDB2DCD14FF480707E49091DB8
:10244000086070BD70B508250024A8017A490860AD
:1024500016E06006040E4FF480707749091D08608D
:10246000FFF70EFF4FF4807073490860FFF708FF15
:1024700071480838006800F4007008B144F00104A5
:10248000281EA5F10101CDB2E3D14FF480706A4955
:10249000091D0860204670BD08B501210820FEF71F
:1024A00047FA4FF44070ADF8000002208DF80200AA
:1024B00014208DF8030069465F481038FDF77CFF53
:1024C00008BD2DE9F04105460E4617469846FFF730
:1024D000E2FE10B90020BDE8F081002141EA45018B
:1024E000C8B2FFF782FFFFF758FF18B9FFF700FFE8
:1024F0000020F0E73046FFF778FFFFF74EFF00249B
:102500000BE018F80400FFF770FFFFF746FF18B95B
:10251000FFF7EEFE0020DEE7641CBC42F1DBFFF7B4
:10252000E7FE0120D7E72DE9F04104460D461646A7
:102530001F463B46324629462046FFF7C2FF10B1F0
:102540000020BDE8F0814FF0FF30FAE72DE9F041BF
:1025500005460F4614461E46FFF79DFE10B90020A3
:10256000BDE8F081002141EA4501C8B2FFF73DFF17
:10257000FFF713FF18B9FFF7BBFE0020F0E738465E
:10258000FFF733FFFFF709FFFFF785FE012101EB9E
:102590004501C8B2FFF729FFFFF7FFFE0CE0FFF788
:1025A00051FF3070012C02D1FFF7DBFE01E0FFF795
:1025B000BBFE761C601EC4B2002CF0D1FFF798FE63
:1025C0000120CDE72DE9F04104460D4616461F4691
:1025D0003B46324629462046FFF7B8FF10B100209F
:1025E000BDE8F0814FF0FF30FAE770B504460D46C4
:1025F0001646FFF750FE08B9002070BD002141EAE1
:102600004401C8B2FFF7F1FEFFF7C7FE18B9FFF7A4
:102610006FFE0020F1E72846FFF7E7FEFFF7BDFE5B
:102620003046FFF7E2FEFFF7B8FEFFF761FE01203C
:10263000E3E7002070470000100C014008B50121BD
:102640001120FEF775F901210B48FDF786FF4FF4C5
:10265000C040ADF8000003208DF8020010208DF876
:10266000030069460548FDF7A7FE4FF4C041034843
:10267000FDF74FFF08BD00000002300000100140D0
:10268000002400270026FFF760FD41F61F4141F2BC
:10269000883001F0E7FF02F021F801F051FE00F070
:1026A000DBF800F03DF8FFF7C9FF02F09DF800F0FD
:1026B000E9F800F050F9FFF7EFFE0A2000F028FEDD
:1026C00000F05CFA00F0CCFD00F046FE0021084668
:1026D00001F0BCFC104807784FF0E020006940F0A2
:1026E00001004FF0E021086114E000F0B7FA6EB984
:1026F00009480578E81BC0B204442F46B4F57A7F38
:1027000003D3064800F014FE012600BF01F0D8FDF7
:1027100001F040FCE9E70000AC0000200000DC42D2
:1027200008B501210820FEF703F94FF47040ADF819
:10273000000010208DF8030003208DF80200694688
:10274000FE48FDF739FE4FF47041FC48FDF7E1FE0D
:1027500008BD08B501210846FEF7F7F8012104205D
:10276000FEF7E6F80C20ADF8000018208DF8030005
:1027700003208DF802006946F148FDF71DFE08BDF3
:1027800030B587B00025002440F2E730ADF81400E2
:102790000020ADF81000ADF81600ADF8120004A945
:1027A0004FF08040FEF7FCF96020ADF800000120FA
:1027B000ADF80200ADF806500020ADF808006946FB
:1027C0004FF08040FEF7B8FA0821C806FEF78AFEEF
:1027D0000120ADF80200ADF806400020ADF8080079
:1027E00069464FF08040FEF7F2FA0821C806FEF76E
:1027F00082FE01218807FEF72FFE01218807FEF7E0
:102800002BFD07B030BD2DE9FF4104460D4627469C
:102810002E466020ADF800000120ADF80200ADF8B2
:1028200006700020ADF8080069464FF08040FEF7C2
:1028300083FA0821C806FEF755FE0120ADF8020014
:10284000ADF8066069468007FEF7C1FA0821C806A0
:10285000FEF751FEBDE8FF8110B5FFF77AFFFFF7E5
:102860008FFF10BDB7490888098821F00101B54ADA
:1028700011807047B4490888098821F00101B24AE3
:102880001180704700B589B001210220FEF75DF884
:1028900001210420FEF74CF801A8FDF718FEC02026
:1028A000ADF8040004208DF8070003208DF8060021
:1028B00001A9A348FDF780FD4FF4A060FDF720FCBF
:1028C0001D208DF8080001208DF8090003208DF8E7
:1028D0000A0001208DF80B0002A8FDF716FC9948AC
:1028E0001038FEF789F806A8FEF786FC0020ADF840
:1028F00018004FF6FF70ADF81C000020ADF81E0068
:10290000ADF81A0006A98F481038FEF749F90A23D6
:102910001A4603218B481038FEF751FD03A8FEF735
:102920007EFC0620ADF8140003A986481038FEF797
:10293000CAFB012183481038FEF754FF01221146DB
:1029400080481038FEF7A3FC01217E481038FEF7BE
:1029500083FC09B000BD00B589B001210420FDF75A
:10296000F4FF01210820FDF7E3FF01A8FDF7AFFD0B
:10297000C020ADF8040004208DF8070003208DF876
:10298000060001A96D48FDF717FD4FF4A060FDF7A3
:10299000B7FB1E208DF8080001208DF809000320E8
:1029A0008DF80A0001208DF80B0002A8FDF7ADFBA1
:1029B00065481038FEF720F806A8FEF71DFC002039
:1029C000ADF818004FF6FF70ADF81C000020ADF810
:1029D0001E00ADF81A0006A95B481038FEF7E0F8B3
:1029E0000A231A46032158481038FEF7E8FC03A8CA
:1029F000FEF715FC0620ADF8140003A95248103864
:102A0000FEF761FB012150481038FEF7EBFE012272
:102A100011464D481038FEF73AFC01214A4810385B
:102A2000FEF71AFC09B000BD00B585B001210420F5
:102A3000FDF77EFF01210220FDF787FF8020ADF822
:102A4000100004208DF8130003208DF8120004A953
:102A50003B48FDF7B1FC4FF4A060FDF751FB1D2092
:102A60008DF8000001208DF8010003208DF8020090
:102A700001208DF803006846FDF747FB3148103808
:102A8000FDF7BAFF4FF6FF70ADF808000020ADF873
:102A90000400ADF80A00ADF8060001A92948103875
:102AA000FEF77EF800231A46602126481038FEF70C
:102AB00022FC002123481038FEF762FE0121214844
:102AC0001038FEF7C9FB05B000BD00B585B0012187
:102AD0000820FDF72DFF01210420FDF736FF80209F
:102AE000ADF8100004208DF8130003208DF81200BB
:102AF00004A91248FDF760FC4FF4A060FDF700FB4D
:102B00001E208DF8000001208DF8010003208DF8B3
:102B1000020001208DF803006846FDF7F6FA0A4826
:102B20001038FDF769FF4FF6FF70ADF80800002080
:102B3000ADF80400ADF80A0008E00000000C014008
:102B4000000801401004004010080040ADF80600E5
:102B500001A90948FEF724F800231A466021064817
:102B6000FEF7C9FB00210448FEF70AFE01210248D6
:102B7000FEF772FB05B000BD0008004070B50024F0
:102B800002F0FDFA0446002C60D17CA001F055FD56
:102B9000782001F056FF18B981A001F04EFD02E047
:102BA00087A001F04AFD782002F038F918B98FA00B
:102BB00001F043FD02E096A001F03FFD642002F029
:102BC0000EFA18B99EA001F038FD02E0A6A001F0AF
:102BD00034FD03F0C5FD18B9ACA001F02EFD02E0F4
:102BE000B7A001F02AFDC54804F096FC054603F0A5
:102BF000C1FD18B9C2A001F020FD02E0CAA001F099
:102C00001CFD40F2731004F0F6F918B9D2A001F0DF
:102C100014FD02E0D9A001F010FD642003F064FF70
:102C200018B9E2A001F009FD02E0E9A001F005FDFC
:102C300004F086FC012003F0D9FA18B9EFA001F0E6
:102C4000FCFC0AE0F6A001F0F8FC06E04FF40051AD
:102C5000FE48FDF760FC00BFFEE770BD2DE9F04FB8
:102C600089B0FB48FB49FC4BFC4ACDE90010FC490C
:102C7000FC4804F01FFBF748008800F4807000282F
:102C80007AD0F649086804F08DFF04464FF09D4164
:102C900004F0C2FDF4490860F049486804F082FF7E
:102CA00004464FF09D4104F0B7FDF0490860EB4940
:102CB000886804F077FF04464FF09D4104F0ACFDB6
:102CC000EB490860E549C86804F06CFF04464FF022
:102CD0009D4104F0A1FDE7490860E34801684FF019
:102CE000804004F067FD0690E1480168069804F012
:102CF00061FD8246DD4801684FF0404004F05AFD16
:102D00000690DC480168069804F054FD834651465D
:102D100004F0F8FC079004F091FF064606F0B6F9BF
:102D200080464FF06632D44B04F05BFE044604F05C
:102D3000B1FFD2490860CE4801684FF0804004F0EE
:102D400039FD0390CA480168039804F033FD8246B8
:102D5000C64801684FF0404004F02CFD0390C34882
:102D60000168039804F026FD8346514604F01CFDDB
:102D700081464FF07E5183E10CE200006D707520BA
:102D8000696E697469616C697A6174696F6E2063D8
:102D90006F6D706C6574652E2E2E2E2E2E0A2000FF
:102DA0006D70755F7365745F73656E736F722063AA
:102DB0006F6D706C657465202E2E2E2E2E2E0A00DF
:102DC0006D70755F7365745F73656E736F7220638A
:102DD0006F6D65206163726F7373206572726F72BD
:102DE000202E2E2E2E2E2E0A000000006D70755FF4
:102DF000636F6E6669677572655F6669666F20638B
:102E00006F6D706C657465202E2E2E2E2E2E0A008E
:102E10006D70755F636F6E6669677572655F666911
:102E2000666F20636F6D65206163726F73732065D9
:102E300072726F72202E2E2E2E2E2E0A000000008F
:102E40006D70755F7365745F73616D706C655F72D3
:102E500061746520636F6D706C657465202E2E2E15
:102E60002E2E2E0A000000006D70755F7365745F72
:102E700073616D706C655F72617465206572726FED
:102E800072202E2E2E2E2E2E0A000000646D705FF2
:102E90006C6F61645F6D6F74696F6E5F6472697689
:102EA00065725F6669726D7761726520636F6D70C0
:102EB0006C657465202E2E2E2E2E2E0A000000002A
:102EC000646D705F6C6F61645F6D6F74696F6E5F6E
:102ED0006472697665725F6669726D77617265208A
:102EE000636F6D65206163726F7373206572726FBB
:102EF00072202E2E2E2E2E2E0A00000028000020DA
:102F0000646D705F7365745F6F7269656E74617410
:102F1000696F6E20636F6D706C657465202E2E2E48
:102F20002E2E2E0A00000000646D705F7365745FC2
:102F30006F7269656E746174696F6E20636F6D6521
:102F4000206163726F7373206572726F72202E2E10
:102F50002E2E2E2E0A000000646D705F656E616279
:102F60006C655F6665617475726520636F6D706C0A
:102F7000657465202E2E2E2E2E2E0A00646D705F35
:102F8000656E61626C655F6665617475726520630C
:102F90006F6D65206163726F7373206572726F72FB
:102FA000202E2E2E2E2E2E0A00000000646D705F43
:102FB0007365745F6669666F5F7261746520636FC5
:102FC0006D706C657465202E2E2E2E2E2E0A00003C
:102FD000646D705F7365745F6669666F5F7261745C
:102FE0006520636F6D65206163726F737320657216
:102FF000726F72202E2E2E2E2E2E0A006D70755F8F
:103000007365745F646D705F737461746520636F62
:103010006D706C657465202E2E2E2E2E2E0A0000EB
:103020006D70755F7365745F646D705F73746174E8
:103030006520636F6D65206163726F7373206572C5
:10304000726F72202E2E2E2E2E2E0A00001001409E
:10305000620000206000002050000020F4010020E9
:103060005A000020540000203400002038000020C6
:103070003C0000204000002066A64C404400002098
:1030800004F040FB044604F0D9FDCDE904014348B7
:1030900001684FF0804004F08DFB83464048016892
:1030A000584604F087FB81463E4801684FF0804057
:1030B00004F080FB83463C480168584604F07AFBE4
:1030C0008246494604F01EFB044604F0B7FD07465D
:1030D000DDE9042306F022FA4FF06632334BCDE9E6
:1030E000060104F07EFC054604F0D4FD304908607A
:1030F0002D480168006804F05DFB039029480168D1
:10310000006804F057FB029025480168006804F04D
:1031100051FB834621480168006804F04BFB594687
:10312000019004F0EFFA8246029904F03DFB8146DB
:10313000039904F039FB044604F080FDCDE9040155
:10314000194801681548006804F034FB82461548A8
:1031500001681348006804F02DFB8346514604F0D3
:10316000D1FA81464FF0804104F024FB044604F07C
:1031700065FD0746DDE9042306F0D0F94FF066321D
:103180000A4BCDE9060104F02CFC054604F082FD53
:103190000849086009B0BDE8F08F00003400002045
:1031A000380000203C0000204000002066A64C4073
:1031B000480000204C000020704700BFFEE700BF21
:1031C000FEE700BFFEE700BFFEE7704770477047AD
:1031D00010B51D480078401C1B4908701B4800783A
:1031E000401C1A4908701A480078401C1849087099
:1031F00000F03BFB17480078401C16490870164841
:103200000078401C1449087014480078401C134989
:1032100008700E480078022806DB01F0D0FA00F0B2
:10322000B1FC00200949087009480078082806DB2D
:1032300000F048FB0020064908700649087000F0BD
:103240002EF900F04AFA10BDAC000020B1000020B9
:10325000AD000020AE000020AF000020B000002034
:1032600030B527480068C822B0FBF2F1B1F1807F89
:1032700001D301201DE021F07F40401E4FF0E022ED
:10328000506150170F22002807DA13071D0E1D4B3F
:1032900000F00F04241F1D5503E013071C0E1A4BEA
:1032A0001C5400BF00204FF0E02290610720106105
:1032B000002008B100BFFEE74FF0E020006920F0D9
:1032C00001004FF0E021086130BD01B50F490098C1
:1032D00008604FF0E020006940F001004FF0E0216D
:1032E000086100BF094800680028FBD108BD0748F5
:1032F000006820B105480068401E04490860704716
:103300001400002018ED00E000E400E0640000205C
:10331000002107E042F6E06100BF0A1EA1F10103AF
:1033200099B2FAD1021EA0F1010398B2F2D170470E
:103330000021FE4A1170FE4908600021FD4A11700B
:10334000FD490978FD4A11700021FD4A1160FA49D2
:103350000978FC4A1170704700B50020FA490880CE
:10336000FA490880FA490860FA490860FA49086091
:10337000FA490860FA490860FA490860FA490860A1
:10338000FA490860FA490860FA490860FA49086091
:10339000FA490860FA490860FA490860FA49086081
:1033A000FA490860FA490860E3490870F949087069
:1033B000F9490870E0480078E04908700020E049C9
:1033C0000860DD480078DF4908700020F349086094
:1033D000F3490860F348FFF7ABFF0020F2490860AB
:1033E00000BD2DE9F041F148006804F027FC0446D7
:1033F000EF48D0E900633246204604F033FC07D0A2
:10340000EB48D0E90021104604F044FCE74908608D
:10341000E848006804F012FC0446E548D0E902637D
:103420003246204604F01EFC07D0E148D0E90221D4
:10343000104604F02FFCDF490860DF48006804F004
:10344000FDFB04460D46DA49D1E9046332462946BC
:1034500004F008FC07D0D648D0E90421104604F057
:1034600019FCD5490860D548006804F0E7FB04461C
:10347000CF48D0E906633246204604F0F3FB07D07C
:10348000CB49D1E90621104604F004FCCB49086081
:103490000020C2490860C2490860BDE8F0812DE9FA
:1034A000F041C7480068012810D10020BF490860DA
:1034B000C448006804F084FB06460022C24B04F0B6
:1034C00090FA044604F0E6FBB8490860BC4800687E
:1034D000022812D10020B7490860BC490968A1F14F
:1034E000400004F06DFB06460022B94B04F079FA67
:1034F000044604F0CFFBAF490860B649B1F90400B7
:1035000004F050FBB4490860B449B1F9040004F078
:1035100049FBB34908600021B248006804F0D6FBBB
:103520000BD0B149AF48006804F0D0FB05D3AF49D8
:10353000AC48006804F0D4FB05D24FF40051AC480D
:10354000FCF7E9FF04E04FF40051A948FCF7E1FF64
:103550000021A848006804F027F9824908609F49C3
:10356000B1F9000004F01EFB06469248016830469F
:1035700004F020F904467C4801687A48006804F0A9
:1035800013F9064689480168304604F013F90546E8
:10359000214604F0B7F877490860BDE8F0812DE9CD
:1035A000F04104460D46002C0CDA4FF4804192485D
:1035B000FCF7AFFF4FF400418F48FCF7ACFF6042CF
:1035C00004B20AE04FF400418B48FCF7A2FF4FF42D
:1035D00080418948FCF79FFF00BF002D0CDA4FF4B3
:1035E00000518548FCF795FF4FF480518248FCF765
:1035F00092FF684205B20AE04FF480517E48FCF722
:1036000088FF4FF400517C48FCF785FF00BFAFB244
:10361000A6B231464FF08040FEF7BAF839464FF077
:103620008040FEF7B7F875496E48006804F058FB13
:1036300023D373496B48006804F048FB02D24FF073
:10364000010801E04FF0000800215048006804F034
:103650003DFB01D1012000E0002008EA0008002124
:103660004B48006804F032FB01D1012000E000204B
:1036700008EA0008B8F1000F0DD000214FF080409B
:10368000FEF786F800214FF08040FEF783F8012016
:103690005C49086002E000205A4908605A493148F4
:1036A000006804F01DFB05D358492E48006804F05B
:1036B0000DFB0DD200214FF08040FEF769F800218C
:1036C0004FF08040FEF766F801204E49086002E0A6
:1036D00000204C490860BDE8F08170B523480468BB
:1036E0002F480168204604F00DF804462146214881
:1036F000006804F007F82149086021461D48006869
:1037000004F052F81C4908601C48006804F069FA8B
:1037100000B2B0F57A7F02DD3D48184908601748CD
:10372000006804F05EFA00B274E00000750000204A
:103730008C000020A0000020AC00002074000020BD
:1037400070000020A1000020FA000020F8000020F6
:103750000801002004010020100100200C010020BD
:1037600014010020D4000020C400002030010020FB
:10377000B8000020C8000020D0000020CC000020AD
:103780002C010020700100206C0100203801002075
:1037900034010020AD000020AE000020A400002075
:1037A000A80000200000C84224010020E4000020FE
:1037B00028980008E8000020EC000020F00000201D
:1037C00054010020440100200080FB3F48010020FC
:1037D0000000C43F5A000020640100205400002073
:1037E00068010020440000200000A0C10000A041AA
:1037F0000010014048000020000C01400000204162
:10380000000020C12001002000004842000048C202
:1038100000007A4410F57A7F02DAF748F749086029
:10382000F748006804F0DDF900B2B0F57A7F02DDF8
:10383000F448F3490860F248006804F0D2F900B295
:1038400010F57A7F02DAEC48ED490860EC48006830
:1038500004F0C7F905B2E948006804F0C2F906B2FD
:1038600029463046FFF79BFE70BD70B5E648FDF770
:10387000AAFF0446E548FDF7A6FF0546E4480460B4
:10388000E44805600021E048FDF77AFF0021DF48A9
:10389000FDF776FF20B2E0490880684200B2DF49B8
:1038A0000880DF480068DC49B1F900100844DC49B1
:1038B0000860DC480068D949B1F900100844D949CA
:1038C000086070BD2DE9F84FD5490968D54A1268DE
:1038D000881804F067F9D4490860D2490968D04AC9
:1038E0001268881A04F05EF900904FF04041009889
:1038F00004F0F6F907D24FF08041009804F0E6F9A1
:1039000001D2002000900020C6490860C449086028
:10391000C648006804F092F906464FF06632C44B80
:1039200004F05FF8044604F0B5F9C0490860BE48E9
:10393000006804F083F980464FF03332BD4B04F049
:1039400050F804460D46B948006804F077F9064679
:1039500022462B4603F09EFF824604F09BF9B349B2
:10396000086008460168B448006803F0CBFEB2491D
:103970000860B2480168B048006803F0C3FEAE4971
:103980000860AF480168AC48006803F0BBFEAA4974
:103990000860AC480068012801D100200860A648F2
:1039A000006804F01EF9B0F5FA5F02DDA648A249EE
:1039B0000860A148006804F014F910F5FA5F02DA13
:1039C000A2489D490860A2480068032812D100203F
:1039D000A0490860A0490968A1F1800004F0F0F84E
:1039E000064600229D4B03F0FCFF044604F052F90A
:1039F0009849086096480068042812D10020984928
:103A0000086098490968A1F1C00004F0D9F8064699
:103A10000022954B03F0E5FF044604F03BF9904982
:103A2000086000218448006803F0BEFE06468C480A
:103A30000168304603F0BEFE044600217B48006862
:103A400003F0B2FE064683480168304603F0B2FE3A
:103A50000546214603F056FE84490860844985489E
:103A6000006804F03DF905D383498248006804F0FA
:103A70002DF90BD27D48006880F000447D48016834
:103A8000204603F0C9FE7D49086002E000207B4922
:103A900008607B497948006804F022F902D278482E
:103AA0007649086077497548006804F00FF902D23A
:103AB00074487249086063480068002852D15F4822
:103AC000006820F000447049204604F009F949D804
:103AD0000021009804F0FAF807D16C496C4800689E
:103AE00003F068FE6A4908600BE06A49009803F039
:103AF00061FE044666480168204603F003FE6449FF
:103B0000086065496248006804F0EAF802D2624839
:103B10005F49086061495E48006804F0D7F802D246
:103B20005E485B4908605E49009803F043FE044626
:103B300057480168204603F0E5FD5A4908605A4994
:103B40005848006804F0CCF802D25748554908603C
:103B500056495448006804F0B9F811D25348514905
:103B600008600DE052494A48006803F023FE4849C6
:103B700008604F494B48006803F01CFE4949086043
:103B8000BDE8F88F2DE9F0414A480068002829D1A6
:103B90004948FDF718FE00EB800000EB00104400E0
:103BA000204604F00DF805460022444B03F08BFF3D
:103BB000074604F06FF8424908604248007820B98F
:103BC00000201F490860BDE8F0813D48006804F00E
:103BD00035F8044600223C4B04F044F803D83B4837
:103BE000174908608AE03A493548006804F078F8D7
:103BF00070D801246FE06DE000007AC4CC00002092
:103C0000D000002000007A4400040040000800407A
:103C1000180100201C010020F8000020FA000020FC
:103C200004010020080100200C01002010010020E8
:103C30006666E63F3333D33F140100202C01002099
:103C400024010020200100200000FA450000FAC5F0
:103C500054010020EC0000204C0100200000DE3F59
:103C6000F0000020500100200000C43FC0000020F0
:103C70006F12833AE40000206F1283BAC400002060
:103C80000000C0400000C0C00000F04148E17A3FA1
:103C9000A4000020A69B443B00002042000020C25C
:103CA0000AD7233EA80000200000A0420000A0C2C6
:103CB000CDCC4C3F3C010020002C0140000069406D
:103CC000280100207500002000001040000096C36D
:103CD0000000A04000244FF08241FC48006803F03F
:103CE000F5FF01D8012000E0002004401CB1F84895
:103CF000F849086002E00020F649086000BF62E76A
:103D00002DE9FC5FF4480068012878D1F348D0F829
:103D100000B0F34800680190F248B0F90290F24810
:103D2000B0F900A0E9480468484603F03BFF0646A6
:103D30004FF08D4103F070FD0546EC4903F03AFD6C
:103D4000EB490860504603F02DFF0646E94903F0B1
:103D50002BFD0546E84903F05FFDE8490860584639
:103D600003F06CFF0746E64AE64B03F0ACFE05465F
:103D700003F090FF8346019803F060FF0546E04A98
:103D8000E04B03F0A0FE074603F084FF01905021B2
:103D9000DD4803F093FCDC48DCA1096801600A21DE
:103DA000DB4803F08BFCDB480021016041600181AE
:103DB0000A21D94803F082FCD84800210160416003
:103DC00001810A21D64803F079FCD6480021016020
:103DD00041600181D449584603F078FF10D8D34997
:103DE000584603F07DFF0BD8584603F027FF0546E1
:103DF0002A460B46CEA1C64804F08AF902E0C7E085
:103E0000BDE8FC9FC849019803F060FF0FD8C7497F
:103E1000019803F065FF0AD8019803F00FFF0546EB
:103E20002A460B46C2A1BB4804F072F900E0E7E75E
:103E3000C149AF48006803F053FF11D2BF49AC48F5
:103E4000006803F043FF0BD2A948006803F0F6FEB8
:103E500005462A460B46B6A1AF4804F059F900E0E2
:103E6000CEE7B749A548006803F03AFF11D2B5493B
:103E7000A248006803F02AFF0BD2A048006803F0B4
:103E8000DDFE05462A460B46A9A1A44804F040F9E8
:103E900000E0B5E70021204603F022FF0FD8AA4931
:103EA000204603F013FF0AD2204603F0C7FE054662
:103EB0002A460B469EA19A4804F02AF900E09FE7A3
:103EC000002000F0D3FC0090009803F074FE074639
:103ED0009E4903F06FFC06464FF08B4103F09CFCBB
:103EE00005469B4903F060FC9A4908600021994807
:103EF000006803F0F5FE11D890499648006803F079
:103F0000E5FE0BD29348006803F098FE05462A466A
:103F10000B4687A1834804F0FBF800E070E77C497A
:103F2000794803F0D6FB8CA1774803F0D2FB79499E
:103F3000754803F0CEFB89A1734803F0CAFB7649AC
:103F4000714803F0C6FB86A16F4803F0C2FB7349BA
:103F50006D4803F0BEFB83A16B4803F0BAFB7049C8
:103F6000694803F0B6FB81A1674803F0B2FB6D49D5
:103F7000654803F0AEFB7EA1634803F0AAFB502125
:103F80007C4803F09BFB50225F497A4803F07DFB9D
:103F900000BF35E710B578480068401E76490860D4
:103FA0004D480068012807D10846006820B9FFF78E
:103FB000A7FE704800F035FB6F48006818B941F261
:103FC00088306D49086010BD70B505460C4600216B
:103FD000284603F07BFE01D285F0004500212046F3
:103FE00003F074FE01D284F0004464480560644824
:103FF000046070BD2DE9F04180460D4614461E4612
:10400000069F6049204603F061FE00D25D4C00210E
:10401000384603F05BFE00D200275B49384603F0C8
:104020005FFE00D2584F5948C0F800804560846058
:10403000C660076101205649087056480078564905
:104040000870002055490860BDE8F0810222504BFD
:104050001A70534A1060534A11604E4A12784E4B00
:104060001A7000224D4B1A6070472DE9F0414E48FE
:1040700005680026154807684C49384603F030FEAD
:1040800023D24A49384603F021FE1ED8484800781A
:10409000FF2804D246480078401C4549087044482F
:1040A00000780C2810D3354805683548066825F097
:1040B00000484049404603F07DFB04462146304617
:1040C00003F00EFE00D2264689E075E028010020AC
:1040D0000000FA432401002058010020CC000020F9
:1040E000D00000205A00002054000020CDCC1C41FC
:1040F000640100209A190043000003436801002076
:1041000048E17A14AE470F4004020020244C5600C8
:104110001C03002026030020300300203A03002067
:10412000440300204E03002000007A4400007AC4BB
:1041300025332E32660000000000A0C10000A0411F
:1041400000803BC500803B4500401C46CDCC54411F
:10415000CDCC4C3EB40000202C5256002C414300E4
:104160002C4759002C435342000000002C565400A9
:1041700023000000540200205C0100209800002071
:104180009C000020CDCCCC3D6666E63E7800002049
:1041900075000020AC00002074000020700000209A
:1041A00090000020940000208C000020000020419E
:1041B000A0000020CDCC4C3F5249384603F090FD82
:1041C0000AD25149384603F081FD05D800204F49F5
:1041D00008700025002602E000204C4908704C4879
:1041E00005604C48066000204B4908604B49086058
:1041F000BDE8F0812DE9FF5F49480478494800781F
:10420000201AC0B2039047480470474801680398D9
:104210000844454908600846006803F0CCFC07469E
:10422000424903F0C7FA064641488168304603F028
:10423000C1FA05463E48C168284603F063FA814644
:1042400049464FF0804003F0B5FA009003F0F6FCC9
:10425000054605F023FA074603F01CFD8346344863
:104260000169584603F0A6FA8246314801694FF0C9
:104270007E5003F099FA5146019003F043FA029000
:104280002B490868029903F095FA214908604846CD
:1042900003F0D4FC074605F04FFA054603F0FAFC9C
:1042A000824623484168504603F084FA1949086061
:1042B000012019490860002018490860BDE8FF9FE7
:1042C00010B51C480078B8B1012802D0022812D1DC
:1042D00002E0FFF78FFF12E0174800680C49086002
:1042E000164800680B49086001200B49086000204F
:1042F0000A49086003E000BFFFF7B7FE00BF00BF38
:1043000010BD00000AD7233C00002041A00000207F
:104310002C010020300100203C010020240100205D
:10432000AC00002074000020700000200AD7A33BDE
:1043300078000020750000209000002094000020EC
:1043400000B585B0012144F20400FCF7F1FA4FF406
:104350000070ADF8100018208DF8130003208DF8C0
:10436000120004A9BB48FCF727F84FF48060ADF8B1
:10437000100004208DF8130004A9B648FCF71CF8BF
:104380004FF4E13000900020ADF80400ADF80600D5
:10439000ADF80800ADF80C000C20ADF80A00694635
:1043A000AD48FDF77AFA0121AB48FDF702FB05B0F5
:1043B00000BD08B54FF48060FBF7A2FE27208DF802
:1043C000000004208DF8010001208DF802008DF816
:1043D00003006846FBF799FE08BD00B585B00121D2
:1043E0008804FCF7B2FA01210820FCF7A1FA4FF487
:1043F0008060ADF8100018208DF8130003208DF8B0
:10440000120004A99548FBF7D7FF4FF40060ADF800
:10441000100004208DF8130004A99048FBF7CCFF8E
:10442000FFF7C7FF4FF4165000900020ADF80400CE
:10443000ADF80600ADF80800ADF80C000C20ADF8A2
:104440000A0069468648FDF728FA012240F2255104
:104450008348FDF7BAFA01218148FDF7AAFA05B0B1
:1044600000BD70B504460D46E1B27B48FDF70EFB7A
:1044700000BF40217848FDF777FB0128F9D120469D
:1044800070BDF0B503460D461646002729460A2E94
:1044900003D0002008702846F0BD33B9302001F861
:1044A000010B002008702846F6E7002B03DA2D20C8
:1044B00001F8010B5B4242F210720DE093FBF2F443
:1044C00004B937B104F1300001F8010B04FB1233D9
:1044D00001270A2092FBF0F2002AEFDC002008708E
:1044E0002846D9E70FB470B586B006460CA80190EF
:1044F00073E00B9800785C281CD10B98401C0B9043
:1045000000786E2809D072280FD10D213046FDF7B2
:10451000BDFA0B98401C0B900BE00A213046FDF7CA
:10452000B5FA0B98401C0B9003E00B98401C0B90C5
:1045300000BF4BE00B980078252840D10B98401C19
:104540000B900078642818D0732833D1019810C8D4
:1045500001900BE021783046FDF798FA00BF40212A
:104560003046FDF701FB0028F9D0641C20780028B4
:10457000F0D10B98401C0B9020E0019820C80190CE
:104580000A2202A92846FFF77CFF02AC0BE0217843
:104590003046FDF77BFA00BF40213046FDF7E4FAD4
:1045A0000028F9D0641C20780028F0D10B98401C1A
:1045B0000B9003E00B98401C0B9000BF06E00B989B
:1045C00010F8011B0B903046FDF760FA00BF402148
:1045D0003046FDF7C9FA0028F9D00B98007800287A
:1045E00087D106B070BC5DF814FB10B504462146B7
:1045F0001948FDF74BFA00BF40211748FDF7B4FA00
:104600000128F9D110BD10B5044621461448FDF724
:104610003DFA00BF40211248FDF7A6FA0128F9D162
:1046200010BD70B505462C4603E02078FFF7EBFF80
:10463000641C20780028F8D170BD70B505462C4662
:1046400003E02078FFF7D1FF641C20780028F8D120
:1046500070BD00000008014000380140000C01401E
:10466000004800407FB504460D460121C802FCF712
:104670005FF941F28830ADF8080041F61F40ADF80F
:1046800004000120ADF80A000020ADF8060001A9E1
:104690001148FCF785FA012241210F48FCF7F7FD8C
:1046A00019208DF8000003208DF8010000208DF8FE
:1046B000020001208DF803006846FBF726FD7FBD50
:1046C00010B501210448FDF790F818B10121024806
:1046D000FDF79CF810BD0000002C01401FB5012122
:1046E0003D48FBF73AFF01210920FCF721F90120A1
:1046F000ADF80C0010208DF80F0003208DF80E008F
:1047000003A93648FBF758FE0220ADF80C0028201C
:104710008DF80F0003A93148FBF74EFE0121084632
:10472000FBF760FF0220019000208DF808000820B0
:104730008DF8090001208DF80A0001A8FBF75CFD47
:1047400007208DF8000003208DF8010001208DF86E
:1047500002008DF803006846FBF7D7FC1FBD10B5BB
:104760000220FBF7AFFD48B300211D48FDF708F814
:1047700001211B48FCF770FD01201A49086012E076
:104780001748FDF720F80A2807DB00211448FCF73A
:1047900063FD00201349086005E002210F48FBF784
:1047A0009EFE104908600F4800680028E8D10021EB
:1047B0000B48FCF751FD0220FBF795FD10BD10B52D
:1047C00001210648FBF7A5FE0C20FDF73FFD012166
:1047D0000248FBF7A0FE10BD00023000000C0140B3
:1047E000002C0140C001002000B587B001214FF42A
:1047F0000170FCF79DF84FF40040FBF7FDFF01202E
:10480000ADF8040000208DF8070001A92348FBF74C
:10481000D3FD2348FDF702FA002002908DF80C002A
:104820008DF80D004FF460200490002005900120C9
:104830008DF8180002A91A48FDF717FA0121184847
:10484000FDF73FFA1648FDF75EFA00BF1448FDF782
:104850005FFA0028FAD11248FDF764FA00BF104849
:10486000FDF765FA0028FAD107B000BD10B504467F
:104870000723012221460A48FDF78FFA0121084843
:10488000FDF75FFA00BF02210548FDF7CBFB0028CA
:10489000F9D00348FDF7E8FA10BD00000008014018
:1048A000002401400648804706480047FEE7FEE72F
:1048B000FEE7FEE7FEE7FEE7FEE7FEE7FEE7FEE7D0
:1048C0004B210008ED00000838B50446FB4890F87D
:1048D0002400C0B114B10220009001E0002000903B
:1048E000F64A1268D17BF54A526810786B4601226D
:1048F000FDF719FE10B14FF0FF3038BD9DF80010E4
:10490000EE48417423E0ED48807A10B94FF0FF3053
:10491000F3E724B1E948407C08B10020EDE714B189
:104920000120009001E000200090E44A1268D17B51
:10493000E24A526810786B460122FDF7F4FD10B18F
:104940004FF0FF30D9E79DF80010DC48417400209B
:10495000D3E738B5002419E0D8480068C07AA042EF
:1049600004D0D6480068407DA04200D10CE0D34975
:10497000496808786B4601222146FDF723FE10B1F5
:104980004FF0FF3038BD00BF601CC4B2CB48406858
:104990000079A042E0DC0020F4E770B504460D4643
:1049A000C6480068C07AA04204D0C4480068407D70
:1049B000A04202D14FF0FF3070BDC048406800797E
:1049C000A04202DC4FF0FF30F6E7BC4949680878A6
:1049D0002B4601222146FDF7F5FDEDE738B50446EB
:1049E000B64890F82300A04201D1002038BD14B190
:1049F0003020009001E000200090B048807C20B181
:104A00009DF8000040F002000090AC4890F82200B1
:104A100020B19DF8000040F080000090A74A126885
:104A2000117DA64A526810786B460122FDF77BFD86
:104A300010B14FF0FF30D9E7A04880F823400020A4
:104A4000D4E738B5044604F0700010B1012000909E
:104A500005E014B10020009001E040200090974A4A
:104A60001268917C954A526810786B460122FDF7D6
:104A70005AFD20B1002191488172481E38BD9DF831
:104A8000000020F040018D4801730020009004F0E8
:104A9000400020B99DF8000040F00400009004F0B0
:104AA000200020B99DF8000040F00200009004F0C2
:104AB000100020B99DF8000040F00100009004F0C3
:104AC000080020B99DF8000040F0380000907B4AB3
:104AD0001268D17C794A526810786B460122FDF742
:104AE00022FD20B1002175488172481EC6E724B11D
:104AF000082C02D00020FFF771FF7048847200215B
:104B000001753220FDF7AFFB0020B7E738B504464A
:104B10006A48807CA04201D1002038BD002C46D0DC
:104B2000664A12681179654A526810786B4601220C
:104B3000FDF748FD10B14FF0FF30EEE79DF80000A3
:104B400020F0200000905D4A126811795B4A52689B
:104B500010786B460122FDF7E6FC10B14FF0FF30F4
:104B6000DBE70320FDF77FFB02200090534890F81D
:104B7000220020B19DF8000040F0800000904F48D6
:104B800090F8230020B19DF8000040F03000009024
:104B90004A4A1268117D494A526810786B460122D0
:104BA000FDF7C1FC002851D04FF0FF30B5E7434A74
:104BB00012681179414A526810786B460122FDF75C
:104BC00001FD10B14FF0FF30A7E73C48807A00F0BC
:104BD000010028B19DF8000040F02000009004E0A2
:104BE0009DF8000020F020000090344A12681179EE
:104BF000324A526810786B460122FDF794FC10B1DE
:104C00004FF0FF3089E70320FDF72DFB2B4890F88C
:104C1000220010B18020009001E000200090274881
:104C200090F8230020B19DF8000040F03000009083
:104C3000224A1268117D214A526810786B4601227F
:104C4000FDF771FC10B14FF0FF3066E71B4884742C
:104C5000002062E708B51948807A10B94FF0FF309C
:104C600008BD00200090154A1268D17B134A526893
:104C700010786B460122FDF756FC10B14FF0FF3063
:104C8000EEE70E4A126851790C4A526810786B466A
:104C90000122FDF748FC10B14FF0FF30E0E7074A72
:104CA00012681179054A526810786B460122FDF7A7
:104CB0003AFC28B14FF0FF30D2E70000C4010020D9
:104CC000F74890F82400002853D00C200090F44AB4
:104CD00012681179F24A526810786B460122FDF78A
:104CE00022FC10B14FF0FF30BAE73220FDF7BBFADB
:104CF000C0200090EA48807A00F0010020B19DF8C1
:104D0000000040F020000090E54A12681179E44A62
:104D1000526810786B460122FDF705FC10B14FF088
:104D2000FF309DE7DE48407C10B10220009001E09A
:104D300000200090DA4A1268D17BD94A5268107874
:104D40006B460122FDF7EFFB10B14FF0FF3087E714
:104D500000200090D24A12685179D14A52681078E6
:104D60006B460122FDF7DFFB002855D04FF0FF30E6
:104D700076E704200090CA4A12681179C84A52683E
:104D800010786B460122FDF7CEFB10B14FF0FF30DB
:104D900066E7C348807C20B9C148807A00F00100F2
:104DA00010B94020009001E060200090BC4A1268D9
:104DB0001179BB4A526810786B460122FDF7B3FBAC
:104DC00010B14FF0FF304BE73220FDF74CFAB448FA
:104DD000407C10B10120009001E000200090B04A1A
:104DE0001268D17BAE4A526810786B460122FDF7FB
:104DF0009AFB10B14FF0FF3032E7A94A126851799F
:104E0000A74A52681078A64B10330122FDF78BFB9E
:104E100010B14FF0FF3023E7002021E770B50446C2
:104E2000002624F001049E4890F8240008B10020D8
:104E300070BD9B48807A10B94FF0FF30F8E7984872
:104E4000057C807A2040964908740846007CA04280
:104E500002D04FF0FF3600E0002614B99048007DE4
:104E600018B10120FFF730FD02E00020FFF72CFD14
:104E70003CB1FFF7EFFE20B1894805744FF0FF30D9
:104E8000D6E73046D4E738B504468548807A10B96D
:104E90004FF0FF3038BDBC2C02DB0120009015E044
:104EA000622C02DB0220009010E02A2C02DB03209F
:104EB00000900BE0142C02DB0420009006E00A2C8A
:104EC00002DB0520009001E0062000907448C07AC3
:104ED0009DF80010884201D10020DBE7704A12687B
:104EE00091786F4A526810786B460122FDF71BFBE0
:104EF00010B14FF0FF30CDE79DF800106848C17247
:104F00000020C7E738B50446282C02DD4FF0FF30FB
:104F100038BDDCB90020FFF761FD00208DF80000EE
:104F200007208DF801005E4A1268917C5C4A526845
:104F300010786B460222FDF7F6FA10B14FF0FF3001
:104F4000E6E70021564801750020E1E70120FFF760
:104F500045FD20208DF80000012C06D100208DF8A1
:104F600001000520FFF78FFF17E0052C06DC01206C
:104F70008DF801000520FFF786FF0EE0142C06DCFB
:104F800002208DF801000A20FFF77DFF05E00320D5
:104F90008DF801001420FFF776FF9DF8010007212E
:104FA00001EB8010C0B28DF801003D4A1268917C7F
:104FB0003B4A526810786B460222FDF7B4FA10B1F2
:104FC0004FF0FF30A4E708213548817200210173BA
:104FD000012101750020FFF721FF002098E738B577
:104FE00004462F48807A10B94FF0FF3038BD2C4866
:104FF00090F8240010B14FF0FF30F7E72848007D0B
:1050000050B134B1282C04DCE0B2FFF77BFF002064
:10501000ECE70020FFF776FF042C01DA042404E01B
:10502000B4F57A7F01DD4FF47A744FF47A7090FB17
:10503000F4F0401EC0B20090194A12685178184A24
:10504000526810786B460122FDF76DFA10B14FF0EF
:10505000FF30CBE79DF80000401C4FF47A7191FBC4
:10506000F0F081B20E48C1810146C9894810FFF7AE
:105070000AFF0020BAE738B504460948807A10B91B
:105080004FF0FF3038BD022C06D0042C0AD0082C7B
:105090000BD0102C0FD10BE0002000900EE0000090
:1050A000C40100200820009008E01020009005E0D6
:1050B0001820009002E04FF0FF30E3E700BFF8480F
:1050C000407A9DF80010B0EBE10F01D10020D9E744
:1050D000F34A1268D179F24A526810786B4601227D
:1050E000FDF721FA10B14FF0FF30CBE79DF800003B
:1050F000C110EB4841720020C4E738B50446E848C7
:10510000807A10B94FF0FF3038BDFA2C09D0B4F5D1
:10511000FA7F09D0B4F57A7F09D0B4F5FA6F0CD1D3
:1051200008E0002000900BE00820009008E010202C
:10513000009005E01820009002E04FF0FF30E3E718
:1051400000BFD748007A9DF80010B0EBE10F01D105
:105150000020D9E7D24A12689179D14A5268107872
:105160006B460122FDF7DFF910B14FF0FF30CBE7BE
:105170009DF80000C010CA4908720020C4E71CB5A1
:1051800080208DF80000C64A1268917CC44A52689B
:1051900010786B460122FDF7C6F910B14FF0FF30D1
:1051A0001CBD6420FDF75FF800208DF80000BC4AAC
:1051B0001268917CBA4A526810786B460122FDF75A
:1051C000B2F910B14FF0FF30EAE7B54A1268917DAD
:1051D000B34A526810786B460622FDF7F3F910B116
:1051E0004FF0FF30DCE79DF80500C007400F9DF849
:1051F000031001F0010140EA41009DF8011001F0A7
:10520000010140EA01048CB1012C03D10121A44821
:10521000C17430E0022C03D10021A148C1742AE0FE
:10522000A0A0FFF70AFA4FF0FF30B9E79C4A1268D6
:10523000D1789B4A526810786B460122FDF7C2F97B
:1052400010B14FF0FF30ABE79DF8000000F00F0405
:105250002CB99E48FFF7F1F94FF0FF30A0E7042C7E
:1052600006D19BA0FFF7E9F901218D48C17402E046
:1052700000218B48C174FF2189488172FF20884931
:105280000872FF2186484172C1724FF6FF71C181D9
:10529000FF21017481740121017380F82210002123
:1052A00080F82310417501751630016041608160FE
:1052B000163880F8241080F82510C1844FF4FA6065
:1052C000FFF71BFF10B14FF0FF3069E70220FFF737
:1052D000D2FE10B14FF0FF3062E72A20FFF7D3FD76
:1052E00010B14FF0FF305BE73220FFF778FE10B1CE
:1052F0004FF0FF3054E70020FFF790FD10B14FF062
:10530000FF304DE70020FFF701FC10B14FF0FF30F8
:1053100046E70020FFF795FB002041E77CB50446F7
:105320000D465F48807A00F0700010B94FF0FF30F2
:105330007CBD5B4A1268117B594A526810786B46F3
:105340000622FDF73FF910B14FF0FF30F0E79DF86E
:1053500001009DF8001040EA012000B220809DF875
:1053600003009DF8021040EA012000B260809DF821
:1053700005009DF8041040EA012000B2A08015B19C
:105380002846FCF77CFF0020D2E77CB504460D469A
:105390004348807A00F0080010B94FF0FF307CBD20
:1053A0003F4A1268517B3E4A526810786B4606228B
:1053B000FDF708F910B14FF0FF30F0E79DF801005C
:1053C0009DF8001040EA012000B220809DF8030003
:1053D0009DF8021040EA012000B260809DF80500AF
:1053E0009DF8041040EA012000B2A08015B12846C3
:1053F000FCF745FF0020D2E72DE9FE4F05460C469D
:105400002748807A18B94FF0FF30BDE8FE8F244A54
:105410001268917B224A5268107802AB0222FDF793
:10542000D1F810B14FF0FF30EFE79DF809009DF87B
:10543000081040EA012006B214B12046FCF71FFF15
:1054400017494968C88802F0B6FB154901904968B8
:10545000B1F9080002F0A6FB8346304602F0A2FB39
:105460005946009002F0A0F98246019902F0D4F961
:1054700081461F4902F046F980464FF08F4102F005
:1054800099F9074602F0ADFB28600020BDE710B592
:1054900088B004461CB94FF0FF3008B010BD29E0B9
:1054A000C4010020556E737570706F72746564204E
:1054B000736F6674776172652070726F6475637460
:1054C000207265762025642E0A000000A0A6000840
:1054D00048616C662073656E736974697669747966
:1054E000207061727420666F756E642E0A00000071
:1054F00000000C42206830B9606820B9A06810B97B
:10550000002008B010BDFA494968087806AB0322AC
:105510001146FDF757F810B14FF0FF30F1E79DF855
:105520001800082101EB201000F00F00ADF800007A
:105530009DF8190001EB201000F00F00ADF80200FB
:105540009DF81A0001EB201000F00F00ADF80400E8
:1055500020684100BDF90000403091FBF0F000B23E
:10556000ADF8100060684100BDF90200403091FBC9
:10557000F0F000B2ADF81200A0684100BDF90400DF
:10558000403091FBF0F000B2ADF81400D849496802
:10559000087806AB06221146FDF714F810B14FF05B
:1055A000FF30AEE79DF819009DF8181040EA012081
:1055B00000B2ADF808009DF81B009DF81A1040EAF3
:1055C000012000B2ADF80A009DF81D009DF81C10E6
:1055D00040EA012000B2ADF80C00BDF81000BDF8A3
:1055E0000810084400B2ADF81000BDF81200BDF874
:1055F0000A10084400B2ADF81200BDF81400BDF85E
:105600000C10084400B2ADF81400BDF81000000AF8
:105610008DF81800BDF81000C0B28DF81900BDF863
:105620001200000A8DF81A00BDF81200C0B28DF801
:105630001B00BDF81400000A8DF81C00BDF8140012
:10564000C0B28DF81D00AA494968087806AB062249
:105650001146FCF768FF10B14FF0FF3051E7002012
:105660004FE70146A248007A30B1012807D002284E
:1056700009D003280FD10AE0FA2008800EE04FF489
:10568000FA7008800AE04FF47A70088006E04FF460
:10569000FA60088002E00020088000BF00BF002000
:1056A000704701469248407A30B1012807D002285D
:1056B00008D003280CD108E0022008700BE0042079
:1056C000087008E00820087005E01020087002E06B
:1056D0004FF0FF30704700BF8548C07C18B1087894
:1056E0004006000E08700020F4E701468048C07AAA
:1056F000082817D2DFE800F01704070A0D10131866
:10570000BC20088013E06220088010E02A20088076
:105710000DE0142008800AE00A20088007E0052038
:10572000088004E000BF00BF0020088000BF00BF69
:105730000020704701466E4890F8240010B14FF0E9
:10574000FF3070476A48C08908800020F9E70146A9
:1057500000200880401E704701464FF0FF30704720
:1057600001466348007A30B1012807D0022808D0EA
:1057700003280CD108E05F4808600BE05E48086031
:1057800008E05E48086005E05D48086002E04FF010
:10579000FF30704700BF0020FBE701465448407AC5
:1057A00030B1012808D002280AD0032810D10BE01C
:1057B0004FF4804008800EE041F69C7008800AE0BB
:1057C0004FF48050088006E04FF40060088002E04B
:1057D0004FF0FF30704700BF4548C07C10B10888CB
:1057E000401008800020F5E701464148007C087021
:1057F0000020704701463E48807A10B101200870B1
:1058000001E0002008700020704738B50446384891
:10581000807A10B94FF0FF3038BD354A1268117CDC
:10582000334A526810786B460222FCF7CBFE10B167
:105830004FF0FF30F0E79DF801009DF8001040EABE
:10584000012000B220800020E6E72DE9FE4F074648
:10585000884692461D46DDF830B0002600242448D4
:1058600090F8240010B1601EBDE8FE8F0020287063
:105870001F48807A10B94FF0FF30F5E71C48007CD4
:1058800010B94FF0FF30EFE71948007C00F04000FE
:1058900008B1B01CC6B21648007C00F0200008B168
:1058A000B01CC6B21248007C00F0100008B1B01C59
:1058B000C6B20F48007C00F0080008B1B01DC6B2A7
:1058C0000B4A1268917A0A4A526810786B46022293
:1058D000FCF778FE10B14FF0FF30C5E79DF80100EE
:1058E0009DF8001040EA0129B1450BDA0020BBE722
:1058F000C40100200000034300008342333303420D
:1059000033338341FC4840684088B9EB600F17DDB2
:10591000F94A1268517CF84A526810786B460122A5
:10592000FCF750FE10B14FF0FF309DE79DF80000EE
:1059300000F0100020B1FFF78DF96FF0010093E740
:105940005046FCF79CFCEC4A1268D17AEA4A52684D
:1059500010786B463246FCF735FE10B14FF0FF3041
:1059600082E799FBF6F0401E8BF8000000202870BB
:10597000B4422AD0E048007C00F0080028B3601C44
:105980001DF800001DF8041040EA012000B2A8F83C
:105990000000E01C1DF80010A01C1DF8000041EAEA
:1059A000002000B2A8F80200601D1DF80010201DA4
:1059B0001DF8000041EA002000B2A8F80400287891
:1059C00040F008002870A01D84B2B44213D0CA4829
:1059D000007C00F0400070B1601C1DF800001DF854
:1059E000041040EA012000B23880287840F04000DE
:1059F0002870A01C84B2B44213D0BF48007C00F0D1
:105A0000200070B1601C1DF800001DF8041040EA71
:105A1000012000B27880287840F020002870A01C77
:105A200084B2B44213D0B448007C00F0100070B1CE
:105A3000601C1DF800001DF8041040EA012000B2AF
:105A4000B880287840F010002870A01C84B2002094
:105A50000AE7F8B504460F461646A74890F8240012
:105A600010B94FF0FF30F8BDA348807A10B94FF05D
:105A7000FF30F8E7A04A1268917A9F4A526810787E
:105A80006B460222FCF79EFD10B14FF0FF30EAE7B3
:105A90009DF801009DF8001040EA0125A54203DAB7
:105AA00000203070401EDEE7934840684088B5EB28
:105AB000600F17DD904A1268517C8F4A5268107847
:105AC0006B460122FCF77EFD10B14FF0FF30CAE7B4
:105AD0009DF8000000F0100020B1FFF7BBF86FF058
