:020000040800F2
:100000006807002089460008893100088B31000804
:100010008F3100089331000897310008000000007C
:100020000000000000000000000000009B310008FC
:100030009D310008000000009F310008A131000838
:10004000A3460008A3460008A3460008A3460008EC
:10005000A3460008A3460008A3460008434500083D
:10006000A3460008A3460008A3460008A3460008CC
:10007000A3460008A3460008A3460008A3460008BC
:10008000A3460008A3460008A3460008A3460008AC
:10009000A3460008A3460008A3460008A34600089C
:1000A000A3460008A5440008A3460008A34600088C
:1000B000A34600083528000845280008A346000884
:1000C000A3460008A3460008A3460008A34600086C
:1000D000A3460008A3460008A3460008A34600085C
:1000E000A3460008A3460008A3460008DFF80CD08A
:1000F00007F036FE00480047812600086807002008
:1001000031490143314A1160704770B50021002325
:100110000F22C47804B32D4C246804F4E064C4F5C1
:10012000E064210AC1F10403CA40447804FA03F1EF
:100130008478144021430901254C0678A1550478A0
:1001400004F01F050124AC4005786D11AD0005F1E8
:10015000E025C5F8004109E0047804F01F050124FA
:10016000AC401C4D0678761145F8264070BD1A4A01
:100170000A400243154B1B1F1A60704739B1134ADE
:10018000121D12680243114B1B1D1A6006E00F4A34
:10019000121D126882430D4B1B1D1A607047042804
:1001A00008D14FF0E021096941F004014FF0E0224D
:1001B000116107E04FF0E021096921F004014FF0DF
:1001C000E0221161704700000000FA050CED00E02C
:1001D00000E400E080E100E080FFFF1F00204449D0
:1001E0000860091D0860091D0860091D0860414874
:1001F0003F4914310860704700213D498279002A47
:100200003AD00A46126803689A430B461A600A1DE0
:10021000126803689A430B1D1A60027911440A6838
:1002200003681A430A60324A0832126803689A4324
:100230002F4B08331A601A1D126803689A432C4B1F
:100240000C331A604279102A0ED11A1F1268036803
:100250001A43274B08331A601A1D126803681A43A1
:10026000234B0C331A600DE02149427911440A688E
:1002700003681A430A6005E0027911440A680368BA
:100280009A430A6070470021016001710C2141719D
:100290000021817170471649103109680143144AE1
:1002A00010321160704701460020114A1432126862
:1002B0000A400AB1012000E0002070470C491431C7
:1002C00008607047014600200022094B1B6803EAC2
:1002D0000102074B14331B680B4013B10AB1012014
:1002E00000E00020704702491431086070470000A8
:1002F00000040140FFFF0F0010B50446CC488442C3
:1003000008D10121042000F02DFB0021042000F081
:1003100029FB46E0C748844208D10121082000F0AB
:1003200021FB0021082000F01DFB3AE0C248844276
:1003300008D10121102000F015FB0021102000F051
:1003400011FB2EE0BD48844208D10121202000F09D
:1003500009FB0021202000F005FB22E0B848844280
:1003600008D10121402000F0FDFA0021402000F0DA
:10037000F9FA16E0B348844208D10121802000F048
:10038000F1FA0021802000F0EDFA0AE0AE48844244
:1003900007D10121801500F0E5FA0021A01500F039
:1003A000E1FA10BD10B50121084600F0DBFA00218A
:1003B000012000F0D7FA10BD2DE9F04102460025DA
:1003C0000026002000230024002791F803C00CF031
:1003D0000F0591F803C00CF0100CBCF1000F03D016
:1003E00091F802C04CEA050591F800C0BCF1000F7D
:1003F00031D0146800202BE04FF0010C0CFA00F310
:10040000B1F800C00CEA03069E4220D183004FF0F1
:100410000F0C0CFA03F7BC4305FA03FC4CEA040486
:1004200091F803C0BCF1280F06D14FF0010C0CFA73
:1004300000FCC2F814C00AE091F803C0BCF1480FF8
:1004400005D14FF0010C0CFA00FCC2F810C0401CA2
:100450000828D1D31460B1F800C0BCF1FF0F34DD1F
:10046000546800202EE000F1080C4FF0010808FA53
:100470000CF3B1F800C00CEA03069E4221D18300C0
:100480004FF00F0C0CFA03F7BC4305FA03FC4CEADF
:10049000040491F803C0BCF1280F05D100F1080C49
:1004A00008FA0CF8C2F8148091F803C0BCF1480FA8
:1004B00007D100F1080C4FF0010808FA0CF8C2F857
:1004C0001080401C0828CED35460BDE8F0814FF660
:1004D000FF710180022181700421C17070470246C2
:1004E000002093680B400BB1012000E00020704712
:1004F0000146886880B2704702460020D3680B40EE
:100500000BB1012000E0002070470146C86880B2AE
:10051000704701617047416170470AB1016100E0B5
:1005200041617047C16070474FF480320A43826175
:100530008161826182698269704702460020434B73
:1005400018684FF68073184040EA021008433F4B8A
:10055000186070473E49C8617047F0B50A460023ED
:1005600000240021002500F00046B6F1004F02D122
:10057000364EF16901E0354E7168C0F3034583B230
:1005800000F44016B6F5401F08D121F070612F4EDF
:10059000766826F070662D4F7E6012E000F48016BB
:1005A000B6F5801F06D1032606FA05F4A14341F0F3
:1005B000706106E0460D360103FA06F6B14341F0DC
:1005C000706122B1460D360103FA06F6314300F0A0
:1005D0000046B6F1004F02D11C4EF16101E01B4E06
:1005E0007160F0BD30B500228B071C0F0F2303FA9A
:1005F00004F2164B08338C1053F824309343134CF9
:1006000008348D1044F8253023468C1053F82430DC
:100610008C07240F00FA04F423430C4C08348D108B
:1006200044F8253030BD0A49DC31086070470000CD
:1006300000080140000C014000100140001401407E
:1006400000180140001C0140002001400000014052
:1006500000002042DF48006840F00100DD490860EA
:1006600008464068DC490840DA49486008460068A6
:10067000DA490840D74908600846006820F480201D
:1006800008600846406820F4FE0048604FF41F00F0
:1006900088607047CF49096821F48031CD4A1160E4
:1006A0001146096821F480211160B0F5803F03D024
:1006B000B0F5802F0ED106E0C649096841F48031BB
:1006C000C44A116007E0C349096841F4A021C14A46
:1006D000116000E000BF00BF704710B50146002266
:1006E000002300204A11012A02D1BA4C236806E0F7
:1006F000022A02D1B74C236A01E0B64C636A01F0CA
:100700001F02012494401C400CB1012000E0002095
:1007100010BD38B5002000900024002500BF312016
:10072000FFF7DBFF05460098401C00900098B0F5ED
:10073000A06F01D0002DF2D03120FFF7CEFF08B11D
:10074000012400E00024204638BD01460020A14AD3
:10075000106820F0F80040EAC10010607047A0491E
:1007600008607047024600209A4B586820F47C10BD
:1007700042EA01031843974B58607047984908664E
:10078000704701460020934A506820F00300084358
:10079000506070478F48406800F00C007047014679
:1007A00000208C4A506820F0F000084350607047E9
:1007B00001460020874A506820F4E06008435060FA
:1007C000704701460020834A506820F4605040EA98
:1007D000C1005060704729B17E4A527A02437D4B76
:1007E0005A7204E07B4A527A82437A4B5A727047BB
:1007F0007B49D8310860704701460020754A50682F
:1008000020F440400843506070470021714A203274
:100810001170704A82F82010012802D004280AD1F1
:1008200004E001216B4A2032117005E00521694A7C
:100830002032117000E000BF00BF704769490860B6
:1008400070476449096A0143624A11627047654909
:1008500044390860704730B500210022002400238D
:100860005C4D6D6805F00C0121B1042905D0082903
:1008700023D105E05C4D056022E05B4D05601FE083
:10088000544D6D6805F47012524D6D6805F4803456
:10089000022505EB92421CB9544D554305600BE00F
:1008A0004C4D6D6805F400351DB1504D5543056044
:1008B00002E04D4D5543056002E04B4D056000BF21
:1008C00000BF444D6D6805F0F0010909484D6B5CAF
:1008D0000568DD4045603F4D6D6805F4E061090A3B
:1008E000434D6B5C4568DD4085603A4D6D6805F4AD
:1008F0006051C90A3E4D6B5C4568DD40C560354DB1
:100900006D6805F44041890B3A4D6B5CC568B5FBD9
:10091000F3F5056130BD29B12E4A526902432D4BD2
:100920005A6104E02B4A526982432A4B5A6170474C
:1009300029B1284A92690243264B9A6104E0254A6C
:1009400092698243234B9A61704729B1214AD26947
:100950000243204BDA6104E01E4AD26982431D4BF8
:10096000DA61704729B11B4AD2680243194BDA6039
:1009700004E0184AD2688243164BDA60704729B106
:10098000144A12690243134B1A6104E0114A1269B6
:100990008243104B1A617047124940390860704712
:1009A0000F49C86470470B49C87170470948406ACD
:1009B00040F0807007494862704701460020054AB0
:1009C00092680A400AB1012000E000207047014906
:1009D00088727047001002400000FFF8FFFFF6FE2B
:1009E000000042428004424200127A0000093D00A9
:1009F000000000201000002010B50446FE4884428C
:100A000008D10121C014FFF7ADFF0021E014FFF76A
:100A1000A9FFC4E0B4F1804F08D101210846FFF7D7
:100A2000AEFF00210120FFF7AAFFB8E0F34884429F
:100A300008D101210220FFF7A2FF00210220FFF7C9
:100A40009EFFACE0EE48844208D101210420FFF76C
:100A500096FF00210420FFF792FFA0E0E9488442BE
:100A600008D101210820FFF78AFF00210820FFF7A5
:100A700086FF94E0E448844208D101211020FFF76A
:100A80007EFF00211020FFF77AFF88E0DF488442D4
:100A900008D101212020FFF772FF00212020FFF75D
:100AA0006EFF7CE0DA48844208D101214014FFF750
:100AB00059FF00216014FFF755FF70E0D5488442CC
:100AC00009D10121C804FFF74DFF00214FF4002098
:100AD000FFF748FF63E0D048844209D101210805AF
:100AE000FFF740FF00214FF48010FFF73BFF56E077
:100AF000CA48844209D101214805FFF733FF00218C
:100B00004FF40010FFF72EFF49E0C548844208D19A
:100B100001214020FFF733FF00214020FFF72FFF86
:100B20003DE0C048844208D101218020FFF727FF23
:100B300000218020FFF723FF31E0BB48844208D129
:100B400001218015FFF71BFF0021A015FFF717FFFC
:100B500025E0B648844209D101210804FFF702FFCD
:100B600000214FF48030FFF7FDFE18E0B0488442CA
:100B700009D101214804FFF7F5FE00214FF40030B0
:100B8000FFF7F0FE0BE0AB48844208D10121880456
:100B9000FFF7E8FE00214FF48020FFF7E3FE10BDD1
:100BA00000220288944B98420ED0994B98420BD069
:100BB000B0F1804F08D0914B984205D0904B9842AD
:100BC00002D0904B984204D14FF68F731A404B8855
:100BD0001A438D4B984207D08C4B984204D04FF665
:100BE000FF431A40CB881A4302808B8883850B8889
:100BF0000385814B98420BD0854B984208D08B4B94
:100C0000984205D08A4B984202D08A4B984201D133
:100C10000B7A038601238382704770B5002400227B
:100C20000023058C4FF6FE7635400584028C8388C0
:100C3000048B4FF68F752C40B51E2C400D882C432D
:100C4000751E2A400D892A434D882A436A4DA842C1
:100C50000BD06F4DA84208D0744DA84205D0744DFA
:100C6000A84202D0734DA84213D14FF6F7752A401F
:100C70004D892A434FF6FB752A408D882A434FF64B
:100C8000FF652B404FF6FF552B408D892B43CD89B7
:100C90002B4383800483CD888586028470BD70B524
:100CA000002400220023058C4FF6EF7635400584A2
:100CB000028C8388048B48F6FF752C404FF6FF4565
:100CC0002C400D884FF6FF7606EA05252C434FF69B
:100CD000DF752A400D8906EA05152A434D8806EA84
:100CE00005152A43444DA84202D0494DA8421DD1C2
:100CF0004FF67F752A404D894FF6FF7606EA0515B7
:100D00002A434FF6BF752A408D8806EA05152A4307
:100D10004FF6FF352B404FF2FF752B408D8906EAC9
:100D200085052B43CD8906EA85052B438380048303
:100D3000CD880587028470BD70B500240022002391
:100D4000058C4FF6FF6635400584028C8388848BC2
:100D50004FF68F752C404FF6FC752C400D882C43B8
:100D60004FF6FF552A400D894FF6FF7606EA052516
:100D70002A434D8806EA05252A431F4DA84202D082
:100D8000234DA8421DD14FF2FF752A404D894FF6E1
:100D9000FF7606EA05252A434FF6FF352A408D885F
:100DA00006EA05252A434EF6FF752B404DF6FF75E2
:100DB0002B408D8906EA05152B43CD8906EA0515DA
:100DC0002B4383808483CD888587028470BD70B572
:100DD000002200230024058C4EF6FF763540058462
:100DE000038C8488828B48F6FF752A404FF6FF45B6
:100DF0002A400D8820E00000002C01400004004043
:100E000000080040000C00400010004000140040AA
:100E100000340140004C01400050014000540140AA
:100E200000180040001C004000200040004001402D
:100E300000440140004801404FF6FF7606EA0525D0
:100E40002A434DF6FF752B400D8906EA05352B43E5
:100E50004D8806EA05352B43FA4DA84202D0FA4DDB
:100E6000A84208D14BF6FF752C408D894FF6FF76CE
:100E700006EA85152C4384808283CD88A0F84050F3
:100E8000038470BD828B4FF2FF331A408283828BC2
:100E90004FF6FF7303EA01231A4382837047F0B5CC
:100EA0000C461546002200210026078C4EF6FF7CDA
:100EB00007EA0C070784828B018C4FF6FF7707EA5D
:100EC000043640F6FF473A404FF6FF7707EA05271A
:100ED0003A434FF6FF7707EA03373A43D94FB84210
:100EE0000ED0D94FB8420BD0B0F1804F08D0D74FB9
:100EF000B84205D0D64FB84202D0D64FB84206D13C
:100F00004DF6FF77394046F48057394305E047F600
:100F1000FF57394044F48057394382830184F0BD40
:100F2000828B4FF6F3731A408283828B0A4382834B
:100F30007047F0B50C461546002200210026078CAC
:100F40004FF6FF6C07EA0C070784828B018C4FF683
:100F5000FF7707EA04264FF60C773A404FF6FF7703
:100F600007EA03172F433A43B64FB8420ED0B64FA5
:100F7000B8420BD0B0F1804F08D0B44FB84205D082
:100F8000B34FB84202D0B34FB84206D14FF6FF5725
:100F9000394046F48077394305E04FF2FF57394036
:100FA00044F48077394382830184F0BD028B4FF291
:100FB000FF331A400283028B4FF6FF7303EA0123CB
:100FC0001A4302837047F0B50C46154600220021F3
:100FD0000026078C4FF6EF7C07EA0C070784028B8C
:100FE000018C4FF6FF7707EA041640F6FF473A40B8
:100FF0004FF6FF7707EA03373A434FF6FF7707EAE2
:1010000005273A438F4FB8420ED08F4FB8420BD0CE
:10101000B0F1804F08D08D4FB84205D08C4FB84208
:1010200002D08C4FB84206D14FF6DF77394046F0F8
:101030001007394305E04FF65F77394044F0100759
:10104000394302830184F0BD028B4FF6F3731A40DB
:101050000283028B0A4302837047F0B50C461546A3
:1010600000220021068C4FF6FE773E400684028B5C
:10107000018C4FF60C7632407E1C06EA03162E4396
:101080003243704EB0420ED06F4EB0420BD0B0F132
:10109000804F08D06D4EB04205D06D4EB04202D0A8
:1010A0006C4EB04206D14FF6FD76314044F0010659
:1010B000314305E04FF6F576314044F00106314307
:1010C00002830184F0BD70B505460C465D4885423B
:1010D0000ED05D4885420BD0B5F1804F08D05B48FB
:1010E000854205D05A48854202D05A48854200D1EF
:1010F00000E000BF208850B92389A2886188284673
:10110000FFF7ABFFE1882846FFF79EFF25E0208828
:1011100004280AD12389A28861882846FFF753FF53
:10112000E1882846FFF742FF17E0208808280AD107
:101130002389A28861882846FFF7FBFEE1882846BC
:10114000FFF7EEFE09E02389A28861882846FFF7B1
:10115000A6FEE1882846FFF795FE70BD2DE9F04117
:1011600005460C4600260127608808B9022600E0E3
:101170000026A088012801D1022700E0012720884D
:10118000A0B92389A28861882846FFF766FFE18815
:101190002846FFF759FF23893A4631462846FFF78C
:1011A00012FFE1882846FFF701FF13E02389A28898
:1011B00061882846FFF707FFE1882846FFF7F6FE1B
:1011C00023893A4631462846FFF747FFE1882846FB
:1011D000FFF73AFFBDE8F0810A884B881A438B88F5
:1011E0001A43CB881A430B891A434B891A438B89BC
:1011F0001A43A0F8442070474FF6FF718180002108
:101200000180C180418001727047002101804180CE
:101210008180C180018141818181C181704700212C
:1012200001804180012181800021C18001817047BE
:101230000021018041808180C180018141818181C3
:1012400070470000002C01400034014000040040C1
:1012500000080040000C004021B1028842F0010269
:10126000028004E002884FF6FE731A400280704745
:1012700031B1B0F8442042F40042A0F8442005E027
:10128000B0F84420C2F30E02A0F8442070471AB10F
:1012900083890B43838102E083898B438381704779
:1012A0008182704741EA0203A0F8483070471AB1C2
:1012B00083890B43838102E083898B438381704759
:1012C00001894FF6F8721140018170470A460021EA
:1012D00001894FF68F73194011430181704730B572
:1012E00004460D4629462046FFF7F0FF208940F0CE
:1012F0000700208130BD2DE9F04104460D46164619
:101300001F46602D06D13B46012231462046FFF79D
:101310005AFE05E03B46012231462046FFF79DFE7E
:1013200029462046FFF7D2FF208940F007002081A0
:10133000BDE8F08130B50C4600210189C9B24FF6F5
:10134000FF7505EA0325154325432943018130BD77
:101350002DE9F04105460E461746984600244346BF
:101360003A4631462846FFF7E5FF2C894FF6F870DC
:10137000044044F007044FF68F70044044F07004BA
:101380002C81BDE8F081F0B504460D4616461F4697
:101390003B46324629462046FFF7CCFF208940F4E1
:1013A00080402081F0BD0185828270470A4600217D
:1013B00001884FF68F731940114301807047F0B5D3
:1013C0000C4615461E460021002200230189028B8F
:1013D000038C4FF6F877394021434FF6FC473A40EB
:1013E00040F201173A434FF6DD773B404FF6FF7767
:1013F00007EA06172F433B43018102830384F0BDB4
:101400000A460021018B4FF68F7319401143018367
:1014100070470A460021018B48F6FF7319404FF6CA
:10142000FF7303EA02231943018370470A46002130
:10143000818B4FF68F7319401143818370470A46A1
:101440000021818B48F6FF7319404FF6FF7303EAC2
:10145000022319438183704721B1028842F0800240
:10146000028004E002884FF67F731A4002807047C2
:1014700021B1828842F00402828004E082884FF623
:10148000FB731A408280704721B1828842F00802C3
:10149000828004E082884FF6F7731A40828070479A
:1014A00021B1828842F00102828004E082884FF6F6
:1014B000FE731A40828070470A460021018B4FF666
:1014C000F77319401143018370470A460021018BCD
:1014D0004FF2FF7319404FF6FF7303EA02231943DB
:1014E000018370470A460021818B4FF6F77319403C
:1014F0001143818370470A460021818B4FF2FF73AD
:1015000019404FF6FF7303EA0223194381837047A2
:101510000A460021018B4FF6FB73194011430183EA
:1015200070470A460021018B4FF6FF3319404FF6F2
:10153000FF7303EA02231943018370470A4600211F
:10154000818B4FF6FB7319401143818370470A4624
:101550000021818B4FF6FF3319404FF6FF7303EAEA
:1015600002231943818370470A460021018B4FF6FD
:101570007F7319401143018370470A460021018B94
:10158000C1F30E014FF6FF7303EA022319430183EF
:1015900070470A460021818B4FF67F731940114333
:1015A000818370470A460021818BC1F30E014FF6FB
:1015B000FF7303EA02231943818370470A4600211F
:1015C000018C4FF6FD7319401143018470470A46A0
:1015D0000021018C4FF6F7731940114301847047C5
:1015E0000A460021018C4FF6DF7319404FF6FF7356
:1015F00003EA02131943018470470A460021018C53
:101600004FF67F7319404FF6FF7303EA0213194335
:10161000018470470A460021018C4FF6FF531940A0
:101620004FF6FF7303EA02231943018470470A4609
:101630000021018C4FF2FF7319404FF6FF7303EA4C
:1016400002231943018470470A460021018C4DF69C
:10165000FF7319404FF6FF7303EA02331943018405
:10166000704730B5002301248C40A3B2048C9C4306
:101670000484048C02FA01F5ADB22C43048430BD1D
:1016800030B5002304248C40A3B2048C9C43048412
:10169000048C02FA01F5ADB22C43048430BD70B560
:1016A0000346002000241846183001258D40ACB2B6
:1016B0001D8CA5431D8409B1082909D100EB6100E7
:1016C000056825F0700505600568154305600EE0A6
:1016D0000D1FC5F34E052844056825F4E045056057
:1016E00005684FF6FF7606EA02263543056070BDB1
:1016F00021B1028842F00202028004E002884FF623
:10170000FD731A400280704721B1028842F0040242
:10171000028004E002884FF6FB731A400280704793
:1017200021B1828842F08002828004E082884FF6F4
:101730007F731A408280704702884FF6F7731A4011
:10174000028002880A430280704782884FF68F73B6
:101750001A40828082880A438280704702894FF64D
:10176000F8731A40028102890A4302817047028994
:101770004FF67F731A40028102890A430281704743
:1017800081847047818570478186704701877047E3
:1017900081877047A0F84010704702884FF6FF43DA
:1017A0001A40028002880A43028070470146888EF0
:1017B00070470146088F70470146888F7047014681
:1017C000B1F8400070470146888C70470146088D8B
:1017D000704702460020138A0B400BB1012000E045
:1017E00000207047CA430282704730B5024600208D
:1017F00000230024158A05EA0103958905EA0104FE
:1018000013B10CB1012000E0002030BDCA430282B8
:101810007047000010B50446FB48844209D10121FD
:101820008803FFF79FF800214FF48040FFF79AF8F4
:1018300032E0F648844209D101214804FFF79FF8BD
:1018400000214FF40030FFF79AF825E0F048844279
:1018500009D101218804FFF792F800214FF480207C
:10186000FFF78DF818E0EB48844209D10121C80444
:10187000FFF785F800214FF40020FFF780F80BE018
:10188000E548844208D101210805FFF778F80021D6
:101890004FF48010FFF773F810BD2DE9F04786B0C4
:1018A00005460E460024A24600BFA1460027B08987
:1018B00000B100BF2F462C8A4CF6FF700440F08820
:1018C00004432C82AC894EF6F3100440B088318971
:1018D0000843718908430443AC81AC8A4FF6FF404A
:1018E0000440B0890443AC8201A8FEF7B4FFC648A7
:1018F000874202D1DDF810A001E0DDF80CA0A88934
:1019000000F4004040B10AEBCA0000EB0A10316855
:101910004900B0FBF1F807E00AEBCA0000EB0A103F
:1019200031688900B0FBF1F86420B8FBF0F00401E5
:101930002009642101FB1089A88900F4004040B10E
:10194000322000EBC900B0FBF1F000F007000443C7
:1019500008E0322000EB09106421B0FBF1F000F048
:101960000F0004432C8106B0BDE8F0874FF41651F8
:10197000016000218180C18001810C214181002111
:101980008181704710B502460020108A4FF2FF0394
:1019900018400B884C8823438C882343CC882343EE
:1019A0001843108210BD0021018041808180C180D8
:1019B000704721B1828942F40052828104E0828919
:1019C0004DF6FF731A4082817047F0B5034600243C
:1019D00000260025002040F66A17B94200D100BF5A
:1019E0001846C1F3421401F01F06012707FA06F555
:1019F000012C01D10C3004E0022C01D1103000E0A8
:101A000014301AB107682F43076002E00768AF433C
:101A10000760F0BD1AB1838A0B43838202E0838A98
:101A20008B4383827047028A4FF6F0731A4002821A
:101A3000028A0A430282704782894FF2FF731A407A
:101A4000828182890A438281704721B1828942F072
:101A50000202828104E082894FF6FD731A4082817E
:101A60007047028A4FF6DF731A400282028A0A43E5
:101A70000282704721B1028A42F48042028204E06D
:101A8000028A4BF6FF731A4002827047C1F30802C4
:101A90008280704701468888C0F3080070478189BA
:101AA00041F0010181817047028BD2B20283028B27
:101AB00042EA012202837047028B02F47F420283D2
:101AC000028B0A430283704721B1828A42F02002CE
:101AD000828204E0828A4FF6DF731A408282704766
:101AE00021B1828A42F01002828204E0828A4FF69B
:101AF000EF731A408282704721B1828A42F0080255
:101B0000828204E0828A4FF6F7731A40828270471D
:101B100021B1828942F40042828103E08289C2F3CA
:101B20000E028281704721B1828A42F40062828271
:101B300004E0828A4FF2FF731A4082827047828AE1
:101B40004FF6FB731A408282828A0A438282704770
:101B500021B1828A42F00202828204E0828A4FF638
:101B6000FD731A408282704702460020B1F5007F63
:101B700000D100BF13880B400BB1012000E0002012
:101B8000704701F40072B2F5007F00D100BFCA4374
:101B90000280704770B50246002400230025002013
:101BA00040F66A16B14200D100BFC1F3421501F000
:101BB0001F03012606FA03F3012D02D19689334053
:101BC00006E0022D02D1168A334001E0968A3340A6
:101BD0000C12012606FA04F41688344013B10CB135
:101BE000012000E0002070BD10B50022002340F667
:101BF0006A14A14200D100BF0A1201249440A3B28A
:101C0000DC43048010BD0000003801400044004067
:101C100000480040004C00400050004010B5044611
:101C2000FA48844208D101214015FEF79BFE0021AD
:101C30006015FEF797FE17E0F548844208D10121B0
:101C40000015FEF78FFE00212015FEF78BFE0BE03E
:101C5000F048844208D10121C803FEF783FE002129
:101C60004FF40040FEF77EFE10BD30B50246002066
:101C700000235068E84C20400D790C6844EA0524A4
:101C8000204350609068E54C2040D1E902542C4339
:101C90004D7944EA450420439060D06A20F47000F6
:101CA0000C7C641EE4B2234340EA0350D06230BD92
:101CB00000210160017141718160C16001210174E5
:101CC000704721B1826842F00102826003E08268BD
:101CD00022F001028260704721B1826842F4807272
:101CE000826003E0826822F480728260704710B5DF
:101CF0000023CBB21AB144681C43446002E044683C
:101D00009C43446010BD816841F0080181607047C8
:101D1000014600208A6802F008020AB1012000E0B2
:101D200000207047816841F00401816070470146DE
:101D300000208A6802F004020AB1012000E00020BD
:101D4000704721B1826842F4A002826003E0826899
:101D500022F4A00282607047014600208A6802F4E3
:101D600080020AB1012000E00020704710B50A4649
:101D700000210023416821F46041531E41EA4331B0
:101D8000416010BD21B1426842F40062426003E04C
:101D9000426822F4006242607047F0B504460D4686
:101DA00000200021092D11DDE068A5F10A0606EBEF
:101DB0004607072606FA07F18843A5F10A0606EB4F
:101DC000460603FA06F10843E0600CE0206905EBE3
:101DD0004507072606FA07F1884305EB450603FA8F
:101DE00006F108432061072A0FDA606B561E06EBE6
:101DF00086071F2606FA07F18843561E06EB86065D
:101E000005FA06F10843606322E00D2A0FDA206B21
:101E1000D61F06EB86071F2606FA07F18843D61F52
:101E200006EB860605FA06F10843206310E0E06A37
:101E3000A2F10D0606EB86071F2606FA07F1884376
:101E4000A2F10D0606EB860605FA06F10843E062EC
:101E5000F0BD21B1826842F48012826003E08268A2
:101E600022F48012826070470146C86C80B27047CD
:101E700066484C300068704721B1426842F4806285
:101E8000426003E0426822F480624260704721B100
:101E9000426842F48052426003E0426822F4805279
:101EA000426070470A460021816821F4E0411143F5
:101EB0008160704721B1826842F40042826003E091
:101EC000826822F400428260704721B1826842F445
:101ED0000212826003E0826822F40212826070477C
:101EE000014600208A6802F400120AB1012000E0D5
:101EF00000207047F0B50446154600200022002659
:101F0000092911DDE068A1F10A0707EB470C072753
:101F100007FA0CF29043A1F10A0707EB470703FA0F
:101F200007F21043E0600CE0206901EB410C072749
:101F300007FA0CF2904301EB410703FA07F2104352
:101F40002061A06BC0F30156EF1C06F1010CA7EB5A
:101F50000C0707EB870C1F2707FA0CF29043EF1CC6
:101F600006F1010CA7EB0C0707EB870701FA07F254
:101F70001043A063F0BD10B50A4600210023816B19
:101F800021F44011531E41EA0351816310BD08B58D
:101F9000002300930090009B0B440093009B1A6069
:101FA00008BD08B5024600200090009201F128000B
:101FB000009B184400900098006880B208BD0A4653
:101FC00000214168164B194011434160704741623E
:101FD000826270470A460021416821F01F011143C7
:101FE0004160704740B109490831096841F4000176
:101FF000064A0832116007E004490831096821F4F3
:102000000001024A083211607047000000240140BC
:1020100000280140003C0140FFFEF0FFFDF7F1FF0A
:10202000FFFD3FFF0246002013680B400BB101206B
:1020300000E000207047CA430260704770B5024656
:102040000020002300240B125568CEB205EA0604D6
:1020500015681D4015B10CB1012000E0002070BDD5
:1020600000220A12D3430360704700000CB5002021
:10207000019000906C48006840F480306A49086024
:1020800000BF6948006800F4003000900198401CCF
:102090000190009818B90198B0F5A06FF1D162488D
:1020A000006800F4003010B10120009001E0002031
:1020B00000900098012843D15C48006840F010006F
:1020C0005A4908600846006820F003000860084686
:1020D000006840F002000860534840685249486078
:1020E0000846406848600846406840F480604860A0
:1020F0000846406820F47C1048600846406840F478
:10210000E81048600846006840F08070086000BF32
:102110004548006800F000700028F9D04248406847
:1021200020F00300404948600846406840F0020043
:10213000486000BF3C48406800F00C000828F9D116
:102140000CBD10B5FFF792FF10BD10B53648006802
:1021500040F00100344908600846406834490840AE
:102160003149486008460068324908402E490860F5
:102170000846006820F4802008600846406820F483
:10218000FE0048604FF41F008860FFF7DAFF4FF051
:1021900000602949086010BD10B500210020002210
:1021A000214B5B6803F00C0121B1042906D00829FA
:1021B00028D107E0214B224C236027E01F4B204C05
:1021C000236023E0184B5B6803F47010164B5B68C8
:1021D00003F48032022303EB904022B9194B4343AE
:1021E000174C23600DE0104B5B6803F4003323B100
:1021F000144B4343124C236003E0104B4343104CF9
:10220000236003E00D4B0E4C236000BF00BF064B64
:102210005B68C3F303130C4CE15C094B1B68CB40B8
:10222000074C236010BD0000001002400020024057
:102230000000FFF8FFFFF6FE08ED00E000127A0054
:102240001400002000093D0018000020014605E0B0
:10225000002001E0421CD0B20A28FBDB0A1EA1F1DB
:102260000101F5D1704710B5044603E04FF47A70D0
:10227000FFF7ECFF201EA4F10104F7D110BD704759
:1022800008B50720009002E00098401E00900098DA
:102290000028F9D108BD10B54FF40070E649086078
:1022A00040100860FFF7ECFFE3480838006808B901
:1022B000012000E0002000F4007008B1002010BDF3
:1022C0004FF40070DC49091D0860FFF7D9FFDA48B8
:1022D0000838006800F4007008B10020EFE74FF400
:1022E0000070D549091D0860FFF7CAFF0120E6E725
:1022F00010B54FF48070D049091D0860FFF7C0FF8A
:102300004FF40070CC49091D0860FFF7B9FF4FF486
:102310008070C9490860FFF7B3FF4FF40070C649E9
:102320000860FFF7ADFF10BD10B54FF48070C249D3
:10233000091D0860FFF7A4FF4FF40070BE49091D96
:102340000860FFF79DFF4FF48070BB490860FFF7FE
:1023500097FF4FF48070B849091D0860FFF790FFA0
:1023600010BD10B54FF48070B349091D0860FFF728
:1023700087FF4FF40070B0490860FFF781FF4FF40A
:102380008070AD490860FFF77BFF4FF48070AA4969
:10239000091D0860FFF774FF10BD10B54FF4807081
:1023A000A549091D0860FFF76BFF4FF40070A249B3
:1023B0000860FFF765FF4FF480709F490860FFF7E2
:1023C0005FFF9D480838006800F4007030B14FF49A
:1023D00080709949091D0860002010BD4FF480707D
:1023E0009549091D08600120F7E770B504460825E6
:1023F0001DE04FF480709049091D0860FFF740FF11
:1024000004F0800020B14FF400708B49086004E0B4
:102410004FF400708849091D08606006040EFFF73C
:102420002FFF4FF4807084490860FFF729FF281EB2
:10243000A5F10101CDB2DCD14FF480707E49091DB8
:10244000086070BD70B508250024A8017A490860AD
:1024500016E06006040E4FF480707749091D08608D
:10246000FFF70EFF4FF4807073490860FFF708FF15
:1024700071480838006800F4007008B144F00104A5
:10248000281EA5F10101CDB2E3D14FF480706A4955
:10249000091D0860204670BD08B501210820FEF71F
:1024A00047FA4FF44070ADF8000002208DF80200AA
:1024B00014208DF8030069465F481038FDF77CFF53
:1024C00008BD2DE9F04105460E4617469846FFF730
:1024D000E2FE10B90020BDE8F081002141EA45018B
:1024E000C8B2FFF782FFFFF758FF18B9FFF700FFE8
:1024F0000020F0E73046FFF778FFFFF74EFF00249B
:102500000BE018F80400FFF770FFFFF746FF18B95B
:10251000FFF7EEFE0020DEE7641CBC42F1DBFFF7B4
:10252000E7FE0120D7E72DE9F04104460D461646A7
:102530001F463B46324629462046FFF7C2FF10B1F0
:102540000020BDE8F0814FF0FF30FAE72DE9F041BF
:1025500005460F4614461E46FFF79DFE10B90020A3
:10256000BDE8F081002141EA4501C8B2FFF73DFF17
:10257000FFF713FF18B9FFF7BBFE0020F0E738465E
:10258000FFF733FFFFF709FFFFF785FE012101EB9E
:102590004501C8B2FFF729FFFFF7FFFE0CE0FFF788
:1025A00051FF3070012C02D1FFF7DBFE01E0FFF795
:1025B000BBFE761C601EC4B2002CF0D1FFF798FE63
:1025C0000120CDE72DE9F04104460D4616461F4691
:1025D0003B46324629462046FFF7B8FF10B100209F
:1025E000BDE8F0814FF0FF30FAE770B504460D46C4
:1025F0001646FFF750FE08B9002070BD002141EAE1
:102600004401C8B2FFF7F1FEFFF7C7FE18B9FFF7A4
:102610006FFE0020F1E72846FFF7E7FEFFF7BDFE5B
:102620003046FFF7E2FEFFF7B8FEFFF761FE01203C
:10263000E3E7002070470000100C014008B50121BD
:102640001120FEF775F901210B48FDF786FF4FF4C5
:10265000C040ADF8000003208DF8020010208DF876
:10266000030069460548FDF7A7FE4FF4C041034843
:10267000FDF74FFF08BD00000002300000100140D0
:10268000FFF763FD41F61F4141F2883001F0DCFEA7
:1026900001F016FF01F046FD00F0C6F800F028F842
:1026A000FFF7CCFF01F092FF00F0D4F800F03BF907
:1026B000FFF7F2FE0A2000F013FE00F047FA00F0E8
:1026C000B7FD00F02AFE094800F01AFE4FF0E020A6
:1026D000006940F001004FF0E021086105E000F0E2
:1026E000A5FA01F09CFC01F0B8FBF8E700005C43A0
:1026F00008B501210820FEF71BF94FF47040ADF832
:10270000000010208DF8030003208DF802006946B8
:10271000FE48FDF751FE4FF47041FC48FDF7F9FE0D
:1027200008BD08B501210846FEF70FF90121042074
:10273000FEF7FEF80C20ADF8000018208DF803001D
:1027400003208DF802006946F148FDF735FE08BD0B
:1027500030B587B00025002440F2E730ADF8140012
:102760000020ADF81000ADF81600ADF8120004A975
:102770004FF08040FEF714FA6020ADF80000012011
:10278000ADF80200ADF806500020ADF8080069462B
:102790004FF08040FEF7D0FA0821C806FEF7A2FEEF
:1027A0000120ADF80200ADF806400020ADF80800A9
:1027B00069464FF08040FEF70AFB0821C806FEF785
:1027C0009AFE01218807FEF747FE01218807FEF7E0
:1027D00043FD07B030BD2DE9FF4104460D462746B5
:1027E0002E466020ADF800000120ADF80200ADF8E3
:1027F00006700020ADF8080069464FF08040FEF7F3
:102800009BFA0821C806FEF76DFE0120ADF8020014
:10281000ADF8066069468007FEF7D9FA0821C806B8
:10282000FEF769FEBDE8FF8110B5FFF77AFFFFF7FD
:102830008FFF10BDB7490888098821F00101B54A0A
:1028400011807047B4490888098821F00101B24A13
:102850001180704700B589B001210220FEF775F89C
:1028600001210420FEF764F801A8FDF730FEC02026
:10287000ADF8040004208DF8070003208DF8060051
:1028800001A9A348FDF798FD4FF4A060FDF738FCBF
:102890001D208DF8080001208DF8090003208DF817
:1028A0000A0001208DF80B0002A8FDF72EFC9948C4
:1028B0001038FEF7A1F806A8FEF79EFC0020ADF840
:1028C00018004FF6FF70ADF81C000020ADF81E0098
:1028D000ADF81A0006A98F481038FEF761F90A23EF
:1028E0001A4603218B481038FEF769FD03A8FEF74E
:1028F00096FC0620ADF8140003A986481038FEF7B0
:10290000E2FB012183481038FEF76CFF01221146DB
:1029100080481038FEF7BBFC01217E481038FEF7D6
:102920009BFC09B000BD00B589B001210420FEF771
:102930000CF801210820FDF7FBFF01A8FDF7C7FDFA
:10294000C020ADF8040004208DF8070003208DF8A6
:10295000060001A96D48FDF72FFD4FF4A060FDF7BB
:10296000CFFB1E208DF8080001208DF80900032000
:102970008DF80A0001208DF80B0002A8FDF7C5FBB9
:1029800065481038FEF738F806A8FEF735FC002039
:10299000ADF818004FF6FF70ADF81C000020ADF840
:1029A0001E00ADF81A0006A95B481038FEF7F8F8CB
:1029B0000A231A46032158481038FEF700FD03A8E1
:1029C000FEF72DFC0620ADF8140003A9524810387C
:1029D000FEF779FB012150481038FEF703FF012272
:1029E00011464D481038FEF752FC01214A48103874
:1029F000FEF732FC09B000BD00B585B0012104200E
:102A0000FDF796FF01210220FDF79FFF8020ADF822
:102A1000100004208DF8130003208DF8120004A983
:102A20003B48FDF7C9FC4FF4A060FDF769FB1D2092
:102A30008DF8000001208DF8010003208DF80200C0
:102A400001208DF803006846FDF75FFB3148103820
:102A5000FDF7D2FF4FF6FF70ADF808000020ADF88B
:102A60000400ADF80A00ADF8060001A929481038A5
:102A7000FEF796F800231A46602126481038FEF724
:102A80003AFC002123481038FEF77AFE0121214844
:102A90001038FEF7E1FB05B000BD00B585B001219F
:102AA0000820FDF745FF01210420FDF74EFF80209F
:102AB000ADF8100004208DF8130003208DF81200EB
:102AC00004A91248FDF778FC4FF4A060FDF718FB4D
:102AD0001E208DF8000001208DF8010003208DF8E4
:102AE000020001208DF803006846FDF70EFB0A483E
:102AF0001038FDF781FF4FF6FF70ADF80800002099
:102B0000ADF80400ADF80A0008E00000000C014038
:102B1000000801401004004010080040ADF8060015
:102B200001A90948FEF73CF800231A46602106482F
:102B3000FEF7E1FB00210448FEF722FE01210248D6
:102B4000FEF78AFB05B000BD0008004070B5002408
:102B500002F007FA0446002C60D17CA001F05FFC73
:102B6000782001F060FE18B981A001F058FC02E065
:102B700087A001F054FC782002F042F818B98FA029
:102B800001F04DFC02E096A001F049FC642002F047
:102B900018F918B99EA001F042FC02E0A6A001F0CD
:102BA0003EFC03F0CFFC18B9ACA001F038FC02E009
:102BB000B7A001F034FCC54804F0A0FB054603F0C3
:102BC000CBFC18B9C2A001F02AFC02E0CAA001F0B7
:102BD00026FC40F2731004F000F918B9D2A001F0FD
:102BE0001EFC02E0D9A001F01AFC642003F06EFE86
:102BF00018B9E2A001F013FC02E0E9A001F00FFC1B
:102C000004F090FB012003F0E3F918B9EFA001F004
:102C100006FC0AE0F6A001F002FC06E04FF40051C9
:102C2000FE48FDF778FC00BFFEE770BD2DE9F04FD0
:102C300089B0FB48FB49FC4BFC4ACDE90010FC493C
:102C4000FC4804F029FAF748008800F48070002856
:102C50007AD0F649086804F097FE04464FF09D418B
:102C600004F0CCFCF4490860F049486804F08CFE9C
:102C700004464FF09D4104F0C1FCF0490860EB4967
:102C8000886804F081FE04464FF09D4104F0B6FCD4
:102C9000EB490860E549C86804F076FE04464FF049
:102CA0009D4104F0ABFCE7490860E34801684FF040
:102CB000804004F071FC0690E1480168069804F039
:102CC0006BFC8246DD4801684FF0404004F064FC34
:102CD0000690DC480168069804F05EFC8346514685
:102CE00004F002FC079004F09BFE064606F0C0F8D4
:102CF00080464FF06632D44B04F065FD044604F084
:102D0000BBFED2490860CE4801684FF0804004F015
:102D100043FC0390CA480168039804F03DFC8246D6
:102D2000C64801684FF0404004F036FC0390C348A9
:102D30000168039804F030FC8346514604F026FCF9
:102D400081464FF07E5183E10CE200006D707520EA
:102D5000696E697469616C697A6174696F6E206308
:102D60006F6D706C6574652E2E2E2E2E2E0A20002F
:102D70006D70755F7365745F73656E736F722063DA
:102D80006F6D706C657465202E2E2E2E2E2E0A000F
:102D90006D70755F7365745F73656E736F722063BA
:102DA0006F6D65206163726F7373206572726F72ED
:102DB000202E2E2E2E2E2E0A000000006D70755F24
:102DC000636F6E6669677572655F6669666F2063BB
:102DD0006F6D706C657465202E2E2E2E2E2E0A00BF
:102DE0006D70755F636F6E6669677572655F666942
:102DF000666F20636F6D65206163726F737320650A
:102E000072726F72202E2E2E2E2E2E0A00000000BF
:102E10006D70755F7365745F73616D706C655F7203
:102E200061746520636F6D706C657465202E2E2E45
:102E30002E2E2E0A000000006D70755F7365745FA2
:102E400073616D706C655F72617465206572726F1D
:102E500072202E2E2E2E2E2E0A000000646D705F22
:102E60006C6F61645F6D6F74696F6E5F64726976B9
:102E700065725F6669726D7761726520636F6D70F0
:102E80006C657465202E2E2E2E2E2E0A000000005A
:102E9000646D705F6C6F61645F6D6F74696F6E5F9E
:102EA0006472697665725F6669726D7761726520BA
:102EB000636F6D65206163726F7373206572726FEB
:102EC00072202E2E2E2E2E2E0A000000280000200A
:102ED000646D705F7365745F6F7269656E74617441
:102EE000696F6E20636F6D706C657465202E2E2E79
:102EF0002E2E2E0A00000000646D705F7365745FF3
:102F00006F7269656E746174696F6E20636F6D6551
:102F1000206163726F7373206572726F72202E2E40
:102F20002E2E2E2E0A000000646D705F656E6162A9
:102F30006C655F6665617475726520636F6D706C3A
:102F4000657465202E2E2E2E2E2E0A00646D705F65
:102F5000656E61626C655F6665617475726520633C
:102F60006F6D65206163726F7373206572726F722B
:102F7000202E2E2E2E2E2E0A00000000646D705F73
:102F80007365745F6669666F5F7261746520636FF5
:102F90006D706C657465202E2E2E2E2E2E0A00006C
:102FA000646D705F7365745F6669666F5F7261748C
:102FB0006520636F6D65206163726F737320657246
:102FC000726F72202E2E2E2E2E2E0A006D70755FBF
:102FD0007365745F646D705F737461746520636F93
:102FE0006D706C657465202E2E2E2E2E2E0A00001C
:102FF0006D70755F7365745F646D705F7374617419
:103000006520636F6D65206163726F7373206572F5
:10301000726F72202E2E2E2E2E2E0A0000100140CE
:10302000620000206000002050000020E00100202D
:103030005A000020540000203400002038000020F6
:103040003C0000204000002066A64C4044000020C8
:1030500004F04AFA044604F0E3FCCDE904014348D5
:1030600001684FF0804004F097FA834640480168B9
:10307000584604F091FA81463E4801684FF080407E
:1030800004F08AFA83463C480168584604F084FA02
:103090008246494604F028FA044604F0C1FC07467B
:1030A000DDE9042306F02CF94FF06632334BCDE90D
:1030B000060104F088FB054604F0DEFC3049086098
:1030C0002D480168006804F067FA039029480168F8
:1030D000006804F061FA029025480168006804F075
:1030E0005BFA834621480168006804F055FA5946A6
:1030F000019004F0F9F98246029904F047FA8146FA
:10310000039904F043FA044604F08AFCCDE9040173
:10311000194801681548006804F03EFA82461548CF
:1031200001681348006804F037FA8346514604F0FA
:10313000DBF981464FF0804104F02EFA044604F09A
:103140006FFC0746DDE9042306F0DAF84FF066323B
:103150000A4BCDE9060104F036FB054604F08CFC71
:103160000849086009B0BDE8F08F00003400002075
:10317000380000203C0000204000002066A64C40A3
:10318000480000204C000020704700BFFEE700BF51
:10319000FEE700BFFEE700BFFEE7704770477047DD
:1031A00010B51D480078401C1B4908701B4800786A
:1031B000401C1A4908701A480078401C18490870C9
:1031C00000F018FB17480078401C16490870164894
:1031D0000078401C1449087014480078401C1349BA
:1031E00008700E480078022806DB01F0DAF900F0DA
:1031F00013FC00200949087009480078082806DBFC
:1032000000F025FB0020064908700649087000F010
:1032100018F900F034FA10BD980000209D0000203D
:10322000990000209A0000209B0000209C000020B4
:1032300030B527480068C822B0FBF2F1B1F1807FB9
:1032400001D301201DE021F07F40401E4FF0E0221D
:10325000506150170F22002807DA13071D0E1D4B6F
:1032600000F00F04241F1D5503E013071C0E1A4B1A
:103270001C5400BF00204FF0E02290610720106135
:10328000002008B100BFFEE74FF0E020006920F009
:1032900001004FF0E021086130BD01B50F490098F1
:1032A00008604FF0E020006940F001004FF0E0219D
:1032B000086100BF094800680028FBD108BD074825
:1032C000006820B105480068401E04490860704746
:1032D0001400002018ED00E000E400E0640000208D
:1032E000002107E042F6E06100BF0A1EA1F10103E0
:1032F00099B2FAD1021EA0F1010398B2F2D170473F
:103300000021FE4A1170FE490860FE490978FE4A14
:1033100011700021FD4A1160704700B50020FC4982
:103320000880FC490880FC490860FC490860FC49A9
:103330000860FC490860FC490860FC490860FC49D9
:103340000860FC490860FC490860FC490860FC49C9
:103350000860FC490860FC490860FC490860FC49B9
:103360000860FC490860FC490860E6490870FB49B0
:103370000870FB490870E3480078E34908700020B2
:10338000E2490860F748FFF7BBFF0020F6490860F4
:1033900000BD2DE9F041F548006804F041FB04460A
:1033A000F348D0E900633246204604F04DFB07D0D5
:1033B000EF48D0E90021104604F05EFBEB490860BD
:1033C000EC48006804F02CFB0446E948D0E90263AD
:1033D0003246204604F038FB07D0E549D1E9022106
:1033E000104604F049FBE3490860E348006804F034
:1033F00017FB0446DE48D0E904633246204604F059
:1034000023FB07D0DA48D0E90421104604F034FB4E
:10341000D9490860D948006804F002FB0446D44842
:10342000D0E906633246204604F00EFB07D0D048B0
:10343000D0E90621104604F01FFBD0490860BDE822
:10344000F0812DE9F041CE480068012810D100201C
:10345000C6490860CB48006804F0A4FA064600227A
:10346000C94B04F0B0F9044604F006FBBF490860FC
:10347000C3480068022812D10020BE490860C34931
:103480000968A1F1400004F08DFA06460022C04B05
:1034900004F099F9044604F0EFFAB6490860BD4912
:1034A000B1F9040004F070FABB490860BB49B1F9F6
:1034B000040004F069FABA4908600021B9480068BC
:1034C00004F0F6FA0BD0B849B648006804F0F0FAF8
:1034D00005D3B649B348006804F0F4FA05D24FF4B6
:1034E0000051B348FDF717F804E04FF40051B0481D
:1034F000FDF70FF80021AF48006804F047F88B494A
:103500000860A649B1F9000004F03EFA0646994861
:103510000168304604F040F8044685480168834855
:10352000006804F033F8064690480168304604F01D
:1035300033F80546214603F0D7FF80490860BDE80F
:10354000F0812DE9F04104460D46002C0CDA4FF4D1
:1035500080419948FCF7DDFF4FF400419648FCF7A5
:10356000DAFF604204B20AE04FF400419248FCF7EF
:10357000D0FF4FF480419048FCF7CDFF00BF002DF5
:103580000CDA4FF400518C48FCF7C3FF4FF4805124
:103590008948FCF7C0FF684205B20AE04FF4805149
:1035A0008548FCF7B6FF4FF400518348FCF7B3FFA2
:1035B00000BFAFB2A6B231464FF08040FEF7E8F848
:1035C00039464FF08040FEF7E5F87C4975480068C1
:1035D00004F078FA23D37A497248006804F068FA54
:1035E00002D24FF0010801E04FF0000800215948D5
:1035F000006804F05DFA01D1012000E0002008EA33
:10360000000800215448006804F052FA01D101205A
:1036100000E0002008EA0008B8F1000F0DD00021FA
:103620004FF08040FEF7B4F800214FF08040FEF7E5
:10363000B1F801206349086002E000206149086098
:1036400061493A48006804F03DFA05D35F493748BC
:10365000006804F02DFA0DD200214FF08040FEF7F3
:1036600097F800214FF08040FEF794F8012055496B
:10367000086002E0002053490860BDE8F08170B5A1
:103680002C4801682D48006803F02EFF2D49086082
:10369000284801682948006803F078FF2849086035
:1036A0002848006804F08FF900B2B0F57A7F02DD97
:1036B0004748244908602348006804F084F900B2B0
:1036C00010F57A7F02DA43481E4908601C480068FA
:1036D00004F079F900B2B0F57A7F02DD3C48184970
:1036E00008601748006804F06EF900B210F57A7FA0
:1036F00002DA38481249086011486DE07500002070
:103700008C00002098000020740000207000002031
:10371000E6000020E4000020F4000020F00000207B
:10372000FC000020F800002000010020C000002064
:10373000B00000201C010020A4000020B4000020E4
:10374000BC000020B8000020180100205C0100200F
:1037500058010020240100202001002099000020B1
:103760009A00002000005C4310010020D0000020DF
:1037700008960008D4000020D8000020DC000020BB
:1037800040010020300100200080FB3F3401002078
:103790000000C43F5A0000205001002054000020C7
:1037A00054010020440000200000A0C10000A041FE
:1037B0000010014048000020000C014000002041A2
:1037C000000020C10C01002000004842000048C257
:1037D00000007A4400007AC4006804F0F4F804B2EF
:1037E000F548006804F0EFF805B221462846FFF7D7
:1037F000A8FE70BD70B5F148FDF7E5FF0446F0483E
:10380000FDF7E1FF0546EF480460EF480560002141
:10381000EA48FDF7B5FF0021E948FDF7B1FF20B206
:10382000EA490880684200B2E9490880E94800682E
:10383000E649B1F900100844E6490860E648006826
:10384000E349B1F900100844E349086070BD2DE96F
:10385000F05FE0490968E04A1268881804F094F8BB
:10386000DE4908600020DC490860DA490860DC486D
:10387000006804F0D5F806464FF06632D94B03F0E5
:10388000A2FF044604F0F8F8D5490860D348006860
:1038900004F0C6F880464FF03332D34B03F093FF69
:1038A00004460D46CE48006804F0BAF806462246A3
:1038B0002B4603F0E1FE824604F0DEF8C8490860BA
:1038C00008460168C948006803F00EFEC749086051
:1038D000C7480168C548006803F006FEC349086090
:1038E000C4480168C148006803F0FEFDBF49086094
:1038F000C1480068012801D100200860BB48006869
:1039000004F061F8B0F5FA5F02DDBC48B749086021
:10391000B648006804F057F810F5FA5F02DAB848C4
:10392000B2490860B7480068032812D10020B649A0
:103930000860B6490968A1F1800004F033F8064632
:103940000022B34B03F03FFF044604F095F8AE4964
:103950000860AC480068042812D10020AD49086016
:10396000AD490968A1F1C00004F01CF80646002228
:10397000AA4B03F028FF044604F07EF8A54908602E
:1039800000219A48006803F001FE0646A14801683C
:10399000304603F001FE044600219148006803F020
:1039A000F5FD064698480168304603F0F5FD0546EA
:1039B000214603F099FD9A4908609A499A4800689F
:1039C00004F080F805D399499748006804F070F82E
:1039D0000BD29348006880F0004493480168204669
:1039E00003F00CFE9249086002E000209049086054
:1039F00090498F48006804F065F802D28D488C49E0
:103A000008608D498A48006804F052F802D28A485A
:103A100087490860BDE8F09F2DE9F04187480068BC
:103A2000002846D18648FDF7CEFE00EB800000EB73
:103A300000104400204603F0B5FF05460022814BEC
:103A400003F033FF074604F017F87F4908607F480A
:103A5000007820B9002067490860BDE8F0817A4805
:103A6000006803F0DDFF04460022794B03F0ECFF11
:103A700003D878485F4908601BE0774972480068BE
:103A800004F020F801D8012400E000244FF0824126
:103A90006D48006804F00CF801D8012000E0002017
:103AA00004401CB16D485349086002E000205149B0
:103AB000086000BFD1E72DE9FC5F69480068012874
:103AC00078D13D48D0F800B066480068019066485B
:103AD000B0F902906548B0F900A05B480468484618
:103AE00003F052FF06464FF08D4103F087FD054677
:103AF0005F4903F051FD5F490860504603F044FF01
:103B000006465D4903F042FD05465C4903F076FD3B
:103B10005B490860584603F083FF0746594A5A4BF1
:103B200003F0C3FE054603F0A7FF8346019803F0A8
:103B300077FF0546534A544B03F0B7FE074603F0A0
:103B40009BFF01905021514803F0AAFC4F4850A11F
:103B5000096801600A214F4803F0A2FC4E48002189
:103B60000160416001810A214C4803F099FC4C48F6
:103B700000210160416001810A214A4803F090FC64
:103B8000494800210160416001814849584603F0DD
:103B90008FFF10D84649584603F094FF0BD858467B
:103BA00003F03EFF05462A460B4642A1394804F081
:103BB000A1F985E04FE181E0B80000200004004059
:103BC000000800400401002008010020E40000205B
:103BD000E6000020F0000020F4000020F8000020A3
:103BE000FC0000206666E63F3333D33F000100202F
:103BF00018010020100100200C0100200000FA45EF
:103C00000000FAC540010020D80000203801002043
:103C10000000DE3FDC0000203C0100200000C43F2B
:103C2000AC0000206F12833AD00000206F1283BADC
:103C3000B000002000002041000020C12801002029
:103C4000002C014000006940140100207500002094
:103C500000001040000096C30000A0400000FA439E
:103C600044010020BC0000205A0000205400002025
:103C7000CDCC1C41500100209A19004300000343A1
:103C80005401002048E17A14AE470F40F0010020B3
:103C9000244C560008030020120300201C030020BF
:103CA00026030020300300203A03002000007A445D
:103CB00000007AC425332E3266000000BDE8FC9F68
:103CC000E749019803F0F4FE10D8E649019803F0A3
:103CD000F9FE0BD8019803F0A3FE05462A460B46D1
:103CE000AFF23001E04804F005F900E0E6E7DF4913
:103CF000DF48006803F0E6FE12D2DE49DC480068C7
:103D000003F0D6FE0CD2DA48006803F089FE0546BF
:103D10002A460B46AFF26401D74804F0EBF800E006
:103D2000CCE7D649D648006803F0CCFE12D2D5497C
:103D3000D348006803F0BCFE0CD2D148006803F001
:103D40006FFE05462A460B46AFF29801CE4804F0B6
:103D5000D1F800E0B2E70021204603F0B3FE10D80E
:103D6000CA49204603F0A4FE0BD2204603F058FEB9
:103D700005462A460B46AFF2C401C54804F0BAF81E
:103D800000E09BE7002000F063FC0090009803F047
:103D900004FE0746BF4903F0FFFB06464FF08B4188
:103DA00003F02CFC0546BC4903F0F0FBBB4908605E
:103DB0000021BA48006803F085FE12D8AD49B74823
:103DC000006803F075FE0CD2B448006803F028FECA
:103DD00005462A460B46AFF22411B14804F08AF892
:103DE00000E06BE7AF49B04803F065FBAFA1AE4818
:103DF00003F061FB9C49AC4803F05DFBACA1AA4811
:103E000003F059FB9C49A84803F055FBA9A1A6481B
:103E100003F051FB9C49A44803F04DFBA6A1A24826
:103E200003F049FB9A49A04803F045FBA4A19E4832
:103E300003F041FB9A499C4803F03DFBA1A19A483D
:103E400003F039FB5021A04803F02AFB5022964989
:103E50009D4803F00CFB00BF30E710B59B4800689D
:103E6000401E9A4908609A480068012807D1084610
:103E7000006820B9FFF71FFE934800F0C4FA93488A
:103E8000006818B941F288309049086010BD2DE9EA
:103E9000F04180460D4614461E46069F8D49204639
:103EA00003F006FE00D28B4C0021384603F000FEE2
:103EB00000D200278849384603F004FE00D2864F1E
:103EC0008648C0F8008045608460C66007610120B4
:103ED000834908708348007883490870002083492B
:103EE0000860BDE8F08102227D4B1A70804A1060A4
:103EF000804A11607B4A12787B4B1A7000227B4B00
:103F00001A60704710B57C4804687C497C4800689A
:103F100003F0D8FD13D27B497948006803F0C8FD4F
:103F200001D8794C0BE079497548006803F0C0FD71
:103F300005D869497048006803F02EFB04467448B0
:103F40000460002073490860734908607349086081
:103F500010BD2DE9FF5F6348047863480078201A9C
:103F6000C0B2039060480470604801680398084438
:103F70005E4908600846006803F00FFD074668497F
:103F800003F00AFB064655488168304603F004FBFF
:103F900005465248C168284603F0A6FA81464946BC
:103FA0004FF0804003F0F8FA009003F039FD054629
:103FB00005F066FA074603F05FFD8346474801694E
:103FC000584603F0E9FA8246444801694FF07E50B2
:103FD00003F0DCFA5146019003F086FA02903F4963
:103FE0000868029903F0D8FA49490860484603F086
:103FF00017FD074605F092FA054603F03DFD82469F
:1040000036484168504603F0C7FA4249086001202B
:1040100041490860002041490860BDE8FF9F10B594
:104020002F480078B8B1012802D0022812D102E04E
:10403000FFF78FFF12E02E480068354908602D48D1
:104040000068344908600120334908600020334982
:10405000086003E000BFFFF755FF00BF00BF10BDC1
:1040600000007A4400007AC4120300200000A0C1BE
:10407000500100200000A0411C03002000803BC52F
:104080005401002000803B452603002000401C46D0
:1040900030030020CDCC5441CDCC4C3EA0000020BC
:1040A0003A03002008030020F00100202C525600A3
:1040B0002C4143002C4759002C4353420000000080
:1040C0002C5654002300000040020020480100202C
:1040D00044010020CDCCCC3D6666E63E7800002051
:1040E000750000209800002074000020700000205F
:1040F00090000020940000208C0000200AD7233C70
:1041000014010020000090410000F0C20000F041C6
:10411000180100201C0100202801002010010020AF
:104120000AD7A33B00B585B0012144F20400FCF797
:10413000FFFB4FF40070ADF8100018208DF813004D
:1041400003208DF8120004A9BB48FCF735F94FF4A1
:104150008060ADF8100004208DF8130004A9B64863
:10416000FCF72AF94FF4E13000900020ADF804008C
:10417000ADF80600ADF80800ADF80C000C20ADF865
:104180000A006946AD48FDF788FB0121AB48FDF701
:1041900010FC05B000BD08B54FF48060FBF7B0FF20
:1041A00027208DF8000004208DF8010001208DF8F3
:1041B00002008DF803006846FBF7A7FF08BD00B5B5
:1041C00085B001218804FCF7C0FB01210820FCF721
:1041D000AFFB4FF48060ADF8100018208DF813008D
:1041E00003208DF8120004A99548FCF7E5F84FF478
:1041F0000060ADF8100004208DF8130004A9904869
:10420000FCF7DAF8FFF7C7FF4FF4165000900020D4
:10421000ADF80400ADF80600ADF80800ADF80C00EC
:104220000C20ADF80A0069468648FDF736FB0122EE
:1042300040F225518348FDF7C8FB01218148FDF775
:10424000B8FB05B000BD70B504460D46E1B27B4831
:10425000FDF71CFC00BF40217848FDF785FC0128D4
:10426000F9D1204670BDF0B503460D46164600272D
:1042700029460A2E03D0002008702846F0BD33B925
:10428000302001F8010B002008702846F6E7002BCB
:1042900003DA2D2001F8010B5B4242F210720DE0AF
:1042A00093FBF2F404B937B104F1300001F8010BCB
:1042B00004FB123301270A2092FBF0F2002AEFDC04
:1042C000002008702846D9E70FB470B586B00646BE
:1042D0000CA8019073E00B9800785C281CD10B9817
:1042E000401C0B9000786E2809D072280FD10D2148
:1042F0003046FDF7CBFB0B98401C0B900BE00A21DE
:104300003046FDF7C3FB0B98401C0B9003E00B9865
:10431000401C0B9000BF4BE00B980078252840D143
:104320000B98401C0B900078642818D0732833D168
:10433000019810C801900BE021783046FDF7A6FBEC
:1043400000BF40213046FDF70FFC0028F9D0641C67
:1043500020780028F0D10B98401C0B9020E00198A9
:1043600020C801900A2202A92846FFF77CFF02AC70
:104370000BE021783046FDF789FB00BF4021304635
:10438000FDF7F2FB0028F9D0641C20780028F0D15A
:104390000B98401C0B9003E00B98401C0B9000BF47
:1043A00006E00B9810F8011B0B903046FDF76EFBF2
:1043B00000BF40213046FDF7D7FB0028F9D00B980D
:1043C0000078002887D106B070BC5DF814FB10B5EA
:1043D000044621461948FDF759FB00BF4021174804
:1043E000FDF7C2FB0128F9D110BD10B504462146E6
:1043F0001448FDF74BFB00BF40211248FDF7B4FB0A
:104400000128F9D110BD70B505462C4603E020788F
:10441000FFF7EBFF641C20780028F8D170BD70B561
:1044200005462C4603E02078FFF7D1FF641C207876
:104430000028F8D170BD000000080140003801409C
:10444000000C0140004800407FB504460D460121A4
:10445000C802FCF76DFA41F28830ADF8080041F669
:104460001F40ADF804000120ADF80A000020ADF8AF
:10447000060001A91148FCF793FB012241210F48D6
:10448000FCF705FF19208DF8000003208DF80100CE
:1044900000208DF8020001208DF803006846FBF72C
:1044A00034FE7FBD10B501210448FDF79EF918B117
:1044B00001210248FDF7AAF910BD0000002C0140BF
:1044C0001FB501213D48FCF748F801210920FCF700
:1044D0002FFA0120ADF80C0010208DF80F000320FA
:1044E0008DF80E0003A93648FBF766FF0220ADF8F1
:1044F0000C0028208DF80F0003A93148FBF75CFF62
:1045000001210846FCF76EF80220019000208DF88A
:10451000080008208DF8090001208DF80A0001A884
:10452000FBF76AFE07208DF8000003208DF80100DC
:1045300001208DF802008DF803006846FBF7E5FDC9
:104540001FBD10B50220FBF7BDFE48B300211D487A
:10455000FDF716F901211B48FCF77EFE01201A49E0
:10456000086012E01748FDF72EF90A2807DB002142
:104570001448FCF771FE00201349086005E0022191
:104580000F48FBF7ACFF104908600F48006800288F
:10459000E8D100210B48FCF75FFE0220FBF7A3FEE9
:1045A00010BD10B501210648FBF7B3FF0C20FDF745
:1045B0004DFE01210248FBF7AEFF10BD00023000A6
:1045C000000C0140002C0140AC01002000B587B078
:1045D00001214FF40170FCF7ABF94FF40040FCF7F8
:1045E0000BF90120ADF8040000208DF8070001A9A7
:1045F0002348FBF7E1FE2348FDF710FB0020029063
:104600008DF80C008DF80D004FF460200490002010
:10461000059001208DF8180002A91A48FDF725FB26
:1046200001211848FDF74DFB1648FDF76CFB00BF54
:104630001448FDF76DFB0028FAD11248FDF772FB14
:1046400000BF1048FDF773FB0028FAD107B000BD8A
:1046500010B504460723012221460A48FDF79DFBB9
:1046600001210848FDF76DFB00BF02210548FDF759
:10467000D9FC0028F9D00348FDF7F6FB10BD000077
:1046800000080140002401400648804706480047D2
:10469000FEE7FEE7FEE7FEE7FEE7FEE7FEE7FEE7F2
:1046A000FEE7FEE74B210008ED00000838B50446A0
:1046B000FB4890F82400C0B114B10220009001E042
:1046C00000200090F64A1268D17BF54A52681078B3
:1046D0006B460122FDF727FF10B14FF0FF3038BDC8
:1046E0009DF80010EE48417423E0ED48807A10B93F
:1046F0004FF0FF30F3E724B1E948407C08B10020D7
:10470000EDE714B10120009001E000200090E44AA0
:104710001268D17BE24A526810786B460122FDF79D
:1047200002FF10B14FF0FF30D9E79DF80010DC48D0
:1047300041740020D3E738B5002419E0D848006858
:10474000C07AA04204D0D6480068407DA04200D183
:104750000CE0D349496808786B4601222146FDF7F1
:1047600031FF10B14FF0FF3038BD00BF601CC4B244
:10477000CB4840680079A042E0DC0020F4E770B547
:1047800004460D46C6480068C07AA04204D0C4481A
:104790000068407DA04202D14FF0FF3070BDC0489C
:1047A00040680079A04202DC4FF0FF30F6E7BC49D8
:1047B000496808782B4601222146FDF703FFEDE703
:1047C00038B50446B64890F82300A04201D1002035
:1047D00038BD14B13020009001E000200090B048B6
:1047E000807C20B19DF8000040F002000090AC48B1
:1047F00090F8220020B19DF8000040F08000009069
:10480000A74A1268117DA64A526810786B460122A9
:10481000FDF789FE10B14FF0FF30D9E7A04880F8CE
:1048200023400020D4E738B5044604F0700010B1EE
:104830000120009005E014B10020009001E040202C
:104840000090974A1268917C954A526810786B469E
:104850000122FDF768FE20B1002191488172481EB7
:1048600038BD9DF8000020F040018D480173002004
:10487000009004F0400020B99DF8000040F00400D2
:10488000009004F0200020B99DF8000040F00200E4
:10489000009004F0100020B99DF8000040F00100E5
:1048A000009004F0080020B99DF8000040F03800A6
:1048B00000907B4A1268D17C794A526810786B4626
:1048C0000122FDF730FE20B1002175488172481E9B
:1048D000C6E724B1082C02D00020FFF771FF704812
:1048E0008472002101753220FDF7BDFC0020B7E77E
:1048F00038B504466A48807CA04201D1002038BD0A
:10490000002C46D0664A12681179654A52681078C0
:104910006B460122FDF756FE10B14FF0FF30EEE777
:104920009DF8000020F0200000905D4A1268117987
:104930005B4A526810786B460122FDF7F4FD10B116
:104940004FF0FF30DBE70320FDF78DFC02200090E5
:10495000534890F8220020B19DF8000040F08000FC
:1049600000904F4890F8230020B19DF8000040F0DF
:10497000300000904A4A1268117D494A5268107806
:104980006B460122FDF7CFFD002851D04FF0FF30DC
:10499000B5E7434A12681179414A526810786B466C
:1049A0000122FDF70FFE10B14FF0FF30A7E73C48A2
:1049B000807A00F0010028B19DF8000040F020004E
:1049C000009004E09DF8000020F020000090344AA0
:1049D00012681179324A526810786B460122FDF74D
:1049E000A2FD10B14FF0FF3089E70320FDF73BFC3B
:1049F0002B4890F8220010B18020009001E00020A8
:104A00000090274890F8230020B19DF8000040F066
:104A100030000090224A1268117D214A52681078B5
:104A20006B460122FDF77FFD10B14FF0FF3066E7C6
:104A30001B488474002062E708B51948807A10B9D1
:104A40004FF0FF3008BD00200090154A1268D17B5E
:104A5000134A526810786B460122FDF764FD10B1CD
:104A60004FF0FF30EEE70E4A126851790C4A526857
:104A700010786B460122FDF756FD10B14FF0FF3064
:104A8000E0E7074A12681179054A526810786B46C8
:104A90000122FDF748FD28B14FF0FF30D2E70000BA
:104AA000B0010020F74890F82400002853D00C20D3
:104AB0000090F44A12681179F24A526810786B46F5
:104AC0000122FDF730FD10B14FF0FF30BAE7322080
:104AD000FDF7C9FBC0200090EA48807A00F0010091
:104AE00020B19DF8000040F020000090E54A1268D7
:104AF0001179E44A526810786B460122FDF713FDE4
:104B000010B14FF0FF309DE7DE48407C10B102202D
:104B1000009001E000200090DA4A1268D17BD94A67
:104B2000526810786B460122FDF7FDFC10B14FF082
:104B3000FF3087E700200090D24A12685179D14AAD
:104B4000526810786B460122FDF7EDFC002855D025
:104B50004FF0FF3076E704200090CA4A12681179BE
:104B6000C84A526810786B460122FDF7DCFC10B190
:104B70004FF0FF3066E7C348807C20B9C148807A97
:104B800000F0010010B94020009001E0602000908A
:104B9000BC4A12681179BB4A526810786B460122F0
:104BA000FDF7C1FC10B14FF0FF304BE73220FDF7AD
:104BB0005AFBB448407C10B10120009001E0002075
:104BC0000090B04A1268D17BAE4A526810786B46AA
:104BD0000122FDF7A8FC10B14FF0FF3032E7A94ADF
:104BE00012685179A74A52681078A64B10330122F7
:104BF000FDF799FC10B14FF0FF3023E7002021E7CB
:104C000070B50446002624F001049E4890F8240064
:104C100008B1002070BD9B48807A10B94FF0FF307A
:104C2000F8E79848057C807A204096490874084641
:104C3000007CA04202D04FF0FF3600E0002614B9FD
:104C40009048007D18B10120FFF730FD02E0002000
:104C5000FFF72CFD3CB1FFF7EFFE20B1894805744A
:104C60004FF0FF30D6E73046D4E738B504468548E4
:104C7000807A10B94FF0FF3038BDBC2C02DB012028
:104C8000009015E0622C02DB0220009010E02A2C3C
:104C900002DB032000900BE0142C02DB04200090C8
:104CA00006E00A2C02DB0520009001E006200090BF
:104CB0007448C07A9DF80010884201D10020DBE7DB
:104CC000704A126891786F4A526810786B460122D8
:104CD000FDF729FC10B14FF0FF30CDE79DF8001033
:104CE0006848C1720020C7E738B50446282C02DDA9
:104CF0004FF0FF3038BDDCB90020FFF761FD002028
:104D00008DF8000007208DF801005E4A1268917C42
:104D10005C4A526810786B460222FDF704FC10B121
:104D20004FF0FF30E6E70021564801750020E1E72B
:104D30000120FFF745FD20208DF80000012C06D151
:104D400000208DF801000520FFF78FFF17E0052CEC
:104D500006DC01208DF801000520FFF786FF0EE03C
:104D6000142C06DC02208DF801000A20FFF77DFFDD
:104D700005E003208DF801001420FFF776FF9DF871
:104D80000100072101EB8010C0B28DF801003D4AFF
:104D90001268917C3B4A526810786B460222FDF7FC
:104DA000C2FB10B14FF0FF30A4E7082135488172F3
:104DB00000210173012101750020FFF721FF002070
:104DC00098E738B504462F48807A10B94FF0FF3085
:104DD00038BD2C4890F8240010B14FF0FF30F7E7B1
:104DE0002848007D50B134B1282C04DCE0B2FFF734
:104DF0007BFF0020ECE70020FFF776FF042C01DAB0
:104E0000042404E0B4F57A7F01DD4FF47A744FF4A2
:104E10007A7090FBF4F0401EC0B20090194A1268FC
:104E20005178184A526810786B460122FDF77BFBD7
:104E300010B14FF0FF30CBE79DF80000401C4FF45D
:104E40007A7191FBF0F081B20E48C1810146C989A7
:104E50004810FFF70AFF0020BAE738B504460948B2
:104E6000807A10B94FF0FF3038BD022C06D0042CE8
:104E70000AD0082C0BD0102C0FD10BE00020009092
:104E80000EE00000B00100200820009008E0102093
:104E9000009005E01820009002E04FF0FF30E3E7BB
:104EA00000BFF848407A9DF80010B0EBE10F01D147
:104EB0000020D9E7F34A1268D179F24A5268107893
:104EC0006B460122FDF72FFB10B14FF0FF30CBE70F
:104ED0009DF80000C110EB4841720020C4E738B5CE
:104EE0000446E848807A10B94FF0FF3038BDFA2CFC
:104EF00009D0B4F5FA7F09D0B4F57A7F09D0B4F5BA
:104F0000FA6F0CD108E0002000900BE00820009020
:104F100008E01020009005E01820009002E04FF01B
:104F2000FF30E3E700BFD748007A9DF80010B0EBF0
:104F3000E10F01D10020D9E7D24A12689179D14A14
:104F4000526810786B460122FDF7EDFA10B14FF070
:104F5000FF30CBE79DF80000C010CA49087200205E
:104F6000C4E71CB580208DF80000C64A1268917C09
:104F7000C44A526810786B460122FDF7D4FA10B18A
:104F80004FF0FF301CBD6420FDF76DF900208DF857
:104F90000000BC4A1268917CBA4A526810786B468D
:104FA0000122FDF7C0FA10B14FF0FF30EAE7B54A31
:104FB0001268917DB34A526810786B460622FDF75D
:104FC00001FB10B14FF0FF30DCE79DF80500C00792
:104FD000400F9DF8031001F0010140EA41009DF8E7
:104FE000011001F0010140EA01048CB1012C03D150
:104FF0000121A448C17430E0022C03D10021A14852
:10500000C1742AE0A0A0FFF70AFA4FF0FF30B9E719
:105010009C4A1268D1789B4A526810786B460122EC
:10502000FDF7D0FA10B14FF0FF30ABE79DF800006C
:1050300000F00F042CB99E48FFF7F1F94FF0FF3054
:10504000A0E7042C06D19BA0FFF7E9F901218D48C8
:10505000C17402E000218B48C174FF21894881722C
:10506000FF2088490872FF2186484172C1724FF6BD
:10507000FF71C181FF21017481740121017380F8E6
:105080002210002180F8231041750175163001604F
:1050900041608160163880F8241080F82510C184A2
:1050A0004FF4FA60FFF71BFF10B14FF0FF3069E7D4
:1050B0000220FFF7D2FE10B14FF0FF3062E72A2046
:1050C000FFF7D3FD10B14FF0FF305BE73220FFF761
:1050D00078FE10B14FF0FF3054E70020FFF790FD4D
:1050E00010B14FF0FF304DE70020FFF701FC10B189
:1050F0004FF0FF3046E70020FFF795FB002041E727
:105100007CB504460D465F48807A00F0700010B907
:105110004FF0FF307CBD5B4A1268117B594A5268E0
:1051200010786B460622FDF74DFA10B14FF0FF30B4
:10513000F0E79DF801009DF8001040EA012000B260
:1051400020809DF803009DF8021040EA012000B283
:1051500060809DF805009DF8041040EA012000B22F
:10516000A08015B12846FDF78AF80020D2E77CB56B
:1051700004460D464348807A00F0080010B94FF00D
:10518000FF307CBD3F4A1268517B3E4A526810781E
:105190006B460622FDF716FA10B14FF0FF30F0E72C
:1051A0009DF801009DF8001040EA012000B2208027
:1051B0009DF803009DF8021040EA012000B26080D3
:1051C0009DF805009DF8041040EA012000B2A0807F
:1051D00015B12846FDF753F80020D2E72DE9FE4F20
:1051E00005460C462748807A18B94FF0FF30BDE8D5
:1051F000FE8F244A1268917B224A5268107802ABD3
:105200000222FDF7DFF910B14FF0FF30EFE79DF814
:1052100009009DF8081040EA012006B214B12046AA
:10522000FDF72DF817494968C88802F0B6FB154903
:1052300001904968B1F9080002F0A6FB83463046A8
:1052400002F0A2FB5946009002F0A0F982460199B3
:1052500002F0D4F981461F4902F046F980464FF02A
:105260008F4102F099F9074602F0ADFB286000205B
:10527000BDE710B588B004461CB94FF0FF3008B048
:1052800010BD29E0B0010020556E737570706F720B
:1052900074656420736F6674776172652070726FD5
:1052A00064756374207265762025642E0A00000000
:1052B00080A4000848616C662073656E7369746928
:1052C00076697479207061727420666F756E642ED1
:1052D0000A00000000000C42206830B9606820B964
:1052E000A06810B9002008B010BDFA4949680878D4
:1052F00006AB03221146FDF765F910B14FF0FF3000
:10530000F1E79DF81800082101EB201000F00F00D4
:10531000ADF800009DF8190001EB201000F00F001F
:10532000ADF802009DF81A0001EB201000F00F000C
:10533000ADF8040020684100BDF90000403091FB49
:10534000F0F000B2ADF8100060684100BDF9020055
:10535000403091FBF0F000B2ADF81200A0684100BF
:10536000BDF90400403091FBF0F000B2ADF814003C
:10537000D8494968087806AB06221146FDF722F99C
:1053800010B14FF0FF30AEE79DF819009DF81810EE
:1053900040EA012000B2ADF808009DF81B009DF81E
:1053A0001A1040EA012000B2ADF80A009DF81D0075
:1053B0009DF81C1040EA012000B2ADF80C00BDF8C9
:1053C0001000BDF80810084400B2ADF81000BDF898
:1053D0001200BDF80A10084400B2ADF81200BDF882
:1053E0001400BDF80C10084400B2ADF81400BDF86C
:1053F0001000000A8DF81800BDF81000C0B28DF83A
:105400001900BDF81200000A8DF81A00BDF812004C
:10541000C0B28DF81B00BDF81400000A8DF81C0006
:10542000BDF81400C0B28DF81D00AA49496808787B
:1054300006AB06221146FDF776F810B14FF0FF30AB
:1054400051E700204FE70146A248007A30B1012819
:1054500007D0022809D003280FD10AE0FA200880DB
:105460000EE04FF4FA7008800AE04FF47A7008807A
:1054700006E04FF4FA60088002E00020088000BFD8
:1054800000BF0020704701469248407A30B10128A1
:1054900007D0022808D003280CD108E002200870A9
:1054A0000BE00420087008E00820087005E01020D8
:1054B000087002E04FF0FF30704700BF8548C07CA5
:1054C00018B108784006000E08700020F4E7014685
:1054D0008048C07A082817D2DFE800F01704070ACE
:1054E0000D101318BC20088013E06220088010E023
:1054F0002A2008800DE0142008800AE00A20088095
:1055000007E00520088004E000BF00BF00200880FD
:1055100000BF00BF0020704701466E4890F824008D
:1055200010B14FF0FF3070476A48C08908800020F2
:10553000F9E7014600200880401E704701464FF001
:10554000FF30704701466348007A30B1012807D028
:10555000022808D003280CD108E05F4808600BE05F
:105560005E48086008E05E48086005E05D48086045
:1055700002E04FF0FF30704700BF0020FBE701461C
:105580005448407A30B1012808D002280AD00328B4
:1055900010D10BE04FF4804008800EE041F69C7083
:1055A00008800AE04FF48050088006E04FF4006065
:1055B000088002E04FF0FF30704700BF4548C07CD4
:1055C00010B10888401008800020F5E701464148E6
:1055D000007C08700020704701463E48807A10B178
:1055E0000120087001E0002008700020704738B5E5
:1055F00004463848807A10B94FF0FF3038BD354A3C
:105600001268117C334A526810786B460222FCF70C
:10561000D9FF10B14FF0FF30F0E79DF801009DF881
:10562000001040EA012000B220800020E6E72DE9CA
:10563000FE4F0746884692461D46DDF830B00026EC
:105640000024244890F8240010B1601EBDE8FE8FAD
:10565000002028701F48807A10B94FF0FF30F5E71E
:105660001C48007C10B94FF0FF30EFE71948007C70
:1056700000F0400008B1B01CC6B21648007C00F033
:10568000200008B1B01CC6B21248007C00F0100027
:1056900008B1B01CC6B20F48007C00F0080008B189
:1056A000B01DC6B20B4A1268917A0A4A5268107845
:1056B0006B460222FCF786FF10B14FF0FF30C5E7C2
:1056C0009DF801009DF8001040EA0129B1450BDA70
:1056D0000020BBE7B001002000000343000083422C
:1056E0003333034233338341FC4840684088B9EB8D
:1056F000600F17DDF94A1268517CF84A5268107839
:105700006B460122FCF75EFF10B14FF0FF309DE7C2
:105710009DF8000000F0100020B1FFF78DF96FF048
:10572000010093E75046FCF7AAFDEC4A1268D17AD3
:10573000EA4A526810786B463246FCF743FF10B1D4
:105740004FF0FF3082E799FBF6F0401E8BF8000027
:1057500000202870B4422AD0E048007C00F0080005
:1057600028B3601C1DF800001DF8041040EA012059
:1057700000B2A8F80000E01C1DF80010A01C1DF8E5
:10578000000041EA002000B2A8F80200601D1DF8E8
:105790000010201D1DF8000041EA002000B2A8F80A
:1057A0000400287840F008002870A01D84B2B4429C
:1057B00013D0CA48007C00F0400070B1601C1DF896
:1057C00000001DF8041040EA012000B2388028785B
:1057D00040F040002870A01C84B2B44213D0BF48EF
:1057E000007C00F0200070B1601C1DF800001DF866
:1057F000041040EA012000B27880287840F02000B0
:105800002870A01C84B2B44213D0B448007C00F0CD
:10581000100070B1601C1DF800001DF8041040EA73
:10582000012000B2B880287840F010002870A01C39
:1058300084B200200AE7F8B504460F461646A7488A
:1058400090F8240010B94FF0FF30F8BDA348807ADB
:1058500010B94FF0FF30F8E7A04A1268917A9F4ADA
:10586000526810786B460222FCF7ACFE10B14FF084
:10587000FF30EAE79DF801009DF8001040EA01259D
:10588000A54203DA00203070401EDEE793484068EE
:105890004088B5EB600F17DD904A1268517C8F4A43
:1058A000526810786B460122FCF78CFE10B14FF065
:1058B000FF30CAE79DF8000000F0100020B1FFF7AC
:1058C000BBF86FF00100C0E7E2B2844B1B68D97AE5
:1058D000824B5B6818783B46FCF774FE10B14FF0C2
:1058E000FF30B2E795FBF4F0401E30700020ACE7CB
:1058F00001467A4880F82210002070477CB50546A2
:1059000076494968087801AB04220D21FCF75AFE5C
:1059100008B107207CBD9DF80700C0F301109DF879
:10592000041001F0E00140EAE1008DF800009DF86C
:105930000700C0F381009DF8051001F0E00140EA86
:10594000E1008DF801009DF8070000F003009DF8CC
:10595000061001F0E00140EAE1008DF802000024A9
:105960001CE01DF8040018B9002045F8240013E0DD
:105970005B4845F8240006E055F82400594901F039
:105980000BFE45F824001DF80400401EC0B20DF8BF
:1059900004000028F0D100BF601CC4B2032CE0DB7F
:1059A0000020B7E72DE9FE4F06460F460025684662
:1059B000FFF7A4FF002442E056F8240057F8241013
:1059C000A0EB010ABAF1000F01DB514601E0CAF178
:1059D0000001084601F0D8FF83464FF08F4101F0E7
:1059E0000DFE80465DF82400002102F061F816D01B
:1059F0005DF82410404601F001FE82464FF07E51D2
:105A000001F0C4FD814629F0004A3748416A5046FA
:105A100002F058F812D20120A04005430EE03248AF
:105A2000C169404602F044F805D32F48016A404658
:105A300002F048F802D20120A0400543641C032C68
:105A4000BADB2846BDE8FE8F2DE9FC5F06460F460F
:105A5000002522494968087801AB03220D21FCF793
:105A6000B1FD10B10720BDE8FC9F9DF8040000F0D7
:105A70001F008DF804009DF8050000F01F008DF850
:105A800005009DF8060000F01F008DF806000024B8
:105A900062E056F8240057F82410A0EB010BBBF18C
:105AA000000F01DB594601E0CBF10001084601F08F
:105AB0006BFF4FF08F41009001F0A0FD814601A8DF
:105AC000005DC0B30849086801F067FF8346594686
:105AD000064801F093FD80460FE00000B001002071
