:020000040800F2
:1000000040070020E14300088131000883310008E7
:10001000873100088B3100088F3100080000000094
:100020000000000000000000000000009331000804
:100030009531000800000000973100089931000850
:10004000FB430008FB430008FB430008FB43000898
:10005000FB430008FB430008FB4300089B420008E9
:10006000FB430008FB430008FB430008FB43000878
:10007000FB430008FB430008FB430008FB43000868
:10008000FB430008FB430008FB430008FB43000858
:10009000FB430008FB430008FB430008FB43000848
:1000A000FB430008FD410008FB430008FB43000838
:1000B000FB4300082D2800083D280008FB430008EA
:1000C000FB430008FB430008FB430008FB43000818
:1000D000FB430008FB430008FB430008FB43000808
:1000E000FB430008FB430008FB430008DFF80CD08B
:1000F00007F0E2FC00480047812600084007002086
:1001000031490143314A1160704770B50021002325
:100110000F22C47804B32D4C246804F4E064C4F5C1
:10012000E064210AC1F10403CA40447804FA03F1EF
:100130008478144021430901254C0678A1550478A0
:1001400004F01F050124AC4005786D11AD0005F1E8
:10015000E025C5F8004109E0047804F01F050124FA
:10016000AC401C4D0678761145F8264070BD1A4A01
:100170000A400243154B1B1F1A60704739B1134ADE
:10018000121D12680243114B1B1D1A6006E00F4A34
:10019000121D126882430D4B1B1D1A607047042804
:1001A00008D14FF0E021096941F004014FF0E0224D
:1001B000116107E04FF0E021096921F004014FF0DF
:1001C000E0221161704700000000FA050CED00E02C
:1001D00000E400E080E100E080FFFF1F00204449D0
:1001E0000860091D0860091D0860091D0860414874
:1001F0003F4914310860704700213D498279002A47
:100200003AD00A46126803689A430B461A600A1DE0
:10021000126803689A430B1D1A60027911440A6838
:1002200003681A430A60324A0832126803689A4324
:100230002F4B08331A601A1D126803689A432C4B1F
:100240000C331A604279102A0ED11A1F1268036803
:100250001A43274B08331A601A1D126803681A43A1
:10026000234B0C331A600DE02149427911440A688E
:1002700003681A430A6005E0027911440A680368BA
:100280009A430A6070470021016001710C2141719D
:100290000021817170471649103109680143144AE1
:1002A00010321160704701460020114A1432126862
:1002B0000A400AB1012000E0002070470C491431C7
:1002C00008607047014600200022094B1B6803EAC2
:1002D0000102074B14331B680B4013B10AB1012014
:1002E00000E00020704702491431086070470000A8
:1002F00000040140FFFF0F0010B50446CC488442C3
:1003000008D10121042000F02DFB0021042000F081
:1003100029FB46E0C748844208D10121082000F0AB
:1003200021FB0021082000F01DFB3AE0C248844276
:1003300008D10121102000F015FB0021102000F051
:1003400011FB2EE0BD48844208D10121202000F09D
:1003500009FB0021202000F005FB22E0B848844280
:1003600008D10121402000F0FDFA0021402000F0DA
:10037000F9FA16E0B348844208D10121802000F048
:10038000F1FA0021802000F0EDFA0AE0AE48844244
:1003900007D10121801500F0E5FA0021A01500F039
:1003A000E1FA10BD10B50121084600F0DBFA00218A
:1003B000012000F0D7FA10BD2DE9F04102460025DA
:1003C0000026002000230024002791F803C00CF031
:1003D0000F0591F803C00CF0100CBCF1000F03D016
:1003E00091F802C04CEA050591F800C0BCF1000F7D
:1003F00031D0146800202BE04FF0010C0CFA00F310
:10040000B1F800C00CEA03069E4220D183004FF0F1
:100410000F0C0CFA03F7BC4305FA03FC4CEA040486
:1004200091F803C0BCF1280F06D14FF0010C0CFA73
:1004300000FCC2F814C00AE091F803C0BCF1480FF8
:1004400005D14FF0010C0CFA00FCC2F810C0401CA2
:100450000828D1D31460B1F800C0BCF1FF0F34DD1F
:10046000546800202EE000F1080C4FF0010808FA53
:100470000CF3B1F800C00CEA03069E4221D18300C0
:100480004FF00F0C0CFA03F7BC4305FA03FC4CEADF
:10049000040491F803C0BCF1280F05D100F1080C49
:1004A00008FA0CF8C2F8148091F803C0BCF1480FA8
:1004B00007D100F1080C4FF0010808FA0CF8C2F857
:1004C0001080401C0828CED35460BDE8F0814FF660
:1004D000FF710180022181700421C17070470246C2
:1004E000002093680B400BB1012000E00020704712
:1004F0000146886880B2704702460020D3680B40EE
:100500000BB1012000E0002070470146C86880B2AE
:10051000704701617047416170470AB1016100E0B5
:1005200041617047C16070474FF480320A43826175
:100530008161826182698269704702460020434B73
:1005400018684FF68073184040EA021008433F4B8A
:10055000186070473E49C8617047F0B50A460023ED
:1005600000240021002500F00046B6F1004F02D122
:10057000364EF16901E0354E7168C0F3034583B230
:1005800000F44016B6F5401F08D121F070612F4EDF
:10059000766826F070662D4F7E6012E000F48016BB
:1005A000B6F5801F06D1032606FA05F4A14341F0F3
:1005B000706106E0460D360103FA06F6B14341F0DC
:1005C000706122B1460D360103FA06F6314300F0A0
:1005D0000046B6F1004F02D11C4EF16101E01B4E06
:1005E0007160F0BD30B500228B071C0F0F2303FA9A
:1005F00004F2164B08338C1053F824309343134CF9
:1006000008348D1044F8253023468C1053F82430DC
:100610008C07240F00FA04F423430C4C08348D108B
:1006200044F8253030BD0A49DC31086070470000CD
:1006300000080140000C014000100140001401407E
:1006400000180140001C0140002001400000014052
:1006500000002042DF48006840F00100DD490860EA
:1006600008464068DC490840DA49486008460068A6
:10067000DA490840D74908600846006820F480201D
:1006800008600846406820F4FE0048604FF41F00F0
:1006900088607047CF49096821F48031CD4A1160E4
:1006A0001146096821F480211160B0F5803F03D024
:1006B000B0F5802F0ED106E0C649096841F48031BB
:1006C000C44A116007E0C349096841F4A021C14A46
:1006D000116000E000BF00BF704710B50146002266
:1006E000002300204A11012A02D1BA4C236806E0F7
:1006F000022A02D1B74C236A01E0B64C636A01F0CA
:100700001F02012494401C400CB1012000E0002095
:1007100010BD38B5002000900024002500BF312016
:10072000FFF7DBFF05460098401C00900098B0F5ED
:10073000A06F01D0002DF2D03120FFF7CEFF08B11D
:10074000012400E00024204638BD01460020A14AD3
:10075000106820F0F80040EAC10010607047A0491E
:1007600008607047024600209A4B586820F47C10BD
:1007700042EA01031843974B58607047984908664E
:10078000704701460020934A506820F00300084358
:10079000506070478F48406800F00C007047014679
:1007A00000208C4A506820F0F000084350607047E9
:1007B00001460020874A506820F4E06008435060FA
:1007C000704701460020834A506820F4605040EA98
:1007D000C1005060704729B17E4A527A02437D4B76
:1007E0005A7204E07B4A527A82437A4B5A727047BB
:1007F0007B49D8310860704701460020754A50682F
:1008000020F440400843506070470021714A203274
:100810001170704A82F82010012802D004280AD1F1
:1008200004E001216B4A2032117005E00521694A7C
:100830002032117000E000BF00BF704769490860B6
:1008400070476449096A0143624A11627047654909
:1008500044390860704730B500210022002400238D
:100860005C4D6D6805F00C0121B1042905D0082903
:1008700023D105E05C4D056022E05B4D05601FE083
:10088000544D6D6805F47012524D6D6805F4803456
:10089000022505EB92421CB9544D554305600BE00F
:1008A0004C4D6D6805F400351DB1504D5543056044
:1008B00002E04D4D5543056002E04B4D056000BF21
:1008C00000BF444D6D6805F0F0010909484D6B5CAF
:1008D0000568DD4045603F4D6D6805F4E061090A3B
:1008E000434D6B5C4568DD4085603A4D6D6805F4AD
:1008F0006051C90A3E4D6B5C4568DD40C560354DB1
:100900006D6805F44041890B3A4D6B5CC568B5FBD9
:10091000F3F5056130BD29B12E4A526902432D4BD2
:100920005A6104E02B4A526982432A4B5A6170474C
:1009300029B1284A92690243264B9A6104E0254A6C
:1009400092698243234B9A61704729B1214AD26947
:100950000243204BDA6104E01E4AD26982431D4BF8
:10096000DA61704729B11B4AD2680243194BDA6039
:1009700004E0184AD2688243164BDA60704729B106
:10098000144A12690243134B1A6104E0114A1269B6
:100990008243104B1A617047124940390860704712
:1009A0000F49C86470470B49C87170470948406ACD
:1009B00040F0807007494862704701460020054AB0
:1009C00092680A400AB1012000E000207047014906
:1009D00088727047001002400000FFF8FFFFF6FE2B
:1009E000000042428004424200127A0000093D00A9
:1009F000000000201000002010B50446FE4884428C
:100A000008D10121C014FFF7ADFF0021E014FFF76A
:100A1000A9FFC4E0B4F1804F08D101210846FFF7D7
:100A2000AEFF00210120FFF7AAFFB8E0F34884429F
:100A300008D101210220FFF7A2FF00210220FFF7C9
:100A40009EFFACE0EE48844208D101210420FFF76C
:100A500096FF00210420FFF792FFA0E0E9488442BE
:100A600008D101210820FFF78AFF00210820FFF7A5
:100A700086FF94E0E448844208D101211020FFF76A
:100A80007EFF00211020FFF77AFF88E0DF488442D4
:100A900008D101212020FFF772FF00212020FFF75D
:100AA0006EFF7CE0DA48844208D101214014FFF750
:100AB00059FF00216014FFF755FF70E0D5488442CC
:100AC00009D10121C804FFF74DFF00214FF4002098
:100AD000FFF748FF63E0D048844209D101210805AF
:100AE000FFF740FF00214FF48010FFF73BFF56E077
:100AF000CA48844209D101214805FFF733FF00218C
:100B00004FF40010FFF72EFF49E0C548844208D19A
:100B100001214020FFF733FF00214020FFF72FFF86
:100B20003DE0C048844208D101218020FFF727FF23
:100B300000218020FFF723FF31E0BB48844208D129
:100B400001218015FFF71BFF0021A015FFF717FFFC
:100B500025E0B648844209D101210804FFF702FFCD
:100B600000214FF48030FFF7FDFE18E0B0488442CA
:100B700009D101214804FFF7F5FE00214FF40030B0
:100B8000FFF7F0FE0BE0AB48844208D10121880456
:100B9000FFF7E8FE00214FF48020FFF7E3FE10BDD1
:100BA00000220288944B98420ED0994B98420BD069
:100BB000B0F1804F08D0914B984205D0904B9842AD
:100BC00002D0904B984204D14FF68F731A404B8855
:100BD0001A438D4B984207D08C4B984204D04FF665
:100BE000FF431A40CB881A4302808B8883850B8889
:100BF0000385814B98420BD0854B984208D08B4B94
:100C0000984205D08A4B984202D08A4B984201D133
:100C10000B7A038601238382704770B5002400227B
:100C20000023058C4FF6FE7635400584028C8388C0
:100C3000048B4FF68F752C40B51E2C400D882C432D
:100C4000751E2A400D892A434D882A436A4DA842C1
:100C50000BD06F4DA84208D0744DA84205D0744DFA
:100C6000A84202D0734DA84213D14FF6F7752A401F
:100C70004D892A434FF6FB752A408D882A434FF64B
:100C8000FF652B404FF6FF552B408D892B43CD89B7
:100C90002B4383800483CD888586028470BD70B524
:100CA000002400220023058C4FF6EF7635400584A2
:100CB000028C8388048B48F6FF752C404FF6FF4565
:100CC0002C400D884FF6FF7606EA05252C434FF69B
:100CD000DF752A400D8906EA05152A434D8806EA84
:100CE00005152A43444DA84202D0494DA8421DD1C2
:100CF0004FF67F752A404D894FF6FF7606EA0515B7
:100D00002A434FF6BF752A408D8806EA05152A4307
:100D10004FF6FF352B404FF2FF752B408D8906EAC9
:100D200085052B43CD8906EA85052B438380048303
:100D3000CD880587028470BD70B500240022002391
:100D4000058C4FF6FF6635400584028C8388848BC2
:100D50004FF68F752C404FF6FC752C400D882C43B8
:100D60004FF6FF552A400D894FF6FF7606EA052516
:100D70002A434D8806EA05252A431F4DA84202D082
:100D8000234DA8421DD14FF2FF752A404D894FF6E1
:100D9000FF7606EA05252A434FF6FF352A408D885F
:100DA00006EA05252A434EF6FF752B404DF6FF75E2
:100DB0002B408D8906EA05152B43CD8906EA0515DA
:100DC0002B4383808483CD888587028470BD70B572
:100DD000002200230024058C4EF6FF763540058462
:100DE000038C8488828B48F6FF752A404FF6FF45B6
:100DF0002A400D8820E00000002C01400004004043
:100E000000080040000C00400010004000140040AA
:100E100000340140004C01400050014000540140AA
:100E200000180040001C004000200040004001402D
:100E300000440140004801404FF6FF7606EA0525D0
:100E40002A434DF6FF752B400D8906EA05352B43E5
:100E50004D8806EA05352B43FA4DA84202D0FA4DDB
:100E6000A84208D14BF6FF752C408D894FF6FF76CE
:100E700006EA85152C4384808283CD88A0F84050F3
:100E8000038470BD828B4FF2FF331A408283828BC2
:100E90004FF6FF7303EA01231A4382837047F0B5CC
:100EA0000C461546002200210026078C4EF6FF7CDA
:100EB00007EA0C070784828B018C4FF6FF7707EA5D
:100EC000043640F6FF473A404FF6FF7707EA05271A
:100ED0003A434FF6FF7707EA03373A43D94FB84210
:100EE0000ED0D94FB8420BD0B0F1804F08D0D74FB9
:100EF000B84205D0D64FB84202D0D64FB84206D13C
:100F00004DF6FF77394046F48057394305E047F600
:100F1000FF57394044F48057394382830184F0BD40
:100F2000828B4FF6F3731A408283828B0A4382834B
:100F30007047F0B50C461546002200210026078CAC
:100F40004FF6FF6C07EA0C070784828B018C4FF683
:100F5000FF7707EA04264FF60C773A404FF6FF7703
:100F600007EA03172F433A43B64FB8420ED0B64FA5
:100F7000B8420BD0B0F1804F08D0B44FB84205D082
:100F8000B34FB84202D0B34FB84206D14FF6FF5725
:100F9000394046F48077394305E04FF2FF57394036
:100FA00044F48077394382830184F0BD028B4FF291
:100FB000FF331A400283028B4FF6FF7303EA0123CB
:100FC0001A4302837047F0B50C46154600220021F3
:100FD0000026078C4FF6EF7C07EA0C070784028B8C
:100FE000018C4FF6FF7707EA041640F6FF473A40B8
:100FF0004FF6FF7707EA03373A434FF6FF7707EAE2
:1010000005273A438F4FB8420ED08F4FB8420BD0CE
:10101000B0F1804F08D08D4FB84205D08C4FB84208
:1010200002D08C4FB84206D14FF6DF77394046F0F8
:101030001007394305E04FF65F77394044F0100759
:10104000394302830184F0BD028B4FF6F3731A40DB
:101050000283028B0A4302837047F0B50C461546A3
:1010600000220021068C4FF6FE773E400684028B5C
:10107000018C4FF60C7632407E1C06EA03162E4396
:101080003243704EB0420ED06F4EB0420BD0B0F132
:10109000804F08D06D4EB04205D06D4EB04202D0A8
:1010A0006C4EB04206D14FF6FD76314044F0010659
:1010B000314305E04FF6F576314044F00106314307
:1010C00002830184F0BD70B505460C465D4885423B
:1010D0000ED05D4885420BD0B5F1804F08D05B48FB
:1010E000854205D05A48854202D05A48854200D1EF
:1010F00000E000BF208850B92389A2886188284673
:10110000FFF7ABFFE1882846FFF79EFF25E0208828
:1011100004280AD12389A28861882846FFF753FF53
:10112000E1882846FFF742FF17E0208808280AD107
:101130002389A28861882846FFF7FBFEE1882846BC
:10114000FFF7EEFE09E02389A28861882846FFF7B1
:10115000A6FEE1882846FFF795FE70BD2DE9F04117
:1011600005460C4600260127608808B9022600E0E3
:101170000026A088012801D1022700E0012720884D
:10118000A0B92389A28861882846FFF766FFE18815
:101190002846FFF759FF23893A4631462846FFF78C
:1011A00012FFE1882846FFF701FF13E02389A28898
:1011B00061882846FFF707FFE1882846FFF7F6FE1B
:1011C00023893A4631462846FFF747FFE1882846FB
:1011D000FFF73AFFBDE8F0810A884B881A438B88F5
:1011E0001A43CB881A430B891A434B891A438B89BC
:1011F0001A43A0F8442070474FF6FF718180002108
:101200000180C180418001727047002101804180CE
:101210008180C180018141818181C181704700212C
:1012200001804180012181800021C18001817047BE
:101230000021018041808180C180018141818181C3
:1012400070470000002C01400034014000040040C1
:1012500000080040000C004021B1028842F0010269
:10126000028004E002884FF6FE731A400280704745
:1012700031B1B0F8442042F40042A0F8442005E027
:10128000B0F84420C2F30E02A0F8442070471AB10F
:1012900083890B43838102E083898B438381704779
:1012A0008182704741EA0203A0F8483070471AB1C2
:1012B00083890B43838102E083898B438381704759
:1012C00001894FF6F8721140018170470A460021EA
:1012D00001894FF68F73194011430181704730B572
:1012E00004460D4629462046FFF7F0FF208940F0CE
:1012F0000700208130BD2DE9F04104460D46164619
:101300001F46602D06D13B46012231462046FFF79D
:101310005AFE05E03B46012231462046FFF79DFE7E
:1013200029462046FFF7D2FF208940F007002081A0
:10133000BDE8F08130B50C4600210189C9B24FF6F5
:10134000FF7505EA0325154325432943018130BD77
:101350002DE9F04105460E461746984600244346BF
:101360003A4631462846FFF7E5FF2C894FF6F870DC
:10137000044044F007044FF68F70044044F07004BA
:101380002C81BDE8F081F0B504460D4616461F4697
:101390003B46324629462046FFF7CCFF208940F4E1
:1013A00080402081F0BD0185828270470A4600217D
:1013B00001884FF68F731940114301807047F0B5D3
:1013C0000C4615461E460021002200230189028B8F
:1013D000038C4FF6F877394021434FF6FC473A40EB
:1013E00040F201173A434FF6DD773B404FF6FF7767
:1013F00007EA06172F433B43018102830384F0BDB4
:101400000A460021018B4FF68F7319401143018367
:1014100070470A460021018B48F6FF7319404FF6CA
:10142000FF7303EA02231943018370470A46002130
:10143000818B4FF68F7319401143818370470A46A1
:101440000021818B48F6FF7319404FF6FF7303EAC2
:10145000022319438183704721B1028842F0800240
:10146000028004E002884FF67F731A4002807047C2
:1014700021B1828842F00402828004E082884FF623
:10148000FB731A408280704721B1828842F00802C3
:10149000828004E082884FF6F7731A40828070479A
:1014A00021B1828842F00102828004E082884FF6F6
:1014B000FE731A40828070470A460021018B4FF666
:1014C000F77319401143018370470A460021018BCD
:1014D0004FF2FF7319404FF6FF7303EA02231943DB
:1014E000018370470A460021818B4FF6F77319403C
:1014F0001143818370470A460021818B4FF2FF73AD
:1015000019404FF6FF7303EA0223194381837047A2
:101510000A460021018B4FF6FB73194011430183EA
:1015200070470A460021018B4FF6FF3319404FF6F2
:10153000FF7303EA02231943018370470A4600211F
:10154000818B4FF6FB7319401143818370470A4624
:101550000021818B4FF6FF3319404FF6FF7303EAEA
:1015600002231943818370470A460021018B4FF6FD
:101570007F7319401143018370470A460021018B94
:10158000C1F30E014FF6FF7303EA022319430183EF
:1015900070470A460021818B4FF67F731940114333
:1015A000818370470A460021818BC1F30E014FF6FB
:1015B000FF7303EA02231943818370470A4600211F
:1015C000018C4FF6FD7319401143018470470A46A0
:1015D0000021018C4FF6F7731940114301847047C5
:1015E0000A460021018C4FF6DF7319404FF6FF7356
:1015F00003EA02131943018470470A460021018C53
:101600004FF67F7319404FF6FF7303EA0213194335
:10161000018470470A460021018C4FF6FF531940A0
:101620004FF6FF7303EA02231943018470470A4609
:101630000021018C4FF2FF7319404FF6FF7303EA4C
:1016400002231943018470470A460021018C4DF69C
:10165000FF7319404FF6FF7303EA02331943018405
:10166000704730B5002301248C40A3B2048C9C4306
:101670000484048C02FA01F5ADB22C43048430BD1D
:1016800030B5002304248C40A3B2048C9C43048412
:10169000048C02FA01F5ADB22C43048430BD70B560
:1016A0000346002000241846183001258D40ACB2B6
:1016B0001D8CA5431D8409B1082909D100EB6100E7
:1016C000056825F0700505600568154305600EE0A6
:1016D0000D1FC5F34E052844056825F4E045056057
:1016E00005684FF6FF7606EA02263543056070BDB1
:1016F00021B1028842F00202028004E002884FF623
:10170000FD731A400280704721B1028842F0040242
:10171000028004E002884FF6FB731A400280704793
:1017200021B1828842F08002828004E082884FF6F4
:101730007F731A408280704702884FF6F7731A4011
:10174000028002880A430280704782884FF68F73B6
:101750001A40828082880A438280704702894FF64D
:10176000F8731A40028102890A4302817047028994
:101770004FF67F731A40028102890A430281704743
:1017800081847047818570478186704701877047E3
:1017900081877047A0F84010704702884FF6FF43DA
:1017A0001A40028002880A43028070470146888EF0
:1017B00070470146088F70470146888F7047014681
:1017C000B1F8400070470146888C70470146088D8B
:1017D000704702460020138A0B400BB1012000E045
:1017E00000207047CA430282704730B5024600208D
:1017F00000230024158A05EA0103958905EA0104FE
:1018000013B10CB1012000E0002030BDCA430282B8
:101810007047000010B50446FB48844209D10121FD
:101820008803FFF79FF800214FF48040FFF79AF8F4
:1018300032E0F648844209D101214804FFF79FF8BD
:1018400000214FF40030FFF79AF825E0F048844279
:1018500009D101218804FFF792F800214FF480207C
:10186000FFF78DF818E0EB48844209D10121C80444
:10187000FFF785F800214FF40020FFF780F80BE018
:10188000E548844208D101210805FFF778F80021D6
:101890004FF48010FFF773F810BD2DE9F04786B0C4
:1018A00005460E460024A24600BFA1460027B08987
:1018B00000B100BF2F462C8A4CF6FF700440F08820
:1018C00004432C82AC894EF6F3100440B088318971
:1018D0000843718908430443AC81AC8A4FF6FF404A
:1018E0000440B0890443AC8201A8FEF7B4FFC648A7
:1018F000874202D1DDF810A001E0DDF80CA0A88934
:1019000000F4004040B10AEBCA0000EB0A10316855
:101910004900B0FBF1F807E00AEBCA0000EB0A103F
:1019200031688900B0FBF1F86420B8FBF0F00401E5
:101930002009642101FB1089A88900F4004040B10E
:10194000322000EBC900B0FBF1F000F007000443C7
:1019500008E0322000EB09106421B0FBF1F000F048
:101960000F0004432C8106B0BDE8F0874FF41651F8
:10197000016000218180C18001810C214181002111
:101980008181704710B502460020108A4FF2FF0394
:1019900018400B884C8823438C882343CC882343EE
:1019A0001843108210BD0021018041808180C180D8
:1019B000704721B1828942F40052828104E0828919
:1019C0004DF6FF731A4082817047F0B5034600243C
:1019D00000260025002040F66A17B94200D100BF5A
:1019E0001846C1F3421401F01F06012707FA06F555
:1019F000012C01D10C3004E0022C01D1103000E0A8
:101A000014301AB107682F43076002E00768AF433C
:101A10000760F0BD1AB1838A0B43838202E0838A98
:101A20008B4383827047028A4FF6F0731A4002821A
:101A3000028A0A430282704782894FF2FF731A407A
:101A4000828182890A438281704721B1828942F072
:101A50000202828104E082894FF6FD731A4082817E
:101A60007047028A4FF6DF731A400282028A0A43E5
:101A70000282704721B1028A42F48042028204E06D
:101A8000028A4BF6FF731A4002827047C1F30802C4
:101A90008280704701468888C0F3080070478189BA
:101AA00041F0010181817047028BD2B20283028B27
:101AB00042EA012202837047028B02F47F420283D2
:101AC000028B0A430283704721B1828A42F02002CE
:101AD000828204E0828A4FF6DF731A408282704766
:101AE00021B1828A42F01002828204E0828A4FF69B
:101AF000EF731A408282704721B1828A42F0080255
:101B0000828204E0828A4FF6F7731A40828270471D
:101B100021B1828942F40042828103E08289C2F3CA
:101B20000E028281704721B1828A42F40062828271
:101B300004E0828A4FF2FF731A4082827047828AE1
:101B40004FF6FB731A408282828A0A438282704770
:101B500021B1828A42F00202828204E0828A4FF638
:101B6000FD731A408282704702460020B1F5007F63
:101B700000D100BF13880B400BB1012000E0002012
:101B8000704701F40072B2F5007F00D100BFCA4374
:101B90000280704770B50246002400230025002013
:101BA00040F66A16B14200D100BFC1F3421501F000
:101BB0001F03012606FA03F3012D02D19689334053
:101BC00006E0022D02D1168A334001E0968A3340A6
:101BD0000C12012606FA04F41688344013B10CB135
:101BE000012000E0002070BD10B50022002340F667
:101BF0006A14A14200D100BF0A1201249440A3B28A
:101C0000DC43048010BD0000003801400044004067
:101C100000480040004C00400050004010B5044611
:101C2000FA48844208D101214015FEF79BFE0021AD
:101C30006015FEF797FE17E0F548844208D10121B0
:101C40000015FEF78FFE00212015FEF78BFE0BE03E
:101C5000F048844208D10121C803FEF783FE002129
:101C60004FF40040FEF77EFE10BD30B50246002066
:101C700000235068E84C20400D790C6844EA0524A4
:101C8000204350609068E54C2040D1E902542C4339
:101C90004D7944EA450420439060D06A20F47000F6
:101CA0000C7C641EE4B2234340EA0350D06230BD92
:101CB00000210160017141718160C16001210174E5
:101CC000704721B1826842F00102826003E08268BD
:101CD00022F001028260704721B1826842F4807272
:101CE000826003E0826822F480728260704710B5DF
:101CF0000023CBB21AB144681C43446002E044683C
:101D00009C43446010BD816841F0080181607047C8
:101D1000014600208A6802F008020AB1012000E0B2
:101D200000207047816841F00401816070470146DE
:101D300000208A6802F004020AB1012000E00020BD
:101D4000704721B1826842F4A002826003E0826899
:101D500022F4A00282607047014600208A6802F4E3
:101D600080020AB1012000E00020704710B50A4649
:101D700000210023416821F46041531E41EA4331B0
:101D8000416010BD21B1426842F40062426003E04C
:101D9000426822F4006242607047F0B504460D4686
:101DA00000200021092D11DDE068A5F10A0606EBEF
:101DB0004607072606FA07F18843A5F10A0606EB4F
:101DC000460603FA06F10843E0600CE0206905EBE3
:101DD0004507072606FA07F1884305EB450603FA8F
:101DE00006F108432061072A0FDA606B561E06EBE6
:101DF00086071F2606FA07F18843561E06EB86065D
:101E000005FA06F10843606322E00D2A0FDA206B21
:101E1000D61F06EB86071F2606FA07F18843D61F52
:101E200006EB860605FA06F10843206310E0E06A37
:101E3000A2F10D0606EB86071F2606FA07F1884376
:101E4000A2F10D0606EB860605FA06F10843E062EC
:101E5000F0BD21B1826842F48012826003E08268A2
:101E600022F48012826070470146C86C80B27047CD
:101E700066484C300068704721B1426842F4806285
:101E8000426003E0426822F480624260704721B100
:101E9000426842F48052426003E0426822F4805279
:101EA000426070470A460021816821F4E0411143F5
:101EB0008160704721B1826842F40042826003E091
:101EC000826822F400428260704721B1826842F445
:101ED0000212826003E0826822F40212826070477C
:101EE000014600208A6802F400120AB1012000E0D5
:101EF00000207047F0B50446154600200022002659
:101F0000092911DDE068A1F10A0707EB470C072753
:101F100007FA0CF29043A1F10A0707EB470703FA0F
:101F200007F21043E0600CE0206901EB410C072749
:101F300007FA0CF2904301EB410703FA07F2104352
:101F40002061A06BC0F30156EF1C06F1010CA7EB5A
:101F50000C0707EB870C1F2707FA0CF29043EF1CC6
:101F600006F1010CA7EB0C0707EB870701FA07F254
:101F70001043A063F0BD10B50A4600210023816B19
:101F800021F44011531E41EA0351816310BD08B58D
:101F9000002300930090009B0B440093009B1A6069
:101FA00008BD08B5024600200090009201F128000B
:101FB000009B184400900098006880B208BD0A4653
:101FC00000214168164B194011434160704741623E
:101FD000826270470A460021416821F01F011143C7
:101FE0004160704740B109490831096841F4000176
:101FF000064A0832116007E004490831096821F4F3
:102000000001024A083211607047000000240140BC
:1020100000280140003C0140FFFEF0FFFDF7F1FF0A
:10202000FFFD3FFF0246002013680B400BB101206B
:1020300000E000207047CA430260704770B5024656
:102040000020002300240B125568CEB205EA0604D6
:1020500015681D4015B10CB1012000E0002070BDD5
:1020600000220A12D3430360704700000CB5002021
:10207000019000906C48006840F480306A49086024
:1020800000BF6948006800F4003000900198401CCF
:102090000190009818B90198B0F5A06FF1D162488D
:1020A000006800F4003010B10120009001E0002031
:1020B00000900098012843D15C48006840F010006F
:1020C0005A4908600846006820F003000860084686
:1020D000006840F002000860534840685249486078
:1020E0000846406848600846406840F480604860A0
:1020F0000846406820F47C1048600846406840F478
:10210000E81048600846006840F08070086000BF32
:102110004548006800F000700028F9D04248406847
:1021200020F00300404948600846406840F0020043
:10213000486000BF3C48406800F00C000828F9D116
:102140000CBD10B5FFF792FF10BD10B53648006802
:1021500040F00100344908600846406834490840AE
:102160003149486008460068324908402E490860F5
:102170000846006820F4802008600846406820F483
:10218000FE0048604FF41F008860FFF7DAFF4FF051
:1021900000602949086010BD10B500210020002210
:1021A000214B5B6803F00C0121B1042906D00829FA
:1021B00028D107E0214B224C236027E01F4B204C05
:1021C000236023E0184B5B6803F47010164B5B68C8
:1021D00003F48032022303EB904022B9194B4343AE
:1021E000174C23600DE0104B5B6803F4003323B100
:1021F000144B4343124C236003E0104B4343104CF9
:10220000236003E00D4B0E4C236000BF00BF064B64
:102210005B68C3F303130C4CE15C094B1B68CB40B8
:10222000074C236010BD0000001002400020024057
:102230000000FFF8FFFFF6FE08ED00E000127A0054
:102240001400002000093D0018000020014605E0B0
:10225000002001E0421CD0B20A28FBDB0A1EA1F1DB
:102260000101F5D1704710B5044603E04FF47A70D0
:10227000FFF7ECFF201EA4F10104F7D110BD704759
:1022800008B50720009002E00098401E00900098DA
:102290000028F9D108BD10B54FF40070E649086078
:1022A00040100860FFF7ECFFE3480838006808B901
:1022B000012000E0002000F4007008B1002010BDF3
:1022C0004FF40070DC49091D0860FFF7D9FFDA48B8
:1022D0000838006800F4007008B10020EFE74FF400
:1022E0000070D549091D0860FFF7CAFF0120E6E725
:1022F00010B54FF48070D049091D0860FFF7C0FF8A
:102300004FF40070CC49091D0860FFF7B9FF4FF486
:102310008070C9490860FFF7B3FF4FF40070C649E9
:102320000860FFF7ADFF10BD10B54FF48070C249D3
:10233000091D0860FFF7A4FF4FF40070BE49091D96
:102340000860FFF79DFF4FF48070BB490860FFF7FE
:1023500097FF4FF48070B849091D0860FFF790FFA0
:1023600010BD10B54FF48070B349091D0860FFF728
:1023700087FF4FF40070B0490860FFF781FF4FF40A
:102380008070AD490860FFF77BFF4FF48070AA4969
:10239000091D0860FFF774FF10BD10B54FF4807081
:1023A000A549091D0860FFF76BFF4FF40070A249B3
:1023B0000860FFF765FF4FF480709F490860FFF7E2
:1023C0005FFF9D480838006800F4007030B14FF49A
:1023D00080709949091D0860002010BD4FF480707D
:1023E0009549091D08600120F7E770B504460825E6
:1023F0001DE04FF480709049091D0860FFF740FF11
:1024000004F0800020B14FF400708B49086004E0B4
:102410004FF400708849091D08606006040EFFF73C
:102420002FFF4FF4807084490860FFF729FF281EB2
:10243000A5F10101CDB2DCD14FF480707E49091DB8
:10244000086070BD70B508250024A8017A490860AD
:1024500016E06006040E4FF480707749091D08608D
:10246000FFF70EFF4FF4807073490860FFF708FF15
:1024700071480838006800F4007008B144F00104A5
:10248000281EA5F10101CDB2E3D14FF480706A4955
:10249000091D0860204670BD08B501210820FEF71F
:1024A00047FA4FF44070ADF8000002208DF80200AA
:1024B00014208DF8030069465F481038FDF77CFF53
:1024C00008BD2DE9F04105460E4617469846FFF730
:1024D000E2FE10B90020BDE8F081002141EA45018B
:1024E000C8B2FFF782FFFFF758FF18B9FFF700FFE8
:1024F0000020F0E73046FFF778FFFFF74EFF00249B
:102500000BE018F80400FFF770FFFFF746FF18B95B
:10251000FFF7EEFE0020DEE7641CBC42F1DBFFF7B4
:10252000E7FE0120D7E72DE9F04104460D461646A7
:102530001F463B46324629462046FFF7C2FF10B1F0
:102540000020BDE8F0814FF0FF30FAE72DE9F041BF
:1025500005460F4614461E46FFF79DFE10B90020A3
:10256000BDE8F081002141EA4501C8B2FFF73DFF17
:10257000FFF713FF18B9FFF7BBFE0020F0E738465E
:10258000FFF733FFFFF709FFFFF785FE012101EB9E
:102590004501C8B2FFF729FFFFF7FFFE0CE0FFF788
:1025A00051FF3070012C02D1FFF7DBFE01E0FFF795
:1025B000BBFE761C601EC4B2002CF0D1FFF798FE63
:1025C0000120CDE72DE9F04104460D4616461F4691
:1025D0003B46324629462046FFF7B8FF10B100209F
:1025E000BDE8F0814FF0FF30FAE770B504460D46C4
:1025F0001646FFF750FE08B9002070BD002141EAE1
:102600004401C8B2FFF7F1FEFFF7C7FE18B9FFF7A4
:102610006FFE0020F1E72846FFF7E7FEFFF7BDFE5B
:102620003046FFF7E2FEFFF7B8FEFFF761FE01203C
:10263000E3E7002070470000100C014008B50121BD
:102640001120FEF775F901210B48FDF786FF4FF4C5
:10265000C040ADF8000003208DF8020010208DF876
:10266000030069460548FDF7A7FE4FF4C041034843
:10267000FDF74FFF08BD00000002300000100140D0
:10268000FFF763FD41F61F4141F2883001F088FDFC
:1026900001F0C2FD01F0F2FB00F0C2F800F024F8F6
:1026A000FFF7CCFF01F03EFE00F0D0F800F037F964
:1026B000FFF7F2FE0A2000F00FFE00F043FA00F0F0
:1026C000B3FD00F019FE4FF0E020006940F001007A
:1026D0004FF0E021086105E000F0A4FA01F08DFB65
:1026E00001F071FBF8E7000008B501210820FEF7B2
:1026F0001FF94FF47040ADF8000010208DF8030072
:1027000003208DF802006946FE48FDF755FE4FF4A0
:102710007041FC48FDF7FDFE08BD08B501210846E3
:10272000FEF713F901210420FEF702F90C20ADF8A1
:10273000000018208DF8030003208DF80200694680
:10274000F148FDF739FE08BD30B587B000250024FB
:1027500040F2E730ADF814000020ADF81000ADF8FD
:102760001600ADF8120004A94FF08040FEF718FAE9
:102770006020ADF800000120ADF80200ADF8065071
:102780000020ADF8080069464FF08040FEF7D4FA0B
:102790000821C806FEF7A6FE0120ADF80200ADF83C
:1027A00006400020ADF8080069464FF08040FEF773
:1027B0000EFB0821C806FEF79EFE01218807FEF7E2
:1027C0004BFE01218807FEF747FD07B030BD2DE91C
:1027D000FF4104460D4627462E466020ADF8000016
:1027E0000120ADF80200ADF806700020ADF8080039
:1027F00069464FF08040FEF79FFA0821C806FEF7B1
:1028000071FE0120ADF80200ADF806606946800750
:10281000FEF7DDFA0821C806FEF76DFEBDE8FF8170
:1028200010B5FFF77AFFFFF78FFF10BDB749088893
:10283000098821F00101B54A11807047B449088820
:10284000098821F00101B24A1180704700B589B0B2
:1028500001210220FEF779F801210420FEF768F833
:1028600001A8FDF734FEC020ADF8040004208DF867
:10287000070003208DF8060001A9A348FDF79CFD81
:102880004FF4A060FDF73CFC1D208DF808000120EE
:102890008DF8090003208DF80A0001208DF80B0047
:1028A00002A8FDF732FC99481038FEF7A5F806A8F3
:1028B000FEF7A2FC0020ADF818004FF6FF70ADF84F
:1028C0001C000020ADF81E00ADF81A0006A98F48C4
:1028D0001038FEF765F90A231A4603218B48103891
:1028E000FEF76DFD03A8FEF79AFC0620ADF8140074
:1028F00003A986481038FEF7E6FB0121834810380B
:10290000FEF770FF0122114680481038FEF7BFFC29
:1029100001217E481038FEF79FFC09B000BD00B5CC
:1029200089B001210420FEF710F801210820FDF7ED
:10293000FFFF01A8FDF7CBFDC020ADF80400042087
:102940008DF8070003208DF8060001A96D48FDF7FA
:1029500033FD4FF4A060FDF7D3FB1E208DF8080077
:1029600001208DF8090003208DF80A0001208DF860
:102970000B0002A8FDF7C9FB65481038FEF73CF8CC
:1029800006A8FEF739FC0020ADF818004FF6FF70DE
:10299000ADF81C000020ADF81E00ADF81A0006A925
:1029A0005B481038FEF7FCF80A231A460321584802
:1029B0001038FEF704FD03A8FEF731FC0620ADF841
:1029C000140003A952481038FEF77DFB012150483E
:1029D0001038FEF707FF012211464D481038FEF768
:1029E00056FC01214A481038FEF736FC09B000BDFC
:1029F00000B585B001210420FDF79AFF01210220D6
:102A0000FDF7A3FF8020ADF8100004208DF813001F
:102A100003208DF8120004A93B48FDF7CDFC4FF4CC
:102A2000A060FDF76DFB1D208DF8000001208DF8E2
:102A3000010003208DF8020001208DF80300684694
:102A4000FDF763FB31481038FDF7D6FF4FF6FF70F6
:102A5000ADF808000020ADF80400ADF80A00ADF8AC
:102A6000060001A929481038FEF79AF800231A46F3
:102A7000602126481038FEF73EFC0021234810381C
:102A8000FEF77EFE012121481038FEF7E5FB05B078
:102A900000BD00B585B001210820FDF749FF0121E7
:102AA0000420FDF752FF8020ADF8100004208DF8BF
:102AB000130003208DF8120004A91248FDF77CFCD6
:102AC0004FF4A060FDF71CFB1E208DF800000120D4
:102AD0008DF8010003208DF8020001208DF803001D
:102AE0006846FDF712FB0A481038FDF785FF4FF6E0
:102AF000FF70ADF808000020ADF80400ADF80A0042
:102B000008E00000000C01400008014010040040F3
:102B100010080040ADF8060001A90948FEF740F88A
:102B200000231A4660210648FEF7E5FB0021044811
:102B3000FEF726FE01210248FEF78EFB05B000BD20
:102B40000008004070B5002402F0B7F80446002CDD
:102B500060D17CA001F00FFB782001F010FD18B9C6
:102B600081A001F008FB02E087A001F004FB7820BF
:102B700001F0F2FE18B98FA001F0FDFA02E096A074
:102B800001F0F9FA642001F0C8FF18B99EA001F025
:102B9000F2FA02E0A6A001F0EEFA03F07FFB18B90A
:102BA000ACA001F0E8FA02E0B7A001F0E4FAC548F1
:102BB00004F050FA054603F07BFB18B9C2A001F0FF
:102BC000DAFA02E0CAA001F0D6FA40F2731003F07C
:102BD000B0FF18B9D2A001F0CEFA02E0D9A001F0FE
:102BE000CAFA642003F01EFD18B9E2A001F0C3FA8E
:102BF00002E0E9A001F0BFFA04F040FA012003F07E
:102C000093F818B9EFA001F0B6FA0AE0F6A001F0C7
:102C1000B2FA06E04FF40051FE48FDF77CFC00BF1D
:102C2000FEE770BD2DE9F04F89B0FB48FB49FC4B36
:102C3000FC4ACDE90010FC49FC4804F0D9F8F748FB
:102C4000008800F4807000287AD0F649086804F003
:102C500047FD04464FF09D4104F07CFBF4490860B9
:102C6000F049486804F03CFD04464FF09D4104F0F3
:102C700071FBF0490860EB49886804F031FD0446B7
:102C80004FF09D4104F066FBEB490860E549C868D8
:102C900004F026FD04464FF09D4104F05BFBE7493C
:102CA0000860E34801684FF0804004F021FB069083
:102CB000E1480168069804F01BFB8246DD48016884
:102CC0004FF0404004F014FB0690DC480168069881
:102CD00004F00EFB8346514604F0B2FA079004F06C
:102CE0004BFD064605F08AFC80464FF06632D44B19
:102CF00004F015FC044604F06BFDD2490860CE4890
:102D000001684FF0804004F0F3FA0390CA4801686C
:102D1000039804F0EDFA8246C64801684FF040403F
:102D200004F0E6FA0390C3480168039804F0E0FA5F
:102D30008346514604F0D6FA81464FF07E5183E136
:102D40000CE200006D707520696E697469616C69D0
:102D50007A6174696F6E20636F6D706C6574652E37
:102D60002E2E2E2E2E0A20006D70755F7365745FF7
:102D700073656E736F7220636F6D706C6574652020
:102D80002E2E2E2E2E2E0A006D70755F7365745FC9
:102D900073656E736F7220636F6D65206163726F10
:102DA0007373206572726F72202E2E2E2E2E2E0AB5
:102DB000000000006D70755F636F6E666967757205
:102DC000655F6669666F20636F6D706C6574652002
:102DD0002E2E2E2E2E2E0A006D70755F636F6E667E
:102DE00069677572655F6669666F20636F6D6520E0
:102DF0006163726F7373206572726F72202E2E2E54
:102E00002E2E2E0A000000006D70755F7365745FD2
:102E100073616D706C655F7261746520636F6D7056
:102E20006C657465202E2E2E2E2E2E0A00000000BA
:102E30006D70755F7365745F73616D706C655F72E3
:102E4000617465206572726F72202E2E2E2E2E2ECA
:102E50000A000000646D705F6C6F61645F6D6F7479
:102E6000696F6E5F6472697665725F6669726D77AD
:102E700061726520636F6D706C657465202E2E2EF7
:102E80002E2E2E0A00000000646D705F6C6F61646E
:102E90005F6D6F74696F6E5F6472697665725F668D
:102EA00069726D7761726520636F6D652061637211
:102EB0006F7373206572726F72202E2E2E2E2E2E3F
:102EC0000A00000028000020646D705F7365745F65
:102ED0006F7269656E746174696F6E20636F6D7077
:102EE0006C657465202E2E2E2E2E2E0A00000000FA
:102EF000646D705F7365745F6F7269656E74617421
:102F0000696F6E20636F6D65206163726F737320EC
:102F10006572726F72202E2E2E2E2E2E0A00000049
:102F2000646D705F656E61626C655F666561747526
:102F3000726520636F6D706C657465202E2E2E2E69
:102F40002E2E0A00646D705F656E61626C655F664F
:102F500065617475726520636F6D65206163726F62
:102F60007373206572726F72202E2E2E2E2E2E0AF3
:102F700000000000646D705F7365745F6669666F62
:102F80005F7261746520636F6D706C657465202E6F
:102F90002E2E2E2E2E0A0000646D705F7365745FF6
:102FA0006669666F5F7261746520636F6D6520612D
:102FB00063726F7373206572726F72202E2E2E2EC5
:102FC0002E2E0A006D70755F7365745F646D705F9F
:102FD000737461746520636F6D706C657465202E09
:102FE0002E2E2E2E2E0A00006D70755F7365745F95
:102FF000646D705F737461746520636F6D652061CB
:1030000063726F7373206572726F72202E2E2E2E74
:103010002E2E0A00001001406200002060000020F7
:1030200050000020B80100205A0000205400002069
:1030300034000020380000203C0000204000002028
:1030400066A64C404400002004F0FAF8044604F060
:1030500093FBCDE90401434801684FF0804004F040
:1030600047F9834640480168584604F041F98146D3
:103070003E4801684FF0804004F03AF983463C48EE
:103080000168584604F034F98246494604F0D8F8FD
:10309000044604F071FB0746DDE9042305F0F6FC65
:1030A0004FF06632334BCDE9060104F038FA05469D
:1030B00004F08EFB304908602D480168006804F078
:1030C00017F9039029480168006804F011F902908B
:1030D00025480168006804F00BF98346214801681F
:1030E000006804F005F95946019004F0A9F88246F9
:1030F000029904F0F7F88146039904F0F3F80446C6
:1031000004F03AFBCDE9040119480168154800684C
:1031100004F0EEF88246154801681348006804F090
:10312000E7F88346514604F08BF881464FF0804122
:1031300004F0DEF8044604F01FFB0746DDE9042333
:1031400005F0A4FC4FF066320A4BCDE9060104F00D
:10315000E6F9054604F03CFB0849086009B0BDE803
:10316000F08F000034000020380000203C000020D8
:103170004000002066A64C40480000204C00002083
:10318000704700BFFEE700BFFEE700BFFEE700BFDD
:10319000FEE770477047704710B51D480078401C27
:1031A0001B4908701B480078401C1A4908701A48CF
:1031B0000078401C1849087000F0F6FA17480078AB
:1031C000401C1649087016480078401C14490870C5
:1031D00014480078401C134908700E4800780228F3
:1031E00006DB01F08AF800F0DAFB002009490870DC
:1031F00009480078082806DB00F003FB0020064998
:1032000008700649087000F0FFF800F01BFA10BDC6
:103210007000002075000020710000207200002066
:10322000730000207400002030B527480068C822D1
:10323000B0FBF2F1B1F1807F01D301201DE021F05C
:103240007F40401E4FF0E022506150170F220028AF
:1032500007DA13071D0E1D4B00F00F04241F1D5528
:1032600003E013071C0E1A4B1C5400BF00204FF044
:10327000E022906107201061002008B100BFFEE746
:103280004FF0E020006920F001004FF0E0210861DC
:1032900030BD01B50F49009808604FF0E02000698B
:1032A00040F001004FF0E021086100BF09480068CC
:1032B0000028FBD108BD0748006820B10548006818
:1032C000401E0449086070471400002018ED00E01B
:1032D00000E400E064000020002107E042F6E06125
:1032E00000BF0A1EA1F1010399B2FAD1021EA0F19A
:1032F000010398B2F2D170470020F8490880F849DC
:103300000880F8490860F8490860F8490860F849F9
:103310000860F8490860F8490860F8490860F84909
:103320000860F8490860F8490860F8490860F849F9
:103330000860F8490860F8490860F8490860F849E9
:103340000860F8490860F8490870F8490870F849B9
:103350000870F849086070472DE9F041F6480068A8
:1033600004F00AFA0446F548D0E9006332462046E4
:1033700004F016FA07D0F148D0E90021104604F015
:1033800027FAED490860EE48006804F0F5F90446B4
:10339000EA48D0E902633246204604F001FA07D039
:1033A000E649D1E90221104604F012FAE449086026
:1033B000E448006804F0E0F90446E048D0E904631A
:1033C0003246204604F0ECF907D0DC48D0E904216D
:1033D000104604F0FDF9DB490860DB48006804F0A2
:1033E000CBF90446D548D0E906633246204604F0BE
:1033F000D7F907D0D148D0E90621104604F0E8F902
:10340000D1490860BDE8F0812DE9F041CF4800685E
:10341000012810D10020C8490860CD48006804F098
:103420006DF906460022CB4B04F079F8044604F00F
:10343000CFF9C1490860C5480068022812D10020B0
:10344000BF490860C4490968A1F1400004F056F979
:1034500006460022C14B04F062F8044604F0B8F9B5
:10346000B7490860BE49B1F9040004F039F9BD4913
:103470000860BD49B1F9040004F032F9BB490860A5
:103480000021BB48006804F0BFF90BD0B949B84827
:10349000006804F0B9F905D3B749B548006804F0ED
:1034A000BDF905D24FF40051B448FDF734F804E0FB
:1034B0004FF40051B148FDF72CF8B149B14800680C
:1034C00003F010FF8C490860A749B1F9000004F02F
:1034D00007F906469A480168304603F009FF04469A
:1034E000864801688448006803F0FCFE064692485E
:1034F0000168304603F0FCFE0546214603F0A0FEBD
:1035000081490860BDE8F0812DE9F04104460D468F
:10351000002C0CDA4FF480419B48FCF7FAFF4FF483
:1035200000419948FCF7F7FF604204B20AE04FF40B
:1035300000419548FCF7EDFF4FF480419248FCF7BD
:10354000EAFF00BF002D0CDA4FF400518E48FCF763
:10355000E0FF4FF480518C48FCF7DDFF684205B274
:103560000AE04FF480518848FCF7D3FF4FF4005134
:103570008548FCF7D0FF00BFAFB2A6B231464FF08E
:103580008040FEF705F939464FF08040FEF702F91A
:103590007E497748006804F041F923D37C49744898
:1035A000006804F031F902D24FF0010801E04FF059
:1035B000000800215A48006804F026F901D10120D2
:1035C00000E0002008EA000800215648006804F0E6
:1035D0001BF901D1012000E0002008EA0008B8F141
:1035E000000F0DD000214FF08040FEF7D1F80021F0
:1035F0004FF08040FEF7CEF801206649086002E0F7
:1036000000206449086064493B48006804F006F9FA
:1036100005D362493848006804F0F6F80DD200215D
:103620004FF08040FEF7B4F800214FF08040FEF7E5
:10363000B1F801205749086002E0002055490860B0
:10364000BDE8F08170B52E4801682F48006803F08E
:10365000F7FD2F4908602A4801682B48006803F0ED
:1036600041FE2A4908602A48006804F058F800B270
:10367000B0F57A7F02DD4A48254908602448006891
:1036800004F04DF800B210F57A7F02DA454820497F
:1036900008601E48006804F042F800B2B0F57A7F76
:1036A00002DD3F48194908601848006804F037F8FF
:1036B00000B210F57A7F02DA3A48144908601348DC
:1036C000006804F02CF804B21148006804F027F8F0
:1036D00005B221462846FFF717FF70BDBE00002047
:1036E000BC000020CC000020C8000020D400002036
:1036F000D0000020D8000020980000208800002082
:10370000F40000207C0000208C00002094000020A9
:1037100090000020F0000020340100203001002043
:10372000FC000020F8000020700000207100002044
:1037300072000020E8000020A8000020588C00083B
:10374000AC000020B0000020B400002018010020D0
:10375000080100200080FB3F0C0100200000C43F56
:103760005A00002028010020540000202C010020D5
:10377000440000200000A0C10000A0410010014052
:10378000CDCC4C3E48000020000C01400000204100
:10379000000020C1E400002000004842000048C2B0
:1037A00000007A4400007AC470B5F948FEF70BF8BF
:1037B0000446F848FEF707F80546F7480460F7485E
:1037C00005600021F248FDF7DBFF0021F148FDF71D
:1037D000D7FF20B2F2490880684200B2F149088060
:1037E000F1480068EE49B1F900100844EE4908605C
:1037F000EE480068EB49B1F900100844EB49086055
:1038000070BD2DE9F05FE8490968E84A1268881838
:1038100003F066FFE64908600020E4490860E249D9
:103820000860E448006803F0A7FF06464FF06632E0
:10383000E14B03F074FE044603F0CAFFDD49086063
:10384000DB48006803F098FF80464FF03332DB4BD3
:1038500003F065FE04460D46D648006803F08CFF71
:10386000064622462B4603F0B3FD824603F0B0FF26
:10387000D049086008460168D148006803F0E0FCC0
:10388000CF490860CF480168CD48006803F0D8FCF4
:10389000CB490860CC480168C948006803F0D0FCF7
:1038A000C7490860C9480068012801D100200860A4
:1038B000C348006803F033FFB0F5FA5F02DDC44887
:1038C000BF490860BE48006803F029FF10F5FA5FA1
:1038D00002DAC048BA490860BF480068032812D11C
:1038E0000020BE490860BE490968A1F1800003F0CC
:1038F00005FF06460022BB4B03F011FE044603F011
:1039000067FFB6490860B4480068042812D1002057
:10391000B5490860B5490968A1F1C00003F0EEFEA1
:1039200006460022B24B03F0FAFD044603F050FFB6
:10393000AD4908600021A248006803F0D3FC0646A8
:10394000A9480168304603F0D3FC04460021994899
:10395000006803F0C7FC0646A0480168304603F043
:10396000C7FC0546214603F06BFCA24908600846E7
:103970000068A1490860A1499F48006803F04EFF14
:1039800002D29E489C4908609D499B48006803F00C
:103990003BFF02D29A4898490860BDE8F09F2DE9A4
:1039A000F0419848006800283ED19748FDF70BFF8A
:1039B00000EB800000EB00104400204603F09EFE68
:1039C00005460022914B03F01CFE074603F000FF62
:1039D0008F4908600846006803F0CEFE04460022C6
:1039E0008C4B03F0DDFE03D88B48774908601BE061
:1039F0008A498748006803F011FF01D8012400E0DC
:103A000000244FF082418248006803F0FDFE01D897
:103A1000012000E0002004401CB181486A49086090
:103A200002E0002068490860BDE8F0812DE9FC5FF4
:103A30007C480068012878D17B48D0F800B07B48EA
:103A4000006801907A48B0F902907A48B0F900A075
:103A50006F480468484603F043FE06464FF08D4128
:103A600003F078FC0546744903F042FC7349086092
:103A7000504603F035FE0646714903F033FC054617
:103A8000704903F067FC70490860584603F074FE03
:103A900007466E4A6E4B03F0B4FD054603F098FEF0
:103AA0008346019803F068FE0546684A684B03F0B8
:103AB000A8FD074603F08CFE01905021654803F0F5
:103AC0009BFB644864A1096801600A21634803F014
:103AD00093FB634800210160416001810A21614834
:103AE00003F08AFB604800210160416001810A21E6
:103AF0005E4803F081FB5E48002101604160018166
:103B00005C49584603F080FE10D85B49584603F0E4
:103B100085FE0BD8584603F02FFE05462A460B4675
:103B200056A14E4804F066F802E04AE1BDE8FC9F69
:103B30005049019803F068FE0FD84F49019803F0EF
:103B40006DFE0AD8019803F017FE05462A460B467B
:103B50004AA1434804F04EF800E0E7E749493748F6
:103B6000006803F05BFE11D247493448006803F057
:103B70004BFE0BD23148006803F0FEFD05462A4695
:103B80000B463EA1374804F035F880E07EE00000A7
:103B90000004004000080040DC000020E00000209D
:103BA000BC000020BE000020C8000020CC00002087
:103BB000D0000020D40000206666E63F3333D33FB8
:103BC000D8000020F0000020E8000020E4000020E1
:103BD0000000FA450000FAC518010020B0000020DE
:103BE000100100200000DE3FB4000020140100207E
:103BF0000000C43F84000020880000200000204115
:103C0000000020C100010020002C0140000069409C
:103C1000EC00002000001040000096C30000A0400F
:103C20000000FA431C0100209000002094000020B6
:103C30005A00002054000020CDCC1C412801002057
:103C40009A190043000003432C01002048E17A1434
:103C5000AE470F40C8010020244C5600E00200206F
:103C6000EA020020F4020020FE02002008030020E7
:103C70001203002000007A4400007AC425332E325B
:103C8000660000000000A0C10000A0414EE75F49AF
:103C90005F48006803F0C2FD12D25E495C480068CC
:103CA00003F0B2FD0CD25A48006803F065FD0546EA
:103CB0002A460B46AFF23C01574803F09BFF00E059
:103CC00034E70021204603F0A9FD10D853492046CF
:103CD00003F09AFD0BD2204603F04EFD05462A461E
:103CE0000B46AFF268014E4803F084FF00E01DE789
:103CF000002000F059FB0090009803F0FAFC074602
:103D0000484903F0F5FA06464FF08B4103F022FBD9
:103D10000546454903F0E6FA444908600021434856
:103D2000006803F07BFD12D841494048006803F069
:103D30006BFD0CD23D48006803F01EFD05462A4687
:103D40000B46AFF2C8013B4803F054FF00E0EDE63C
:103D500039493A4803F05BFA39A1384803F057FA79
:103D60003849364803F053FA37A1344803F04FFA84
:103D70003649324803F04BFA35A1304803F047FA90
:103D800025492E4803F043FA32A12C4803F03FFAAC
:103D900023492A4803F03BFA30A1284803F037FAB8
:103DA0002449264803F033FA2DA1244803F02FFAC2
:103DB00050212C4803F020FA50222049294803F0D2
:103DC00002FA00BFB2E610B527480068401E264937
:103DD000086026480068012807D10846006820B915
:103DE000FFF724FE1F4800F0BAF91F48006818B911
:103DF00041F288301C49086010BD00201C49086051
:103E00001C49086001201C490860704700803BC5C0
:103E10002C01002000803B45FE02002000401C4693
:103E200008030020CDCC5441CDCC4C3E780000207E
:103E30000000A04112030020E0020020C801002081
:103E40002C525600EA0200202C414300F4020020CC
:103E50002C4759002C435342000000002C565400BC
:103E60002300000018020020200100201C01002077
:103E7000F0000020F40000200001002000B585B013
:103E8000012144F20400FCF753FD4FF40070ADF83B
:103E9000100018208DF8130003208DF8120004A9DB
:103EA000BB48FCF789FA4FF48060ADF8100004209D
:103EB0008DF8130004A9B648FCF77EFA4FF4E13000
:103EC00000900020ADF80400ADF80600ADF8080041
:103ED000ADF80C000C20ADF80A006946AD48FDF7BE
:103EE000DCFC0121AB48FDF764FD05B000BD08B561
:103EF0004FF48060FCF704F927208DF800000420BF
:103F00008DF8010001208DF802008DF8030068464D
:103F1000FCF7FBF808BD00B585B001218804FCF76B
:103F200014FD01210820FCF703FD4FF48060ADF87B
:103F3000100018208DF8130003208DF8120004A93A
:103F40009548FCF739FA4FF40060ADF810000420F2
:103F50008DF8130004A99048FCF72EFAFFF7C7FF6D
:103F60004FF4165000900020ADF80400ADF80600A4
:103F7000ADF80800ADF80C000C20ADF80A00694659
:103F80008648FDF78AFC012240F225518348FDF75F
:103F90001CFD01218148FDF70CFD05B000BD70B589
:103FA00004460D46E1B27B48FDF770FD00BF40219D
:103FB0007848FDF7D9FD0128F9D1204670BDF0B54C
:103FC00003460D461646002729460A2E03D0002038
:103FD00008702846F0BD33B9302001F8010B0020ED
:103FE00008702846F6E7002B03DA2D2001F8010BB4
:103FF0005B4242F210720DE093FBF2F404B937B168
:1040000004F1300001F8010B04FB123301270A20F0
:1040100092FBF0F2002AEFDC002008702846D9E776
:104020000FB470B586B006460CA8019073E00B98EB
:1040300000785C281CD10B98401C0B9000786E28EF
:1040400009D072280FD10D213046FDF71FFD0B98C6
:10405000401C0B900BE00A213046FDF717FD0B9832
:10406000401C0B9003E00B98401C0B9000BF4BE0F2
:104070000B980078252840D10B98401C0B900078B5
:10408000642818D0732833D1019810C801900BE030
:1040900021783046FDF7FAFC00BF40213046FDF79D
:1040A00063FD0028F9D0641C20780028F0D10B981B
:1040B000401C0B9020E0019820C801900A2202A920
:1040C0002846FFF77CFF02AC0BE021783046FDF775
:1040D000DDFC00BF40213046FDF746FD0028F9D049
:1040E000641C20780028F0D10B98401C0B9003E052
:1040F0000B98401C0B9000BF06E00B9810F8011BBA
:104100000B903046FDF7C2FC00BF40213046FDF762
:104110002BFD0028F9D00B980078002887D106B035
:1041200070BC5DF814FB10B5044621461948FDF734
:10413000ADFC00BF40211748FDF716FD0128F9D15D
:1041400010BD10B5044621461448FDF79FFC00BF82
:1041500040211248FDF708FD0128F9D110BD70B5C6
:1041600005462C4603E02078FFF7EBFF641C20781F
:104170000028F8D170BD70B505462C4603E02078C4
:10418000FFF7D1FF641C20780028F8D170BD000033
:104190000008014000380140000C01400048004088
:1041A0007FB504460D460121C802FCF7C1FB41F270
:1041B0008830ADF8080041F61F40ADF8040001203A
:1041C000ADF80A000020ADF8060001A91148FCF77F
:1041D000E7FC012241210F48FDF759F819208DF81D
:1041E000000003208DF8010000208DF8020001205E
:1041F0008DF803006846FBF788FF7FBD10B50121ED
:104200000448FDF7F2FA18B101210248FDF7FEFA61
:1042100010BD0000002C01401FB501213D48FCF7F6
:104220009CF901210920FCF783FB0120ADF80C006B
:1042300010208DF80F0003208DF80E0003A93648DA
:10424000FCF7BAF80220ADF80C0028208DF80F001A
:1042500003A93148FCF7B0F801210846FCF7C2F980
:104260000220019000208DF8080008208DF8090038
:1042700001208DF80A0001A8FBF7BEFF07208DF88A
:10428000000003208DF8010001208DF802008DF858
:1042900003006846FBF739FF1FBD10B50220FCF78D
:1042A00011F848B300211D48FDF76AFA01211B48A7
:1042B000FCF7D2FF01201A49086012E01748FDF709
:1042C00082FA0A2807DB00211448FCF7C5FF00200A
:1042D0001349086005E002210F48FCF700F9104976
:1042E00008600F4800680028E8D100210B48FCF75F
:1042F000B3FF0220FBF7F7FF10BD10B50121064800
:10430000FCF707F90C20FDF7A1FF01210248FCF79B
:1043100002F910BD00023000000C0140002C0140E9
:104320008401002000B587B001214FF40170FCF733
:10433000FFFA4FF40040FCF75FFA0120ADF80400EB
:1043400000208DF8070001A92348FCF735F8234821
:10435000FDF764FC002002908DF80C008DF80D0034
:104360004FF4602004900020059001208DF8180083
:1043700002A91A48FDF779FC01211848FDF7A1FCB4
:104380001648FDF7C0FC00BF1448FDF7C1FC00282B
:10439000FAD11248FDF7C6FC00BF1048FDF7C7FC74
:1043A0000028FAD107B000BD10B50446072301224A
:1043B00021460A48FDF7F1FC01210848FDF7C1FC40
:1043C00000BF02210548FDF72DFE0028F9D0034863
:1043D000FDF74AFD10BD0000000801400024014027
:1043E0000648804706480047FEE7FEE7FEE7FEE78F
:1043F000FEE7FEE7FEE7FEE7FEE7FEE74B210008EB
:10440000ED00000838B50446FB4890F82400C0B120
:1044100014B10220009001E000200090F64A1268DA
:10442000D17BF54A526810786B460122FEF77BF883
:1044300010B14FF0FF3038BD9DF80010EE484174C8
:1044400023E0ED48807A10B94FF0FF30F3E724B154
:10445000E948407C08B10020EDE714B1012000904C
:1044600001E000200090E44A1268D17BE24A5268E1
:1044700010786B460122FEF756F810B14FF0FF306E
:10448000D9E79DF80010DC4841740020D3E738B527
:10449000002419E0D8480068C07AA04204D0D64869
:1044A0000068407DA04200D10CE0D34949680878FB
:1044B0006B4601222146FEF785F810B14FF0FF3020
:1044C00038BD00BF601CC4B2CB4840680079A04230
:1044D000E0DC0020F4E770B504460D46C6480068ED
:1044E000C07AA04204D0C4480068407DA04202D1F6
:1044F0004FF0FF3070BDC04840680079A04202DC38
:104500004FF0FF30F6E7BC49496808782B46012296
:104510002146FEF757F8EDE738B50446B64890F85F
:104520002300A04201D1002038BD14B130200090FA
:1045300001E000200090B048807C20B19DF8000090
:1045400040F002000090AC4890F8220020B19DF8A5
:10455000000040F080000090A74A1268117DA64A32
:10456000526810786B460122FDF7DDFF10B14FF065
:10457000FF30D9E7A04880F823400020D4E738B5C1
:10458000044604F0700010B10120009005E014B161
:104590000020009001E040200090974A1268917C32
:1045A000954A526810786B460122FDF7BCFF20B196
:1045B000002191488172481E38BD9DF8000020F00E
:1045C00040018D4801730020009004F0400020B9A4
:1045D0009DF8000040F00400009004F0200020B995
:1045E0009DF8000040F00200009004F0100020B997
:1045F0009DF8000040F00100009004F0080020B990
:104600009DF8000040F0380000907B4A1268D17C91
:10461000794A526810786B460122FDF784FF20B179
:10462000002175488172481EC6E724B1082C02D0CB
:104630000020FFF771FF704884720021017532205D
:10464000FDF711FE0020B7E738B504466A48807CC4
:10465000A04201D1002038BD002C46D0664A126825
:104660001179654A526810786B460122FDF7AAFF5E
:1046700010B14FF0FF30EEE79DF8000020F0200071
:1046800000905D4A126811795B4A526810786B4657
:104690000122FDF748FF10B14FF0FF30DBE70320A8
:1046A000FDF7E1FD02200090534890F8220020B170
:1046B0009DF8000040F0800000904F4890F82300E3
:1046C00020B19DF8000040F0300000904A4A126886
:1046D000117D494A526810786B460122FDF723FF8D
:1046E000002851D04FF0FF30B5E7434A12681179E6
:1046F000414A526810786B460122FDF763FF10B102
:104700004FF0FF30A7E73C48807A00F0010028B165
:104710009DF8000040F02000009004E09DF80000AB
:1047200020F020000090344A12681179324A526811
:1047300010786B460122FDF7F6FE10B14FF0FF3006
:1047400089E70320FDF78FFD2B4890F8220010B178
:104750008020009001E000200090274890F823007E
:1047600020B19DF8000040F030000090224A12680D
:10477000117D214A526810786B460122FDF7D3FE65
:1047800010B14FF0FF3066E71B488474002062E7E9
:1047900008B51948807A10B94FF0FF3008BD0020E5
:1047A0000090154A1268D17B134A526810786B4604
:1047B0000122FDF7B8FE10B14FF0FF30EEE70E4AD0
:1047C000126851790C4A526810786B460122FDF745
:1047D000AAFE10B14FF0FF30E0E7074A12681179E6
:1047E000054A526810786B460122FDF79CFE28B1FD
:1047F0004FF0FF30D2E7000088010020F74890F822
:104800002400002853D00C200090F44A126811793B
:10481000F24A526810786B460122FDF784FE10B10F
:104820004FF0FF30BAE73220FDF71DFDC0200090A9
:10483000EA48807A00F0010020B19DF8000040F0C5
:1048400020000090E54A12681179E44A5268107815
:104850006B460122FDF767FE10B14FF0FF309DE778
:10486000DE48407C10B10220009001E00020009062
:10487000DA4A1268D17BD94A526810786B46012215
:10488000FDF751FE10B14FF0FF3087E70020009098
:10489000D24A12685179D14A526810786B46012287
:1048A000FDF741FE002855D04FF0FF3076E7042099
:1048B0000090CA4A12681179C84A526810786B464B
:1048C0000122FDF730FE10B14FF0FF3066E7C3481C
:1048D000807C20B9C148807A00F0010010B94020E6
:1048E000009001E060200090BC4A12681179BB4A38
:1048F000526810786B460122FDF715FE10B14FF09B
:10490000FF304BE73220FDF7AEFCB448407C10B1DD
:104910000120009001E000200090B04A1268D17B95
:10492000AE4A526810786B460122FDF7FCFD10B1CB
:104930004FF0FF3032E7A94A12685179A74A52680E
:104940001078A64B10330122FDF7EDFD10B14FF0AA
:10495000FF3023E7002021E770B50446002624F04D
:1049600001049E4890F8240008B1002070BD9B48C7
:10497000807A10B94FF0FF30F8E79848057C807ACC
:104980002040964908740846007CA04202D04FF0AF
:10499000FF3600E0002614B99048007D18B10120D0
:1049A000FFF730FD02E00020FFF72CFD3CB1FFF7E0
:1049B000EFFE20B1894805744FF0FF30D6E730464E
:1049C000D4E738B504468548807A10B94FF0FF30F7
:1049D00038BDBC2C02DB0120009015E0622C02DB0C
:1049E0000220009010E02A2C02DB032000900BE054
:1049F000142C02DB0420009006E00A2C02DB0520C8
:104A0000009001E0062000907448C07A9DF80010E4
:104A1000884201D10020DBE7704A126891786F4A22
:104A2000526810786B460122FDF77DFD10B14FF002
:104A3000FF30CDE79DF800106848C1720020C7E73D
:104A400038B50446282C02DD4FF0FF3038BDDCB904
:104A50000020FFF761FD00208DF8000007208DF891
:104A600001005E4A1268917C5C4A526810786B467D
:104A70000222FDF758FD10B14FF0FF30E6E70021AC
:104A8000564801750020E1E70120FFF745FD202091
:104A90008DF80000012C06D100208DF801000520C2
:104AA000FFF78FFF17E0052C06DC01208DF80100D1
:104AB0000520FFF786FF0EE0142C06DC02208DF89F
:104AC00001000A20FFF77DFF05E003208DF80100BB
:104AD0001420FFF776FF9DF80100072101EB8010FD
:104AE000C0B28DF801003D4A1268917C3B4A526881
:104AF00010786B460222FDF716FD10B14FF0FF3023
:104B0000A4E7082135488172002101730121017554
:104B10000020FFF721FF002098E738B504462F4812
:104B2000807A10B94FF0FF3038BD2C4890F824003F
:104B300010B14FF0FF30F7E72848007D50B134B195
:104B4000282C04DCE0B2FFF77BFF0020ECE700201C
:104B5000FFF776FF042C01DA042404E0B4F57A7F31
:104B600001DD4FF47A744FF47A7090FBF4F0401E3C
:104B7000C0B20090194A12685178184A52681078E9
:104B80006B460122FDF7CFFC10B14FF0FF30CBE7B1
:104B90009DF80000401C4FF47A7191FBF0F081B257
:104BA0000E48C1810146C9894810FFF70AFF00205D
:104BB000BAE738B504460948807A10B94FF0FF309B
:104BC00038BD022C06D0042C0AD0082C0BD0102C97
:104BD0000FD10BE0002000900EE0000088010020C3
:104BE0000820009008E01020009005E018200090B8
:104BF00002E04FF0FF30E3E700BFF848407A9DF84D
:104C00000010B0EBE10F01D10020D9E7F34A1268A0
:104C1000D179F24A526810786B460122FDF783FC85
:104C200010B14FF0FF30CBE79DF80000C110EB480A
:104C300041720020C4E738B50446E848807A10B9CC
:104C40004FF0FF3038BDFA2C09D0B4F5FA7F09D007
:104C5000B4F57A7F09D0B4F5FA6F0CD108E00020E2
:104C600000900BE00820009008E01020009005E084
:104C70001820009002E04FF0FF30E3E700BFD74874
:104C8000007A9DF80010B0EBE10F01D10020D9E7C8
:104C9000D24A12689179D14A526810786B46012243
:104CA000FDF741FC10B14FF0FF30CBE79DF800005D
:104CB000C010CA4908720020C4E71CB580208DF8D6
:104CC0000000C64A1268917CC44A526810786B464C
:104CD0000122FDF728FC10B14FF0FF301CBD64200D
:104CE000FDF7C1FA00208DF80000BC4A1268917CE3
:104CF000BA4A526810786B460122FDF714FC10B1D5
:104D00004FF0FF30EAE7B54A1268917DB34A526826
:104D100010786B460622FDF755FC10B14FF0FF30BE
:104D2000DCE79DF80500C007400F9DF8031001F077
:104D3000010140EA41009DF8011001F0010140EA43
:104D400001048CB1012C03D10121A448C17430E0CD
:104D5000022C03D10021A148C1742AE0A0A0FFF7D2
:104D60000AFA4FF0FF30B9E79C4A1268D1789B4AA3
:104D7000526810786B460122FDF724FC10B14FF009
:104D8000FF30ABE79DF8000000F00F042CB99E48FF
:104D9000FFF7F1F94FF0FF30A0E7042C06D19BA0FC
:104DA000FFF7E9F901218D48C17402E000218B4829
:104DB000C174FF2189488172FF2088490872FF2150
:104DC00086484172C1724FF6FF71C181FF210174A3
:104DD00081740121017380F82210002180F82310D2
:104DE000417501751630016041608160163880F8A8
:104DF000241080F82510C1844FF4FA60FFF71BFFE0
:104E000010B14FF0FF3069E70220FFF7D2FE10B17A
:104E10004FF0FF3062E72A20FFF7D3FD10B14FF0CB
:104E2000FF305BE73220FFF778FE10B14FF0FF3024
:104E300054E70020FFF790FD10B14FF0FF304DE731
:104E40000020FFF701FC10B14FF0FF3046E70020D3
:104E5000FFF795FB002041E77CB504460D465F480F
:104E6000807A00F0700010B94FF0FF307CBD5B4AD3
:104E70001268117B594A526810786B460622FDF77A
:104E8000A1FB10B14FF0FF30F0E79DF801009DF855
:104E9000001040EA012000B220809DF803009DF838
:104EA000021040EA012000B260809DF805009DF8E4
:104EB000041040EA012000B2A08015B12846FDF799
:104EC000DEF90020D2E77CB504460D464348807ADF
:104ED00000F0080010B94FF0FF307CBD3F4A126867
:104EE000517B3E4A526810786B460622FDF76AFBFA
:104EF00010B14FF0FF30F0E79DF801009DF8001071
:104F000040EA012000B220809DF803009DF80210C5
:104F100040EA012000B260809DF805009DF8041071
:104F200040EA012000B2A08015B12846FDF7A7F99C
:104F30000020D2E72DE9FE4F05460C462748807A2F
:104F400018B94FF0FF30BDE8FE8F244A1268917BFC
:104F5000224A5268107802AB0222FDF733FB10B1EF
:104F60004FF0FF30EFE79DF809009DF8081040EA88
:104F7000012006B214B12046FDF781F917494968AE
:104F8000C88802F0B6FB154901904968B1F90800DC
:104F900002F0A6FB8346304602F0A2FB5946009081
:104FA00002F0A0F98246019902F0D4F981461F4926
:104FB00002F046F980464FF08F4102F099F907461A
:104FC00002F0ADFB28600020BDE710B588B00446B4
:104FD0001CB94FF0FF3008B010BD29E08801002057
:104FE000556E737570706F7274656420736F66743C
:104FF000776172652070726F647563742072657674
:105000002025642E0A000000B099000848616C66F3
:105010002073656E73697469766974792070617242
:105020007420666F756E642E0A00000000000C424A
:10503000206830B9606820B9A06810B9002008B0B5
:1050400010BDFA494968087806AB03221146FDF7FE
:10505000B9FA10B14FF0FF30F1E79DF818000821C0
:1050600001EB201000F00F00ADF800009DF81900D2
:1050700001EB201000F00F00ADF802009DF81A00BF
:1050800001EB201000F00F00ADF804002068410093
:10509000BDF90000403091FBF0F000B2ADF8100017
:1050A00060684100BDF90200403091FBF0F000B2B1
:1050B000ADF81200A0684100BDF90400403091FB3A
:1050C000F0F000B2ADF81400D8494968087806AB92
:1050D00006221146FDF776FA10B14FF0FF30AEE729
:1050E0009DF819009DF8181040EA012000B2ADF8B3
:1050F00008009DF81B009DF81A1040EA012000B23C
:10510000ADF80A009DF81D009DF81C1040EA012032
:1051100000B2ADF80C00BDF81000BDF8081008444E
:1051200000B2ADF81000BDF81200BDF80A10084436
:1051300000B2ADF81200BDF81400BDF80C10084420
:1051400000B2ADF81400BDF81000000A8DF8180088
:10515000BDF81000C0B28DF81900BDF81200000AA9
:105160008DF81A00BDF81200C0B28DF81B00BDF812
:105170001400000A8DF81C00BDF81400C0B28DF8B0
:105180001D00AA494968087806AB06221146FDF7BA
:10519000CAF910B14FF0FF3051E700204FE7014648
:1051A000A248007A30B1012807D0022809D003288C
:1051B0000FD10AE0FA2008800EE04FF4FA70088060
:1051C0000AE04FF47A70088006E04FF4FA60088035
:1051D00002E00020088000BF00BF002070470146A9
:1051E0009248407A30B1012807D0022808D003281D
:1051F0000CD108E0022008700BE00420087008E0E1
:105200000820087005E01020087002E04FF0FF3021
:10521000704700BF8548C07C18B108784006000E72
:1052200008700020F4E701468048C07A082817D2A9
:10523000DFE800F01704070A0D101318BC200880DF
:1052400013E06220088010E02A2008800DE014207E
:1052500008800AE00A20088007E00520088004E0B2
:1052600000BF00BF0020088000BF00BF00207047C3
:1052700001466E4890F8240010B14FF0FF3070479F
:105280006A48C08908800020F9E7014600200880AC
:10529000401E704701464FF0FF307047014663489B
:1052A000007A30B1012807D0022808D003280CD199
:1052B00008E05F4808600BE05E48086008E05E4870
:1052C000086005E05D48086002E04FF0FF3070477D
:1052D00000BF0020FBE701465448407A30B1012866
:1052E00008D002280AD0032810D10BE04FF48040E8
:1052F00008800EE041F69C7008800AE04FF4805070
:10530000088006E04FF40060088002E04FF0FF30B4
:10531000704700BF4548C07C10B108884010088025
:105320000020F5E701464148007C087000207047E6
:1053300001463E48807A10B10120087001E000204B
:1053400008700020704738B504463848807A10B994
:105350004FF0FF3038BD354A1268117C334A52682D
:1053600010786B460222FDF72DF910B14FF0FF3097
:10537000F0E79DF801009DF8001040EA012000B21E
:1053800020800020E6E72DE9FE4F0746884692463A
:105390001D46DDF830B000260024244890F8240093
:1053A00010B1601EBDE8FE8F002028701F48807A73
:1053B00010B94FF0FF30F5E71C48007C10B94FF0F2
:1053C000FF30EFE71948007C00F0400008B1B01C46
:1053D000C6B21648007C00F0200008B1B01CC6B26E
:1053E0001248007C00F0100008B1B01CC6B20F4893
:1053F000007C00F0080008B1B01DC6B20B4A12686C
:10540000917A0A4A526810786B460222FDF7DAF860
:1054100010B14FF0FF30C5E79DF801009DF8001076
:1054200040EA0129B1450BDA0020BBE788010020E2
:10543000000003430000834233330342333383418C
:10544000FC4840684088B9EB600F17DDF94A1268E4
:10545000517CF84A526810786B460122FDF7B2F889
:1054600010B14FF0FF309DE79DF8000000F01000F4
:1054700020B1FFF78DF96FF0010093E75046FCF77C
:10548000FEFEEC4A1268D17AEA4A526810786B46FE
:105490003246FDF797F810B14FF0FF3082E799FBE5
:1054A000F6F0401E8BF8000000202870B4422AD08D
:1054B000E048007C00F0080028B3601C1DF80000E4
:1054C0001DF8041040EA012000B2A8F80000E01C1A
:1054D0001DF80010A01C1DF8000041EA002000B2D9
:1054E000A8F80200601D1DF80010201D1DF8000026
:1054F00041EA002000B2A8F80400287840F0080033
:105500002870A01D84B2B44213D0CA48007C00F0B9
:10551000400070B1601C1DF800001DF8041040EA46
:10552000012000B23880287840F040002870A01C8C
:1055300084B2B44213D0BF48007C00F0200070B1A8
:10554000601C1DF800001DF8041040EA012000B2A4
:105550007880287840F020002870A01C84B2B442E3
:1055600013D0B448007C00F0100070B1601C1DF82E
:1055700000001DF8041040EA012000B2B88028782D
:1055800040F010002870A01C84B200200AE7F8B593
:1055900004460F461646A74890F8240010B94FF06D
:1055A000FF30F8BDA348807A10B94FF0FF30F8E71C
:1055B000A04A1268917A9F4A526810786B4602227C
:1055C000FDF700F810B14FF0FF30EAE79DF8010059
:1055D0009DF8001040EA0125A54203DA0020307052
:1055E000401EDEE7934840684088B5EB600F17DD4A
:1055F000904A1268517C8F4A526810786B4601229B
:10560000FCF7E0FF10B14FF0FF30CAE79DF8000053
:1056100000F0100020B1FFF7BBF86FF00100C0E709
:10562000E2B2844B1B68D97A824B5B6818783B46A0
:10563000FCF7C8FF10B14FF0FF30B2E795FBF4F074
:10564000401E30700020ACE701467A4880F82210F6
:10565000002070477CB5054676494968087801AB5B
:1056600004220D21FCF7AEFF08B107207CBD9DF898
:105670000700C0F301109DF8041001F0E00140EABA
:10568000E1008DF800009DF80700C0F381009DF84F
:10569000051001F0E00140EAE1008DF801009DF8FD
:1056A000070000F003009DF8061001F0E00140EA59
:1056B000E1008DF8020000241CE01DF8040018B978
:1056C000002045F8240013E05B4845F8240006E07C
:1056D00055F82400594901F00BFE45F824001DF847
:1056E0000400401EC0B20DF804000028F0D100BF35
:1056F000601CC4B2032CE0DB0020B7E72DE9FE4FAD
:1057000006460F4600256846FFF7A4FF002442E046
:1057100056F8240057F82410A0EB010ABAF1000F44
:1057200001DB514601E0CAF10001084601F0D8FF53
:1057300083464FF08F4101F00DFE80465DF8240056
:10574000002102F061F816D05DF82410404601F007
:1057500001FE82464FF07E5101F0C4FD814629F0E2
:10576000004A3748416A504602F058F812D20120E8
:10577000A04005430EE03248C169404602F044F8BB
:1057800005D32F48016A404602F048F802D20120B2
:10579000A0400543641C032CBADB2846BDE8FE8FFD
:1057A0002DE9FC5F06460F46002522494968087826
:1057B00001AB03220D21FCF705FF10B10720BDE866
:1057C000FC9F9DF8040000F01F008DF804009DF878
:1057D000050000F01F008DF805009DF8060000F0A0
:1057E0001F008DF80600002462E056F8240057F8E8
:1057F0002410A0EB010BBBF1000F01DB594601E0C7
:10580000CBF10001084601F06BFF4FF08F41009093
:1058100001F0A0FD814601A8005DC0B308490868F9
:1058200001F067FF83465946064801F093FD804624
:105830000FE00000880100207B14AE3E1D5A843F1B
:10584000A08C000800B04C45FE49404601F050FDD8
:10585000804601A8005D401EC0B201A9085500287D
:10586000F2D14146484601F075FD83464FF07E5126
:1058700001F038FD82462AF0004BF3488169584612
:1058800001F0CCFF13D20120A04005430FE0FFE759
:10589000ED480169484601F0B7FF05D3EA48416980
:1058A000484601F0BBFF02D20120A0400543641C22
:1058B000032C9ADB284682E72DE9F04F87B0054696
:1058C0000C46914601208DF8100000208DF8110043
:1058D000DE4A1268917CDD4A5268107804AB0222DD
:1058E000FCF721FE20B14FF0FF3007B0BDE8F08F8C
:1058F000C820FCF7B8FC00208DF81000D34A1268CD
:10590000D17BD24A5268107804AB0122FCF70BFE1F
:1059100010B14FF0FF30E8E7CC4A12685179CB4A1A
:105920005268107804AB0122FCF7FDFD10B14FF076
:10593000FF30DAE7C54A1268917CC44A5268107891
:1059400004AB0122FCF7EFFD10B14FF0FF30CCE7C4
:10595000BE4A1268D17DBD4A5268107804AB01225C
:10596000FCF7E1FD10B14FF0FF30BEE7B74A126817
:105970001179B64A5268107804AB0122FCF7D3FDC6
:1059800010B14FF0FF30B0E70C208DF81000AF4A97
:1059900012681179AD4A5268107804AB0122FCF705
:1059A000C2FD10B14FF0FF309FE70F20FCF75BFC0A
:1059B000A648806A407A8DF81000A44A126891784F
:1059C000A24A5268107804AB0122FCF7ACFD10B17A
:1059D0004FF0FF3089E79D48806A007A8DF810000B
:1059E0009A4A12685178994A5268107804AB012299
:1059F000FCF799FD10B14FF0FF3076E7B9F1000FD9
:105A000007D09248806A807A40F0E0008DF810005C
:105A100004E08E48806A807A8DF810008B4A126804
:105A200091798A4A5268107804AB0122FCF77BFD19
:105A300010B14FF0FF3058E7B9F1000F07D083489D
:105A4000806AC07A40F0E0008DF8100003E07E48E4
:105A5000C07A8DF810007D4A1268D1797B4A52686D
:105A6000107804AB0122FCF75EFD10B14FF0FF305F
:105A70003BE7B9F1000F02D0C820FCF7F4FB40204F
:105A80008DF81000714A12681179704A52681078C6
:105A900004AB0122FCF747FD10B14FF0FF3024E7C3
:105AA00078208DF81000694A12685179674A526867
:105AB000107804AB0122FCF736FD10B14FF0FF3037
:105AC00013E761498889FCF7CEFB00208DF81000B0
:105AD0005E4A126851795D4A5268107804AB01221F
