:020000040800F2
:10000000A0070020B14E0008793200087B320008BA
:100010007F320008833200088732000800000000A9
:100020000000000000000000000000008B3200080B
:100030008D320008000000008F3200089132000865
:10004000CB4E0008CB4E0008CB4E0008CB4E00082C
:10005000CB4E0008CB4E0008CB4E00086B4D00087D
:10006000CB4E0008CB4E0008CB4E0008CB4E00080C
:10007000CB4E0008CB4E0008CB4E0008CB4E0008FC
:10008000CB4E0008CB4E0008CB4E0008CB4E0008EC
:10009000CB4E0008CB4E0008CB4E0008CB4E0008DC
:1000A000CB4E0008CD4C0008CB4E0008CB4E0008CC
:1000B000CB4E00082529000835290008CB4E000842
:1000C000CB4E0008CB4E0008CB4E0008CB4E0008AC
:1000D000CB4E0008CB4E0008CB4E0008CB4E00089C
:1000E000CB4E0008CB4E0008CB4E0008DFF80CD0FA
:1000F00008F04AFA0048004781260008A0070020BF
:1001000031490143314A1160704770B50021002325
:100110000F22C47804B32D4C246804F4E064C4F5C1
:10012000E064210AC1F10403CA40447804FA03F1EF
:100130008478144021430901254C0678A1550478A0
:1001400004F01F050124AC4005786D11AD0005F1E8
:10015000E025C5F8004109E0047804F01F050124FA
:10016000AC401C4D0678761145F8264070BD1A4A01
:100170000A400243154B1B1F1A60704739B1134ADE
:10018000121D12680243114B1B1D1A6006E00F4A34
:10019000121D126882430D4B1B1D1A607047042804
:1001A00008D14FF0E021096941F004014FF0E0224D
:1001B000116107E04FF0E021096921F004014FF0DF
:1001C000E0221161704700000000FA050CED00E02C
:1001D00000E400E080E100E080FFFF1F00204449D0
:1001E0000860091D0860091D0860091D0860414874
:1001F0003F4914310860704700213D498279002A47
:100200003AD00A46126803689A430B461A600A1DE0
:10021000126803689A430B1D1A60027911440A6838
:1002200003681A430A60324A0832126803689A4324
:100230002F4B08331A601A1D126803689A432C4B1F
:100240000C331A604279102A0ED11A1F1268036803
:100250001A43274B08331A601A1D126803681A43A1
:10026000234B0C331A600DE02149427911440A688E
:1002700003681A430A6005E0027911440A680368BA
:100280009A430A6070470021016001710C2141719D
:100290000021817170471649103109680143144AE1
:1002A00010321160704701460020114A1432126862
:1002B0000A400AB1012000E0002070470C491431C7
:1002C00008607047014600200022094B1B6803EAC2
:1002D0000102074B14331B680B4013B10AB1012014
:1002E00000E00020704702491431086070470000A8
:1002F00000040140FFFF0F0010B50446CC488442C3
:1003000008D10121042000F02DFB0021042000F081
:1003100029FB46E0C748844208D10121082000F0AB
:1003200021FB0021082000F01DFB3AE0C248844276
:1003300008D10121102000F015FB0021102000F051
:1003400011FB2EE0BD48844208D10121202000F09D
:1003500009FB0021202000F005FB22E0B848844280
:1003600008D10121402000F0FDFA0021402000F0DA
:10037000F9FA16E0B348844208D10121802000F048
:10038000F1FA0021802000F0EDFA0AE0AE48844244
:1003900007D10121801500F0E5FA0021A01500F039
:1003A000E1FA10BD10B50121084600F0DBFA00218A
:1003B000012000F0D7FA10BD2DE9F04102460025DA
:1003C0000026002000230024002791F803C00CF031
:1003D0000F0591F803C00CF0100CBCF1000F03D016
:1003E00091F802C04CEA050591F800C0BCF1000F7D
:1003F00031D0146800202BE04FF0010C0CFA00F310
:10040000B1F800C00CEA03069E4220D183004FF0F1
:100410000F0C0CFA03F7BC4305FA03FC4CEA040486
:1004200091F803C0BCF1280F06D14FF0010C0CFA73
:1004300000FCC2F814C00AE091F803C0BCF1480FF8
:1004400005D14FF0010C0CFA00FCC2F810C0401CA2
:100450000828D1D31460B1F800C0BCF1FF0F34DD1F
:10046000546800202EE000F1080C4FF0010808FA53
:100470000CF3B1F800C00CEA03069E4221D18300C0
:100480004FF00F0C0CFA03F7BC4305FA03FC4CEADF
:10049000040491F803C0BCF1280F05D100F1080C49
:1004A00008FA0CF8C2F8148091F803C0BCF1480FA8
:1004B00007D100F1080C4FF0010808FA0CF8C2F857
:1004C0001080401C0828CED35460BDE8F0814FF660
:1004D000FF710180022181700421C17070470246C2
:1004E000002093680B400BB1012000E00020704712
:1004F0000146886880B2704702460020D3680B40EE
:100500000BB1012000E0002070470146C86880B2AE
:10051000704701617047416170470AB1016100E0B5
:1005200041617047C16070474FF480320A43826175
:100530008161826182698269704702460020434B73
:1005400018684FF68073184040EA021008433F4B8A
:10055000186070473E49C8617047F0B50A460023ED
:1005600000240021002500F00046B6F1004F02D122
:10057000364EF16901E0354E7168C0F3034583B230
:1005800000F44016B6F5401F08D121F070612F4EDF
:10059000766826F070662D4F7E6012E000F48016BB
:1005A000B6F5801F06D1032606FA05F4A14341F0F3
:1005B000706106E0460D360103FA06F6B14341F0DC
:1005C000706122B1460D360103FA06F6314300F0A0
:1005D0000046B6F1004F02D11C4EF16101E01B4E06
:1005E0007160F0BD30B500228B071C0F0F2303FA9A
:1005F00004F2164B08338C1053F824309343134CF9
:1006000008348D1044F8253023468C1053F82430DC
:100610008C07240F00FA04F423430C4C08348D108B
:1006200044F8253030BD0A49DC31086070470000CD
:1006300000080140000C014000100140001401407E
:1006400000180140001C0140002001400000014052
:1006500000002042DF48006840F00100DD490860EA
:1006600008464068DC490840DA49486008460068A6
:10067000DA490840D74908600846006820F480201D
:1006800008600846406820F4FE0048604FF41F00F0
:1006900088607047CF49096821F48031CD4A1160E4
:1006A0001146096821F480211160B0F5803F03D024
:1006B000B0F5802F0ED106E0C649096841F48031BB
:1006C000C44A116007E0C349096841F4A021C14A46
:1006D000116000E000BF00BF704710B50146002266
:1006E000002300204A11012A02D1BA4C236806E0F7
:1006F000022A02D1B74C236A01E0B64C636A01F0CA
:100700001F02012494401C400CB1012000E0002095
:1007100010BD38B5002000900024002500BF312016
:10072000FFF7DBFF05460098401C00900098B0F5ED
:10073000A06F01D0002DF2D03120FFF7CEFF08B11D
:10074000012400E00024204638BD01460020A14AD3
:10075000106820F0F80040EAC10010607047A0491E
:1007600008607047024600209A4B586820F47C10BD
:1007700042EA01031843974B58607047984908664E
:10078000704701460020934A506820F00300084358
:10079000506070478F48406800F00C007047014679
:1007A00000208C4A506820F0F000084350607047E9
:1007B00001460020874A506820F4E06008435060FA
:1007C000704701460020834A506820F4605040EA98
:1007D000C1005060704729B17E4A527A02437D4B76
:1007E0005A7204E07B4A527A82437A4B5A727047BB
:1007F0007B49D8310860704701460020754A50682F
:1008000020F440400843506070470021714A203274
:100810001170704A82F82010012802D004280AD1F1
:1008200004E001216B4A2032117005E00521694A7C
:100830002032117000E000BF00BF704769490860B6
:1008400070476449096A0143624A11627047654909
:1008500044390860704730B500210022002400238D
:100860005C4D6D6805F00C0121B1042905D0082903
:1008700023D105E05C4D056022E05B4D05601FE083
:10088000544D6D6805F47012524D6D6805F4803456
:10089000022505EB92421CB9544D554305600BE00F
:1008A0004C4D6D6805F400351DB1504D5543056044
:1008B00002E04D4D5543056002E04B4D056000BF21
:1008C00000BF444D6D6805F0F0010909484D6B5CAF
:1008D0000568DD4045603F4D6D6805F4E061090A3B
:1008E000434D6B5C4568DD4085603A4D6D6805F4AD
:1008F0006051C90A3E4D6B5C4568DD40C560354DB1
:100900006D6805F44041890B3A4D6B5CC568B5FBD9
:10091000F3F5056130BD29B12E4A526902432D4BD2
:100920005A6104E02B4A526982432A4B5A6170474C
:1009300029B1284A92690243264B9A6104E0254A6C
:1009400092698243234B9A61704729B1214AD26947
:100950000243204BDA6104E01E4AD26982431D4BF8
:10096000DA61704729B11B4AD2680243194BDA6039
:1009700004E0184AD2688243164BDA60704729B106
:10098000144A12690243134B1A6104E0114A1269B6
:100990008243104B1A617047124940390860704712
:1009A0000F49C86470470B49C87170470948406ACD
:1009B00040F0807007494862704701460020054AB0
:1009C00092680A400AB1012000E000207047014906
:1009D00088727047001002400000FFF8FFFFF6FE2B
:1009E000000042428004424200127A0000093D00A9
:1009F000000000201000002010B50446FE4884428C
:100A000008D10121C014FFF7ADFF0021E014FFF76A
:100A1000A9FFC4E0B4F1804F08D101210846FFF7D7
:100A2000AEFF00210120FFF7AAFFB8E0F34884429F
:100A300008D101210220FFF7A2FF00210220FFF7C9
:100A40009EFFACE0EE48844208D101210420FFF76C
:100A500096FF00210420FFF792FFA0E0E9488442BE
:100A600008D101210820FFF78AFF00210820FFF7A5
:100A700086FF94E0E448844208D101211020FFF76A
:100A80007EFF00211020FFF77AFF88E0DF488442D4
:100A900008D101212020FFF772FF00212020FFF75D
:100AA0006EFF7CE0DA48844208D101214014FFF750
:100AB00059FF00216014FFF755FF70E0D5488442CC
:100AC00009D10121C804FFF74DFF00214FF4002098
:100AD000FFF748FF63E0D048844209D101210805AF
:100AE000FFF740FF00214FF48010FFF73BFF56E077
:100AF000CA48844209D101214805FFF733FF00218C
:100B00004FF40010FFF72EFF49E0C548844208D19A
:100B100001214020FFF733FF00214020FFF72FFF86
:100B20003DE0C048844208D101218020FFF727FF23
:100B300000218020FFF723FF31E0BB48844208D129
:100B400001218015FFF71BFF0021A015FFF717FFFC
:100B500025E0B648844209D101210804FFF702FFCD
:100B600000214FF48030FFF7FDFE18E0B0488442CA
:100B700009D101214804FFF7F5FE00214FF40030B0
:100B8000FFF7F0FE0BE0AB48844208D10121880456
:100B9000FFF7E8FE00214FF48020FFF7E3FE10BDD1
:100BA00000220288944B98420ED0994B98420BD069
:100BB000B0F1804F08D0914B984205D0904B9842AD
:100BC00002D0904B984204D14FF68F731A404B8855
:100BD0001A438D4B984207D08C4B984204D04FF665
:100BE000FF431A40CB881A4302808B8883850B8889
:100BF0000385814B98420BD0854B984208D08B4B94
:100C0000984205D08A4B984202D08A4B984201D133
:100C10000B7A038601238382704770B5002400227B
:100C20000023058C4FF6FE7635400584028C8388C0
:100C3000048B4FF68F752C40B51E2C400D882C432D
:100C4000751E2A400D892A434D882A436A4DA842C1
:100C50000BD06F4DA84208D0744DA84205D0744DFA
:100C6000A84202D0734DA84213D14FF6F7752A401F
:100C70004D892A434FF6FB752A408D882A434FF64B
:100C8000FF652B404FF6FF552B408D892B43CD89B7
:100C90002B4383800483CD888586028470BD70B524
:100CA000002400220023058C4FF6EF7635400584A2
:100CB000028C8388048B48F6FF752C404FF6FF4565
:100CC0002C400D884FF6FF7606EA05252C434FF69B
:100CD000DF752A400D8906EA05152A434D8806EA84
:100CE00005152A43444DA84202D0494DA8421DD1C2
:100CF0004FF67F752A404D894FF6FF7606EA0515B7
:100D00002A434FF6BF752A408D8806EA05152A4307
:100D10004FF6FF352B404FF2FF752B408D8906EAC9
:100D200085052B43CD8906EA85052B438380048303
:100D3000CD880587028470BD70B500240022002391
:100D4000058C4FF6FF6635400584028C8388848BC2
:100D50004FF68F752C404FF6FC752C400D882C43B8
:100D60004FF6FF552A400D894FF6FF7606EA052516
:100D70002A434D8806EA05252A431F4DA84202D082
:100D8000234DA8421DD14FF2FF752A404D894FF6E1
:100D9000FF7606EA05252A434FF6FF352A408D885F
:100DA00006EA05252A434EF6FF752B404DF6FF75E2
:100DB0002B408D8906EA05152B43CD8906EA0515DA
:100DC0002B4383808483CD888587028470BD70B572
:100DD000002200230024058C4EF6FF763540058462
:100DE000038C8488828B48F6FF752A404FF6FF45B6
:100DF0002A400D8820E00000002C01400004004043
:100E000000080040000C00400010004000140040AA
:100E100000340140004C01400050014000540140AA
:100E200000180040001C004000200040004001402D
:100E300000440140004801404FF6FF7606EA0525D0
:100E40002A434DF6FF752B400D8906EA05352B43E5
:100E50004D8806EA05352B43FA4DA84202D0FA4DDB
:100E6000A84208D14BF6FF752C408D894FF6FF76CE
:100E700006EA85152C4384808283CD88A0F84050F3
:100E8000038470BD828B4FF2FF331A408283828BC2
:100E90004FF6FF7303EA01231A4382837047F0B5CC
:100EA0000C461546002200210026078C4EF6FF7CDA
:100EB00007EA0C070784828B018C4FF6FF7707EA5D
:100EC000043640F6FF473A404FF6FF7707EA05271A
:100ED0003A434FF6FF7707EA03373A43D94FB84210
:100EE0000ED0D94FB8420BD0B0F1804F08D0D74FB9
:100EF000B84205D0D64FB84202D0D64FB84206D13C
:100F00004DF6FF77394046F48057394305E047F600
:100F1000FF57394044F48057394382830184F0BD40
:100F2000828B4FF6F3731A408283828B0A4382834B
:100F30007047F0B50C461546002200210026078CAC
:100F40004FF6FF6C07EA0C070784828B018C4FF683
:100F5000FF7707EA04264FF60C773A404FF6FF7703
:100F600007EA03172F433A43B64FB8420ED0B64FA5
:100F7000B8420BD0B0F1804F08D0B44FB84205D082
:100F8000B34FB84202D0B34FB84206D14FF6FF5725
:100F9000394046F48077394305E04FF2FF57394036
:100FA00044F48077394382830184F0BD028B4FF291
:100FB000FF331A400283028B4FF6FF7303EA0123CB
:100FC0001A4302837047F0B50C46154600220021F3
:100FD0000026078C4FF6EF7C07EA0C070784028B8C
:100FE000018C4FF6FF7707EA041640F6FF473A40B8
:100FF0004FF6FF7707EA03373A434FF6FF7707EAE2
:1010000005273A438F4FB8420ED08F4FB8420BD0CE
:10101000B0F1804F08D08D4FB84205D08C4FB84208
:1010200002D08C4FB84206D14FF6DF77394046F0F8
:101030001007394305E04FF65F77394044F0100759
:10104000394302830184F0BD028B4FF6F3731A40DB
:101050000283028B0A4302837047F0B50C461546A3
:1010600000220021068C4FF6FE773E400684028B5C
:10107000018C4FF60C7632407E1C06EA03162E4396
:101080003243704EB0420ED06F4EB0420BD0B0F132
:10109000804F08D06D4EB04205D06D4EB04202D0A8
:1010A0006C4EB04206D14FF6FD76314044F0010659
:1010B000314305E04FF6F576314044F00106314307
:1010C00002830184F0BD70B505460C465D4885423B
:1010D0000ED05D4885420BD0B5F1804F08D05B48FB
:1010E000854205D05A48854202D05A48854200D1EF
:1010F00000E000BF208850B92389A2886188284673
:10110000FFF7ABFFE1882846FFF79EFF25E0208828
:1011100004280AD12389A28861882846FFF753FF53
:10112000E1882846FFF742FF17E0208808280AD107
:101130002389A28861882846FFF7FBFEE1882846BC
:10114000FFF7EEFE09E02389A28861882846FFF7B1
:10115000A6FEE1882846FFF795FE70BD2DE9F04117
:1011600005460C4600260127608808B9022600E0E3
:101170000026A088012801D1022700E0012720884D
:10118000A0B92389A28861882846FFF766FFE18815
:101190002846FFF759FF23893A4631462846FFF78C
:1011A00012FFE1882846FFF701FF13E02389A28898
:1011B00061882846FFF707FFE1882846FFF7F6FE1B
:1011C00023893A4631462846FFF747FFE1882846FB
:1011D000FFF73AFFBDE8F0810A884B881A438B88F5
:1011E0001A43CB881A430B891A434B891A438B89BC
:1011F0001A43A0F8442070474FF6FF718180002108
:101200000180C180418001727047002101804180CE
:101210008180C180018141818181C181704700212C
:1012200001804180012181800021C18001817047BE
:101230000021018041808180C180018141818181C3
:1012400070470000002C01400034014000040040C1
:1012500000080040000C004021B1028842F0010269
:10126000028004E002884FF6FE731A400280704745
:1012700031B1B0F8442042F40042A0F8442005E027
:10128000B0F84420C2F30E02A0F8442070471AB10F
:1012900083890B43838102E083898B438381704779
:1012A0008182704741EA0203A0F8483070471AB1C2
:1012B00083890B43838102E083898B438381704759
:1012C00001894FF6F8721140018170470A460021EA
:1012D00001894FF68F73194011430181704730B572
:1012E00004460D4629462046FFF7F0FF208940F0CE
:1012F0000700208130BD2DE9F04104460D46164619
:101300001F46602D06D13B46012231462046FFF79D
:101310005AFE05E03B46012231462046FFF79DFE7E
:1013200029462046FFF7D2FF208940F007002081A0
:10133000BDE8F08130B50C4600210189C9B24FF6F5
:10134000FF7505EA0325154325432943018130BD77
:101350002DE9F04105460E461746984600244346BF
:101360003A4631462846FFF7E5FF2C894FF6F870DC
:10137000044044F007044FF68F70044044F07004BA
:101380002C81BDE8F081F0B504460D4616461F4697
:101390003B46324629462046FFF7CCFF208940F4E1
:1013A00080402081F0BD0185828270470A4600217D
:1013B00001884FF68F731940114301807047F0B5D3
:1013C0000C4615461E460021002200230189028B8F
:1013D000038C4FF6F877394021434FF6FC473A40EB
:1013E00040F201173A434FF6DD773B404FF6FF7767
:1013F00007EA06172F433B43018102830384F0BDB4
:101400000A460021018B4FF68F7319401143018367
:1014100070470A460021018B48F6FF7319404FF6CA
:10142000FF7303EA02231943018370470A46002130
:10143000818B4FF68F7319401143818370470A46A1
:101440000021818B48F6FF7319404FF6FF7303EAC2
:10145000022319438183704721B1028842F0800240
:10146000028004E002884FF67F731A4002807047C2
:1014700021B1828842F00402828004E082884FF623
:10148000FB731A408280704721B1828842F00802C3
:10149000828004E082884FF6F7731A40828070479A
:1014A00021B1828842F00102828004E082884FF6F6
:1014B000FE731A40828070470A460021018B4FF666
:1014C000F77319401143018370470A460021018BCD
:1014D0004FF2FF7319404FF6FF7303EA02231943DB
:1014E000018370470A460021818B4FF6F77319403C
:1014F0001143818370470A460021818B4FF2FF73AD
:1015000019404FF6FF7303EA0223194381837047A2
:101510000A460021018B4FF6FB73194011430183EA
:1015200070470A460021018B4FF6FF3319404FF6F2
:10153000FF7303EA02231943018370470A4600211F
:10154000818B4FF6FB7319401143818370470A4624
:101550000021818B4FF6FF3319404FF6FF7303EAEA
:1015600002231943818370470A460021018B4FF6FD
:101570007F7319401143018370470A460021018B94
:10158000C1F30E014FF6FF7303EA022319430183EF
:1015900070470A460021818B4FF67F731940114333
:1015A000818370470A460021818BC1F30E014FF6FB
:1015B000FF7303EA02231943818370470A4600211F
:1015C000018C4FF6FD7319401143018470470A46A0
:1015D0000021018C4FF6F7731940114301847047C5
:1015E0000A460021018C4FF6DF7319404FF6FF7356
:1015F00003EA02131943018470470A460021018C53
:101600004FF67F7319404FF6FF7303EA0213194335
:10161000018470470A460021018C4FF6FF531940A0
:101620004FF6FF7303EA02231943018470470A4609
:101630000021018C4FF2FF7319404FF6FF7303EA4C
:1016400002231943018470470A460021018C4DF69C
:10165000FF7319404FF6FF7303EA02331943018405
:10166000704730B5002301248C40A3B2048C9C4306
:101670000484048C02FA01F5ADB22C43048430BD1D
:1016800030B5002304248C40A3B2048C9C43048412
:10169000048C02FA01F5ADB22C43048430BD70B560
:1016A0000346002000241846183001258D40ACB2B6
:1016B0001D8CA5431D8409B1082909D100EB6100E7
:1016C000056825F0700505600568154305600EE0A6
:1016D0000D1FC5F34E052844056825F4E045056057
:1016E00005684FF6FF7606EA02263543056070BDB1
:1016F00021B1028842F00202028004E002884FF623
:10170000FD731A400280704721B1028842F0040242
:10171000028004E002884FF6FB731A400280704793
:1017200021B1828842F08002828004E082884FF6F4
:101730007F731A408280704702884FF6F7731A4011
:10174000028002880A430280704782884FF68F73B6
:101750001A40828082880A438280704702894FF64D
:10176000F8731A40028102890A4302817047028994
:101770004FF67F731A40028102890A430281704743
:1017800081847047818570478186704701877047E3
:1017900081877047A0F84010704702884FF6FF43DA
:1017A0001A40028002880A43028070470146888EF0
:1017B00070470146088F70470146888F7047014681
:1017C000B1F8400070470146888C70470146088D8B
:1017D000704702460020138A0B400BB1012000E045
:1017E00000207047CA430282704730B5024600208D
:1017F00000230024158A05EA0103958905EA0104FE
:1018000013B10CB1012000E0002030BDCA430282B8
:101810007047000010B50446FB48844209D10121FD
:101820008803FFF79FF800214FF48040FFF79AF8F4
:1018300032E0F648844209D101214804FFF79FF8BD
:1018400000214FF40030FFF79AF825E0F048844279
:1018500009D101218804FFF792F800214FF480207C
:10186000FFF78DF818E0EB48844209D10121C80444
:10187000FFF785F800214FF40020FFF780F80BE018
:10188000E548844208D101210805FFF778F80021D6
:101890004FF48010FFF773F810BD2DE9F04786B0C4
:1018A00005460E460024A24600BFA1460027B08987
:1018B00000B100BF2F462C8A4CF6FF700440F08820
:1018C00004432C82AC894EF6F3100440B088318971
:1018D0000843718908430443AC81AC8A4FF6FF404A
:1018E0000440B0890443AC8201A8FEF7B4FFC648A7
:1018F000874202D1DDF810A001E0DDF80CA0A88934
:1019000000F4004040B10AEBCA0000EB0A10316855
:101910004900B0FBF1F807E00AEBCA0000EB0A103F
:1019200031688900B0FBF1F86420B8FBF0F00401E5
:101930002009642101FB1089A88900F4004040B10E
:10194000322000EBC900B0FBF1F000F007000443C7
:1019500008E0322000EB09106421B0FBF1F000F048
:101960000F0004432C8106B0BDE8F0874FF41651F8
:10197000016000218180C18001810C214181002111
:101980008181704710B502460020108A4FF2FF0394
:1019900018400B884C8823438C882343CC882343EE
:1019A0001843108210BD0021018041808180C180D8
:1019B000704721B1828942F40052828104E0828919
:1019C0004DF6FF731A4082817047F0B5034600243C
:1019D00000260025002040F66A17B94200D100BF5A
:1019E0001846C1F3421401F01F06012707FA06F555
:1019F000012C01D10C3004E0022C01D1103000E0A8
:101A000014301AB107682F43076002E00768AF433C
:101A10000760F0BD1AB1838A0B43838202E0838A98
:101A20008B4383827047028A4FF6F0731A4002821A
:101A3000028A0A430282704782894FF2FF731A407A
:101A4000828182890A438281704721B1828942F072
:101A50000202828104E082894FF6FD731A4082817E
:101A60007047028A4FF6DF731A400282028A0A43E5
:101A70000282704721B1028A42F48042028204E06D
:101A8000028A4BF6FF731A4002827047C1F30802C4
:101A90008280704701468888C0F3080070478189BA
:101AA00041F0010181817047028BD2B20283028B27
:101AB00042EA012202837047028B02F47F420283D2
:101AC000028B0A430283704721B1828A42F02002CE
:101AD000828204E0828A4FF6DF731A408282704766
:101AE00021B1828A42F01002828204E0828A4FF69B
:101AF000EF731A408282704721B1828A42F0080255
:101B0000828204E0828A4FF6F7731A40828270471D
:101B100021B1828942F40042828103E08289C2F3CA
:101B20000E028281704721B1828A42F40062828271
:101B300004E0828A4FF2FF731A4082827047828AE1
:101B40004FF6FB731A408282828A0A438282704770
:101B500021B1828A42F00202828204E0828A4FF638
:101B6000FD731A408282704702460020B1F5007F63
:101B700000D100BF13880B400BB1012000E0002012
:101B8000704701F40072B2F5007F00D100BFCA4374
:101B90000280704770B50246002400230025002013
:101BA00040F66A16B14200D100BFC1F3421501F000
:101BB0001F03012606FA03F3012D02D19689334053
:101BC00006E0022D02D1168A334001E0968A3340A6
:101BD0000C12012606FA04F41688344013B10CB135
:101BE000012000E0002070BD10B50022002340F667
:101BF0006A14A14200D100BF0A1201249440A3B28A
:101C0000DC43048010BD0000003801400044004067
:101C100000480040004C00400050004010B5044611
:101C2000FA48844208D101214015FEF79BFE0021AD
:101C30006015FEF797FE17E0F548844208D10121B0
:101C40000015FEF78FFE00212015FEF78BFE0BE03E
:101C5000F048844208D10121C803FEF783FE002129
:101C60004FF40040FEF77EFE10BD30B50246002066
:101C700000235068E84C20400D790C6844EA0524A4
:101C8000204350609068E54C2040D1E902542C4339
:101C90004D7944EA450420439060D06A20F47000F6
:101CA0000C7C641EE4B2234340EA0350D06230BD92
:101CB00000210160017141718160C16001210174E5
:101CC000704721B1826842F00102826003E08268BD
:101CD00022F001028260704721B1826842F4807272
:101CE000826003E0826822F480728260704710B5DF
:101CF0000023CBB21AB144681C43446002E044683C
:101D00009C43446010BD816841F0080181607047C8
:101D1000014600208A6802F008020AB1012000E0B2
:101D200000207047816841F00401816070470146DE
:101D300000208A6802F004020AB1012000E00020BD
:101D4000704721B1826842F4A002826003E0826899
:101D500022F4A00282607047014600208A6802F4E3
:101D600080020AB1012000E00020704710B50A4649
:101D700000210023416821F46041531E41EA4331B0
:101D8000416010BD21B1426842F40062426003E04C
:101D9000426822F4006242607047F0B504460D4686
:101DA00000200021092D11DDE068A5F10A0606EBEF
:101DB0004607072606FA07F18843A5F10A0606EB4F
:101DC000460603FA06F10843E0600CE0206905EBE3
:101DD0004507072606FA07F1884305EB450603FA8F
:101DE00006F108432061072A0FDA606B561E06EBE6
:101DF00086071F2606FA07F18843561E06EB86065D
:101E000005FA06F10843606322E00D2A0FDA206B21
:101E1000D61F06EB86071F2606FA07F18843D61F52
:101E200006EB860605FA06F10843206310E0E06A37
:101E3000A2F10D0606EB86071F2606FA07F1884376
:101E4000A2F10D0606EB860605FA06F10843E062EC
:101E5000F0BD21B1826842F48012826003E08268A2
:101E600022F48012826070470146C86C80B27047CD
:101E700066484C300068704721B1426842F4806285
:101E8000426003E0426822F480624260704721B100
:101E9000426842F48052426003E0426822F4805279
:101EA000426070470A460021816821F4E0411143F5
:101EB0008160704721B1826842F40042826003E091
:101EC000826822F400428260704721B1826842F445
:101ED0000212826003E0826822F40212826070477C
:101EE000014600208A6802F400120AB1012000E0D5
:101EF00000207047F0B50446154600200022002659
:101F0000092911DDE068A1F10A0707EB470C072753
:101F100007FA0CF29043A1F10A0707EB470703FA0F
:101F200007F21043E0600CE0206901EB410C072749
:101F300007FA0CF2904301EB410703FA07F2104352
:101F40002061A06BC0F30156EF1C06F1010CA7EB5A
:101F50000C0707EB870C1F2707FA0CF29043EF1CC6
:101F600006F1010CA7EB0C0707EB870701FA07F254
:101F70001043A063F0BD10B50A4600210023816B19
:101F800021F44011531E41EA0351816310BD08B58D
:101F9000002300930090009B0B440093009B1A6069
:101FA00008BD08B5024600200090009201F128000B
:101FB000009B184400900098006880B208BD0A4653
:101FC00000214168164B194011434160704741623E
:101FD000826270470A460021416821F01F011143C7
:101FE0004160704740B109490831096841F4000176
:101FF000064A0832116007E004490831096821F4F3
:102000000001024A083211607047000000240140BC
:1020100000280140003C0140FFFEF0FFFDF7F1FF0A
:10202000FFFD3FFF0246002013680B400BB101206B
:1020300000E000207047CA430260704770B5024656
:102040000020002300240B125568CEB205EA0604D6
:1020500015681D4015B10CB1012000E0002070BDD5
:1020600000220A12D3430360704700000CB5002021
:10207000019000906C48006840F480306A49086024
:1020800000BF6948006800F4003000900198401CCF
:102090000190009818B90198B0F5A06FF1D162488D
:1020A000006800F4003010B10120009001E0002031
:1020B00000900098012843D15C48006840F010006F
:1020C0005A4908600846006820F003000860084686
:1020D000006840F002000860534840685249486078
:1020E0000846406848600846406840F480604860A0
:1020F0000846406820F47C1048600846406840F478
:10210000E81048600846006840F08070086000BF32
:102110004548006800F000700028F9D04248406847
:1021200020F00300404948600846406840F0020043
:10213000486000BF3C48406800F00C000828F9D116
:102140000CBD10B5FFF792FF10BD10B53648006802
:1021500040F00100344908600846406834490840AE
:102160003149486008460068324908402E490860F5
:102170000846006820F4802008600846406820F483
:10218000FE0048604FF41F008860FFF7DAFF4FF051
:1021900000602949086010BD10B500210020002210
:1021A000214B5B6803F00C0121B1042906D00829FA
:1021B00028D107E0214B224C236027E01F4B204C05
:1021C000236023E0184B5B6803F47010164B5B68C8
:1021D00003F48032022303EB904022B9194B4343AE
:1021E000174C23600DE0104B5B6803F4003323B100
:1021F000144B4343124C236003E0104B4343104CF9
:10220000236003E00D4B0E4C236000BF00BF064B64
:102210005B68C3F303130C4CE15C094B1B68CB40B8
:10222000074C236010BD0000001002400020024057
:102230000000FFF8FFFFF6FE08ED00E000127A0054
:102240001400002000093D0018000020014605E0B0
:10225000002001E0421CD0B20A28FBDB0A1EA1F1DB
:102260000101F5D1704710B5044603E04FF47A70D0
:10227000FFF7ECFF201EA4F10104F7D110BD704759
:1022800008B50720009002E00098401E00900098DA
:102290000028F9D108BD10B54FF40070E649086078
:1022A00040100860FFF7ECFFE3480838006808B901
:1022B000012000E0002000F4007008B1002010BDF3
:1022C0004FF40070DC49091D0860FFF7D9FFDA48B8
:1022D0000838006800F4007008B10020EFE74FF400
:1022E0000070D549091D0860FFF7CAFF0120E6E725
:1022F00010B54FF48070D049091D0860FFF7C0FF8A
:102300004FF40070CC49091D0860FFF7B9FF4FF486
:102310008070C9490860FFF7B3FF4FF40070C649E9
:102320000860FFF7ADFF10BD10B54FF48070C249D3
:10233000091D0860FFF7A4FF4FF40070BE49091D96
:102340000860FFF79DFF4FF48070BB490860FFF7FE
:1023500097FF4FF48070B849091D0860FFF790FFA0
:1023600010BD10B54FF48070B349091D0860FFF728
:1023700087FF4FF40070B0490860FFF781FF4FF40A
:102380008070AD490860FFF77BFF4FF48070AA4969
:10239000091D0860FFF774FF10BD10B54FF4807081
:1023A000A549091D0860FFF76BFF4FF40070A249B3
:1023B0000860FFF765FF4FF480709F490860FFF7E2
:1023C0005FFF9D480838006800F4007030B14FF49A
:1023D00080709949091D0860002010BD4FF480707D
:1023E0009549091D08600120F7E770B504460825E6
:1023F0001DE04FF480709049091D0860FFF740FF11
:1024000004F0800020B14FF400708B49086004E0B4
:102410004FF400708849091D08606006040EFFF73C
:102420002FFF4FF4807084490860FFF729FF281EB2
:10243000A5F10101CDB2DCD14FF480707E49091DB8
:10244000086070BD70B508250024A8017A490860AD
:1024500016E06006040E4FF480707749091D08608D
:10246000FFF70EFF4FF4807073490860FFF708FF15
:1024700071480838006800F4007008B144F00104A5
:10248000281EA5F10101CDB2E3D14FF480706A4955
:10249000091D0860204670BD08B501210820FEF71F
:1024A00047FA4FF44070ADF8000002208DF80200AA
:1024B00014208DF8030069465F481038FDF77CFF53
:1024C00008BD2DE9F04105460E4617469846FFF730
:1024D000E2FE10B90020BDE8F081002141EA45018B
:1024E000C8B2FFF782FFFFF758FF18B9FFF700FFE8
:1024F0000020F0E73046FFF778FFFFF74EFF00249B
:102500000BE018F80400FFF770FFFFF746FF18B95B
:10251000FFF7EEFE0020DEE7641CBC42F1DBFFF7B4
:10252000E7FE0120D7E72DE9F04104460D461646A7
:102530001F463B46324629462046FFF7C2FF10B1F0
:102540000020BDE8F0814FF0FF30FAE72DE9F041BF
:1025500005460F4614461E46FFF79DFE10B90020A3
:10256000BDE8F081002141EA4501C8B2FFF73DFF17
:10257000FFF713FF18B9FFF7BBFE0020F0E738465E
:10258000FFF733FFFFF709FFFFF785FE012101EB9E
:102590004501C8B2FFF729FFFFF7FFFE0CE0FFF788
:1025A00051FF3070012C02D1FFF7DBFE01E0FFF795
:1025B000BBFE761C601EC4B2002CF0D1FFF798FE63
:1025C0000120CDE72DE9F04104460D4616461F4691
:1025D0003B46324629462046FFF7B8FF10B100209F
:1025E000BDE8F0814FF0FF30FAE770B504460D46C4
:1025F0001646FFF750FE08B9002070BD002141EAE1
:102600004401C8B2FFF7F1FEFFF7C7FE18B9FFF7A4
:102610006FFE0020F1E72846FFF7E7FEFFF7BDFE5B
:102620003046FFF7E2FEFFF7B8FEFFF761FE01203C
:10263000E3E7002070470000100C014008B50121BD
:102640001120FEF775F901210B48FDF786FF4FF4C5
:10265000C040ADF8000003208DF8020010208DF876
:10266000030069460548FDF7A7FE4FF4C041034843
:10267000FDF74FFF08BD00000002300000100140D0
:102680000024002700250026FFF75FFD41F61F41CB
:1026900041F2883002F0ECFA02F026FB02F056F923
:1026A00000F03AF900F09CF8FFF7C8FF02F0A2FB37
:1026B00000F048F900F0AFF9FFF7EEFE0A2000F055
:1026C00087FE00F0BBFA00F02BFE00F0B7FE002101
:1026D000084601F089FF3D4807784FF0E020006987
:1026E00040F001004FF0E02108616EE000F016FBC1
:1026F00036490878C11BC9B20C4407460A2E5DD280
:10270000DFE806F0050B151B23282F343B5D322C28
:1027100002D300240025012652E04FF416724FF038
:102720007A512B4801F023FE0024022648E0B4F53C
:10273000167F01D30024032642E078222549002099
:1027400001F015FE002404263AE0782C01D3002481
:10275000052635E0B421204801F05CFE0024062661
:102760002EE0B42C01D30024072629E000210846DE
:1027700001F03AFF0024082622E03C2C0DD34FF054
:1027800040411648006805F0B1FD06D24FF0804187
:102790001248006805F0A0FD01D3FA2C0DD30024E7
:1027A000681CC5B2042D07D300F022FE00210846A4
:1027B00001F01AFF092600E0012601E000BF00BF7A
:1027C00000BF02F06FF801F080FC8FE7D40000201A
:1027D0000000DC429A99993F000048C4FC000020A8
:1027E00008B501210820FEF7A3F84FF47040ADF8BA
:1027F000000010208DF8030003208DF802006946C8
:10280000FE48FDF7D9FD4FF47041FC48FDF781FE0D
:1028100008BD08B501210846FEF797F801210420FC
:10282000FEF786F80C20ADF8000018208DF80300A4
:1028300003208DF802006946F148FDF7BDFD08BD93
:1028400030B587B00025002440F2E730ADF8140021
:102850000020ADF81000ADF81600ADF8120004A984
:102860004FF08040FEF79CF96020ADF80000012099
:10287000ADF80200ADF806500020ADF8080069463A
:102880004FF08040FEF758FA0821C806FEF72AFEEE
:102890000120ADF80200ADF806400020ADF80800B8
:1028A00069464FF08040FEF792FA0821C806FEF70D
:1028B00022FE01218807FEF7CFFD01218807FEF7E0
:1028C000CBFC07B030BD2DE9FF4104460D4627463D
:1028D0002E466020ADF800000120ADF80200ADF8F2
:1028E00006700020ADF8080069464FF08040FEF702
:1028F00023FA0821C806FEF7F5FD0120ADF8020015
:10290000ADF8066069468007FEF761FA0821C8063F
:10291000FEF7F1FDBDE8FF8110B5FFF77AFFFFF785
:102920008FFF10BDB7490888098821F00101B54A19
:1029300011807047B4490888098821F00101B24A22
:102940001180704700B589B001210220FDF7FDFF1D
:1029500001210420FDF7ECFF01A8FDF7B8FDC02020
:10296000ADF8040004208DF8070003208DF8060060
:1029700001A9A348FDF720FD4FF4A060FDF7C0FBBF
:102980001D208DF8080001208DF8090003208DF826
:102990000A0001208DF80B0002A8FDF7B6FB99484C
:1029A0001038FEF729F806A8FEF726FC0020ADF83F
:1029B00018004FF6FF70ADF81C000020ADF81E00A7
:1029C000ADF81A0006A98F481038FEF7E9F80A2377
:1029D0001A4603218B481038FEF7F1FC03A8FEF7D6
:1029E0001EFC0620ADF8140003A986481038FEF737
:1029F0006AFB012183481038FEF7F4FE01221146DC
:102A000080481038FEF743FC01217E481038FEF75D
:102A100023FC09B000BD00B589B001210420FDF7F9
:102A200094FF01210820FDF783FF01A8FDF74FFD6A
:102A3000C020ADF8040004208DF8070003208DF8B5
:102A4000060001A96D48FDF7B7FC4FF4A060FDF743
:102A500057FB1E208DF8080001208DF80900032087
:102A60008DF80A0001208DF80B0002A8FDF74DFB40
:102A700065481038FDF7C0FF06A8FEF7BDFB002033
:102A8000ADF818004FF6FF70ADF81C000020ADF84F
:102A90001E00ADF81A0006A95B481038FEF780F852
:102AA0000A231A46032158481038FEF788FC03A869
:102AB000FEF7B5FB0620ADF8140003A95248103804
:102AC000FEF701FB012150481038FEF78BFE012272
:102AD00011464D481038FEF7DAFB01214A481038FC
:102AE000FEF7BAFB09B000BD00B585B00121042096
:102AF000FDF71EFF01210220FDF727FF8020ADF822
:102B0000100004208DF8130003208DF8120004A992
:102B10003B48FDF751FC4FF4A060FDF7F1FA1D2092
:102B20008DF8000001208DF8010003208DF80200CF
:102B300001208DF803006846FDF7E7FA31481038A8
:102B4000FDF75AFF4FF6FF70ADF808000020ADF812
:102B50000400ADF80A00ADF8060001A929481038B4
:102B6000FEF71EF800231A46602126481038FEF7AB
:102B7000C2FB002123481038FEF702FE0121214844
:102B80001038FEF769FB05B000BD00B585B0012126
:102B90000820FDF7CDFE01210420FDF7D6FE8020A0
:102BA000ADF8100004208DF8130003208DF81200FA
:102BB00004A91248FDF700FC4FF4A060FDF7A0FA4D
:102BC0001E208DF8000001208DF8010003208DF8F3
:102BD000020001208DF803006846FDF796FA0A48C6
:102BE0001038FDF709FF4FF6FF70ADF80800002020
:102BF000ADF80400ADF80A0008E00000000C014048
:102C0000000801401004004010080040ADF8060024
:102C100001A90948FDF7C4FF00231A4660210648B0
:102C2000FEF769FB00210448FEF7AAFD01210248D6
:102C3000FEF712FB05B000BD0008004070B500248F
:102C400002F0A3FD0446002C60D17CA001F0FBFF44
:102C5000782002F0FCF918B981A001F0F4FF02E03D
:102C600087A001F0F0FF782002F0DEFB18B98FA0FA
:102C700001F0E9FF02E096A001F0E5FF642002F018
:102C8000B4FC18B99EA001F0DEFF02E0A6A001F09E
:102C9000DAFF04F06BF818B9ACA001F0D4FF02E041
:102CA000B7A001F0D0FFC54804F03CFF054604F092
:102CB00067F818B9C2A001F0C6FF02E0CAA001F08F
:102CC000C2FF40F2731004F09CFC18B9D2A001F0CE
:102CD000BAFF02E0D9A001F0B6FF642004F00AFABE
:102CE00018B9E2A001F0AFFF02E0E9A001F0ABFFEC
:102CF00004F02CFF012003F07FFD18B9EFA001F0D4
:102D0000A2FF0AE0F6A001F09EFF06E04FF400519A
:102D1000FE48FDF700FC00BFFEE770BD2DE9F04F57
:102D200089B0FB48FB49FC4BFC4ACDE90010FC494B
:102D3000FC4804F0C5FDF748008800F480700028C6
:102D40007AD0F649086805F033FA04464FF09D4101
:102D500005F068F8F4490860F049486805F028FA79
:102D600004464FF09D4105F05DF8F0490860EB49DD
:102D7000886805F01DFA04464FF09D4105F052F8B1
:102D8000EB490860E549C86805F012FA04464FF0BF
:102D90009D4105F047F8E7490860E34801684FF0B6
:102DA000804005F00DF80690E1480168069805F0AE
:102DB00007F88246DD4801684FF0404005F000F812
:102DC0000690DC480168069804F0FAFF83465146F5
:102DD00004F09EFF079005F037FA064606F06CFCFB
:102DE00080464FF06632D44B05F001F9044605F0F9
:102DF00057FAD2490860CE4801684FF0804004F08D
:102E0000DFFF0390CA480168039804F0D9FF8246A7
:102E1000C64801684FF0404004F0D2FF0390C34819
:102E20000168039804F0CCFF8346514604F0C2FFCA
:102E300081464FF07E5183E10CE200006D707520F9
:102E4000696E697469616C697A6174696F6E206317
:102E50006F6D706C6574652E2E2E2E2E2E0A20003E
:102E60006D70755F7365745F73656E736F722063E9
:102E70006F6D706C657465202E2E2E2E2E2E0A001E
:102E80006D70755F7365745F73656E736F722063C9
:102E90006F6D65206163726F7373206572726F72FC
:102EA000202E2E2E2E2E2E0A000000006D70755F33
:102EB000636F6E6669677572655F6669666F2063CA
:102EC0006F6D706C657465202E2E2E2E2E2E0A00CE
:102ED0006D70755F636F6E6669677572655F666951
:102EE000666F20636F6D65206163726F7373206519
:102EF00072726F72202E2E2E2E2E2E0A00000000CF
:102F00006D70755F7365745F73616D706C655F7212
:102F100061746520636F6D706C657465202E2E2E54
:102F20002E2E2E0A000000006D70755F7365745FB1
:102F300073616D706C655F72617465206572726F2C
:102F400072202E2E2E2E2E2E0A000000646D705F31
:102F50006C6F61645F6D6F74696F6E5F64726976C8
:102F600065725F6669726D7761726520636F6D70FF
:102F70006C657465202E2E2E2E2E2E0A0000000069
:102F8000646D705F6C6F61645F6D6F74696F6E5FAD
:102F90006472697665725F6669726D7761726520C9
:102FA000636F6D65206163726F7373206572726FFA
:102FB00072202E2E2E2E2E2E0A0000002800002019
:102FC000646D705F7365745F6F7269656E74617450
:102FD000696F6E20636F6D706C657465202E2E2E88
:102FE0002E2E2E0A00000000646D705F7365745F02
:102FF0006F7269656E746174696F6E20636F6D6561
:10300000206163726F7373206572726F72202E2E4F
:103010002E2E2E2E0A000000646D705F656E6162B8
:103020006C655F6665617475726520636F6D706C49
:10303000657465202E2E2E2E2E2E0A00646D705F74
:10304000656E61626C655F6665617475726520634B
:103050006F6D65206163726F7373206572726F723A
:10306000202E2E2E2E2E2E0A00000000646D705F82
:103070007365745F6669666F5F7261746520636F04
:103080006D706C657465202E2E2E2E2E2E0A00007B
:10309000646D705F7365745F6669666F5F7261749B
:1030A0006520636F6D65206163726F737320657255
:1030B000726F72202E2E2E2E2E2E0A006D70755FCE
:1030C0007365745F646D705F737461746520636FA2
:1030D0006D706C657465202E2E2E2E2E2E0A00002B
:1030E0006D70755F7365745F646D705F7374617428
:1030F0006520636F6D65206163726F737320657205
:10310000726F72202E2E2E2E2E2E0A0000100140DD
:103110006200002060000020500000201C020020FF
:103120005A00002054000020340000203800002005
:103130003C0000204000002066A64C4044000020D7
:1031400004F0E6FD044605F07FF8CDE904014348AC
:1031500001684FF0804004F033FE83464048016828
:10316000584604F02DFE81463E4801684FF08040ED
:1031700004F026FE83463C480168584604F020FED1
:103180008246494604F0C4FD044605F05DF8074652
:10319000DDE9042306F0D8FC4FF06632334BCDE96D
:1031A000060104F024FF054605F07AF8304908606E
:1031B0002D480168006804F003FE03902948016867
:1031C000006804F0FDFD029025480168006804F0E5
:1031D000F7FD834621480168006804F0F1FD594677
:1031E000019004F095FD8246029904F0E3FD8146CA
:1031F000039904F0DFFD044605F026F8CDE904014B
:10320000194801681548006804F0DAFD824615483F
:1032100001681348006804F0D3FD8346514604F06A
:1032200077FD81464FF0804104F0CAFD044605F069
:103230000BF80746DDE9042306F086FC4FF0663202
:103240000A4BCDE9060104F0D2FE054605F028F848
:103250000849086009B0BDE8F08F00003400002084
:10326000380000203C0000204000002066A64C40B2
:10327000480000204C000020704700BFFEE700BF60
:10328000FEE700BFFEE700BFFEE7704770477047EC
:1032900010B51D480078401C1B4908701B48007879
:1032A000401C1A4908701A480078401C18490870D8
:1032B00000F084FB17480078401C16490870164837
:1032C0000078401C1449087014480078401C1349C9
:1032D00008700E480078022806DB01F076FD00F049
:1032E00051FD00200949087009480078082806DBCC
:1032F00000F091FB0020064908700649087000F0B4
:103300004CF900F0EAFA10BDD4000020D9000020EA
:10331000D5000020D6000020D7000020D8000020D3
:1033200030B527480068C822B0FBF2F1B1F1807FC8
:1033300001D301201DE021F07F40401E4FF0E0222C
:10334000506150170F22002807DA13071D0E1D4B7E
:1033500000F00F04241F1D5503E013071C0E1A4B29
:103360001C5400BF00204FF0E02290610720106144
:10337000002008B100BFFEE74FF0E020006920F018
:1033800001004FF0E021086130BD01B50F49009800
:1033900008604FF0E020006940F001004FF0E021AC
:1033A000086100BF094800680028FBD108BD074834
:1033B000006820B105480068401E04490860704755
:1033C0001400002018ED00E000E400E0640000209C
:1033D000002107E042F6E06100BF0A1EA1F10103EF
:1033E00099B2FAD1021EA0F1010398B2F2D170474E
:1033F0000020F7490876087048608860F548006842
:10340000C8600020C882704700B502460020F2491B
:103410000870F2480260FFF7EBFF0020F0490870E7
:10342000F0490870F0480078F04908700020F04931
:103430000860ED480078EF49087000BD00B5002035
:10344000ED490880ED490880ED490860ED490860C4
:10345000ED490860ED490860ED490860ED490860F4
:10346000ED490860ED490860ED490860ED490860E4
:10347000ED490860D7490860EC490860EC490860EC
:10348000EC490860EC490860D7490870EB490870BE
:10349000EB490870D4480078D44908700020D4491A
:1034A0000860D1480078D34908704FF46170E5494D
:1034B0000880E548E54908600120E54908700020DA
:1034C000E4490870E4490870E4490860E449086088
:1034D000E448FFF799FF0020E349086000BD2DE9AB
:1034E000F041E248006804F0AFFE0446E048D0E94D
:1034F00000633246204604F0BBFE07D0DC48D0E92A
:103500000021104604F0CCFED8490860D948006874
:1035100004F09AFE0446D648D0E9026332462046BB
:1035200004F0A6FE07D0D248D0E90221104604F0EC
:10353000B7FED0490860D048006804F085FE044614
:103540000D46CB49D1E904633246294604F090FE8A
:1035500007D0C748D0E90421104604F0A1FEC649AF
:103560000860C648006804F06FFE0446C048D0E911
:1035700006633246204604F07BFE07D0BC49D1E901
:103580000621104604F08CFEBC4908600020B349B7
:103590000860B3490860BDE8F0812DE9F041B84802
:1035A0000068012810D10020B0490860B5480068C3
:1035B00004F00CFE06460022B34B04F018FD04464E
:1035C00004F06EFEA9490860AD480068022812D1D7
:1035D0000020A8490860AD490968A1F1400004F045
:1035E000F5FD06460022AA4B04F001FD044604F056
:1035F00057FEA0490860A749B1F9040004F0D8FDBE
:10360000A5490860A549B1F9040004F0D1FDA44919
:1036100008600021A348006804F05EFE0BD0A249B8
:10362000A048006804F058FE05D3A0499D480068F2
:1036300004F05CFE05D24FF400519D48FCF76BFF8F
:1036400004E04FF400519A48FCF763FF00219948C9
:10365000006804F0AFFB6E4908609049B1F90000C2
:1036600004F0A6FD064683480168304604F0A8FB36
:103670000446684801686648006804F09BFB0646FB
:103680007A480168304604F09BFB0546214604F069
:103690003FFB63490860BDE8F0812DE9F041044635
:1036A0000D46002C0CDA4FF480418348FCF731FFC3
:1036B0004FF400418048FCF72EFF604204B20AE05C
:1036C0004FF400417C48FCF724FF4FF480417A48D6
:1036D000FCF721FF00BF002D0CDA4FF400517648B3
:1036E000FCF717FF4FF480517348FCF714FF684252
:1036F00005B20AE04FF480516F48FCF70AFF4FF41F
:1037000000516D48FCF707FF00BFAFB2A6B23146CB
:103710004FF08040FEF73CF839464FF08040FEF70E
:1037200039F866495F48006804F0E0FD23D3644936
:103730005C48006804F0D0FD02D24FF0010801E0BF
:103740004FF0000800213B48006804F0C5FD01D19E
:10375000012000E0002008EA000800213648006847
:1037600004F0BAFD01D1012000E0002008EA0008C1
:10377000B8F1000F0DD000214FF08040FEF708F89F
:1037800000214FF08040FEF705F801204D49086008
:1037900002E000204B4908604B491D48006804F0D6
:1037A000A5FD05D349491A48006804F095FD0DD2DE
:1037B00000214FF08040FDF7EBFF00214FF08040EB
:1037C000FDF7E8FF01203F49086084E080E0000049
:1037D000A000002050010020750000208C00002077
:1037E000C7000020C8000020D40000207400002082
:1037F00070000020C90000202201002020010020CC
:10380000300100202C01002038010020340100206C
:10381000FC000020EC00002054010020E00000200B
:10382000F0000020F8000020F400002094010020A7
:10383000900100205C01002058010020D5000020EC
:10384000D6000020BC0000203333B33EC00000206F
:10385000C4000020C5000020C6000020CC000020CD
:10386000D00000200000C842480100200C010020C8
:10387000B89D00081001002014010020180100204C
:1038800078010020680100200080FB3F6C010020CF
:103890000000C43F5A00002088010020540000208E
:1038A0008C010020440000200000A0C10000A041C5
:1038B0000010014048000020000C014000002041A1
:1038C000000020C14401002000004842000048C21E
:1038D0000020F8490860BDE8F0812DE9F041F64884
:1038E000046800250026F3480068A0B9F348006882
:1038F00020F00047F249384604F0F8FC0BD8EE48B7
:10390000006820F00047EF49384604F0E5FC02D893
:1039100000BF4FF082462146EB48006804F0F8F9FA
:103920000746294604F0F4F9E84908602146E648CC
:10393000006804F03FFA0746314604F0E9F9E4492B
:103940000860E248006804F052FC00B2B0F57A7FEB
:1039500002DDE048DD490860DC48006804F047FC0F
:1039600000B210F57A7F02DADB48D8490860D848FF
:10397000006804F03CFC00B2B0F57A7F02DDD54867
:10398000D3490860D248006804F031FC00B210F559
:103990007A7F02DAD048CE490860CD48006804F04A
:1039A00026FC07B2C948006804F021FC0FFA80F831
:1039B00039464046FFF771FEBDE8F08170B5C74853
:1039C000FDF701FF0446C648FDF7FDFE0546C54864
:1039D0000460C54805600021C048FDF7D1FE002104
:1039E000BF48FDF7CDFE20B2C0490880684200B252
:1039F000BF490880BF480068BC49B1F900100844BD
:103A0000BC490860BC480068B949B1F900100844D5
:103A1000B949086070BD2DE9F04F87B0B549096814
:103A2000B54A1268881804F0C3FBB4490860002046
:103A3000B1490860AF490860B148006804F004FC6F
:103A40004FF06632AF4BCDE9040104F0D0FA0746DF
:103A500004F026FCAA490860A848006804F0F4FBBA
:103A60004FF03332A84BCDE9000104F0C0FACDE9A4
:103A70000401A348006804F0E7FBCDE90201DDE999
:103A8000042304F00DFA074604F00AFC9C49086080
:103A90009E498A48006804F093F9064698480168F0
:103AA000304604F087F9044626F0004B944800683D
:103AB00020F000400690A14621469548006804F099
:103AC0007FF90746002104F007FC04D291494846DB
:103AD00004F076F9814649468D48006804F018F9EB
:103AE0008B4908604FF08241584604F0F5FB12D82C
:103AF00089498748006804F063F98549086070497E
:103B0000069804F0E9FB06D883498148006804F070
:103B100057F97F49086081497D48006804F0E6FB59
:103B200002D27E487A4908607D497948006804F0ED
:103B3000D3FB02D27A48764908607A4800680328A5
:103B400013D100207849086078490968A1F1800004
:103B500004F03CFB07460022754B04F048FACDE91F
:103B6000040104F09DFB704908606E480068042859
:103B700013D100206F4908606F490968A1F1C000A6
:103B800004F024FB00226D4BCDE9040104F02FFA70
:103B9000074604F085FB67490860664801685C4891
:103BA000006804F00DF907465F480168204604F0FC
:103BB00007F98046394604F0ABF880F000406049D0
:103BC000086060496048006804F090FB05D35F49D5
:103BD0005D48006804F080FB6BD25948006880F0B3
:103BE000004759480168384604F01CF982464FF0F6
:103BF0008241584604F070FB0ED84FF07E5150467B
:103C000004F074FB01D24FF07E5A4049504604F054
:103C100063FB01D2DFF8F4A04D49504604F066FB87
:103C200001D2DFF82CA14B49504604F055FB01D2DC
:103C3000DFF820A148480168504604F0BBF805466B
:103C40004649284604F052FB00D2444D44492846D8
:103C500004F042FB00D2424D29463F48006804F080
:103C600057F83D4908604FF08241584604F034FB54
:103C70001AD81349069804F02FFB15D8394936484D
:103C8000006804F09DF834490860374932480068FC
:103C900004F02CFB08D235492F48006804F01CFBC7
:103CA00002D200202C4908602B4800683049086087
:103CB00065E05FE044010020540100205001002035
:103CC0000000F0410000C841F0000020F400002096
:103CD000F800002000007A4400007AC4000400408C
:103CE000000800403C01002040010020200100208D
:103CF000220100202C01002030010020340100208E
:103D0000380100206666E63F3333D33F000080BFB2
:103D1000CC000020CDCC0C406666663F0000FA4522
:103D20000000FAC578010020140100207001002075
:103D30000000DE3F18010020740100200000C43F95
:103D4000E80000206F12833A0C0100206F1283BA42
:103D50000000C0400000C0C0D0000020CDCC4C3ED0
:103D6000CDCC4CBE9A99593FCDCC4CBDCDCC4C3D21
:103D7000EC0000200020FE490860FE49086007B002
:103D8000BDE8F08F2DE9F041FB480068002850D1D4
:103D9000FA48FDF718FD00EB800000EB001044002E
:103DA000204604F013FA05460022F54B04F091F981
:103DB000074604F075FAF34908600846006804F005
:103DC00043FA044622460B46EFA004F0A7FCF14854
:103DD000007820B90020F0490860BDE8F081E9488A
:103DE000006804F031FA04460022EC4B04F040FA7B
:103DF00003D8EB48E84908601BE0EA49E14800685D
:103E000004F074FA01D8012400E000244FF082414C
:103E1000DC48006804F060FA01D8012000E00020CE
:103E200004401CB1E048DC49086002E00020DA49A7
:103E3000086000BFD1E72DE9FC5FDC48006801287D
:103E400078D1DB48D0F800B0DA4800680190DA4851
:103E5000B0F90290D948B0F900A0CA4804684846B1
:103E600004F0A6F906464FF08D4103F0DBFF05464E
:103E7000D34903F0A5FFD3490860504604F098F9F0
:103E80000646D14903F096FF0546D04903F0CAFF24
:103E9000CF490860584604F0D7F90746CD4ACE4BC3
:103EA00004F017F9054604F0FBF98346019804F085
:103EB000CBF90546C74AC84B04F00BF9074604F096
:103EC000EFF901905021C54803F0FEFEC348C4A19C
:103ED000096801600A21C34803F0F6FEC2480021C8
:103EE0000160416001810A21C04803F0EDFEC04835
:103EF00000210160416001810A21BE4803F0E4FE17
:103F0000BD480021016041600181BC49584604F070
:103F1000E3F910D8BA49584604F0E8F90BD85846E6
:103F200004F092F905462A460B46B6A1AD4804F0C6
:103F300005FC02E0C7E0BDE8FC9FB049019804F031
:103F4000CBF90FD8AE49019804F0D0F90AD80198FE
:103F500004F07AF905462A460B46AAA1A24804F0C5
:103F6000EDFB00E0E7E7A9499648006804F0BEF9D8
:103F700011D2A7499348006804F0AEF90BD29148DA
:103F8000006804F061F905462A460B469DA1974852
:103F900004F0D4FB00E0CEE79E498D48006804F0B1
:103FA000A5F911D29C498A48006804F095F90BD212
:103FB0008748006804F048F905462A460B4691A157
:103FC0008B4804F0BBFB00E0B5E70021204604F07D
:103FD0008DF90FD89149204604F07EF90AD2204687
:103FE00004F032F905462A460B4686A1814804F0C2
:103FF000A5FB00E09FE7002000F03EFF0090009846
:1040000004F0DFF80746864903F0DAFE06464FF073
:104010008B4103F007FF0546824903F0CBFE82493E
:10402000086000218048006804F060F911D87849E0
:104030007D48006804F050F90BD27B48006804F01A
:1040400003F905462A460B466EA16B4804F076FB41
:1040500000E070E76349614803F041FE73A15F48E7
:1040600003F03DFE60495D4803F039FE70A15B48F6
:1040700003F035FE5D49594803F031FE6DA1574804
:1040800003F02DFE5A49554803F029FE6AA1534812
:1040900003F025FE5749514803F021FE68A14F481F
:1040A00003F01DFE54494D4803F019FE65A14B482D
:1040B00003F015FE5021644803F006FE50224749E4
:1040C000614803F0E8FD00BF35E710B55F480068C0
:1040D000401E5E49086035480068012807D108463F
:1040E000006820B9FFF7A7FE574800F0A0FD574829
:1040F000006818B941F288305449086010BD70B5A5
:1041000006460D4614462146304604F0EFF801D22B
:10411000204670BD2946304604F0DEF801D228461C
:10412000F7E73046F5E72DE9F04704460E46174617
:104130001D46DDE90889464A46493046FFF7DFFF5C
:104140000646434A43493846FFF7D9FF0746002150
:10415000284604F0C1F801D285F000453E4A3F49A7
:104160002846FFF7CCFF0546B8F1000F7BD178E079
:10417000EC000020D000002060010020002C014055
:10418000000069404C0100206A756C693D25660A93
:1041900000000000750000204801002000001040D1
:1041A000000096C30000A0400000FA437C010020FC
:1041B000F4000020F80000205A00002054000020E5
:1041C000CDCC1C41880100209A1900430000034314
:1041D0008C01002048E17A14AE470F402C020020E9
:1041E000244C5600440300204E03002058030020B6
:1041F000620300206C0300207603002000007A4454
:1042000000007AC425332E32660000000000A0C1F1
:104210000000A04100803BC500803B4500401C469B
:10422000CDCC5441CDCC4C3EDC0000202C5256006D
:104230002C4143002C4759002C43534200000000FE
:104240002C565400230000007C0200208001002036
:1042500000008243000082C3000040400AD7233C94
:1042600001E04FF0010841F28830804500D98046D6
:10427000012C00D10027042C00D10026FC4804703A
:1042800046608760FB480068F949C86008460561D8
:10429000A0F814800020C88201200876B9F1000F30
:1042A00006D00320F4490870F4480078F4490870F7
:1042B000BDE8F0872DE9F04780460C461546EC48EE
:1042C000007E20B9002020602860BDE8F08700262D
:1042D0003DE0E74AD168506803F06CFD074627F0DF
:1042E0000049E3480169484603F0F6FF04D8E04876
:1042F0004068DF49C86013E00021384603F0F6FF4C
:1043000007D2DB4A1169D06803F002FDD849C860C2
:1043100006E0D74A1169D06803F04CFDD449C86063
:10432000D348C08AD249898A884204DAD048C08AF0
:10433000401CCF49C882CE48C08ACD49898A88426C
:1043400003DB0020CA49087603E0701CC6B246456C
:10435000BFDB00BFC648C0682060C54880682860D1
:10436000C348007E08B90220AFE70120ADE77CB565
:1043700004460D4616460020C249087001202B460F
:1043800000222146CDE90060FFF7CDFE7CBD2DE97E
:10439000FC4104460D4616461F460FB1012000E0C1
:1043A0000020B84908700020B7490870B749087064
:1043B00001202B4600222146CDE90060FFF7B3FE25
:1043C000BDE8FC8108B1012100E00021AD4A117077
:1043D0000021AD4A1170AD4A117070477CB504469A
:1043E0000D4616460120AA4B2A462146CDE900601B
:1043F0000220FFF798FE7CBD7CB504460D461646AC
:104400000120A34B2A462146CDE900600320FFF797
:104410008AFE7CBD7CB504460D4601209C4B22469D
:104420000021CDE900500420FFF77DFE7CBD70B572
:1044300005460C460021284603F04EFF01D285F0C8
:1044400000450021204603F047FF01D284F00044DC
:10445000904805609048046070BD2DE9F04705461E
:104460000C4616461F46DDF8208025F0004524F056
:1044700000448A4A00212846FFF741FE8849086027
:10448000864A00212046FFF73AFE85494860854864
:104490000680008810B90120824908808148008880
:1044A00041F28831884202D908467E49088027F0C7
:1044B00000497D4A7D494846FFF721FE7C49086056
:1044C000B8F1000F01D0012000E000207949087008
:1044D0000020794908707348008803F072FE824614
:1044E000764903F06DFC81464946754803F09AFC15
:1044F0006B4988606F48007808B1724800E07248E4
:104500006749C86000200861FEF772FF01205A4920
:1045100008705A4800785A49087000206B490860B2
:10452000BDE8F0872DE9FF4F85B0834614461D4650
:104530006749204603F0D0FE00D2654C0021129856
:1045400003F0CAFE01D2002012906249129803F0D3
:10455000CDFE01D25F4812902146594803F062FC1B
:104560000746564903F05EFC06464FF07E51304642
:1045700003F0B2FE01D24FF07E565749304603F0A9
:10458000B5FE00D2544E4FF07C51304603F0C0FBD4
:10459000074603F045FE1FFA80F95049129803F0D0
:1045A0000FFC07463A4903F0B3FB8246284603F066
:1045B0004BFE074605F088FBCDE9000103F070FED5
:1045C0000021029003F092FE01D8012000E00020BB
:1045D0000390039853464A46009058460699FFF7C1
:1045E0003CFF09B0BDE8F08F00B503460A46022043
:1045F00021490870FEF7FCFE394803603948026023
:104600001E4800781E49087000203049086000BD2F
:104610002DE9F05F04460D46D4F80090D5F800A0CF
:10462000314F3249384603F057FE00D8304F3148F9
:10463000D0F800803049404603F058FE60D82F493A
:10464000404603F049FE5BD800200F4908700F4830
:104650000078FF2804D20D480078401C0B490870F0
:104660000A48007804287ED34FF00009CA467AE051
:10467000A00000205001002075000020D400002080
:1046800074000020C6000020C7000020C8000020E1
:104690003333B33E980000209C000020000082438A
:1046A00078000020BC000020000040400AD7233CD6
:1046B000C0000020C4000020C50000200AD7A33B92
:1046C000DB0FC940DA0FC93FDA0FC9BF7000002005
:1046D000CDCCCC3D6666E63E00409C459A99993F1C
:1046E00090000020940000200000C84100003041EC
:1046F000000090414C0100200000204000002041BB
:104700007B49404603F0F2FD28D23946404603F08B
:10471000E3FD23D800207749087077480078FF2808
:1047200004D275480078401C7349087072480078BC
:104730000C2818D37148D0F800907148D0F800A028
:1047400029F0004B6F49584603F03AFB06463146C4
:10475000504603F0CBFD06D2B24604E00020664985
:10476000087064490870C4F80090C5F800A0BDE85E
:10477000F09F1CB5644800680190002000906946D5
:1047800001A8FFF745FF614901980860604900985A
:10479000086000205F4908605F4908601CBD2DE982
:1047A000FF415E4805785E480078281AC6B25C482A
:1047B00005705C48007E40BB5B48007800F001005B
:1047C00058B95A48007810B15948406803E0584831
:1047D000406880F0004007460AE05448007820B165
:1047E0005348406880F0004001E051484068074667
:1047F000002050490988CDE900104D4801684E4815
:104800003A4603680220FFF78EFC02AA03A930464D
:10481000FFF750FD0446022C05D14348007880F094
:1048200001004149087039490398086038490298E5
:104830000860012037490860002037490860BDE85A
:10484000FF817CB53548047835480078201AC5B218
:10485000334804706A4601A92846FFF72BFD064637
:1048600016B90020019000902E480078012807D149
:104870003248007820B1694601A8FFF7C9FE04E07C
:1048800000201D4908701B490870204901980860E4
:104890001F490098086001201E49086000201E4939
:1048A00008607CBD10B526480078E0B1012804D02E
:1048B000022808D0032815D102E0FFF770FF15E0A9
:1048C000FFF7BFFF12E01F480068104908601E484C
:1048D00000680F49086001200E49086000200E4959
:1048E000086003E000BFFFF744FF00BF00BF10BD3A
:1048F00000002041C8000020C700002098000020D0
:104900009C000020CDCC4C3F8C00002050010020AA
:10491000540100206001002048010020D400002044
:1049200074000020A0000020C5000020C40000206A
:1049300078000020BC000020C0000020C60000203D
:1049400075000020900000209400002000B585B084
:10495000012144F20400FBF7EBFF4FF40070ADF8C7
:10496000100018208DF8130003208DF8120004A900
:10497000BB48FBF721FD4FF48060ADF81000042028
:104980008DF8130004A9B648FBF716FD4FF4E1308B
:1049900000900020ADF80400ADF80600ADF8080066
:1049A000ADF80C000C20ADF80A006946AD48FCF7E4
:1049B00074FF0121AB48FCF7FCFF05B000BD08B552
:1049C0004FF48060FBF79CFB27208DF8000004204B
:1049D0008DF8010001208DF802008DF80300684673
:1049E000FBF793FB08BD00B585B001218804FBF7F8
:1049F000ACFF01210820FBF79BFF4FF48060ADF86E
:104A0000100018208DF8130003208DF8120004A95F
:104A10009548FBF7D1FC4FF40060ADF8100004207E
:104A20008DF8130004A99048FBF7C6FCFFF7C7FFF9
:104A30004FF4165000900020ADF80400ADF80600C9
:104A4000ADF80800ADF80C000C20ADF80A0069467E
:104A50008648FCF722FF012240F225518348FCF7EB
:104A6000B4FF01218148FCF7A4FF05B000BD70B57B
:104A700004460D46E1B27B48FDF708F800BF40212F
:104A80007848FDF771F80128F9D1204670BDF0B5DE
:104A900003460D461646002729460A2E03D000205D
:104AA00008702846F0BD33B9302001F8010B002012
:104AB00008702846F6E7002B03DA2D2001F8010BD9
:104AC0005B4242F210720DE093FBF2F404B937B18D
:104AD00004F1300001F8010B04FB123301270A2016
:104AE00092FBF0F2002AEFDC002008702846D9E79C
:104AF0000FB470B586B006460CA8019073E00B9811
:104B000000785C281CD10B98401C0B9000786E2814
:104B100009D072280FD10D213046FCF7B7FF0B9852
:104B2000401C0B900BE00A213046FCF7AFFF0B98BE
:104B3000401C0B9003E00B98401C0B9000BF4BE017
:104B40000B980078252840D10B98401C0B900078DA
:104B5000642818D0732833D1019810C801900BE055
:104B600021783046FCF792FF00BF40213046FCF729
:104B7000FBFF0028F9D0641C20780028F0D10B98A6
:104B8000401C0B9020E0019820C801900A2202A945
:104B90002846FFF77CFF02AC0BE021783046FCF79B
:104BA00075FF00BF40213046FCF7DEFF0028F9D03A
:104BB000641C20780028F0D10B98401C0B9003E077
:104BC0000B98401C0B9000BF06E00B9810F8011BDF
:104BD0000B903046FCF75AFF00BF40213046FCF7EF
:104BE000C3FF0028F9D00B980078002887D106B0C1
:104BF00070BC5DF814FB10B5044621461948FCF75B
:104C000045FF00BF40211748FCF7AEFF0128F9D14E
:104C100010BD10B5044621461448FCF737FF00BF0D
:104C200040211248FCF7A0FF0128F9D110BD70B552
:104C300005462C4603E02078FFF7EBFF641C207844
:104C40000028F8D170BD70B505462C4603E02078E9
:104C5000FFF7D1FF641C20780028F8D170BD000058
:104C60000008014000380140000C014000480040AD
:104C70007FB504460D460121C802FBF759FE41F2FB
:104C80008830ADF8080041F61F40ADF8040001205F
:104C9000ADF80A000020ADF8060001A91148FBF7A5
:104CA0007FFF012241210F48FCF7F1FA19208DF80E
:104CB000000003208DF8010000208DF80200012083
:104CC0008DF803006846FBF720FA7FBD10B501217F
:104CD0000448FCF78AFD18B101210248FCF796FD53
:104CE00010BD0000002C01401FB501213D48FBF71D
:104CF00034FC01210920FBF71BFE0120ADF80C005C
:104D000010208DF80F0003208DF80E0003A93648FF
:104D1000FBF752FB0220ADF80C0028208DF80F00A5
:104D200003A93148FBF748FB01210846FBF75AFC71
:104D30000220019000208DF8080008208DF809005D
:104D400001208DF80A0001A8FBF756FA07208DF81C
:104D5000000003208DF8010001208DF802008DF87D
:104D600003006846FBF7D1F91FBD10B50220FBF721
:104D7000A9FA48B300211D48FCF702FD01211B4898
:104D8000FCF76AFA01201A49086012E01748FCF79C
:104D90001AFD3C2807DB00211448FCF75DFA0020CF
:104DA0001349086005E002210F48FBF798FB104902
:104DB00008600F4800680028E8D100210B48FCF784
:104DC0004BFA0220FBF78FFA10BD10B501210648FF
:104DD000FBF79FFB0C20FDF739FA01210248FBF796
:104DE0009AFB10BD00023000000C0140002C014075
:104DF000E401002000B587B001214FF40170FBF7FA
:104E000097FD4FF40040FBF7F7FC0120ADF80400DC
:104E100000208DF8070001A92348FBF7CDFA2348AD
:104E2000FCF7FCFE002002908DF80C008DF80D00C0
:104E30004FF4602004900020059001208DF81800A8
:104E400002A91A48FCF711FF01211848FCF739FFA5
:104E50001648FCF758FF00BF1448FCF759FF00281C
:104E6000FAD11248FCF75EFF00BF1048FCF75FFF65
:104E70000028FAD107B000BD10B50446072301226F
:104E800021460A48FCF789FF01210848FCF759FF31
:104E900000BF02210548FDF7C5F80028F9D00348F6
:104EA000FCF7E2FF10BD00000008014000240140B3
:104EB0000648804706480047FEE7FEE7FEE7FEE7B4
:104EC000FEE7FEE7FEE7FEE7FEE7FEE74B21000810
:104ED000ED00000838B50446FB4890F82400C0B146
:104EE00014B10220009001E000200090F64A126800
:104EF000D17BF54A526810786B460122FDF713FB0F
:104F000010B14FF0FF3038BD9DF80010EE484174ED
:104F100023E0ED48807A10B94FF0FF30F3E724B179
:104F2000E948407C08B10020EDE714B10120009071
:104F300001E000200090E44A1268D17BE24A526806
:104F400010786B460122FDF7EEFA10B14FF0FF30FA
:104F5000D9E79DF80010DC4841740020D3E738B54C
:104F6000002419E0D8480068C07AA04204D0D6488E
:104F70000068407DA04200D10CE0D3494968087820
:104F80006B4601222146FDF71DFB10B14FF0FF30AB
:104F900038BD00BF601CC4B2CB4840680079A04255
:104FA000E0DC0020F4E770B504460D46C648006812
:104FB000C07AA04204D0C4480068407DA04202D11B
:104FC0004FF0FF3070BDC04840680079A04202DC5D
:104FD0004FF0FF30F6E7BC49496808782B460122BC
:104FE0002146FDF7EFFAEDE738B50446B64890F8EC
:104FF0002300A04201D1002038BD14B13020009020
:1050000001E000200090B048807C20B19DF80000B5
:1050100040F002000090AC4890F8220020B19DF8CA
:10502000000040F080000090A74A1268117DA64A57
:10503000526810786B460122FDF775FA10B14FF0F7
:10504000FF30D9E7A04880F823400020D4E738B5E6
:10505000044604F0700010B10120009005E014B186
:105060000020009001E040200090974A1268917C57
:10507000954A526810786B460122FDF754FA20B128
:10508000002191488172481E38BD9DF8000020F033
:1050900040018D4801730020009004F0400020B9C9
:1050A0009DF8000040F00400009004F0200020B9BA
:1050B0009DF8000040F00200009004F0100020B9BC
:1050C0009DF8000040F00100009004F0080020B9B5
:1050D0009DF8000040F0380000907B4A1268D17CB7
:1050E000794A526810786B460122FDF71CFA20B10C
:1050F000002175488172481EC6E724B1082C02D0F1
:105100000020FFF771FF7048847200210175322082
:10511000FDF7A9F80020B7E738B504466A48807C57
:10512000A04201D1002038BD002C46D0664A12684A
:105130001179654A526810786B460122FDF742FAF0
:1051400010B14FF0FF30EEE79DF8000020F0200096
:1051500000905D4A126811795B4A526810786B467C
:105160000122FDF7E0F910B14FF0FF30DBE703203B
:10517000FDF779F802200090534890F8220020B102
:105180009DF8000040F0800000904F4890F8230008
:1051900020B19DF8000040F0300000904A4A1268AB
:1051A000117D494A526810786B460122FDF7BBF920
:1051B000002851D04FF0FF30B5E7434A126811790B
:1051C000414A526810786B460122FDF7FBF910B195
:1051D0004FF0FF30A7E73C48807A00F0010028B18B
:1051E0009DF8000040F02000009004E09DF80000D1
:1051F00020F020000090344A12681179324A526837
:1052000010786B460122FDF78EF910B14FF0FF3098
:1052100089E70320FDF727F82B4890F8220010B10A
:105220008020009001E000200090274890F82300A3
:1052300020B19DF8000040F030000090224A126832
:10524000117D214A526810786B460122FDF76BF9F7
:1052500010B14FF0FF3066E71B488474002062E70E
:1052600008B51948807A10B94FF0FF3008BD00200A
:105270000090154A1268D17B134A526810786B4629
:105280000122FDF750F910B14FF0FF30EEE70E4A62
:10529000126851790C4A526810786B460122FDF76A
:1052A00042F910B14FF0FF30E0E7074A1268117978
:1052B000054A526810786B460122FDF734F928B18F
:1052C0004FF0FF30D2E70000E8010020F74890F8E7
:1052D0002400002853D00C200090F44A1268117961
:1052E000F24A526810786B460122FDF71CF910B1A2
:1052F0004FF0FF30BAE73220FCF7B5FFC020009036
:10530000EA48807A00F0010020B19DF8000040F0EA
:1053100020000090E54A12681179E44A526810783A
:105320006B460122FDF7FFF810B14FF0FF309DE70B
:10533000DE48407C10B10220009001E00020009087
:10534000DA4A1268D17BD94A526810786B4601223A
:10535000FDF7E9F810B14FF0FF3087E7002000902B
:10536000D24A12685179D14A526810786B460122AC
:10537000FDF7D9F8002855D04FF0FF3076E704202C
:105380000090CA4A12681179C84A526810786B4670
:105390000122FDF7C8F810B14FF0FF3066E7C348AF
:1053A000807C20B9C148807A00F0010010B940200B
:1053B000009001E060200090BC4A12681179BB4A5D
:1053C000526810786B460122FDF7ADF810B14FF02E
:1053D000FF304BE73220FCF746FFB448407C10B169
:1053E0000120009001E000200090B04A1268D17BBB
:1053F000AE4A526810786B460122FDF794F810B15E
:105400004FF0FF3032E7A94A12685179A74A526833
:105410001078A64B10330122FDF785F810B14FF03C
:10542000FF3023E7002021E770B50446002624F072
:1054300001049E4890F8240008B1002070BD9B48EC
:10544000807A10B94FF0FF30F8E79848057C807AF1
:105450002040964908740846007CA04202D04FF0D4
:10546000FF3600E0002614B99048007D18B10120F5
:10547000FFF730FD02E00020FFF72CFD3CB1FFF705
:10548000EFFE20B1894805744FF0FF30D6E7304673
:10549000D4E738B504468548807A10B94FF0FF301C
:1054A00038BDBC2C02DB0120009015E0622C02DB31
:1054B0000220009010E02A2C02DB032000900BE079
:1054C000142C02DB0420009006E00A2C02DB0520ED
:1054D000009001E0062000907448C07A9DF800100A
:1054E000884201D10020DBE7704A126891786F4A48
:1054F000526810786B460122FDF715F810B14FF095
:10550000FF30CDE79DF800106848C1720020C7E762
:1055100038B50446282C02DD4FF0FF3038BDDCB929
:105520000020FFF761FD00208DF8000007208DF8B6
:1055300001005E4A1268917C5C4A526810786B46A2
:105540000222FCF7F0FF10B14FF0FF30E6E7002138
:10555000564801750020E1E70120FFF745FD2020B6
:105560008DF80000012C06D100208DF801000520E7
:10557000FFF78FFF17E0052C06DC01208DF80100F6
:105580000520FFF786FF0EE0142C06DC02208DF8C4
:1055900001000A20FFF77DFF05E003208DF80100E0
:1055A0001420FFF776FF9DF80100072101EB801022
:1055B000C0B28DF801003D4A1268917C3B4A5268A6
:1055C00010786B460222FCF7AEFF10B14FF0FF30AF
:1055D000A4E708213548817200210173012101757A
:1055E0000020FFF721FF002098E738B504462F4838
:1055F000807A10B94FF0FF3038BD2C4890F8240065
:1056000010B14FF0FF30F7E72848007D50B134B1BA
:10561000282C04DCE0B2FFF77BFF0020ECE7002041
:10562000FFF776FF042C01DA042404E0B4F57A7F56
:1056300001DD4FF47A744FF47A7090FBF4F0401E61
:10564000C0B20090194A12685178184A526810780E
:105650006B460122FCF767FF10B14FF0FF30CBE73C
:105660009DF80000401C4FF47A7191FBF0F081B27C
:105670000E48C1810146C9894810FFF70AFF002082
:10568000BAE738B504460948807A10B94FF0FF30C0
:1056900038BD022C06D0042C0AD0082C0BD0102CBC
:1056A0000FD10BE0002000900EE00000E801002088
:1056B0000820009008E01020009005E018200090DD
:1056C00002E04FF0FF30E3E700BFF848407A9DF872
:1056D0000010B0EBE10F01D10020D9E7F34A1268C6
:1056E000D179F24A526810786B460122FCF71BFF11
:1056F00010B14FF0FF30CBE79DF80000C110EB4830
:1057000041720020C4E738B50446E848807A10B9F1
:105710004FF0FF3038BDFA2C09D0B4F5FA7F09D02C
:10572000B4F57A7F09D0B4F5FA6F0CD108E0002007
:1057300000900BE00820009008E01020009005E0A9
:105740001820009002E04FF0FF30E3E700BFD74899
:10575000007A9DF80010B0EBE10F01D10020D9E7ED
:10576000D24A12689179D14A526810786B46012268
:10577000FCF7D9FE10B14FF0FF30CBE79DF80000E9
:10578000C010CA4908720020C4E71CB580208DF8FB
:105790000000C64A1268917CC44A526810786B4671
:1057A0000122FCF7C0FE10B14FF0FF301CBD642099
:1057B000FCF759FD00208DF80000BC4A1268917C6E
:1057C000BA4A526810786B460122FCF7ACFE10B161
:1057D0004FF0FF30EAE7B54A1268917DB34A52684C
:1057E00010786B460622FCF7EDFE10B14FF0FF304B
:1057F000DCE79DF80500C007400F9DF8031001F09D
:10580000010140EA41009DF8011001F0010140EA68
:1058100001048CB1012C03D10121A448C17430E0F2
:10582000022C03D10021A148C1742AE0A0A0FFF7F7
:105830000AFA4FF0FF30B9E79C4A1268D1789B4AC8
:10584000526810786B460122FCF7BCFE10B14FF095
:10585000FF30ABE79DF8000000F00F042CB99E4824
:10586000FFF7F1F94FF0FF30A0E7042C06D19BA021
:10587000FFF7E9F901218D48C17402E000218B484E
:10588000C174FF2189488172FF2088490872FF2175
:1058900086484172C1724FF6FF71C181FF210174C8
:1058A00081740121017380F82210002180F82310F7
:1058B000417501751630016041608160163880F8CD
:1058C000241080F82510C1844FF4FA60FFF71BFF05
:1058D00010B14FF0FF3069E70220FFF7D2FE10B1A0
:1058E0004FF0FF3062E72A20FFF7D3FD10B14FF0F1
:1058F000FF305BE73220FFF778FE10B14FF0FF304A
:1059000054E70020FFF790FD10B14FF0FF304DE756
:105910000020FFF701FC10B14FF0FF3046E70020F8
:10592000FFF795FB002041E77CB504460D465F4834
:10593000807A00F0700010B94FF0FF307CBD5B4AF8
:105940001268117B594A526810786B460622FCF7A0
:1059500039FE10B14FF0FF30F0E79DF801009DF8DF
:10596000001040EA012000B220809DF803009DF85D
:10597000021040EA012000B260809DF805009DF809
:10598000041040EA012000B2A08015B12846FCF7BF
:1059900076FC0020D2E77CB504460D464348807A69
:1059A00000F0080010B94FF0FF307CBD3F4A12688C
:1059B000517B3E4A526810786B460622FCF702FE85
:1059C00010B14FF0FF30F0E79DF801009DF8001096
:1059D00040EA012000B220809DF803009DF80210EB
:1059E00040EA012000B260809DF805009DF8041097
:1059F00040EA012000B2A08015B12846FCF73FFC28
:105A00000020D2E72DE9FE4F05460C462748807A54
:105A100018B94FF0FF30BDE8FE8F244A1268917B21
:105A2000224A5268107802AB0222FCF7CBFD10B17B
:105A30004FF0FF30EFE79DF809009DF8081040EAAD
:105A4000012006B214B12046FCF719FC1749496839
:105A5000C88802F0B6FB154901904968B1F9080001
:105A600002F0A6FB8346304602F0A2FB59460090A6
:105A700002F0A0F98246019902F0D4F981461F494B
:105A800002F046F980464FF08F4102F099F907463F
:105A900002F0ADFB28600020BDE710B588B00446D9
:105AA0001CB94FF0FF3008B010BD29E0E80100201C
:105AB000556E737570706F7274656420736F667461
:105AC000776172652070726F647563742072657699
:105AD0002025642E0A00000030AC000848616C6686
